{
	"blockchain/real_estate2.sol": {
		"RealEstateSale": {
			"abi": [
				{
					"inputs": [
						{
							"internalType": "address payable",
							"name": "_seller",
							"type": "address"
						},
						{
							"internalType": "string",
							"name": "_propertyAddress",
							"type": "string"
						},
						{
							"internalType": "uint256",
							"name": "_purchasePrice",
							"type": "uint256"
						}
					],
					"stateMutability": "nonpayable",
					"type": "constructor"
				},
				{
					"inputs": [],
					"name": "buy",
					"outputs": [],
					"stateMutability": "payable",
					"type": "function"
				},
				{
					"inputs": [],
					"name": "buyer",
					"outputs": [
						{
							"internalType": "address payable",
							"name": "",
							"type": "address"
						}
					],
					"stateMutability": "view",
					"type": "function"
				},
				{
					"inputs": [],
					"name": "isPaid",
					"outputs": [
						{
							"internalType": "bool",
							"name": "",
							"type": "bool"
						}
					],
					"stateMutability": "view",
					"type": "function"
				},
				{
					"inputs": [],
					"name": "propertyAddress",
					"outputs": [
						{
							"internalType": "string",
							"name": "",
							"type": "string"
						}
					],
					"stateMutability": "view",
					"type": "function"
				},
				{
					"inputs": [],
					"name": "purchasePrice",
					"outputs": [
						{
							"internalType": "uint256",
							"name": "",
							"type": "uint256"
						}
					],
					"stateMutability": "view",
					"type": "function"
				},
				{
					"inputs": [],
					"name": "seller",
					"outputs": [
						{
							"internalType": "address payable",
							"name": "",
							"type": "address"
						}
					],
					"stateMutability": "view",
					"type": "function"
				},
				{
					"inputs": [],
					"name": "transfer",
					"outputs": [],
					"stateMutability": "nonpayable",
					"type": "function"
				}
			],
			"devdoc": {
				"kind": "dev",
				"methods": {},
				"version": 1
			},
			"evm": {
				"assembly": "    /* \"blockchain/real_estate2.sol\":60:805  contract RealEstateSale {\r... */\n  mstore(0x40, 0x80)\n    /* \"blockchain/real_estate2.sol\":257:468  constructor(address payable _seller, string memory _propertyAddress, uint _purchasePrice) {\r... */\n  callvalue\n  dup1\n  iszero\n  tag_1\n  jumpi\n  0x00\n  dup1\n  revert\ntag_1:\n  pop\n  mload(0x40)\n  sub(codesize, bytecodeSize)\n  dup1\n  bytecodeSize\n  dup4\n  codecopy\n  dup2\n  dup2\n  add\n  0x40\n  mstore\n  dup2\n  add\n  swap1\n  tag_2\n  swap2\n  swap1\n  tag_3\n  jump\t// in\ntag_2:\n    /* \"blockchain/real_estate2.sol\":367:374  _seller */\n  dup3\n    /* \"blockchain/real_estate2.sol\":358:364  seller */\n  0x00\n  dup1\n    /* \"blockchain/real_estate2.sol\":358:374  seller = _seller */\n  0x0100\n  exp\n  dup2\n  sload\n  dup2\n  0xffffffffffffffffffffffffffffffffffffffff\n  mul\n  not\n  and\n  swap1\n  dup4\n  0xffffffffffffffffffffffffffffffffffffffff\n  and\n  mul\n  or\n  swap1\n  sstore\n  pop\n    /* \"blockchain/real_estate2.sol\":403:419  _propertyAddress */\n  dup2\n    /* \"blockchain/real_estate2.sol\":385:400  propertyAddress */\n  0x02\n    /* \"blockchain/real_estate2.sol\":385:419  propertyAddress = _propertyAddress */\n  swap1\n  dup1\n  mload\n  swap1\n  0x20\n  add\n  swap1\n  tag_6\n  swap3\n  swap2\n  swap1\n  tag_7\n  jump\t// in\ntag_6:\n  pop\n    /* \"blockchain/real_estate2.sol\":446:460  _purchasePrice */\n  dup1\n    /* \"blockchain/real_estate2.sol\":430:443  purchasePrice */\n  0x03\n    /* \"blockchain/real_estate2.sol\":430:460  purchasePrice = _purchasePrice */\n  dup2\n  swap1\n  sstore\n  pop\n    /* \"blockchain/real_estate2.sol\":257:468  constructor(address payable _seller, string memory _propertyAddress, uint _purchasePrice) {\r... */\n  pop\n  pop\n  pop\n    /* \"blockchain/real_estate2.sol\":60:805  contract RealEstateSale {\r... */\n  jump(tag_8)\ntag_7:\n  dup3\n  dup1\n  sload\n  tag_9\n  swap1\n  tag_10\n  jump\t// in\ntag_9:\n  swap1\n  0x00\n  mstore\n  keccak256(0x00, 0x20)\n  swap1\n  0x1f\n  add\n  0x20\n  swap1\n  div\n  dup2\n  add\n  swap3\n  dup3\n  tag_12\n  jumpi\n  0x00\n  dup6\n  sstore\n  jump(tag_11)\ntag_12:\n  dup3\n  0x1f\n  lt\n  tag_13\n  jumpi\n  dup1\n  mload\n  not(0xff)\n  and\n  dup4\n  dup1\n  add\n  or\n  dup6\n  sstore\n  jump(tag_11)\ntag_13:\n  dup3\n  dup1\n  add\n  0x01\n  add\n  dup6\n  sstore\n  dup3\n  iszero\n  tag_11\n  jumpi\n  swap2\n  dup3\n  add\ntag_14:\n  dup3\n  dup2\n  gt\n  iszero\n  tag_15\n  jumpi\n  dup3\n  mload\n  dup3\n  sstore\n  swap2\n  0x20\n  add\n  swap2\n  swap1\n  0x01\n  add\n  swap1\n  jump(tag_14)\ntag_15:\ntag_11:\n  pop\n  swap1\n  pop\n  tag_16\n  swap2\n  swap1\n  tag_17\n  jump\t// in\ntag_16:\n  pop\n  swap1\n  jump\t// out\ntag_17:\ntag_18:\n  dup1\n  dup3\n  gt\n  iszero\n  tag_19\n  jumpi\n  0x00\n  dup2\n  0x00\n  swap1\n  sstore\n  pop\n  0x01\n  add\n  jump(tag_18)\ntag_19:\n  pop\n  swap1\n  jump\t// out\n    /* \"#utility.yul\":7:428   */\ntag_21:\n    /* \"#utility.yul\":96:101   */\n  0x00\n    /* \"#utility.yul\":121:187   */\n  tag_23\n    /* \"#utility.yul\":137:186   */\n  tag_24\n    /* \"#utility.yul\":179:185   */\n  dup5\n    /* \"#utility.yul\":137:186   */\n  tag_25\n  jump\t// in\ntag_24:\n    /* \"#utility.yul\":121:187   */\n  tag_26\n  jump\t// in\ntag_23:\n    /* \"#utility.yul\":112:187   */\n  swap1\n  pop\n    /* \"#utility.yul\":210:216   */\n  dup3\n    /* \"#utility.yul\":203:208   */\n  dup2\n    /* \"#utility.yul\":196:217   */\n  mstore\n    /* \"#utility.yul\":248:252   */\n  0x20\n    /* \"#utility.yul\":241:246   */\n  dup2\n    /* \"#utility.yul\":237:253   */\n  add\n    /* \"#utility.yul\":286:289   */\n  dup5\n    /* \"#utility.yul\":277:283   */\n  dup5\n    /* \"#utility.yul\":272:275   */\n  dup5\n    /* \"#utility.yul\":268:284   */\n  add\n    /* \"#utility.yul\":265:290   */\n  gt\n    /* \"#utility.yul\":262:374   */\n  iszero\n  tag_27\n  jumpi\n    /* \"#utility.yul\":293:372   */\n  tag_28\n  tag_29\n  jump\t// in\ntag_28:\n    /* \"#utility.yul\":262:374   */\ntag_27:\n    /* \"#utility.yul\":383:422   */\n  tag_30\n    /* \"#utility.yul\":415:421   */\n  dup5\n    /* \"#utility.yul\":410:413   */\n  dup3\n    /* \"#utility.yul\":405:408   */\n  dup6\n    /* \"#utility.yul\":383:422   */\n  tag_31\n  jump\t// in\ntag_30:\n    /* \"#utility.yul\":102:428   */\n  pop\n    /* \"#utility.yul\":7:428   */\n  swap4\n  swap3\n  pop\n  pop\n  pop\n  jump\t// out\n    /* \"#utility.yul\":434:593   */\ntag_32:\n    /* \"#utility.yul\":499:504   */\n  0x00\n    /* \"#utility.yul\":530:536   */\n  dup2\n    /* \"#utility.yul\":524:537   */\n  mload\n    /* \"#utility.yul\":515:537   */\n  swap1\n  pop\n    /* \"#utility.yul\":546:587   */\n  tag_34\n    /* \"#utility.yul\":581:586   */\n  dup2\n    /* \"#utility.yul\":546:587   */\n  tag_35\n  jump\t// in\ntag_34:\n    /* \"#utility.yul\":434:593   */\n  swap3\n  swap2\n  pop\n  pop\n  jump\t// out\n    /* \"#utility.yul\":613:968   */\ntag_36:\n    /* \"#utility.yul\":680:685   */\n  0x00\n    /* \"#utility.yul\":729:732   */\n  dup3\n    /* \"#utility.yul\":722:726   */\n  0x1f\n    /* \"#utility.yul\":714:720   */\n  dup4\n    /* \"#utility.yul\":710:727   */\n  add\n    /* \"#utility.yul\":706:733   */\n  slt\n    /* \"#utility.yul\":696:818   */\n  tag_38\n  jumpi\n    /* \"#utility.yul\":737:816   */\n  tag_39\n  tag_40\n  jump\t// in\ntag_39:\n    /* \"#utility.yul\":696:818   */\ntag_38:\n    /* \"#utility.yul\":847:853   */\n  dup2\n    /* \"#utility.yul\":841:854   */\n  mload\n    /* \"#utility.yul\":872:962   */\n  tag_41\n    /* \"#utility.yul\":958:961   */\n  dup5\n    /* \"#utility.yul\":950:956   */\n  dup3\n    /* \"#utility.yul\":943:947   */\n  0x20\n    /* \"#utility.yul\":935:941   */\n  dup7\n    /* \"#utility.yul\":931:948   */\n  add\n    /* \"#utility.yul\":872:962   */\n  tag_21\n  jump\t// in\ntag_41:\n    /* \"#utility.yul\":863:962   */\n  swap2\n  pop\n    /* \"#utility.yul\":686:968   */\n  pop\n    /* \"#utility.yul\":613:968   */\n  swap3\n  swap2\n  pop\n  pop\n  jump\t// out\n    /* \"#utility.yul\":974:1117   */\ntag_42:\n    /* \"#utility.yul\":1031:1036   */\n  0x00\n    /* \"#utility.yul\":1062:1068   */\n  dup2\n    /* \"#utility.yul\":1056:1069   */\n  mload\n    /* \"#utility.yul\":1047:1069   */\n  swap1\n  pop\n    /* \"#utility.yul\":1078:1111   */\n  tag_44\n    /* \"#utility.yul\":1105:1110   */\n  dup2\n    /* \"#utility.yul\":1078:1111   */\n  tag_45\n  jump\t// in\ntag_44:\n    /* \"#utility.yul\":974:1117   */\n  swap3\n  swap2\n  pop\n  pop\n  jump\t// out\n    /* \"#utility.yul\":1123:1975   */\ntag_3:\n    /* \"#utility.yul\":1229:1235   */\n  0x00\n    /* \"#utility.yul\":1237:1243   */\n  dup1\n    /* \"#utility.yul\":1245:1251   */\n  0x00\n    /* \"#utility.yul\":1294:1296   */\n  0x60\n    /* \"#utility.yul\":1282:1291   */\n  dup5\n    /* \"#utility.yul\":1273:1280   */\n  dup7\n    /* \"#utility.yul\":1269:1292   */\n  sub\n    /* \"#utility.yul\":1265:1297   */\n  slt\n    /* \"#utility.yul\":1262:1381   */\n  iszero\n  tag_47\n  jumpi\n    /* \"#utility.yul\":1300:1379   */\n  tag_48\n  tag_49\n  jump\t// in\ntag_48:\n    /* \"#utility.yul\":1262:1381   */\ntag_47:\n    /* \"#utility.yul\":1420:1421   */\n  0x00\n    /* \"#utility.yul\":1445:1517   */\n  tag_50\n    /* \"#utility.yul\":1509:1516   */\n  dup7\n    /* \"#utility.yul\":1500:1506   */\n  dup3\n    /* \"#utility.yul\":1489:1498   */\n  dup8\n    /* \"#utility.yul\":1485:1507   */\n  add\n    /* \"#utility.yul\":1445:1517   */\n  tag_32\n  jump\t// in\ntag_50:\n    /* \"#utility.yul\":1435:1517   */\n  swap4\n  pop\n    /* \"#utility.yul\":1391:1527   */\n  pop\n    /* \"#utility.yul\":1587:1589   */\n  0x20\n    /* \"#utility.yul\":1576:1585   */\n  dup5\n    /* \"#utility.yul\":1572:1590   */\n  add\n    /* \"#utility.yul\":1566:1591   */\n  mload\n    /* \"#utility.yul\":1618:1636   */\n  0xffffffffffffffff\n    /* \"#utility.yul\":1610:1616   */\n  dup2\n    /* \"#utility.yul\":1607:1637   */\n  gt\n    /* \"#utility.yul\":1604:1721   */\n  iszero\n  tag_51\n  jumpi\n    /* \"#utility.yul\":1640:1719   */\n  tag_52\n  tag_53\n  jump\t// in\ntag_52:\n    /* \"#utility.yul\":1604:1721   */\ntag_51:\n    /* \"#utility.yul\":1745:1819   */\n  tag_54\n    /* \"#utility.yul\":1811:1818   */\n  dup7\n    /* \"#utility.yul\":1802:1808   */\n  dup3\n    /* \"#utility.yul\":1791:1800   */\n  dup8\n    /* \"#utility.yul\":1787:1809   */\n  add\n    /* \"#utility.yul\":1745:1819   */\n  tag_36\n  jump\t// in\ntag_54:\n    /* \"#utility.yul\":1735:1819   */\n  swap3\n  pop\n    /* \"#utility.yul\":1537:1829   */\n  pop\n    /* \"#utility.yul\":1868:1870   */\n  0x40\n    /* \"#utility.yul\":1894:1958   */\n  tag_55\n    /* \"#utility.yul\":1950:1957   */\n  dup7\n    /* \"#utility.yul\":1941:1947   */\n  dup3\n    /* \"#utility.yul\":1930:1939   */\n  dup8\n    /* \"#utility.yul\":1926:1948   */\n  add\n    /* \"#utility.yul\":1894:1958   */\n  tag_42\n  jump\t// in\ntag_55:\n    /* \"#utility.yul\":1884:1958   */\n  swap2\n  pop\n    /* \"#utility.yul\":1839:1968   */\n  pop\n    /* \"#utility.yul\":1123:1975   */\n  swap3\n  pop\n  swap3\n  pop\n  swap3\n  jump\t// out\n    /* \"#utility.yul\":1981:2110   */\ntag_26:\n    /* \"#utility.yul\":2015:2021   */\n  0x00\n    /* \"#utility.yul\":2042:2062   */\n  tag_57\n  tag_58\n  jump\t// in\ntag_57:\n    /* \"#utility.yul\":2032:2062   */\n  swap1\n  pop\n    /* \"#utility.yul\":2071:2104   */\n  tag_59\n    /* \"#utility.yul\":2099:2103   */\n  dup3\n    /* \"#utility.yul\":2091:2097   */\n  dup3\n    /* \"#utility.yul\":2071:2104   */\n  tag_60\n  jump\t// in\ntag_59:\n    /* \"#utility.yul\":1981:2110   */\n  swap2\n  swap1\n  pop\n  jump\t// out\n    /* \"#utility.yul\":2116:2191   */\ntag_58:\n    /* \"#utility.yul\":2149:2155   */\n  0x00\n    /* \"#utility.yul\":2182:2184   */\n  0x40\n    /* \"#utility.yul\":2176:2185   */\n  mload\n    /* \"#utility.yul\":2166:2185   */\n  swap1\n  pop\n    /* \"#utility.yul\":2116:2191   */\n  swap1\n  jump\t// out\n    /* \"#utility.yul\":2197:2505   */\ntag_25:\n    /* \"#utility.yul\":2259:2263   */\n  0x00\n    /* \"#utility.yul\":2349:2367   */\n  0xffffffffffffffff\n    /* \"#utility.yul\":2341:2347   */\n  dup3\n    /* \"#utility.yul\":2338:2368   */\n  gt\n    /* \"#utility.yul\":2335:2391   */\n  iszero\n  tag_63\n  jumpi\n    /* \"#utility.yul\":2371:2389   */\n  tag_64\n  tag_65\n  jump\t// in\ntag_64:\n    /* \"#utility.yul\":2335:2391   */\ntag_63:\n    /* \"#utility.yul\":2409:2438   */\n  tag_66\n    /* \"#utility.yul\":2431:2437   */\n  dup3\n    /* \"#utility.yul\":2409:2438   */\n  tag_67\n  jump\t// in\ntag_66:\n    /* \"#utility.yul\":2401:2438   */\n  swap1\n  pop\n    /* \"#utility.yul\":2493:2497   */\n  0x20\n    /* \"#utility.yul\":2487:2491   */\n  dup2\n    /* \"#utility.yul\":2483:2498   */\n  add\n    /* \"#utility.yul\":2475:2498   */\n  swap1\n  pop\n    /* \"#utility.yul\":2197:2505   */\n  swap2\n  swap1\n  pop\n  jump\t// out\n    /* \"#utility.yul\":2511:2615   */\ntag_68:\n    /* \"#utility.yul\":2556:2563   */\n  0x00\n    /* \"#utility.yul\":2585:2609   */\n  tag_70\n    /* \"#utility.yul\":2603:2608   */\n  dup3\n    /* \"#utility.yul\":2585:2609   */\n  tag_71\n  jump\t// in\ntag_70:\n    /* \"#utility.yul\":2574:2609   */\n  swap1\n  pop\n    /* \"#utility.yul\":2511:2615   */\n  swap2\n  swap1\n  pop\n  jump\t// out\n    /* \"#utility.yul\":2621:2747   */\ntag_71:\n    /* \"#utility.yul\":2658:2665   */\n  0x00\n    /* \"#utility.yul\":2698:2740   */\n  0xffffffffffffffffffffffffffffffffffffffff\n    /* \"#utility.yul\":2691:2696   */\n  dup3\n    /* \"#utility.yul\":2687:2741   */\n  and\n    /* \"#utility.yul\":2676:2741   */\n  swap1\n  pop\n    /* \"#utility.yul\":2621:2747   */\n  swap2\n  swap1\n  pop\n  jump\t// out\n    /* \"#utility.yul\":2753:2830   */\ntag_73:\n    /* \"#utility.yul\":2790:2797   */\n  0x00\n    /* \"#utility.yul\":2819:2824   */\n  dup2\n    /* \"#utility.yul\":2808:2824   */\n  swap1\n  pop\n    /* \"#utility.yul\":2753:2830   */\n  swap2\n  swap1\n  pop\n  jump\t// out\n    /* \"#utility.yul\":2836:3143   */\ntag_31:\n    /* \"#utility.yul\":2904:2905   */\n  0x00\n    /* \"#utility.yul\":2914:3027   */\ntag_76:\n    /* \"#utility.yul\":2928:2934   */\n  dup4\n    /* \"#utility.yul\":2925:2926   */\n  dup2\n    /* \"#utility.yul\":2922:2935   */\n  lt\n    /* \"#utility.yul\":2914:3027   */\n  iszero\n  tag_78\n  jumpi\n    /* \"#utility.yul\":3013:3014   */\n  dup1\n    /* \"#utility.yul\":3008:3011   */\n  dup3\n    /* \"#utility.yul\":3004:3015   */\n  add\n    /* \"#utility.yul\":2998:3016   */\n  mload\n    /* \"#utility.yul\":2994:2995   */\n  dup2\n    /* \"#utility.yul\":2989:2992   */\n  dup5\n    /* \"#utility.yul\":2985:2996   */\n  add\n    /* \"#utility.yul\":2978:3017   */\n  mstore\n    /* \"#utility.yul\":2950:2952   */\n  0x20\n    /* \"#utility.yul\":2947:2948   */\n  dup2\n    /* \"#utility.yul\":2943:2953   */\n  add\n    /* \"#utility.yul\":2938:2953   */\n  swap1\n  pop\n    /* \"#utility.yul\":2914:3027   */\n  jump(tag_76)\ntag_78:\n    /* \"#utility.yul\":3045:3051   */\n  dup4\n    /* \"#utility.yul\":3042:3043   */\n  dup2\n    /* \"#utility.yul\":3039:3052   */\n  gt\n    /* \"#utility.yul\":3036:3137   */\n  iszero\n  tag_79\n  jumpi\n    /* \"#utility.yul\":3125:3126   */\n  0x00\n    /* \"#utility.yul\":3116:3122   */\n  dup5\n    /* \"#utility.yul\":3111:3114   */\n  dup5\n    /* \"#utility.yul\":3107:3123   */\n  add\n    /* \"#utility.yul\":3100:3127   */\n  mstore\n    /* \"#utility.yul\":3036:3137   */\ntag_79:\n    /* \"#utility.yul\":2885:3143   */\n  pop\n    /* \"#utility.yul\":2836:3143   */\n  pop\n  pop\n  pop\n  jump\t// out\n    /* \"#utility.yul\":3149:3469   */\ntag_10:\n    /* \"#utility.yul\":3193:3199   */\n  0x00\n    /* \"#utility.yul\":3230:3231   */\n  0x02\n    /* \"#utility.yul\":3224:3228   */\n  dup3\n    /* \"#utility.yul\":3220:3232   */\n  div\n    /* \"#utility.yul\":3210:3232   */\n  swap1\n  pop\n    /* \"#utility.yul\":3277:3278   */\n  0x01\n    /* \"#utility.yul\":3271:3275   */\n  dup3\n    /* \"#utility.yul\":3267:3279   */\n  and\n    /* \"#utility.yul\":3298:3316   */\n  dup1\n    /* \"#utility.yul\":3288:3369   */\n  tag_81\n  jumpi\n    /* \"#utility.yul\":3354:3358   */\n  0x7f\n    /* \"#utility.yul\":3346:3352   */\n  dup3\n    /* \"#utility.yul\":3342:3359   */\n  and\n    /* \"#utility.yul\":3332:3359   */\n  swap2\n  pop\n    /* \"#utility.yul\":3288:3369   */\ntag_81:\n    /* \"#utility.yul\":3416:3418   */\n  0x20\n    /* \"#utility.yul\":3408:3414   */\n  dup3\n    /* \"#utility.yul\":3405:3419   */\n  lt\n    /* \"#utility.yul\":3385:3403   */\n  dup2\n    /* \"#utility.yul\":3382:3420   */\n  eq\n    /* \"#utility.yul\":3379:3463   */\n  iszero\n  tag_82\n  jumpi\n    /* \"#utility.yul\":3435:3453   */\n  tag_83\n  tag_84\n  jump\t// in\ntag_83:\n    /* \"#utility.yul\":3379:3463   */\ntag_82:\n    /* \"#utility.yul\":3200:3469   */\n  pop\n    /* \"#utility.yul\":3149:3469   */\n  swap2\n  swap1\n  pop\n  jump\t// out\n    /* \"#utility.yul\":3475:3756   */\ntag_60:\n    /* \"#utility.yul\":3558:3585   */\n  tag_86\n    /* \"#utility.yul\":3580:3584   */\n  dup3\n    /* \"#utility.yul\":3558:3585   */\n  tag_67\n  jump\t// in\ntag_86:\n    /* \"#utility.yul\":3550:3556   */\n  dup2\n    /* \"#utility.yul\":3546:3586   */\n  add\n    /* \"#utility.yul\":3688:3694   */\n  dup2\n    /* \"#utility.yul\":3676:3686   */\n  dup2\n    /* \"#utility.yul\":3673:3695   */\n  lt\n    /* \"#utility.yul\":3652:3670   */\n  0xffffffffffffffff\n    /* \"#utility.yul\":3640:3650   */\n  dup3\n    /* \"#utility.yul\":3637:3671   */\n  gt\n    /* \"#utility.yul\":3634:3696   */\n  or\n    /* \"#utility.yul\":3631:3719   */\n  iszero\n  tag_87\n  jumpi\n    /* \"#utility.yul\":3699:3717   */\n  tag_88\n  tag_65\n  jump\t// in\ntag_88:\n    /* \"#utility.yul\":3631:3719   */\ntag_87:\n    /* \"#utility.yul\":3739:3749   */\n  dup1\n    /* \"#utility.yul\":3735:3737   */\n  0x40\n    /* \"#utility.yul\":3728:3750   */\n  mstore\n    /* \"#utility.yul\":3518:3756   */\n  pop\n    /* \"#utility.yul\":3475:3756   */\n  pop\n  pop\n  jump\t// out\n    /* \"#utility.yul\":3762:3942   */\ntag_84:\n    /* \"#utility.yul\":3810:3887   */\n  0x4e487b7100000000000000000000000000000000000000000000000000000000\n    /* \"#utility.yul\":3807:3808   */\n  0x00\n    /* \"#utility.yul\":3800:3888   */\n  mstore\n    /* \"#utility.yul\":3907:3911   */\n  0x22\n    /* \"#utility.yul\":3904:3905   */\n  0x04\n    /* \"#utility.yul\":3897:3912   */\n  mstore\n    /* \"#utility.yul\":3931:3935   */\n  0x24\n    /* \"#utility.yul\":3928:3929   */\n  0x00\n    /* \"#utility.yul\":3921:3936   */\n  revert\n    /* \"#utility.yul\":3948:4128   */\ntag_65:\n    /* \"#utility.yul\":3996:4073   */\n  0x4e487b7100000000000000000000000000000000000000000000000000000000\n    /* \"#utility.yul\":3993:3994   */\n  0x00\n    /* \"#utility.yul\":3986:4074   */\n  mstore\n    /* \"#utility.yul\":4093:4097   */\n  0x41\n    /* \"#utility.yul\":4090:4091   */\n  0x04\n    /* \"#utility.yul\":4083:4098   */\n  mstore\n    /* \"#utility.yul\":4117:4121   */\n  0x24\n    /* \"#utility.yul\":4114:4115   */\n  0x00\n    /* \"#utility.yul\":4107:4122   */\n  revert\n    /* \"#utility.yul\":4134:4251   */\ntag_40:\n    /* \"#utility.yul\":4243:4244   */\n  0x00\n    /* \"#utility.yul\":4240:4241   */\n  dup1\n    /* \"#utility.yul\":4233:4245   */\n  revert\n    /* \"#utility.yul\":4257:4374   */\ntag_29:\n    /* \"#utility.yul\":4366:4367   */\n  0x00\n    /* \"#utility.yul\":4363:4364   */\n  dup1\n    /* \"#utility.yul\":4356:4368   */\n  revert\n    /* \"#utility.yul\":4380:4497   */\ntag_53:\n    /* \"#utility.yul\":4489:4490   */\n  0x00\n    /* \"#utility.yul\":4486:4487   */\n  dup1\n    /* \"#utility.yul\":4479:4491   */\n  revert\n    /* \"#utility.yul\":4503:4620   */\ntag_49:\n    /* \"#utility.yul\":4612:4613   */\n  0x00\n    /* \"#utility.yul\":4609:4610   */\n  dup1\n    /* \"#utility.yul\":4602:4614   */\n  revert\n    /* \"#utility.yul\":4626:4728   */\ntag_67:\n    /* \"#utility.yul\":4667:4673   */\n  0x00\n    /* \"#utility.yul\":4718:4720   */\n  0x1f\n    /* \"#utility.yul\":4714:4721   */\n  not\n    /* \"#utility.yul\":4709:4711   */\n  0x1f\n    /* \"#utility.yul\":4702:4707   */\n  dup4\n    /* \"#utility.yul\":4698:4712   */\n  add\n    /* \"#utility.yul\":4694:4722   */\n  and\n    /* \"#utility.yul\":4684:4722   */\n  swap1\n  pop\n    /* \"#utility.yul\":4626:4728   */\n  swap2\n  swap1\n  pop\n  jump\t// out\n    /* \"#utility.yul\":4734:4872   */\ntag_35:\n    /* \"#utility.yul\":4815:4847   */\n  tag_97\n    /* \"#utility.yul\":4841:4846   */\n  dup2\n    /* \"#utility.yul\":4815:4847   */\n  tag_68\n  jump\t// in\ntag_97:\n    /* \"#utility.yul\":4808:4813   */\n  dup2\n    /* \"#utility.yul\":4805:4848   */\n  eq\n    /* \"#utility.yul\":4795:4866   */\n  tag_98\n  jumpi\n    /* \"#utility.yul\":4862:4863   */\n  0x00\n    /* \"#utility.yul\":4859:4860   */\n  dup1\n    /* \"#utility.yul\":4852:4864   */\n  revert\n    /* \"#utility.yul\":4795:4866   */\ntag_98:\n    /* \"#utility.yul\":4734:4872   */\n  pop\n  jump\t// out\n    /* \"#utility.yul\":4878:5000   */\ntag_45:\n    /* \"#utility.yul\":4951:4975   */\n  tag_100\n    /* \"#utility.yul\":4969:4974   */\n  dup2\n    /* \"#utility.yul\":4951:4975   */\n  tag_73\n  jump\t// in\ntag_100:\n    /* \"#utility.yul\":4944:4949   */\n  dup2\n    /* \"#utility.yul\":4941:4976   */\n  eq\n    /* \"#utility.yul\":4931:4994   */\n  tag_101\n  jumpi\n    /* \"#utility.yul\":4990:4991   */\n  0x00\n    /* \"#utility.yul\":4987:4988   */\n  dup1\n    /* \"#utility.yul\":4980:4992   */\n  revert\n    /* \"#utility.yul\":4931:4994   */\ntag_101:\n    /* \"#utility.yul\":4878:5000   */\n  pop\n  jump\t// out\n    /* \"blockchain/real_estate2.sol\":60:805  contract RealEstateSale {\r... */\ntag_8:\n  dataSize(sub_0)\n  dup1\n  dataOffset(sub_0)\n  0x00\n  codecopy\n  0x00\n  return\nstop\n\nsub_0: assembly {\n        /* \"blockchain/real_estate2.sol\":60:805  contract RealEstateSale {\r... */\n      mstore(0x40, 0x80)\n      jumpi(tag_1, lt(calldatasize, 0x04))\n      shr(0xe0, calldataload(0x00))\n      dup1\n      0x7150d8ae\n      gt\n      tag_9\n      jumpi\n      dup1\n      0x7150d8ae\n      eq\n      tag_5\n      jumpi\n      dup1\n      0x8a4068dd\n      eq\n      tag_6\n      jumpi\n      dup1\n      0xa6f2ae3a\n      eq\n      tag_7\n      jumpi\n      dup1\n      0xdefd6c5f\n      eq\n      tag_8\n      jumpi\n      jump(tag_1)\n    tag_9:\n      dup1\n      0x08551a53\n      eq\n      tag_2\n      jumpi\n      dup1\n      0x209ebc08\n      eq\n      tag_3\n      jumpi\n      dup1\n      0x66440d71\n      eq\n      tag_4\n      jumpi\n    tag_1:\n      0x00\n      dup1\n      revert\n        /* \"blockchain/real_estate2.sol\":91:120  address payable public seller */\n    tag_2:\n      callvalue\n      dup1\n      iszero\n      tag_10\n      jumpi\n      0x00\n      dup1\n      revert\n    tag_10:\n      pop\n      tag_11\n      tag_12\n      jump\t// in\n    tag_11:\n      mload(0x40)\n      tag_13\n      swap2\n      swap1\n      tag_14\n      jump\t// in\n    tag_13:\n      mload(0x40)\n      dup1\n      swap2\n      sub\n      swap1\n      return\n        /* \"blockchain/real_estate2.sol\":230:248  bool public isPaid */\n    tag_3:\n      callvalue\n      dup1\n      iszero\n      tag_15\n      jumpi\n      0x00\n      dup1\n      revert\n    tag_15:\n      pop\n      tag_16\n      tag_17\n      jump\t// in\n    tag_16:\n      mload(0x40)\n      tag_18\n      swap2\n      swap1\n      tag_19\n      jump\t// in\n    tag_18:\n      mload(0x40)\n      dup1\n      swap2\n      sub\n      swap1\n      return\n        /* \"blockchain/real_estate2.sol\":162:191  string public propertyAddress */\n    tag_4:\n      callvalue\n      dup1\n      iszero\n      tag_20\n      jumpi\n      0x00\n      dup1\n      revert\n    tag_20:\n      pop\n      tag_21\n      tag_22\n      jump\t// in\n    tag_21:\n      mload(0x40)\n      tag_23\n      swap2\n      swap1\n      tag_24\n      jump\t// in\n    tag_23:\n      mload(0x40)\n      dup1\n      swap2\n      sub\n      swap1\n      return\n        /* \"blockchain/real_estate2.sol\":127:155  address payable public buyer */\n    tag_5:\n      callvalue\n      dup1\n      iszero\n      tag_25\n      jumpi\n      0x00\n      dup1\n      revert\n    tag_25:\n      pop\n      tag_26\n      tag_27\n      jump\t// in\n    tag_26:\n      mload(0x40)\n      tag_28\n      swap2\n      swap1\n      tag_14\n      jump\t// in\n    tag_28:\n      mload(0x40)\n      dup1\n      swap2\n      sub\n      swap1\n      return\n        /* \"blockchain/real_estate2.sol\":654:802  function transfer() public {\r... */\n    tag_6:\n      callvalue\n      dup1\n      iszero\n      tag_29\n      jumpi\n      0x00\n      dup1\n      revert\n    tag_29:\n      pop\n      tag_30\n      tag_31\n      jump\t// in\n    tag_30:\n      stop\n        /* \"blockchain/real_estate2.sol\":476:646  function buy() public payable {\r... */\n    tag_7:\n      tag_32\n      tag_33\n      jump\t// in\n    tag_32:\n      stop\n        /* \"blockchain/real_estate2.sol\":198:223  uint public purchasePrice */\n    tag_8:\n      callvalue\n      dup1\n      iszero\n      tag_34\n      jumpi\n      0x00\n      dup1\n      revert\n    tag_34:\n      pop\n      tag_35\n      tag_36\n      jump\t// in\n    tag_35:\n      mload(0x40)\n      tag_37\n      swap2\n      swap1\n      tag_38\n      jump\t// in\n    tag_37:\n      mload(0x40)\n      dup1\n      swap2\n      sub\n      swap1\n      return\n        /* \"blockchain/real_estate2.sol\":91:120  address payable public seller */\n    tag_12:\n      0x00\n      dup1\n      sload\n      swap1\n      0x0100\n      exp\n      swap1\n      div\n      0xffffffffffffffffffffffffffffffffffffffff\n      and\n      dup2\n      jump\t// out\n        /* \"blockchain/real_estate2.sol\":230:248  bool public isPaid */\n    tag_17:\n      0x04\n      0x00\n      swap1\n      sload\n      swap1\n      0x0100\n      exp\n      swap1\n      div\n      0xff\n      and\n      dup2\n      jump\t// out\n        /* \"blockchain/real_estate2.sol\":162:191  string public propertyAddress */\n    tag_22:\n      0x02\n      dup1\n      sload\n      tag_39\n      swap1\n      tag_40\n      jump\t// in\n    tag_39:\n      dup1\n      0x1f\n      add\n      0x20\n      dup1\n      swap2\n      div\n      mul\n      0x20\n      add\n      mload(0x40)\n      swap1\n      dup2\n      add\n      0x40\n      mstore\n      dup1\n      swap3\n      swap2\n      swap1\n      dup2\n      dup2\n      mstore\n      0x20\n      add\n      dup3\n      dup1\n      sload\n      tag_41\n      swap1\n      tag_40\n      jump\t// in\n    tag_41:\n      dup1\n      iszero\n      tag_42\n      jumpi\n      dup1\n      0x1f\n      lt\n      tag_43\n      jumpi\n      0x0100\n      dup1\n      dup4\n      sload\n      div\n      mul\n      dup4\n      mstore\n      swap2\n      0x20\n      add\n      swap2\n      jump(tag_42)\n    tag_43:\n      dup3\n      add\n      swap2\n      swap1\n      0x00\n      mstore\n      keccak256(0x00, 0x20)\n      swap1\n    tag_44:\n      dup2\n      sload\n      dup2\n      mstore\n      swap1\n      0x01\n      add\n      swap1\n      0x20\n      add\n      dup1\n      dup4\n      gt\n      tag_44\n      jumpi\n      dup3\n      swap1\n      sub\n      0x1f\n      and\n      dup3\n      add\n      swap2\n    tag_42:\n      pop\n      pop\n      pop\n      pop\n      pop\n      dup2\n      jump\t// out\n        /* \"blockchain/real_estate2.sol\":127:155  address payable public buyer */\n    tag_27:\n      0x01\n      0x00\n      swap1\n      sload\n      swap1\n      0x0100\n      exp\n      swap1\n      div\n      0xffffffffffffffffffffffffffffffffffffffff\n      and\n      dup2\n      jump\t// out\n        /* \"blockchain/real_estate2.sol\":654:802  function transfer() public {\r... */\n    tag_31:\n        /* \"blockchain/real_estate2.sol\":714:719  buyer */\n      0x01\n      0x00\n      swap1\n      sload\n      swap1\n      0x0100\n      exp\n      swap1\n      div\n      0xffffffffffffffffffffffffffffffffffffffff\n      and\n        /* \"blockchain/real_estate2.sol\":700:719  msg.sender == buyer */\n      0xffffffffffffffffffffffffffffffffffffffff\n      and\n        /* \"blockchain/real_estate2.sol\":700:710  msg.sender */\n      caller\n        /* \"blockchain/real_estate2.sol\":700:719  msg.sender == buyer */\n      0xffffffffffffffffffffffffffffffffffffffff\n      and\n      eq\n        /* \"blockchain/real_estate2.sol\":692:745  require(msg.sender == buyer, \"Unauthorized transfer\") */\n      tag_46\n      jumpi\n      mload(0x40)\n      0x08c379a000000000000000000000000000000000000000000000000000000000\n      dup2\n      mstore\n      0x04\n      add\n      tag_47\n      swap1\n      tag_48\n      jump\t// in\n    tag_47:\n      mload(0x40)\n      dup1\n      swap2\n      sub\n      swap1\n      revert\n    tag_46:\n        /* \"blockchain/real_estate2.sol\":756:762  seller */\n      0x00\n      dup1\n      sload\n      swap1\n      0x0100\n      exp\n      swap1\n      div\n      0xffffffffffffffffffffffffffffffffffffffff\n      and\n        /* \"blockchain/real_estate2.sol\":756:771  seller.transfer */\n      0xffffffffffffffffffffffffffffffffffffffff\n      and\n        /* \"blockchain/real_estate2.sol\":756:794  seller.transfer(address(this).balance) */\n      0x08fc\n        /* \"blockchain/real_estate2.sol\":772:793  address(this).balance */\n      selfbalance\n        /* \"blockchain/real_estate2.sol\":756:794  seller.transfer(address(this).balance) */\n      swap1\n      dup2\n      iszero\n      mul\n      swap1\n      mload(0x40)\n      0x00\n      mload(0x40)\n      dup1\n      dup4\n      sub\n      dup2\n      dup6\n      dup9\n      dup9\n      call\n      swap4\n      pop\n      pop\n      pop\n      pop\n      iszero\n      dup1\n      iszero\n      tag_50\n      jumpi\n      returndatasize\n      0x00\n      dup1\n      returndatacopy\n      revert(0x00, returndatasize)\n    tag_50:\n      pop\n        /* \"blockchain/real_estate2.sol\":654:802  function transfer() public {\r... */\n      jump\t// out\n        /* \"blockchain/real_estate2.sol\":476:646  function buy() public payable {\r... */\n    tag_33:\n        /* \"blockchain/real_estate2.sol\":538:551  purchasePrice */\n      sload(0x03)\n        /* \"blockchain/real_estate2.sol\":525:534  msg.value */\n      callvalue\n        /* \"blockchain/real_estate2.sol\":525:551  msg.value == purchasePrice */\n      eq\n        /* \"blockchain/real_estate2.sol\":517:576  require(msg.value == purchasePrice, \"Insufficient payment\") */\n      tag_52\n      jumpi\n      mload(0x40)\n      0x08c379a000000000000000000000000000000000000000000000000000000000\n      dup2\n      mstore\n      0x04\n      add\n      tag_53\n      swap1\n      tag_54\n      jump\t// in\n    tag_53:\n      mload(0x40)\n      dup1\n      swap2\n      sub\n      swap1\n      revert\n    tag_52:\n        /* \"blockchain/real_estate2.sol\":603:613  msg.sender */\n      caller\n        /* \"blockchain/real_estate2.sol\":587:592  buyer */\n      0x01\n      0x00\n        /* \"blockchain/real_estate2.sol\":587:614  buyer = payable(msg.sender) */\n      0x0100\n      exp\n      dup2\n      sload\n      dup2\n      0xffffffffffffffffffffffffffffffffffffffff\n      mul\n      not\n      and\n      swap1\n      dup4\n      0xffffffffffffffffffffffffffffffffffffffff\n      and\n      mul\n      or\n      swap1\n      sstore\n      pop\n        /* \"blockchain/real_estate2.sol\":634:638  true */\n      0x01\n        /* \"blockchain/real_estate2.sol\":625:631  isPaid */\n      0x04\n      0x00\n        /* \"blockchain/real_estate2.sol\":625:638  isPaid = true */\n      0x0100\n      exp\n      dup2\n      sload\n      dup2\n      0xff\n      mul\n      not\n      and\n      swap1\n      dup4\n      iszero\n      iszero\n      mul\n      or\n      swap1\n      sstore\n      pop\n        /* \"blockchain/real_estate2.sol\":476:646  function buy() public payable {\r... */\n      jump\t// out\n        /* \"blockchain/real_estate2.sol\":198:223  uint public purchasePrice */\n    tag_36:\n      sload(0x03)\n      dup2\n      jump\t// out\n        /* \"#utility.yul\":7:149   */\n    tag_56:\n        /* \"#utility.yul\":110:142   */\n      tag_58\n        /* \"#utility.yul\":136:141   */\n      dup2\n        /* \"#utility.yul\":110:142   */\n      tag_59\n      jump\t// in\n    tag_58:\n        /* \"#utility.yul\":105:108   */\n      dup3\n        /* \"#utility.yul\":98:143   */\n      mstore\n        /* \"#utility.yul\":7:149   */\n      pop\n      pop\n      jump\t// out\n        /* \"#utility.yul\":155:264   */\n    tag_60:\n        /* \"#utility.yul\":236:257   */\n      tag_62\n        /* \"#utility.yul\":251:256   */\n      dup2\n        /* \"#utility.yul\":236:257   */\n      tag_63\n      jump\t// in\n    tag_62:\n        /* \"#utility.yul\":231:234   */\n      dup3\n        /* \"#utility.yul\":224:258   */\n      mstore\n        /* \"#utility.yul\":155:264   */\n      pop\n      pop\n      jump\t// out\n        /* \"#utility.yul\":270:634   */\n    tag_64:\n        /* \"#utility.yul\":358:361   */\n      0x00\n        /* \"#utility.yul\":386:425   */\n      tag_66\n        /* \"#utility.yul\":419:424   */\n      dup3\n        /* \"#utility.yul\":386:425   */\n      tag_67\n      jump\t// in\n    tag_66:\n        /* \"#utility.yul\":441:512   */\n      tag_68\n        /* \"#utility.yul\":505:511   */\n      dup2\n        /* \"#utility.yul\":500:503   */\n      dup6\n        /* \"#utility.yul\":441:512   */\n      tag_69\n      jump\t// in\n    tag_68:\n        /* \"#utility.yul\":434:512   */\n      swap4\n      pop\n        /* \"#utility.yul\":521:573   */\n      tag_70\n        /* \"#utility.yul\":566:572   */\n      dup2\n        /* \"#utility.yul\":561:564   */\n      dup6\n        /* \"#utility.yul\":554:558   */\n      0x20\n        /* \"#utility.yul\":547:552   */\n      dup7\n        /* \"#utility.yul\":543:559   */\n      add\n        /* \"#utility.yul\":521:573   */\n      tag_71\n      jump\t// in\n    tag_70:\n        /* \"#utility.yul\":598:627   */\n      tag_72\n        /* \"#utility.yul\":620:626   */\n      dup2\n        /* \"#utility.yul\":598:627   */\n      tag_73\n      jump\t// in\n    tag_72:\n        /* \"#utility.yul\":593:596   */\n      dup5\n        /* \"#utility.yul\":589:628   */\n      add\n        /* \"#utility.yul\":582:628   */\n      swap2\n      pop\n        /* \"#utility.yul\":362:634   */\n      pop\n        /* \"#utility.yul\":270:634   */\n      swap3\n      swap2\n      pop\n      pop\n      jump\t// out\n        /* \"#utility.yul\":640:1006   */\n    tag_74:\n        /* \"#utility.yul\":782:785   */\n      0x00\n        /* \"#utility.yul\":803:870   */\n      tag_76\n        /* \"#utility.yul\":867:869   */\n      0x15\n        /* \"#utility.yul\":862:865   */\n      dup4\n        /* \"#utility.yul\":803:870   */\n      tag_69\n      jump\t// in\n    tag_76:\n        /* \"#utility.yul\":796:870   */\n      swap2\n      pop\n        /* \"#utility.yul\":879:972   */\n      tag_77\n        /* \"#utility.yul\":968:971   */\n      dup3\n        /* \"#utility.yul\":879:972   */\n      tag_78\n      jump\t// in\n    tag_77:\n        /* \"#utility.yul\":997:999   */\n      0x20\n        /* \"#utility.yul\":992:995   */\n      dup3\n        /* \"#utility.yul\":988:1000   */\n      add\n        /* \"#utility.yul\":981:1000   */\n      swap1\n      pop\n        /* \"#utility.yul\":640:1006   */\n      swap2\n      swap1\n      pop\n      jump\t// out\n        /* \"#utility.yul\":1012:1378   */\n    tag_79:\n        /* \"#utility.yul\":1154:1157   */\n      0x00\n        /* \"#utility.yul\":1175:1242   */\n      tag_81\n        /* \"#utility.yul\":1239:1241   */\n      0x14\n        /* \"#utility.yul\":1234:1237   */\n      dup4\n        /* \"#utility.yul\":1175:1242   */\n      tag_69\n      jump\t// in\n    tag_81:\n        /* \"#utility.yul\":1168:1242   */\n      swap2\n      pop\n        /* \"#utility.yul\":1251:1344   */\n      tag_82\n        /* \"#utility.yul\":1340:1343   */\n      dup3\n        /* \"#utility.yul\":1251:1344   */\n      tag_83\n      jump\t// in\n    tag_82:\n        /* \"#utility.yul\":1369:1371   */\n      0x20\n        /* \"#utility.yul\":1364:1367   */\n      dup3\n        /* \"#utility.yul\":1360:1372   */\n      add\n        /* \"#utility.yul\":1353:1372   */\n      swap1\n      pop\n        /* \"#utility.yul\":1012:1378   */\n      swap2\n      swap1\n      pop\n      jump\t// out\n        /* \"#utility.yul\":1384:1502   */\n    tag_84:\n        /* \"#utility.yul\":1471:1495   */\n      tag_86\n        /* \"#utility.yul\":1489:1494   */\n      dup2\n        /* \"#utility.yul\":1471:1495   */\n      tag_87\n      jump\t// in\n    tag_86:\n        /* \"#utility.yul\":1466:1469   */\n      dup3\n        /* \"#utility.yul\":1459:1496   */\n      mstore\n        /* \"#utility.yul\":1384:1502   */\n      pop\n      pop\n      jump\t// out\n        /* \"#utility.yul\":1508:1762   */\n    tag_14:\n        /* \"#utility.yul\":1617:1621   */\n      0x00\n        /* \"#utility.yul\":1655:1657   */\n      0x20\n        /* \"#utility.yul\":1644:1653   */\n      dup3\n        /* \"#utility.yul\":1640:1658   */\n      add\n        /* \"#utility.yul\":1632:1658   */\n      swap1\n      pop\n        /* \"#utility.yul\":1668:1755   */\n      tag_89\n        /* \"#utility.yul\":1752:1753   */\n      0x00\n        /* \"#utility.yul\":1741:1750   */\n      dup4\n        /* \"#utility.yul\":1737:1754   */\n      add\n        /* \"#utility.yul\":1728:1734   */\n      dup5\n        /* \"#utility.yul\":1668:1755   */\n      tag_56\n      jump\t// in\n    tag_89:\n        /* \"#utility.yul\":1508:1762   */\n      swap3\n      swap2\n      pop\n      pop\n      jump\t// out\n        /* \"#utility.yul\":1768:1978   */\n    tag_19:\n        /* \"#utility.yul\":1855:1859   */\n      0x00\n        /* \"#utility.yul\":1893:1895   */\n      0x20\n        /* \"#utility.yul\":1882:1891   */\n      dup3\n        /* \"#utility.yul\":1878:1896   */\n      add\n        /* \"#utility.yul\":1870:1896   */\n      swap1\n      pop\n        /* \"#utility.yul\":1906:1971   */\n      tag_91\n        /* \"#utility.yul\":1968:1969   */\n      0x00\n        /* \"#utility.yul\":1957:1966   */\n      dup4\n        /* \"#utility.yul\":1953:1970   */\n      add\n        /* \"#utility.yul\":1944:1950   */\n      dup5\n        /* \"#utility.yul\":1906:1971   */\n      tag_60\n      jump\t// in\n    tag_91:\n        /* \"#utility.yul\":1768:1978   */\n      swap3\n      swap2\n      pop\n      pop\n      jump\t// out\n        /* \"#utility.yul\":1984:2297   */\n    tag_24:\n        /* \"#utility.yul\":2097:2101   */\n      0x00\n        /* \"#utility.yul\":2135:2137   */\n      0x20\n        /* \"#utility.yul\":2124:2133   */\n      dup3\n        /* \"#utility.yul\":2120:2138   */\n      add\n        /* \"#utility.yul\":2112:2138   */\n      swap1\n      pop\n        /* \"#utility.yul\":2184:2193   */\n      dup2\n        /* \"#utility.yul\":2178:2182   */\n      dup2\n        /* \"#utility.yul\":2174:2194   */\n      sub\n        /* \"#utility.yul\":2170:2171   */\n      0x00\n        /* \"#utility.yul\":2159:2168   */\n      dup4\n        /* \"#utility.yul\":2155:2172   */\n      add\n        /* \"#utility.yul\":2148:2195   */\n      mstore\n        /* \"#utility.yul\":2212:2290   */\n      tag_93\n        /* \"#utility.yul\":2285:2289   */\n      dup2\n        /* \"#utility.yul\":2276:2282   */\n      dup5\n        /* \"#utility.yul\":2212:2290   */\n      tag_64\n      jump\t// in\n    tag_93:\n        /* \"#utility.yul\":2204:2290   */\n      swap1\n      pop\n        /* \"#utility.yul\":1984:2297   */\n      swap3\n      swap2\n      pop\n      pop\n      jump\t// out\n        /* \"#utility.yul\":2303:2722   */\n    tag_48:\n        /* \"#utility.yul\":2469:2473   */\n      0x00\n        /* \"#utility.yul\":2507:2509   */\n      0x20\n        /* \"#utility.yul\":2496:2505   */\n      dup3\n        /* \"#utility.yul\":2492:2510   */\n      add\n        /* \"#utility.yul\":2484:2510   */\n      swap1\n      pop\n        /* \"#utility.yul\":2556:2565   */\n      dup2\n        /* \"#utility.yul\":2550:2554   */\n      dup2\n        /* \"#utility.yul\":2546:2566   */\n      sub\n        /* \"#utility.yul\":2542:2543   */\n      0x00\n        /* \"#utility.yul\":2531:2540   */\n      dup4\n        /* \"#utility.yul\":2527:2544   */\n      add\n        /* \"#utility.yul\":2520:2567   */\n      mstore\n        /* \"#utility.yul\":2584:2715   */\n      tag_95\n        /* \"#utility.yul\":2710:2714   */\n      dup2\n        /* \"#utility.yul\":2584:2715   */\n      tag_74\n      jump\t// in\n    tag_95:\n        /* \"#utility.yul\":2576:2715   */\n      swap1\n      pop\n        /* \"#utility.yul\":2303:2722   */\n      swap2\n      swap1\n      pop\n      jump\t// out\n        /* \"#utility.yul\":2728:3147   */\n    tag_54:\n        /* \"#utility.yul\":2894:2898   */\n      0x00\n        /* \"#utility.yul\":2932:2934   */\n      0x20\n        /* \"#utility.yul\":2921:2930   */\n      dup3\n        /* \"#utility.yul\":2917:2935   */\n      add\n        /* \"#utility.yul\":2909:2935   */\n      swap1\n      pop\n        /* \"#utility.yul\":2981:2990   */\n      dup2\n        /* \"#utility.yul\":2975:2979   */\n      dup2\n        /* \"#utility.yul\":2971:2991   */\n      sub\n        /* \"#utility.yul\":2967:2968   */\n      0x00\n        /* \"#utility.yul\":2956:2965   */\n      dup4\n        /* \"#utility.yul\":2952:2969   */\n      add\n        /* \"#utility.yul\":2945:2992   */\n      mstore\n        /* \"#utility.yul\":3009:3140   */\n      tag_97\n        /* \"#utility.yul\":3135:3139   */\n      dup2\n        /* \"#utility.yul\":3009:3140   */\n      tag_79\n      jump\t// in\n    tag_97:\n        /* \"#utility.yul\":3001:3140   */\n      swap1\n      pop\n        /* \"#utility.yul\":2728:3147   */\n      swap2\n      swap1\n      pop\n      jump\t// out\n        /* \"#utility.yul\":3153:3375   */\n    tag_38:\n        /* \"#utility.yul\":3246:3250   */\n      0x00\n        /* \"#utility.yul\":3284:3286   */\n      0x20\n        /* \"#utility.yul\":3273:3282   */\n      dup3\n        /* \"#utility.yul\":3269:3287   */\n      add\n        /* \"#utility.yul\":3261:3287   */\n      swap1\n      pop\n        /* \"#utility.yul\":3297:3368   */\n      tag_99\n        /* \"#utility.yul\":3365:3366   */\n      0x00\n        /* \"#utility.yul\":3354:3363   */\n      dup4\n        /* \"#utility.yul\":3350:3367   */\n      add\n        /* \"#utility.yul\":3341:3347   */\n      dup5\n        /* \"#utility.yul\":3297:3368   */\n      tag_84\n      jump\t// in\n    tag_99:\n        /* \"#utility.yul\":3153:3375   */\n      swap3\n      swap2\n      pop\n      pop\n      jump\t// out\n        /* \"#utility.yul\":3381:3480   */\n    tag_67:\n        /* \"#utility.yul\":3433:3439   */\n      0x00\n        /* \"#utility.yul\":3467:3472   */\n      dup2\n        /* \"#utility.yul\":3461:3473   */\n      mload\n        /* \"#utility.yul\":3451:3473   */\n      swap1\n      pop\n        /* \"#utility.yul\":3381:3480   */\n      swap2\n      swap1\n      pop\n      jump\t// out\n        /* \"#utility.yul\":3486:3655   */\n    tag_69:\n        /* \"#utility.yul\":3570:3581   */\n      0x00\n        /* \"#utility.yul\":3604:3610   */\n      dup3\n        /* \"#utility.yul\":3599:3602   */\n      dup3\n        /* \"#utility.yul\":3592:3611   */\n      mstore\n        /* \"#utility.yul\":3644:3648   */\n      0x20\n        /* \"#utility.yul\":3639:3642   */\n      dup3\n        /* \"#utility.yul\":3635:3649   */\n      add\n        /* \"#utility.yul\":3620:3649   */\n      swap1\n      pop\n        /* \"#utility.yul\":3486:3655   */\n      swap3\n      swap2\n      pop\n      pop\n      jump\t// out\n        /* \"#utility.yul\":3661:3765   */\n    tag_59:\n        /* \"#utility.yul\":3706:3713   */\n      0x00\n        /* \"#utility.yul\":3735:3759   */\n      tag_103\n        /* \"#utility.yul\":3753:3758   */\n      dup3\n        /* \"#utility.yul\":3735:3759   */\n      tag_104\n      jump\t// in\n    tag_103:\n        /* \"#utility.yul\":3724:3759   */\n      swap1\n      pop\n        /* \"#utility.yul\":3661:3765   */\n      swap2\n      swap1\n      pop\n      jump\t// out\n        /* \"#utility.yul\":3771:3861   */\n    tag_63:\n        /* \"#utility.yul\":3805:3812   */\n      0x00\n        /* \"#utility.yul\":3848:3853   */\n      dup2\n        /* \"#utility.yul\":3841:3854   */\n      iszero\n        /* \"#utility.yul\":3834:3855   */\n      iszero\n        /* \"#utility.yul\":3823:3855   */\n      swap1\n      pop\n        /* \"#utility.yul\":3771:3861   */\n      swap2\n      swap1\n      pop\n      jump\t// out\n        /* \"#utility.yul\":3867:3993   */\n    tag_104:\n        /* \"#utility.yul\":3904:3911   */\n      0x00\n        /* \"#utility.yul\":3944:3986   */\n      0xffffffffffffffffffffffffffffffffffffffff\n        /* \"#utility.yul\":3937:3942   */\n      dup3\n        /* \"#utility.yul\":3933:3987   */\n      and\n        /* \"#utility.yul\":3922:3987   */\n      swap1\n      pop\n        /* \"#utility.yul\":3867:3993   */\n      swap2\n      swap1\n      pop\n      jump\t// out\n        /* \"#utility.yul\":3999:4076   */\n    tag_87:\n        /* \"#utility.yul\":4036:4043   */\n      0x00\n        /* \"#utility.yul\":4065:4070   */\n      dup2\n        /* \"#utility.yul\":4054:4070   */\n      swap1\n      pop\n        /* \"#utility.yul\":3999:4076   */\n      swap2\n      swap1\n      pop\n      jump\t// out\n        /* \"#utility.yul\":4082:4389   */\n    tag_71:\n        /* \"#utility.yul\":4150:4151   */\n      0x00\n        /* \"#utility.yul\":4160:4273   */\n    tag_109:\n        /* \"#utility.yul\":4174:4180   */\n      dup4\n        /* \"#utility.yul\":4171:4172   */\n      dup2\n        /* \"#utility.yul\":4168:4181   */\n      lt\n        /* \"#utility.yul\":4160:4273   */\n      iszero\n      tag_111\n      jumpi\n        /* \"#utility.yul\":4259:4260   */\n      dup1\n        /* \"#utility.yul\":4254:4257   */\n      dup3\n        /* \"#utility.yul\":4250:4261   */\n      add\n        /* \"#utility.yul\":4244:4262   */\n      mload\n        /* \"#utility.yul\":4240:4241   */\n      dup2\n        /* \"#utility.yul\":4235:4238   */\n      dup5\n        /* \"#utility.yul\":4231:4242   */\n      add\n        /* \"#utility.yul\":4224:4263   */\n      mstore\n        /* \"#utility.yul\":4196:4198   */\n      0x20\n        /* \"#utility.yul\":4193:4194   */\n      dup2\n        /* \"#utility.yul\":4189:4199   */\n      add\n        /* \"#utility.yul\":4184:4199   */\n      swap1\n      pop\n        /* \"#utility.yul\":4160:4273   */\n      jump(tag_109)\n    tag_111:\n        /* \"#utility.yul\":4291:4297   */\n      dup4\n        /* \"#utility.yul\":4288:4289   */\n      dup2\n        /* \"#utility.yul\":4285:4298   */\n      gt\n        /* \"#utility.yul\":4282:4383   */\n      iszero\n      tag_112\n      jumpi\n        /* \"#utility.yul\":4371:4372   */\n      0x00\n        /* \"#utility.yul\":4362:4368   */\n      dup5\n        /* \"#utility.yul\":4357:4360   */\n      dup5\n        /* \"#utility.yul\":4353:4369   */\n      add\n        /* \"#utility.yul\":4346:4373   */\n      mstore\n        /* \"#utility.yul\":4282:4383   */\n    tag_112:\n        /* \"#utility.yul\":4131:4389   */\n      pop\n        /* \"#utility.yul\":4082:4389   */\n      pop\n      pop\n      pop\n      jump\t// out\n        /* \"#utility.yul\":4395:4715   */\n    tag_40:\n        /* \"#utility.yul\":4439:4445   */\n      0x00\n        /* \"#utility.yul\":4476:4477   */\n      0x02\n        /* \"#utility.yul\":4470:4474   */\n      dup3\n        /* \"#utility.yul\":4466:4478   */\n      div\n        /* \"#utility.yul\":4456:4478   */\n      swap1\n      pop\n        /* \"#utility.yul\":4523:4524   */\n      0x01\n        /* \"#utility.yul\":4517:4521   */\n      dup3\n        /* \"#utility.yul\":4513:4525   */\n      and\n        /* \"#utility.yul\":4544:4562   */\n      dup1\n        /* \"#utility.yul\":4534:4615   */\n      tag_114\n      jumpi\n        /* \"#utility.yul\":4600:4604   */\n      0x7f\n        /* \"#utility.yul\":4592:4598   */\n      dup3\n        /* \"#utility.yul\":4588:4605   */\n      and\n        /* \"#utility.yul\":4578:4605   */\n      swap2\n      pop\n        /* \"#utility.yul\":4534:4615   */\n    tag_114:\n        /* \"#utility.yul\":4662:4664   */\n      0x20\n        /* \"#utility.yul\":4654:4660   */\n      dup3\n        /* \"#utility.yul\":4651:4665   */\n      lt\n        /* \"#utility.yul\":4631:4649   */\n      dup2\n        /* \"#utility.yul\":4628:4666   */\n      eq\n        /* \"#utility.yul\":4625:4709   */\n      iszero\n      tag_115\n      jumpi\n        /* \"#utility.yul\":4681:4699   */\n      tag_116\n      tag_117\n      jump\t// in\n    tag_116:\n        /* \"#utility.yul\":4625:4709   */\n    tag_115:\n        /* \"#utility.yul\":4446:4715   */\n      pop\n        /* \"#utility.yul\":4395:4715   */\n      swap2\n      swap1\n      pop\n      jump\t// out\n        /* \"#utility.yul\":4721:4901   */\n    tag_117:\n        /* \"#utility.yul\":4769:4846   */\n      0x4e487b7100000000000000000000000000000000000000000000000000000000\n        /* \"#utility.yul\":4766:4767   */\n      0x00\n        /* \"#utility.yul\":4759:4847   */\n      mstore\n        /* \"#utility.yul\":4866:4870   */\n      0x22\n        /* \"#utility.yul\":4863:4864   */\n      0x04\n        /* \"#utility.yul\":4856:4871   */\n      mstore\n        /* \"#utility.yul\":4890:4894   */\n      0x24\n        /* \"#utility.yul\":4887:4888   */\n      0x00\n        /* \"#utility.yul\":4880:4895   */\n      revert\n        /* \"#utility.yul\":4907:5009   */\n    tag_73:\n        /* \"#utility.yul\":4948:4954   */\n      0x00\n        /* \"#utility.yul\":4999:5001   */\n      0x1f\n        /* \"#utility.yul\":4995:5002   */\n      not\n        /* \"#utility.yul\":4990:4992   */\n      0x1f\n        /* \"#utility.yul\":4983:4988   */\n      dup4\n        /* \"#utility.yul\":4979:4993   */\n      add\n        /* \"#utility.yul\":4975:5003   */\n      and\n        /* \"#utility.yul\":4965:5003   */\n      swap1\n      pop\n        /* \"#utility.yul\":4907:5009   */\n      swap2\n      swap1\n      pop\n      jump\t// out\n        /* \"#utility.yul\":5015:5186   */\n    tag_78:\n        /* \"#utility.yul\":5155:5178   */\n      0x556e617574686f72697a6564207472616e736665720000000000000000000000\n        /* \"#utility.yul\":5151:5152   */\n      0x00\n        /* \"#utility.yul\":5143:5149   */\n      dup3\n        /* \"#utility.yul\":5139:5153   */\n      add\n        /* \"#utility.yul\":5132:5179   */\n      mstore\n        /* \"#utility.yul\":5015:5186   */\n      pop\n      jump\t// out\n        /* \"#utility.yul\":5192:5362   */\n    tag_83:\n        /* \"#utility.yul\":5332:5354   */\n      0x496e73756666696369656e74207061796d656e74000000000000000000000000\n        /* \"#utility.yul\":5328:5329   */\n      0x00\n        /* \"#utility.yul\":5320:5326   */\n      dup3\n        /* \"#utility.yul\":5316:5330   */\n      add\n        /* \"#utility.yul\":5309:5355   */\n      mstore\n        /* \"#utility.yul\":5192:5362   */\n      pop\n      jump\t// out\n\n    auxdata: 0xa2646970667358221220db3ff72373b26e0b4ba301d0fc5eb34203e734b309d5e51ea5e70f47f16c592764736f6c63430008070033\n}\n",
				"bytecode": {
					"linkReferences": {},
					"object": "60806040523480156200001157600080fd5b5060405162000b6638038062000b668339818101604052810190620000379190620001fc565b826000806101000a81548173ffffffffffffffffffffffffffffffffffffffff021916908373ffffffffffffffffffffffffffffffffffffffff16021790555081600290805190602001906200008f929190620000a0565b50806003819055505050506200046d565b828054620000ae906200034a565b90600052602060002090601f016020900481019282620000d257600085556200011e565b82601f10620000ed57805160ff19168380011785556200011e565b828001600101855582156200011e579182015b828111156200011d57825182559160200191906001019062000100565b5b5090506200012d919062000131565b5090565b5b808211156200014c57600081600090555060010162000132565b5090565b6000620001676200016184620002a0565b62000277565b90508281526020810184848401111562000186576200018562000419565b5b6200019384828562000314565b509392505050565b600081519050620001ac8162000439565b92915050565b600082601f830112620001ca57620001c962000414565b5b8151620001dc84826020860162000150565b91505092915050565b600081519050620001f68162000453565b92915050565b60008060006060848603121562000218576200021762000423565b5b600062000228868287016200019b565b935050602084015167ffffffffffffffff8111156200024c576200024b6200041e565b5b6200025a86828701620001b2565b92505060406200026d86828701620001e5565b9150509250925092565b60006200028362000296565b905062000291828262000380565b919050565b6000604051905090565b600067ffffffffffffffff821115620002be57620002bd620003e5565b5b620002c98262000428565b9050602081019050919050565b6000620002e382620002ea565b9050919050565b600073ffffffffffffffffffffffffffffffffffffffff82169050919050565b6000819050919050565b60005b838110156200033457808201518184015260208101905062000317565b8381111562000344576000848401525b50505050565b600060028204905060018216806200036357607f821691505b602082108114156200037a5762000379620003b6565b5b50919050565b6200038b8262000428565b810181811067ffffffffffffffff82111715620003ad57620003ac620003e5565b5b80604052505050565b7f4e487b7100000000000000000000000000000000000000000000000000000000600052602260045260246000fd5b7f4e487b7100000000000000000000000000000000000000000000000000000000600052604160045260246000fd5b600080fd5b600080fd5b600080fd5b600080fd5b6000601f19601f8301169050919050565b6200044481620002d6565b81146200045057600080fd5b50565b6200045e816200030a565b81146200046a57600080fd5b50565b6106e9806200047d6000396000f3fe6080604052600436106100705760003560e01c80637150d8ae1161004e5780637150d8ae146100f65780638a4068dd14610121578063a6f2ae3a14610138578063defd6c5f1461014257610070565b806308551a5314610075578063209ebc08146100a057806366440d71146100cb575b600080fd5b34801561008157600080fd5b5061008a61016d565b60405161009791906104a5565b60405180910390f35b3480156100ac57600080fd5b506100b5610191565b6040516100c291906104c0565b60405180910390f35b3480156100d757600080fd5b506100e06101a4565b6040516100ed91906104db565b60405180910390f35b34801561010257600080fd5b5061010b610232565b60405161011891906104a5565b60405180910390f35b34801561012d57600080fd5b50610136610258565b005b610140610351565b005b34801561014e57600080fd5b506101576103f3565b604051610164919061053d565b60405180910390f35b60008054906101000a900473ffffffffffffffffffffffffffffffffffffffff1681565b600460009054906101000a900460ff1681565b600280546101b1906105ef565b80601f01602080910402602001604051908101604052809291908181526020018280546101dd906105ef565b801561022a5780601f106101ff5761010080835404028352916020019161022a565b820191906000526020600020905b81548152906001019060200180831161020d57829003601f168201915b505050505081565b600160009054906101000a900473ffffffffffffffffffffffffffffffffffffffff1681565b600160009054906101000a900473ffffffffffffffffffffffffffffffffffffffff1673ffffffffffffffffffffffffffffffffffffffff163373ffffffffffffffffffffffffffffffffffffffff16146102e8576040517f08c379a00000000000000000000000000000000000000000000000000000000081526004016102df906104fd565b60405180910390fd5b60008054906101000a900473ffffffffffffffffffffffffffffffffffffffff1673ffffffffffffffffffffffffffffffffffffffff166108fc479081150290604051600060405180830381858888f1935050505015801561034e573d6000803e3d6000fd5b50565b6003543414610395576040517f08c379a000000000000000000000000000000000000000000000000000000000815260040161038c9061051d565b60405180910390fd5b33600160006101000a81548173ffffffffffffffffffffffffffffffffffffffff021916908373ffffffffffffffffffffffffffffffffffffffff1602179055506001600460006101000a81548160ff021916908315150217905550565b60035481565b61040281610574565b82525050565b61041181610586565b82525050565b600061042282610558565b61042c8185610563565b935061043c8185602086016105bc565b61044581610650565b840191505092915050565b600061045d601583610563565b915061046882610661565b602082019050919050565b6000610480601483610563565b915061048b8261068a565b602082019050919050565b61049f816105b2565b82525050565b60006020820190506104ba60008301846103f9565b92915050565b60006020820190506104d56000830184610408565b92915050565b600060208201905081810360008301526104f58184610417565b905092915050565b6000602082019050818103600083015261051681610450565b9050919050565b6000602082019050818103600083015261053681610473565b9050919050565b60006020820190506105526000830184610496565b92915050565b600081519050919050565b600082825260208201905092915050565b600061057f82610592565b9050919050565b60008115159050919050565b600073ffffffffffffffffffffffffffffffffffffffff82169050919050565b6000819050919050565b60005b838110156105da5780820151818401526020810190506105bf565b838111156105e9576000848401525b50505050565b6000600282049050600182168061060757607f821691505b6020821081141561061b5761061a610621565b5b50919050565b7f4e487b7100000000000000000000000000000000000000000000000000000000600052602260045260246000fd5b6000601f19601f8301169050919050565b7f556e617574686f72697a6564207472616e736665720000000000000000000000600082015250565b7f496e73756666696369656e74207061796d656e7400000000000000000000000060008201525056fea2646970667358221220db3ff72373b26e0b4ba301d0fc5eb34203e734b309d5e51ea5e70f47f16c592764736f6c63430008070033",
					"opcodes": "PUSH1 0x80 PUSH1 0x40 MSTORE CALLVALUE DUP1 ISZERO PUSH3 0x11 JUMPI PUSH1 0x0 DUP1 REVERT JUMPDEST POP PUSH1 0x40 MLOAD PUSH3 0xB66 CODESIZE SUB DUP1 PUSH3 0xB66 DUP4 CODECOPY DUP2 DUP2 ADD PUSH1 0x40 MSTORE DUP2 ADD SWAP1 PUSH3 0x37 SWAP2 SWAP1 PUSH3 0x1FC JUMP JUMPDEST DUP3 PUSH1 0x0 DUP1 PUSH2 0x100 EXP DUP2 SLOAD DUP2 PUSH20 0xFFFFFFFFFFFFFFFFFFFFFFFFFFFFFFFFFFFFFFFF MUL NOT AND SWAP1 DUP4 PUSH20 0xFFFFFFFFFFFFFFFFFFFFFFFFFFFFFFFFFFFFFFFF AND MUL OR SWAP1 SSTORE POP DUP2 PUSH1 0x2 SWAP1 DUP1 MLOAD SWAP1 PUSH1 0x20 ADD SWAP1 PUSH3 0x8F SWAP3 SWAP2 SWAP1 PUSH3 0xA0 JUMP JUMPDEST POP DUP1 PUSH1 0x3 DUP2 SWAP1 SSTORE POP POP POP POP PUSH3 0x46D JUMP JUMPDEST DUP3 DUP1 SLOAD PUSH3 0xAE SWAP1 PUSH3 0x34A JUMP JUMPDEST SWAP1 PUSH1 0x0 MSTORE PUSH1 0x20 PUSH1 0x0 KECCAK256 SWAP1 PUSH1 0x1F ADD PUSH1 0x20 SWAP1 DIV DUP2 ADD SWAP3 DUP3 PUSH3 0xD2 JUMPI PUSH1 0x0 DUP6 SSTORE PUSH3 0x11E JUMP JUMPDEST DUP3 PUSH1 0x1F LT PUSH3 0xED JUMPI DUP1 MLOAD PUSH1 0xFF NOT AND DUP4 DUP1 ADD OR DUP6 SSTORE PUSH3 0x11E JUMP JUMPDEST DUP3 DUP1 ADD PUSH1 0x1 ADD DUP6 SSTORE DUP3 ISZERO PUSH3 0x11E JUMPI SWAP2 DUP3 ADD JUMPDEST DUP3 DUP2 GT ISZERO PUSH3 0x11D JUMPI DUP3 MLOAD DUP3 SSTORE SWAP2 PUSH1 0x20 ADD SWAP2 SWAP1 PUSH1 0x1 ADD SWAP1 PUSH3 0x100 JUMP JUMPDEST JUMPDEST POP SWAP1 POP PUSH3 0x12D SWAP2 SWAP1 PUSH3 0x131 JUMP JUMPDEST POP SWAP1 JUMP JUMPDEST JUMPDEST DUP1 DUP3 GT ISZERO PUSH3 0x14C JUMPI PUSH1 0x0 DUP2 PUSH1 0x0 SWAP1 SSTORE POP PUSH1 0x1 ADD PUSH3 0x132 JUMP JUMPDEST POP SWAP1 JUMP JUMPDEST PUSH1 0x0 PUSH3 0x167 PUSH3 0x161 DUP5 PUSH3 0x2A0 JUMP JUMPDEST PUSH3 0x277 JUMP JUMPDEST SWAP1 POP DUP3 DUP2 MSTORE PUSH1 0x20 DUP2 ADD DUP5 DUP5 DUP5 ADD GT ISZERO PUSH3 0x186 JUMPI PUSH3 0x185 PUSH3 0x419 JUMP JUMPDEST JUMPDEST PUSH3 0x193 DUP5 DUP3 DUP6 PUSH3 0x314 JUMP JUMPDEST POP SWAP4 SWAP3 POP POP POP JUMP JUMPDEST PUSH1 0x0 DUP2 MLOAD SWAP1 POP PUSH3 0x1AC DUP2 PUSH3 0x439 JUMP JUMPDEST SWAP3 SWAP2 POP POP JUMP JUMPDEST PUSH1 0x0 DUP3 PUSH1 0x1F DUP4 ADD SLT PUSH3 0x1CA JUMPI PUSH3 0x1C9 PUSH3 0x414 JUMP JUMPDEST JUMPDEST DUP2 MLOAD PUSH3 0x1DC DUP5 DUP3 PUSH1 0x20 DUP7 ADD PUSH3 0x150 JUMP JUMPDEST SWAP2 POP POP SWAP3 SWAP2 POP POP JUMP JUMPDEST PUSH1 0x0 DUP2 MLOAD SWAP1 POP PUSH3 0x1F6 DUP2 PUSH3 0x453 JUMP JUMPDEST SWAP3 SWAP2 POP POP JUMP JUMPDEST PUSH1 0x0 DUP1 PUSH1 0x0 PUSH1 0x60 DUP5 DUP7 SUB SLT ISZERO PUSH3 0x218 JUMPI PUSH3 0x217 PUSH3 0x423 JUMP JUMPDEST JUMPDEST PUSH1 0x0 PUSH3 0x228 DUP7 DUP3 DUP8 ADD PUSH3 0x19B JUMP JUMPDEST SWAP4 POP POP PUSH1 0x20 DUP5 ADD MLOAD PUSH8 0xFFFFFFFFFFFFFFFF DUP2 GT ISZERO PUSH3 0x24C JUMPI PUSH3 0x24B PUSH3 0x41E JUMP JUMPDEST JUMPDEST PUSH3 0x25A DUP7 DUP3 DUP8 ADD PUSH3 0x1B2 JUMP JUMPDEST SWAP3 POP POP PUSH1 0x40 PUSH3 0x26D DUP7 DUP3 DUP8 ADD PUSH3 0x1E5 JUMP JUMPDEST SWAP2 POP POP SWAP3 POP SWAP3 POP SWAP3 JUMP JUMPDEST PUSH1 0x0 PUSH3 0x283 PUSH3 0x296 JUMP JUMPDEST SWAP1 POP PUSH3 0x291 DUP3 DUP3 PUSH3 0x380 JUMP JUMPDEST SWAP2 SWAP1 POP JUMP JUMPDEST PUSH1 0x0 PUSH1 0x40 MLOAD SWAP1 POP SWAP1 JUMP JUMPDEST PUSH1 0x0 PUSH8 0xFFFFFFFFFFFFFFFF DUP3 GT ISZERO PUSH3 0x2BE JUMPI PUSH3 0x2BD PUSH3 0x3E5 JUMP JUMPDEST JUMPDEST PUSH3 0x2C9 DUP3 PUSH3 0x428 JUMP JUMPDEST SWAP1 POP PUSH1 0x20 DUP2 ADD SWAP1 POP SWAP2 SWAP1 POP JUMP JUMPDEST PUSH1 0x0 PUSH3 0x2E3 DUP3 PUSH3 0x2EA JUMP JUMPDEST SWAP1 POP SWAP2 SWAP1 POP JUMP JUMPDEST PUSH1 0x0 PUSH20 0xFFFFFFFFFFFFFFFFFFFFFFFFFFFFFFFFFFFFFFFF DUP3 AND SWAP1 POP SWAP2 SWAP1 POP JUMP JUMPDEST PUSH1 0x0 DUP2 SWAP1 POP SWAP2 SWAP1 POP JUMP JUMPDEST PUSH1 0x0 JUMPDEST DUP4 DUP2 LT ISZERO PUSH3 0x334 JUMPI DUP1 DUP3 ADD MLOAD DUP2 DUP5 ADD MSTORE PUSH1 0x20 DUP2 ADD SWAP1 POP PUSH3 0x317 JUMP JUMPDEST DUP4 DUP2 GT ISZERO PUSH3 0x344 JUMPI PUSH1 0x0 DUP5 DUP5 ADD MSTORE JUMPDEST POP POP POP POP JUMP JUMPDEST PUSH1 0x0 PUSH1 0x2 DUP3 DIV SWAP1 POP PUSH1 0x1 DUP3 AND DUP1 PUSH3 0x363 JUMPI PUSH1 0x7F DUP3 AND SWAP2 POP JUMPDEST PUSH1 0x20 DUP3 LT DUP2 EQ ISZERO PUSH3 0x37A JUMPI PUSH3 0x379 PUSH3 0x3B6 JUMP JUMPDEST JUMPDEST POP SWAP2 SWAP1 POP JUMP JUMPDEST PUSH3 0x38B DUP3 PUSH3 0x428 JUMP JUMPDEST DUP2 ADD DUP2 DUP2 LT PUSH8 0xFFFFFFFFFFFFFFFF DUP3 GT OR ISZERO PUSH3 0x3AD JUMPI PUSH3 0x3AC PUSH3 0x3E5 JUMP JUMPDEST JUMPDEST DUP1 PUSH1 0x40 MSTORE POP POP POP JUMP JUMPDEST PUSH32 0x4E487B7100000000000000000000000000000000000000000000000000000000 PUSH1 0x0 MSTORE PUSH1 0x22 PUSH1 0x4 MSTORE PUSH1 0x24 PUSH1 0x0 REVERT JUMPDEST PUSH32 0x4E487B7100000000000000000000000000000000000000000000000000000000 PUSH1 0x0 MSTORE PUSH1 0x41 PUSH1 0x4 MSTORE PUSH1 0x24 PUSH1 0x0 REVERT JUMPDEST PUSH1 0x0 DUP1 REVERT JUMPDEST PUSH1 0x0 DUP1 REVERT JUMPDEST PUSH1 0x0 DUP1 REVERT JUMPDEST PUSH1 0x0 DUP1 REVERT JUMPDEST PUSH1 0x0 PUSH1 0x1F NOT PUSH1 0x1F DUP4 ADD AND SWAP1 POP SWAP2 SWAP1 POP JUMP JUMPDEST PUSH3 0x444 DUP2 PUSH3 0x2D6 JUMP JUMPDEST DUP2 EQ PUSH3 0x450 JUMPI PUSH1 0x0 DUP1 REVERT JUMPDEST POP JUMP JUMPDEST PUSH3 0x45E DUP2 PUSH3 0x30A JUMP JUMPDEST DUP2 EQ PUSH3 0x46A JUMPI PUSH1 0x0 DUP1 REVERT JUMPDEST POP JUMP JUMPDEST PUSH2 0x6E9 DUP1 PUSH3 0x47D PUSH1 0x0 CODECOPY PUSH1 0x0 RETURN INVALID PUSH1 0x80 PUSH1 0x40 MSTORE PUSH1 0x4 CALLDATASIZE LT PUSH2 0x70 JUMPI PUSH1 0x0 CALLDATALOAD PUSH1 0xE0 SHR DUP1 PUSH4 0x7150D8AE GT PUSH2 0x4E JUMPI DUP1 PUSH4 0x7150D8AE EQ PUSH2 0xF6 JUMPI DUP1 PUSH4 0x8A4068DD EQ PUSH2 0x121 JUMPI DUP1 PUSH4 0xA6F2AE3A EQ PUSH2 0x138 JUMPI DUP1 PUSH4 0xDEFD6C5F EQ PUSH2 0x142 JUMPI PUSH2 0x70 JUMP JUMPDEST DUP1 PUSH4 0x8551A53 EQ PUSH2 0x75 JUMPI DUP1 PUSH4 0x209EBC08 EQ PUSH2 0xA0 JUMPI DUP1 PUSH4 0x66440D71 EQ PUSH2 0xCB JUMPI JUMPDEST PUSH1 0x0 DUP1 REVERT JUMPDEST CALLVALUE DUP1 ISZERO PUSH2 0x81 JUMPI PUSH1 0x0 DUP1 REVERT JUMPDEST POP PUSH2 0x8A PUSH2 0x16D JUMP JUMPDEST PUSH1 0x40 MLOAD PUSH2 0x97 SWAP2 SWAP1 PUSH2 0x4A5 JUMP JUMPDEST PUSH1 0x40 MLOAD DUP1 SWAP2 SUB SWAP1 RETURN JUMPDEST CALLVALUE DUP1 ISZERO PUSH2 0xAC JUMPI PUSH1 0x0 DUP1 REVERT JUMPDEST POP PUSH2 0xB5 PUSH2 0x191 JUMP JUMPDEST PUSH1 0x40 MLOAD PUSH2 0xC2 SWAP2 SWAP1 PUSH2 0x4C0 JUMP JUMPDEST PUSH1 0x40 MLOAD DUP1 SWAP2 SUB SWAP1 RETURN JUMPDEST CALLVALUE DUP1 ISZERO PUSH2 0xD7 JUMPI PUSH1 0x0 DUP1 REVERT JUMPDEST POP PUSH2 0xE0 PUSH2 0x1A4 JUMP JUMPDEST PUSH1 0x40 MLOAD PUSH2 0xED SWAP2 SWAP1 PUSH2 0x4DB JUMP JUMPDEST PUSH1 0x40 MLOAD DUP1 SWAP2 SUB SWAP1 RETURN JUMPDEST CALLVALUE DUP1 ISZERO PUSH2 0x102 JUMPI PUSH1 0x0 DUP1 REVERT JUMPDEST POP PUSH2 0x10B PUSH2 0x232 JUMP JUMPDEST PUSH1 0x40 MLOAD PUSH2 0x118 SWAP2 SWAP1 PUSH2 0x4A5 JUMP JUMPDEST PUSH1 0x40 MLOAD DUP1 SWAP2 SUB SWAP1 RETURN JUMPDEST CALLVALUE DUP1 ISZERO PUSH2 0x12D JUMPI PUSH1 0x0 DUP1 REVERT JUMPDEST POP PUSH2 0x136 PUSH2 0x258 JUMP JUMPDEST STOP JUMPDEST PUSH2 0x140 PUSH2 0x351 JUMP JUMPDEST STOP JUMPDEST CALLVALUE DUP1 ISZERO PUSH2 0x14E JUMPI PUSH1 0x0 DUP1 REVERT JUMPDEST POP PUSH2 0x157 PUSH2 0x3F3 JUMP JUMPDEST PUSH1 0x40 MLOAD PUSH2 0x164 SWAP2 SWAP1 PUSH2 0x53D JUMP JUMPDEST PUSH1 0x40 MLOAD DUP1 SWAP2 SUB SWAP1 RETURN JUMPDEST PUSH1 0x0 DUP1 SLOAD SWAP1 PUSH2 0x100 EXP SWAP1 DIV PUSH20 0xFFFFFFFFFFFFFFFFFFFFFFFFFFFFFFFFFFFFFFFF AND DUP2 JUMP JUMPDEST PUSH1 0x4 PUSH1 0x0 SWAP1 SLOAD SWAP1 PUSH2 0x100 EXP SWAP1 DIV PUSH1 0xFF AND DUP2 JUMP JUMPDEST PUSH1 0x2 DUP1 SLOAD PUSH2 0x1B1 SWAP1 PUSH2 0x5EF JUMP JUMPDEST DUP1 PUSH1 0x1F ADD PUSH1 0x20 DUP1 SWAP2 DIV MUL PUSH1 0x20 ADD PUSH1 0x40 MLOAD SWAP1 DUP2 ADD PUSH1 0x40 MSTORE DUP1 SWAP3 SWAP2 SWAP1 DUP2 DUP2 MSTORE PUSH1 0x20 ADD DUP3 DUP1 SLOAD PUSH2 0x1DD SWAP1 PUSH2 0x5EF JUMP JUMPDEST DUP1 ISZERO PUSH2 0x22A JUMPI DUP1 PUSH1 0x1F LT PUSH2 0x1FF JUMPI PUSH2 0x100 DUP1 DUP4 SLOAD DIV MUL DUP4 MSTORE SWAP2 PUSH1 0x20 ADD SWAP2 PUSH2 0x22A JUMP JUMPDEST DUP3 ADD SWAP2 SWAP1 PUSH1 0x0 MSTORE PUSH1 0x20 PUSH1 0x0 KECCAK256 SWAP1 JUMPDEST DUP2 SLOAD DUP2 MSTORE SWAP1 PUSH1 0x1 ADD SWAP1 PUSH1 0x20 ADD DUP1 DUP4 GT PUSH2 0x20D JUMPI DUP3 SWAP1 SUB PUSH1 0x1F AND DUP3 ADD SWAP2 JUMPDEST POP POP POP POP POP DUP2 JUMP JUMPDEST PUSH1 0x1 PUSH1 0x0 SWAP1 SLOAD SWAP1 PUSH2 0x100 EXP SWAP1 DIV PUSH20 0xFFFFFFFFFFFFFFFFFFFFFFFFFFFFFFFFFFFFFFFF AND DUP2 JUMP JUMPDEST PUSH1 0x1 PUSH1 0x0 SWAP1 SLOAD SWAP1 PUSH2 0x100 EXP SWAP1 DIV PUSH20 0xFFFFFFFFFFFFFFFFFFFFFFFFFFFFFFFFFFFFFFFF AND PUSH20 0xFFFFFFFFFFFFFFFFFFFFFFFFFFFFFFFFFFFFFFFF AND CALLER PUSH20 0xFFFFFFFFFFFFFFFFFFFFFFFFFFFFFFFFFFFFFFFF AND EQ PUSH2 0x2E8 JUMPI PUSH1 0x40 MLOAD PUSH32 0x8C379A000000000000000000000000000000000000000000000000000000000 DUP2 MSTORE PUSH1 0x4 ADD PUSH2 0x2DF SWAP1 PUSH2 0x4FD JUMP JUMPDEST PUSH1 0x40 MLOAD DUP1 SWAP2 SUB SWAP1 REVERT JUMPDEST PUSH1 0x0 DUP1 SLOAD SWAP1 PUSH2 0x100 EXP SWAP1 DIV PUSH20 0xFFFFFFFFFFFFFFFFFFFFFFFFFFFFFFFFFFFFFFFF AND PUSH20 0xFFFFFFFFFFFFFFFFFFFFFFFFFFFFFFFFFFFFFFFF AND PUSH2 0x8FC SELFBALANCE SWAP1 DUP2 ISZERO MUL SWAP1 PUSH1 0x40 MLOAD PUSH1 0x0 PUSH1 0x40 MLOAD DUP1 DUP4 SUB DUP2 DUP6 DUP9 DUP9 CALL SWAP4 POP POP POP POP ISZERO DUP1 ISZERO PUSH2 0x34E JUMPI RETURNDATASIZE PUSH1 0x0 DUP1 RETURNDATACOPY RETURNDATASIZE PUSH1 0x0 REVERT JUMPDEST POP JUMP JUMPDEST PUSH1 0x3 SLOAD CALLVALUE EQ PUSH2 0x395 JUMPI PUSH1 0x40 MLOAD PUSH32 0x8C379A000000000000000000000000000000000000000000000000000000000 DUP2 MSTORE PUSH1 0x4 ADD PUSH2 0x38C SWAP1 PUSH2 0x51D JUMP JUMPDEST PUSH1 0x40 MLOAD DUP1 SWAP2 SUB SWAP1 REVERT JUMPDEST CALLER PUSH1 0x1 PUSH1 0x0 PUSH2 0x100 EXP DUP2 SLOAD DUP2 PUSH20 0xFFFFFFFFFFFFFFFFFFFFFFFFFFFFFFFFFFFFFFFF MUL NOT AND SWAP1 DUP4 PUSH20 0xFFFFFFFFFFFFFFFFFFFFFFFFFFFFFFFFFFFFFFFF AND MUL OR SWAP1 SSTORE POP PUSH1 0x1 PUSH1 0x4 PUSH1 0x0 PUSH2 0x100 EXP DUP2 SLOAD DUP2 PUSH1 0xFF MUL NOT AND SWAP1 DUP4 ISZERO ISZERO MUL OR SWAP1 SSTORE POP JUMP JUMPDEST PUSH1 0x3 SLOAD DUP2 JUMP JUMPDEST PUSH2 0x402 DUP2 PUSH2 0x574 JUMP JUMPDEST DUP3 MSTORE POP POP JUMP JUMPDEST PUSH2 0x411 DUP2 PUSH2 0x586 JUMP JUMPDEST DUP3 MSTORE POP POP JUMP JUMPDEST PUSH1 0x0 PUSH2 0x422 DUP3 PUSH2 0x558 JUMP JUMPDEST PUSH2 0x42C DUP2 DUP6 PUSH2 0x563 JUMP JUMPDEST SWAP4 POP PUSH2 0x43C DUP2 DUP6 PUSH1 0x20 DUP7 ADD PUSH2 0x5BC JUMP JUMPDEST PUSH2 0x445 DUP2 PUSH2 0x650 JUMP JUMPDEST DUP5 ADD SWAP2 POP POP SWAP3 SWAP2 POP POP JUMP JUMPDEST PUSH1 0x0 PUSH2 0x45D PUSH1 0x15 DUP4 PUSH2 0x563 JUMP JUMPDEST SWAP2 POP PUSH2 0x468 DUP3 PUSH2 0x661 JUMP JUMPDEST PUSH1 0x20 DUP3 ADD SWAP1 POP SWAP2 SWAP1 POP JUMP JUMPDEST PUSH1 0x0 PUSH2 0x480 PUSH1 0x14 DUP4 PUSH2 0x563 JUMP JUMPDEST SWAP2 POP PUSH2 0x48B DUP3 PUSH2 0x68A JUMP JUMPDEST PUSH1 0x20 DUP3 ADD SWAP1 POP SWAP2 SWAP1 POP JUMP JUMPDEST PUSH2 0x49F DUP2 PUSH2 0x5B2 JUMP JUMPDEST DUP3 MSTORE POP POP JUMP JUMPDEST PUSH1 0x0 PUSH1 0x20 DUP3 ADD SWAP1 POP PUSH2 0x4BA PUSH1 0x0 DUP4 ADD DUP5 PUSH2 0x3F9 JUMP JUMPDEST SWAP3 SWAP2 POP POP JUMP JUMPDEST PUSH1 0x0 PUSH1 0x20 DUP3 ADD SWAP1 POP PUSH2 0x4D5 PUSH1 0x0 DUP4 ADD DUP5 PUSH2 0x408 JUMP JUMPDEST SWAP3 SWAP2 POP POP JUMP JUMPDEST PUSH1 0x0 PUSH1 0x20 DUP3 ADD SWAP1 POP DUP2 DUP2 SUB PUSH1 0x0 DUP4 ADD MSTORE PUSH2 0x4F5 DUP2 DUP5 PUSH2 0x417 JUMP JUMPDEST SWAP1 POP SWAP3 SWAP2 POP POP JUMP JUMPDEST PUSH1 0x0 PUSH1 0x20 DUP3 ADD SWAP1 POP DUP2 DUP2 SUB PUSH1 0x0 DUP4 ADD MSTORE PUSH2 0x516 DUP2 PUSH2 0x450 JUMP JUMPDEST SWAP1 POP SWAP2 SWAP1 POP JUMP JUMPDEST PUSH1 0x0 PUSH1 0x20 DUP3 ADD SWAP1 POP DUP2 DUP2 SUB PUSH1 0x0 DUP4 ADD MSTORE PUSH2 0x536 DUP2 PUSH2 0x473 JUMP JUMPDEST SWAP1 POP SWAP2 SWAP1 POP JUMP JUMPDEST PUSH1 0x0 PUSH1 0x20 DUP3 ADD SWAP1 POP PUSH2 0x552 PUSH1 0x0 DUP4 ADD DUP5 PUSH2 0x496 JUMP JUMPDEST SWAP3 SWAP2 POP POP JUMP JUMPDEST PUSH1 0x0 DUP2 MLOAD SWAP1 POP SWAP2 SWAP1 POP JUMP JUMPDEST PUSH1 0x0 DUP3 DUP3 MSTORE PUSH1 0x20 DUP3 ADD SWAP1 POP SWAP3 SWAP2 POP POP JUMP JUMPDEST PUSH1 0x0 PUSH2 0x57F DUP3 PUSH2 0x592 JUMP JUMPDEST SWAP1 POP SWAP2 SWAP1 POP JUMP JUMPDEST PUSH1 0x0 DUP2 ISZERO ISZERO SWAP1 POP SWAP2 SWAP1 POP JUMP JUMPDEST PUSH1 0x0 PUSH20 0xFFFFFFFFFFFFFFFFFFFFFFFFFFFFFFFFFFFFFFFF DUP3 AND SWAP1 POP SWAP2 SWAP1 POP JUMP JUMPDEST PUSH1 0x0 DUP2 SWAP1 POP SWAP2 SWAP1 POP JUMP JUMPDEST PUSH1 0x0 JUMPDEST DUP4 DUP2 LT ISZERO PUSH2 0x5DA JUMPI DUP1 DUP3 ADD MLOAD DUP2 DUP5 ADD MSTORE PUSH1 0x20 DUP2 ADD SWAP1 POP PUSH2 0x5BF JUMP JUMPDEST DUP4 DUP2 GT ISZERO PUSH2 0x5E9 JUMPI PUSH1 0x0 DUP5 DUP5 ADD MSTORE JUMPDEST POP POP POP POP JUMP JUMPDEST PUSH1 0x0 PUSH1 0x2 DUP3 DIV SWAP1 POP PUSH1 0x1 DUP3 AND DUP1 PUSH2 0x607 JUMPI PUSH1 0x7F DUP3 AND SWAP2 POP JUMPDEST PUSH1 0x20 DUP3 LT DUP2 EQ ISZERO PUSH2 0x61B JUMPI PUSH2 0x61A PUSH2 0x621 JUMP JUMPDEST JUMPDEST POP SWAP2 SWAP1 POP JUMP JUMPDEST PUSH32 0x4E487B7100000000000000000000000000000000000000000000000000000000 PUSH1 0x0 MSTORE PUSH1 0x22 PUSH1 0x4 MSTORE PUSH1 0x24 PUSH1 0x0 REVERT JUMPDEST PUSH1 0x0 PUSH1 0x1F NOT PUSH1 0x1F DUP4 ADD AND SWAP1 POP SWAP2 SWAP1 POP JUMP JUMPDEST PUSH32 0x556E617574686F72697A6564207472616E736665720000000000000000000000 PUSH1 0x0 DUP3 ADD MSTORE POP JUMP JUMPDEST PUSH32 0x496E73756666696369656E74207061796D656E74000000000000000000000000 PUSH1 0x0 DUP3 ADD MSTORE POP JUMP INVALID LOG2 PUSH5 0x6970667358 0x22 SLT KECCAK256 0xDB EXTCODEHASH 0xF7 0x23 PUSH20 0xB26E0B4BA301D0FC5EB34203E734B309D5E51EA5 0xE7 0xF SELFBALANCE CALL PUSH13 0x592764736F6C63430008070033 "
				},
				"gasEstimates": {
					"creation": {
						"codeDepositCost": "353800",
						"executionCost": "infinite",
						"totalCost": "infinite"
					},
					"external": {
						"buy()": "50819",
						"buyer()": "2514",
						"isPaid()": "2494",
						"propertyAddress()": "infinite",
						"purchasePrice()": "2495",
						"seller()": "2512",
						"transfer()": "infinite"
					}
				},
				"methodIdentifiers": {
					"buy()": "a6f2ae3a",
					"buyer()": "7150d8ae",
					"isPaid()": "209ebc08",
					"propertyAddress()": "66440d71",
					"purchasePrice()": "defd6c5f",
					"seller()": "08551a53",
					"transfer()": "8a4068dd"
				}
			},
			"storageLayout": {
				"storage": [
					{
						"astId": 3,
						"contract": "blockchain/real_estate2.sol:RealEstateSale",
						"label": "seller",
						"offset": 0,
						"slot": "0",
						"type": "t_address_payable"
					},
					{
						"astId": 5,
						"contract": "blockchain/real_estate2.sol:RealEstateSale",
						"label": "buyer",
						"offset": 0,
						"slot": "1",
						"type": "t_address_payable"
					},
					{
						"astId": 7,
						"contract": "blockchain/real_estate2.sol:RealEstateSale",
						"label": "propertyAddress",
						"offset": 0,
						"slot": "2",
						"type": "t_string_storage"
					},
					{
						"astId": 9,
						"contract": "blockchain/real_estate2.sol:RealEstateSale",
						"label": "purchasePrice",
						"offset": 0,
						"slot": "3",
						"type": "t_uint256"
					},
					{
						"astId": 11,
						"contract": "blockchain/real_estate2.sol:RealEstateSale",
						"label": "isPaid",
						"offset": 0,
						"slot": "4",
						"type": "t_bool"
					}
				],
				"types": {
					"t_address_payable": {
						"encoding": "inplace",
						"label": "address payable",
						"numberOfBytes": "20"
					},
					"t_bool": {
						"encoding": "inplace",
						"label": "bool",
						"numberOfBytes": "1"
					},
					"t_string_storage": {
						"encoding": "bytes",
						"label": "string",
						"numberOfBytes": "32"
					},
					"t_uint256": {
						"encoding": "inplace",
						"label": "uint256",
						"numberOfBytes": "32"
					}
				}
			},
			"userdoc": {
				"kind": "user",
				"methods": {},
				"version": 1
			}
		}
	}
}