{
	"blockchain/real_estate_major.sol": {
		"realEstate": {
			"abi": [
				{
					"inputs": [
						{
							"internalType": "string",
							"name": "_propertyID",
							"type": "string"
						},
						{
							"internalType": "string",
							"name": "_propertySymbol",
							"type": "string"
						},
						{
							"internalType": "address",
							"name": "_mainPropertyOwner",
							"type": "address"
						},
						{
							"internalType": "uint8",
							"name": "_tax",
							"type": "uint8"
						},
						{
							"internalType": "uint8",
							"name": "_avgBlockTime",
							"type": "uint8"
						}
					],
					"stateMutability": "nonpayable",
					"type": "constructor"
				},
				{
					"anonymous": false,
					"inputs": [
						{
							"indexed": false,
							"internalType": "uint8",
							"name": "s",
							"type": "uint8"
						}
					],
					"name": "AvgBlockTimeChangedTo",
					"type": "event"
				},
				{
					"anonymous": false,
					"inputs": [
						{
							"indexed": false,
							"internalType": "uint256",
							"name": "NewTax",
							"type": "uint256"
						}
					],
					"name": "ChangedTax",
					"type": "event"
				},
				{
					"anonymous": false,
					"inputs": [
						{
							"indexed": false,
							"internalType": "address",
							"name": "Tenant",
							"type": "address"
						}
					],
					"name": "CurrentlyEligibletoPayRent",
					"type": "event"
				},
				{
					"anonymous": false,
					"inputs": [
						{
							"indexed": false,
							"internalType": "address",
							"name": "NewMainPropertyOwner",
							"type": "address"
						}
					],
					"name": "MainPropertyOwner",
					"type": "event"
				},
				{
					"anonymous": false,
					"inputs": [
						{
							"indexed": false,
							"internalType": "address",
							"name": "StakeholderAdded",
							"type": "address"
						}
					],
					"name": "NewStakeHolder",
					"type": "event"
				},
				{
					"anonymous": false,
					"inputs": [
						{
							"indexed": false,
							"internalType": "uint8",
							"name": "Months",
							"type": "uint8"
						}
					],
					"name": "PrePayRentLimit",
					"type": "event"
				},
				{
					"anonymous": false,
					"inputs": [
						{
							"indexed": false,
							"internalType": "uint256",
							"name": "WEIs",
							"type": "uint256"
						}
					],
					"name": "RentPer30DaySetTo",
					"type": "event"
				},
				{
					"anonymous": false,
					"inputs": [
						{
							"indexed": false,
							"internalType": "uint256",
							"name": "date",
							"type": "uint256"
						},
						{
							"indexed": false,
							"internalType": "address",
							"name": "renter",
							"type": "address"
						},
						{
							"indexed": false,
							"internalType": "uint256",
							"name": "rentPaid",
							"type": "uint256"
						},
						{
							"indexed": false,
							"internalType": "uint256",
							"name": "tax",
							"type": "uint256"
						},
						{
							"indexed": false,
							"internalType": "uint256",
							"name": "distributableRevenue",
							"type": "uint256"
						},
						{
							"indexed": false,
							"internalType": "uint256",
							"name": "rentedFrom",
							"type": "uint256"
						},
						{
							"indexed": false,
							"internalType": "uint256",
							"name": "rentedUntill",
							"type": "uint256"
						}
					],
					"name": "Rental",
					"type": "event"
				},
				{
					"anonymous": false,
					"inputs": [
						{
							"indexed": false,
							"internalType": "address",
							"name": "shareholder",
							"type": "address"
						},
						{
							"indexed": false,
							"internalType": "uint256",
							"name": "gained",
							"type": "uint256"
						},
						{
							"indexed": false,
							"internalType": "uint256",
							"name": "total",
							"type": "uint256"
						}
					],
					"name": "RevenuesDistributed",
					"type": "event"
				},
				{
					"anonymous": false,
					"inputs": [
						{
							"indexed": true,
							"internalType": "address",
							"name": "seizedfrom",
							"type": "address"
						},
						{
							"indexed": true,
							"internalType": "address",
							"name": "to",
							"type": "address"
						},
						{
							"indexed": false,
							"internalType": "uint256",
							"name": "shares",
							"type": "uint256"
						}
					],
					"name": "Seizure",
					"type": "event"
				},
				{
					"anonymous": false,
					"inputs": [
						{
							"indexed": true,
							"internalType": "address",
							"name": "from",
							"type": "address"
						},
						{
							"indexed": true,
							"internalType": "address",
							"name": "to",
							"type": "address"
						},
						{
							"indexed": false,
							"internalType": "uint256",
							"name": "shares",
							"type": "uint256"
						}
					],
					"name": "ShareTransfer",
					"type": "event"
				},
				{
					"anonymous": false,
					"inputs": [
						{
							"indexed": false,
							"internalType": "address",
							"name": "Seller",
							"type": "address"
						},
						{
							"indexed": false,
							"internalType": "uint256",
							"name": "AmmountShares",
							"type": "uint256"
						},
						{
							"indexed": false,
							"internalType": "uint256",
							"name": "PricePerShare",
							"type": "uint256"
						}
					],
					"name": "SharesOffered",
					"type": "event"
				},
				{
					"anonymous": false,
					"inputs": [
						{
							"indexed": false,
							"internalType": "address",
							"name": "Seller",
							"type": "address"
						},
						{
							"indexed": false,
							"internalType": "address",
							"name": "Buyer",
							"type": "address"
						},
						{
							"indexed": false,
							"internalType": "uint256",
							"name": "SharesSold",
							"type": "uint256"
						},
						{
							"indexed": false,
							"internalType": "uint256",
							"name": "PricePerShare",
							"type": "uint256"
						}
					],
					"name": "SharesSold",
					"type": "event"
				},
				{
					"anonymous": false,
					"inputs": [
						{
							"indexed": false,
							"internalType": "address",
							"name": "banned",
							"type": "address"
						}
					],
					"name": "StakeHolderBanned",
					"type": "event"
				},
				{
					"anonymous": false,
					"inputs": [
						{
							"indexed": false,
							"internalType": "address",
							"name": "shareholder",
							"type": "address"
						},
						{
							"indexed": false,
							"internalType": "uint256",
							"name": "withdrawn",
							"type": "uint256"
						}
					],
					"name": "Withdrawal",
					"type": "event"
				},
				{
					"inputs": [
						{
							"internalType": "uint8",
							"name": "_sPerBlock",
							"type": "uint8"
						}
					],
					"name": "SetAvgBlockTime",
					"outputs": [],
					"stateMutability": "nonpayable",
					"type": "function"
				},
				{
					"inputs": [],
					"name": "accumulated",
					"outputs": [
						{
							"internalType": "uint256",
							"name": "",
							"type": "uint256"
						}
					],
					"stateMutability": "view",
					"type": "function"
				},
				{
					"inputs": [
						{
							"internalType": "address",
							"name": "_stakeholder",
							"type": "address"
						}
					],
					"name": "addStakeholder",
					"outputs": [],
					"stateMutability": "nonpayable",
					"type": "function"
				},
				{
					"inputs": [],
					"name": "avgBlockTime",
					"outputs": [
						{
							"internalType": "uint8",
							"name": "",
							"type": "uint8"
						}
					],
					"stateMutability": "view",
					"type": "function"
				},
				{
					"inputs": [
						{
							"internalType": "address",
							"name": "_stakeholder",
							"type": "address"
						}
					],
					"name": "banStakeholder",
					"outputs": [],
					"stateMutability": "nonpayable",
					"type": "function"
				},
				{
					"inputs": [],
					"name": "blocksPer30Day",
					"outputs": [
						{
							"internalType": "uint256",
							"name": "",
							"type": "uint256"
						}
					],
					"stateMutability": "view",
					"type": "function"
				},
				{
					"inputs": [
						{
							"internalType": "uint256",
							"name": "_sharesToBuy",
							"type": "uint256"
						},
						{
							"internalType": "address payable",
							"name": "_from",
							"type": "address"
						}
					],
					"name": "buyShares",
					"outputs": [],
					"stateMutability": "payable",
					"type": "function"
				},
				{
					"inputs": [
						{
							"internalType": "address",
							"name": "_tenant",
							"type": "address"
						}
					],
					"name": "canPayRent",
					"outputs": [],
					"stateMutability": "nonpayable",
					"type": "function"
				},
				{
					"inputs": [],
					"name": "claimOwnership",
					"outputs": [],
					"stateMutability": "nonpayable",
					"type": "function"
				},
				{
					"inputs": [
						{
							"internalType": "address",
							"name": "_tenantcheck",
							"type": "address"
						}
					],
					"name": "currentTenantCheck",
					"outputs": [
						{
							"internalType": "bool",
							"name": "",
							"type": "bool"
						},
						{
							"internalType": "uint256",
							"name": "",
							"type": "uint256"
						}
					],
					"stateMutability": "view",
					"type": "function"
				},
				{
					"inputs": [],
					"name": "distribute",
					"outputs": [],
					"stateMutability": "nonpayable",
					"type": "function"
				},
				{
					"inputs": [],
					"name": "gov",
					"outputs": [
						{
							"internalType": "address",
							"name": "",
							"type": "address"
						}
					],
					"stateMutability": "view",
					"type": "function"
				},
				{
					"inputs": [
						{
							"internalType": "address",
							"name": "_address",
							"type": "address"
						}
					],
					"name": "isStakeholder",
					"outputs": [
						{
							"internalType": "bool",
							"name": "",
							"type": "bool"
						},
						{
							"internalType": "uint256",
							"name": "",
							"type": "uint256"
						}
					],
					"stateMutability": "view",
					"type": "function"
				},
				{
					"inputs": [
						{
							"internalType": "uint8",
							"name": "_monthstolimit",
							"type": "uint8"
						}
					],
					"name": "limitadvancedrent",
					"outputs": [],
					"stateMutability": "nonpayable",
					"type": "function"
				},
				{
					"inputs": [],
					"name": "mainPropertyOwner",
					"outputs": [
						{
							"internalType": "address",
							"name": "",
							"type": "address"
						}
					],
					"stateMutability": "view",
					"type": "function"
				},
				{
					"inputs": [],
					"name": "name",
					"outputs": [
						{
							"internalType": "string",
							"name": "",
							"type": "string"
						}
					],
					"stateMutability": "view",
					"type": "function"
				},
				{
					"inputs": [],
					"name": "occupiedUntill",
					"outputs": [
						{
							"internalType": "uint256",
							"name": "",
							"type": "uint256"
						}
					],
					"stateMutability": "view",
					"type": "function"
				},
				{
					"inputs": [
						{
							"internalType": "uint256",
							"name": "_sharesOffered",
							"type": "uint256"
						},
						{
							"internalType": "uint256",
							"name": "_shareSellPrice",
							"type": "uint256"
						}
					],
					"name": "offerShares",
					"outputs": [],
					"stateMutability": "nonpayable",
					"type": "function"
				},
				{
					"inputs": [
						{
							"internalType": "uint8",
							"name": "_months",
							"type": "uint8"
						}
					],
					"name": "payRent",
					"outputs": [],
					"stateMutability": "payable",
					"type": "function"
				},
				{
					"inputs": [],
					"name": "rentPer30Day",
					"outputs": [
						{
							"internalType": "uint256",
							"name": "",
							"type": "uint256"
						}
					],
					"stateMutability": "view",
					"type": "function"
				},
				{
					"inputs": [],
					"name": "rentalBegin",
					"outputs": [
						{
							"internalType": "uint256",
							"name": "",
							"type": "uint256"
						}
					],
					"stateMutability": "view",
					"type": "function"
				},
				{
					"inputs": [],
					"name": "rentalLimitBlocks",
					"outputs": [
						{
							"internalType": "uint256",
							"name": "",
							"type": "uint256"
						}
					],
					"stateMutability": "view",
					"type": "function"
				},
				{
					"inputs": [],
					"name": "rentalLimitMonths",
					"outputs": [
						{
							"internalType": "uint8",
							"name": "",
							"type": "uint8"
						}
					],
					"stateMutability": "view",
					"type": "function"
				},
				{
					"inputs": [
						{
							"internalType": "address",
							"name": "",
							"type": "address"
						}
					],
					"name": "rentpaidUntill",
					"outputs": [
						{
							"internalType": "uint256",
							"name": "",
							"type": "uint256"
						}
					],
					"stateMutability": "view",
					"type": "function"
				},
				{
					"inputs": [
						{
							"internalType": "address",
							"name": "",
							"type": "address"
						}
					],
					"name": "revenues",
					"outputs": [
						{
							"internalType": "uint256",
							"name": "",
							"type": "uint256"
						}
					],
					"stateMutability": "view",
					"type": "function"
				},
				{
					"inputs": [
						{
							"internalType": "address",
							"name": "_from",
							"type": "address"
						},
						{
							"internalType": "address",
							"name": "_to",
							"type": "address"
						},
						{
							"internalType": "uint256",
							"name": "_value",
							"type": "uint256"
						}
					],
					"name": "seizureFrom",
					"outputs": [
						{
							"internalType": "bool",
							"name": "success",
							"type": "bool"
						}
					],
					"stateMutability": "nonpayable",
					"type": "function"
				},
				{
					"inputs": [
						{
							"internalType": "uint256",
							"name": "_rent",
							"type": "uint256"
						}
					],
					"name": "setRentper30Day",
					"outputs": [],
					"stateMutability": "nonpayable",
					"type": "function"
				},
				{
					"inputs": [
						{
							"internalType": "uint8",
							"name": "_x",
							"type": "uint8"
						}
					],
					"name": "setTax",
					"outputs": [],
					"stateMutability": "nonpayable",
					"type": "function"
				},
				{
					"inputs": [
						{
							"internalType": "address",
							"name": "",
							"type": "address"
						}
					],
					"name": "shareSellPrice",
					"outputs": [
						{
							"internalType": "uint256",
							"name": "",
							"type": "uint256"
						}
					],
					"stateMutability": "view",
					"type": "function"
				},
				{
					"inputs": [
						{
							"internalType": "address",
							"name": "",
							"type": "address"
						}
					],
					"name": "shares",
					"outputs": [
						{
							"internalType": "uint256",
							"name": "",
							"type": "uint256"
						}
					],
					"stateMutability": "view",
					"type": "function"
				},
				{
					"inputs": [
						{
							"internalType": "address",
							"name": "",
							"type": "address"
						}
					],
					"name": "sharesOffered",
					"outputs": [
						{
							"internalType": "uint256",
							"name": "",
							"type": "uint256"
						}
					],
					"stateMutability": "view",
					"type": "function"
				},
				{
					"inputs": [
						{
							"internalType": "address",
							"name": "_owner",
							"type": "address"
						}
					],
					"name": "showSharesOf",
					"outputs": [
						{
							"internalType": "uint256",
							"name": "balance",
							"type": "uint256"
						}
					],
					"stateMutability": "view",
					"type": "function"
				},
				{
					"inputs": [
						{
							"internalType": "uint256",
							"name": "",
							"type": "uint256"
						}
					],
					"name": "stakeholders",
					"outputs": [
						{
							"internalType": "address",
							"name": "",
							"type": "address"
						}
					],
					"stateMutability": "view",
					"type": "function"
				},
				{
					"inputs": [],
					"name": "symbol",
					"outputs": [
						{
							"internalType": "string",
							"name": "",
							"type": "string"
						}
					],
					"stateMutability": "view",
					"type": "function"
				},
				{
					"inputs": [],
					"name": "tax",
					"outputs": [
						{
							"internalType": "uint8",
							"name": "",
							"type": "uint8"
						}
					],
					"stateMutability": "view",
					"type": "function"
				},
				{
					"inputs": [],
					"name": "tenant",
					"outputs": [
						{
							"internalType": "address",
							"name": "",
							"type": "address"
						}
					],
					"stateMutability": "view",
					"type": "function"
				},
				{
					"inputs": [],
					"name": "totalSupply",
					"outputs": [
						{
							"internalType": "uint256",
							"name": "",
							"type": "uint256"
						}
					],
					"stateMutability": "view",
					"type": "function"
				},
				{
					"inputs": [],
					"name": "totalSupply2",
					"outputs": [
						{
							"internalType": "uint256",
							"name": "",
							"type": "uint256"
						}
					],
					"stateMutability": "view",
					"type": "function"
				},
				{
					"inputs": [
						{
							"internalType": "address",
							"name": "_recipient",
							"type": "address"
						},
						{
							"internalType": "uint256",
							"name": "_amount",
							"type": "uint256"
						}
					],
					"name": "transfer",
					"outputs": [
						{
							"internalType": "bool",
							"name": "",
							"type": "bool"
						}
					],
					"stateMutability": "nonpayable",
					"type": "function"
				},
				{
					"inputs": [],
					"name": "withdraw",
					"outputs": [],
					"stateMutability": "payable",
					"type": "function"
				},
				{
					"stateMutability": "payable",
					"type": "receive"
				}
			],
			"devdoc": {
				"kind": "dev",
				"methods": {},
				"version": 1
			},
			"evm": {
				"assembly": "    /* \"blockchain/real_estate_major.sol\":60:16762  contract realEstate {\r... */\n  mstore(0x40, 0x80)\n    /* \"blockchain/real_estate_major.sol\":2272:2282  msg.sender */\n  caller\n    /* \"blockchain/real_estate_major.sol\":2251:2282  address public gov = msg.sender */\n  0x0c\n  exp(0x0100, 0x00)\n  dup2\n  sload\n  dup2\n  0xffffffffffffffffffffffffffffffffffffffff\n  mul\n  not\n  and\n  swap1\n  dup4\n  0xffffffffffffffffffffffffffffffffffffffff\n  and\n  mul\n  or\n  swap1\n  sstore\n  pop\n    /* \"blockchain/real_estate_major.sol\":4628:6032  constructor (string memory _propertyID, string memory _propertySymbol, address _mainPropertyOwner, uint8 _tax, uint8 _avgBlockTime) {\r... */\n  callvalue\n  dup1\n  iszero\n  tag_1\n  jumpi\n  0x00\n  dup1\n  revert\ntag_1:\n  pop\n  mload(0x40)\n  sub(codesize, bytecodeSize)\n  dup1\n  bytecodeSize\n  dup4\n  codecopy\n  dup2\n  dup2\n  add\n  0x40\n  mstore\n  0xa0\n  dup2\n  lt\n  iszero\n  tag_2\n  jumpi\n  0x00\n  dup1\n  revert\ntag_2:\n  dup2\n  add\n  swap1\n  dup1\n  dup1\n  mload\n  mload(0x40)\n  swap4\n  swap3\n  swap2\n  swap1\n  dup5\n  0x0100000000\n  dup3\n  gt\n  iszero\n  tag_3\n  jumpi\n  0x00\n  dup1\n  revert\ntag_3:\n  dup4\n  dup3\n  add\n  swap2\n  pop\n  0x20\n  dup3\n  add\n  dup6\n  dup2\n  gt\n  iszero\n  tag_4\n  jumpi\n  0x00\n  dup1\n  revert\ntag_4:\n  dup3\n  mload\n  dup7\n  0x01\n  dup3\n  mul\n  dup4\n  add\n  gt\n  0x0100000000\n  dup3\n  gt\n  or\n  iszero\n  tag_5\n  jumpi\n  0x00\n  dup1\n  revert\ntag_5:\n  dup1\n  dup4\n  mstore\n  0x20\n  dup4\n  add\n  swap3\n  pop\n  pop\n  pop\n  swap1\n  dup1\n  mload\n  swap1\n  0x20\n  add\n  swap1\n  dup1\n  dup4\n  dup4\n  0x00\ntag_6:\n  dup4\n  dup2\n  lt\n  iszero\n  tag_8\n  jumpi\n  dup1\n  dup3\n  add\n  mload\n  dup2\n  dup5\n  add\n  mstore\n  0x20\n  dup2\n  add\n  swap1\n  pop\n  jump(tag_6)\ntag_8:\n  pop\n  pop\n  pop\n  pop\n  swap1\n  pop\n  swap1\n  dup2\n  add\n  swap1\n  0x1f\n  and\n  dup1\n  iszero\n  tag_9\n  jumpi\n  dup1\n  dup3\n  sub\n  dup1\n  mload\n  0x01\n  dup4\n  0x20\n  sub\n  0x0100\n  exp\n  sub\n  not\n  and\n  dup2\n  mstore\n  0x20\n  add\n  swap2\n  pop\ntag_9:\n  pop\n  0x40\n  mstore\n  0x20\n  add\n  dup1\n  mload\n  mload(0x40)\n  swap4\n  swap3\n  swap2\n  swap1\n  dup5\n  0x0100000000\n  dup3\n  gt\n  iszero\n  tag_10\n  jumpi\n  0x00\n  dup1\n  revert\ntag_10:\n  dup4\n  dup3\n  add\n  swap2\n  pop\n  0x20\n  dup3\n  add\n  dup6\n  dup2\n  gt\n  iszero\n  tag_11\n  jumpi\n  0x00\n  dup1\n  revert\ntag_11:\n  dup3\n  mload\n  dup7\n  0x01\n  dup3\n  mul\n  dup4\n  add\n  gt\n  0x0100000000\n  dup3\n  gt\n  or\n  iszero\n  tag_12\n  jumpi\n  0x00\n  dup1\n  revert\ntag_12:\n  dup1\n  dup4\n  mstore\n  0x20\n  dup4\n  add\n  swap3\n  pop\n  pop\n  pop\n  swap1\n  dup1\n  mload\n  swap1\n  0x20\n  add\n  swap1\n  dup1\n  dup4\n  dup4\n  0x00\ntag_13:\n  dup4\n  dup2\n  lt\n  iszero\n  tag_15\n  jumpi\n  dup1\n  dup3\n  add\n  mload\n  dup2\n  dup5\n  add\n  mstore\n  0x20\n  dup2\n  add\n  swap1\n  pop\n  jump(tag_13)\ntag_15:\n  pop\n  pop\n  pop\n  pop\n  swap1\n  pop\n  swap1\n  dup2\n  add\n  swap1\n  0x1f\n  and\n  dup1\n  iszero\n  tag_16\n  jumpi\n  dup1\n  dup3\n  sub\n  dup1\n  mload\n  0x01\n  dup4\n  0x20\n  sub\n  0x0100\n  exp\n  sub\n  not\n  and\n  dup2\n  mstore\n  0x20\n  add\n  swap2\n  pop\ntag_16:\n  pop\n  0x40\n  mstore\n  0x20\n  add\n  dup1\n  mload\n  swap1\n  0x20\n  add\n  swap1\n  swap3\n  swap2\n  swap1\n  dup1\n  mload\n  swap1\n  0x20\n  add\n  swap1\n  swap3\n  swap2\n  swap1\n  dup1\n  mload\n  swap1\n  0x20\n  add\n  swap1\n  swap3\n  swap2\n  swap1\n  pop\n  pop\n  pop\n    /* \"blockchain/real_estate_major.sol\":4794:4797  100 */\n  0x64\n    /* \"blockchain/real_estate_major.sol\":4765:4771  shares */\n  0x11\n    /* \"blockchain/real_estate_major.sol\":4765:4791  shares[_mainPropertyOwner] */\n  0x00\n    /* \"blockchain/real_estate_major.sol\":4772:4790  _mainPropertyOwner */\n  dup6\n    /* \"blockchain/real_estate_major.sol\":4765:4791  shares[_mainPropertyOwner] */\n  0xffffffffffffffffffffffffffffffffffffffff\n  and\n  0xffffffffffffffffffffffffffffffffffffffff\n  and\n  dup2\n  mstore\n  0x20\n  add\n  swap1\n  dup2\n  mstore\n  0x20\n  add\n  0x00\n  keccak256\n    /* \"blockchain/real_estate_major.sol\":4765:4797  shares[_mainPropertyOwner] = 100 */\n  dup2\n  swap1\n  sstore\n  pop\n    /* \"blockchain/real_estate_major.sol\":4913:4916  100 */\n  0x64\n    /* \"blockchain/real_estate_major.sol\":4899:4910  totalSupply */\n  0x02\n    /* \"blockchain/real_estate_major.sol\":4899:4916  totalSupply = 100 */\n  dup2\n  swap1\n  sstore\n  pop\n    /* \"blockchain/real_estate_major.sol\":5052:5053  2 */\n  0x02\n    /* \"blockchain/real_estate_major.sol\":5039:5050  totalSupply */\n  dup1\n  sload\n    /* \"blockchain/real_estate_major.sol\":5039:5053  totalSupply**2 */\n  exp\n    /* \"blockchain/real_estate_major.sol\":5024:5036  totalSupply2 */\n  0x03\n    /* \"blockchain/real_estate_major.sol\":5024:5053  totalSupply2 = totalSupply**2 */\n  dup2\n  swap1\n  sstore\n  pop\n    /* \"blockchain/real_estate_major.sol\":5112:5123  _propertyID */\n  dup5\n    /* \"blockchain/real_estate_major.sol\":5105:5109  name */\n  0x0a\n    /* \"blockchain/real_estate_major.sol\":5105:5123  name = _propertyID */\n  swap1\n  dup1\n  mload\n  swap1\n  0x20\n  add\n  swap1\n  tag_19\n  swap3\n  swap2\n  swap1\n  tag_20\n  jump\t// in\ntag_19:\n  pop\n    /* \"blockchain/real_estate_major.sol\":5139:5140  0 */\n  0x00\n    /* \"blockchain/real_estate_major.sol\":5128:5136  decimals */\n  dup1\n  0x01\n    /* \"blockchain/real_estate_major.sol\":5128:5140  decimals = 0 */\n  0x0100\n  exp\n  dup2\n  sload\n  dup2\n  0xff\n  mul\n  not\n  and\n  swap1\n  dup4\n  0xff\n  and\n  mul\n  or\n  swap1\n  sstore\n  pop\n    /* \"blockchain/real_estate_major.sol\":5154:5169  _propertySymbol */\n  dup4\n    /* \"blockchain/real_estate_major.sol\":5145:5151  symbol */\n  0x0b\n    /* \"blockchain/real_estate_major.sol\":5145:5169  symbol = _propertySymbol */\n  swap1\n  dup1\n  mload\n  swap1\n  0x20\n  add\n  swap1\n  tag_21\n  swap3\n  swap2\n  swap1\n  tag_20\n  jump\t// in\ntag_21:\n  pop\n    /* \"blockchain/real_estate_major.sol\":5180:5184  _tax */\n  dup2\n    /* \"blockchain/real_estate_major.sol\":5174:5177  tax */\n  0x00\n  0x02\n    /* \"blockchain/real_estate_major.sol\":5174:5184  tax = _tax */\n  0x0100\n  exp\n  dup2\n  sload\n  dup2\n  0xff\n  mul\n  not\n  and\n  swap1\n  dup4\n  0xff\n  and\n  mul\n  or\n  swap1\n  sstore\n  pop\n    /* \"blockchain/real_estate_major.sol\":5294:5312  _mainPropertyOwner */\n  dup3\n    /* \"blockchain/real_estate_major.sol\":5274:5291  mainPropertyOwner */\n  0x0d\n  0x00\n    /* \"blockchain/real_estate_major.sol\":5274:5312  mainPropertyOwner = _mainPropertyOwner */\n  0x0100\n  exp\n  dup2\n  sload\n  dup2\n  0xffffffffffffffffffffffffffffffffffffffff\n  mul\n  not\n  and\n  swap1\n  dup4\n  0xffffffffffffffffffffffffffffffffffffffff\n  and\n  mul\n  or\n  swap1\n  sstore\n  pop\n    /* \"blockchain/real_estate_major.sol\":5317:5329  stakeholders */\n  0x0f\n    /* \"blockchain/real_estate_major.sol\":5335:5338  gov */\n  0x0c\n  0x00\n  swap1\n  sload\n  swap1\n  0x0100\n  exp\n  swap1\n  div\n  0xffffffffffffffffffffffffffffffffffffffff\n  and\n    /* \"blockchain/real_estate_major.sol\":5317:5339  stakeholders.push(gov) */\n  swap1\n  dup1\n  0x01\n  dup2\n  sload\n  add\n  dup1\n  dup3\n  sstore\n  dup1\n  swap2\n  pop\n  pop\n  0x01\n  swap1\n  sub\n  swap1\n  0x00\n  mstore\n  keccak256(0x00, 0x20)\n  add\n  0x00\n  swap1\n  swap2\n  swap1\n  swap2\n  swap1\n  swap2\n  0x0100\n  exp\n  dup2\n  sload\n  dup2\n  0xffffffffffffffffffffffffffffffffffffffff\n  mul\n  not\n  and\n  swap1\n  dup4\n  0xffffffffffffffffffffffffffffffffffffffff\n  and\n  mul\n  or\n  swap1\n  sstore\n  pop\n    /* \"blockchain/real_estate_major.sol\":5474:5486  stakeholders */\n  0x0f\n    /* \"blockchain/real_estate_major.sol\":5492:5509  mainPropertyOwner */\n  0x0d\n  0x00\n  swap1\n  sload\n  swap1\n  0x0100\n  exp\n  swap1\n  div\n  0xffffffffffffffffffffffffffffffffffffffff\n  and\n    /* \"blockchain/real_estate_major.sol\":5474:5510  stakeholders.push(mainPropertyOwner) */\n  swap1\n  dup1\n  0x01\n  dup2\n  sload\n  add\n  dup1\n  dup3\n  sstore\n  dup1\n  swap2\n  pop\n  pop\n  0x01\n  swap1\n  sub\n  swap1\n  0x00\n  mstore\n  keccak256(0x00, 0x20)\n  add\n  0x00\n  swap1\n  swap2\n  swap1\n  swap2\n  swap1\n  swap2\n  0x0100\n  exp\n  dup2\n  sload\n  dup2\n  0xffffffffffffffffffffffffffffffffffffffff\n  mul\n  not\n  and\n  swap1\n  dup4\n  0xffffffffffffffffffffffffffffffffffffffff\n  and\n  mul\n  or\n  swap1\n  sstore\n  pop\n    /* \"blockchain/real_estate_major.sol\":649:659  2**256 - 1 */\n  0xffffffffffffffffffffffffffffffffffffffffffffffffffffffffffffffff\n    /* \"blockchain/real_estate_major.sol\":5515:5522  allowed */\n  0x12\n    /* \"blockchain/real_estate_major.sol\":5515:5541  allowed[mainPropertyOwner] */\n  0x00\n    /* \"blockchain/real_estate_major.sol\":5523:5540  mainPropertyOwner */\n  0x0d\n  0x00\n  swap1\n  sload\n  swap1\n  0x0100\n  exp\n  swap1\n  div\n  0xffffffffffffffffffffffffffffffffffffffff\n  and\n    /* \"blockchain/real_estate_major.sol\":5515:5541  allowed[mainPropertyOwner] */\n  0xffffffffffffffffffffffffffffffffffffffff\n  and\n  0xffffffffffffffffffffffffffffffffffffffff\n  and\n  dup2\n  mstore\n  0x20\n  add\n  swap1\n  dup2\n  mstore\n  0x20\n  add\n  0x00\n  keccak256\n    /* \"blockchain/real_estate_major.sol\":5515:5546  allowed[mainPropertyOwner][gov] */\n  0x00\n    /* \"blockchain/real_estate_major.sol\":5542:5545  gov */\n  0x0c\n  0x00\n  swap1\n  sload\n  swap1\n  0x0100\n  exp\n  swap1\n  div\n  0xffffffffffffffffffffffffffffffffffffffff\n  and\n    /* \"blockchain/real_estate_major.sol\":5515:5546  allowed[mainPropertyOwner][gov] */\n  0xffffffffffffffffffffffffffffffffffffffff\n  and\n  0xffffffffffffffffffffffffffffffffffffffff\n  and\n  dup2\n  mstore\n  0x20\n  add\n  swap1\n  dup2\n  mstore\n  0x20\n  add\n  0x00\n  keccak256\n    /* \"blockchain/real_estate_major.sol\":5515:5560  allowed[mainPropertyOwner][gov] = MAX_UINT256 */\n  dup2\n  swap1\n  sstore\n  pop\n    /* \"blockchain/real_estate_major.sol\":5657:5670  _avgBlockTime */\n  dup1\n    /* \"blockchain/real_estate_major.sol\":5642:5654  avgBlockTime */\n  0x00\n  dup1\n    /* \"blockchain/real_estate_major.sol\":5642:5670  avgBlockTime = _avgBlockTime */\n  0x0100\n  exp\n  dup2\n  sload\n  dup2\n  0xff\n  mul\n  not\n  and\n  swap1\n  dup4\n  0xff\n  and\n  mul\n  or\n  swap1\n  sstore\n  pop\n    /* \"blockchain/real_estate_major.sol\":5828:5840  avgBlockTime */\n  0x00\n  dup1\n  sload\n  swap1\n  0x0100\n  exp\n  swap1\n  div\n  0xff\n  and\n    /* \"blockchain/real_estate_major.sol\":5816:5840  60*60*24*30/avgBlockTime */\n  0xff\n  and\n    /* \"blockchain/real_estate_major.sol\":5816:5827  60*60*24*30 */\n  0x278d00\n    /* \"blockchain/real_estate_major.sol\":5816:5840  60*60*24*30/avgBlockTime */\n  dup2\n  tag_24\n  jumpi\n  invalid\ntag_24:\n  div\n    /* \"blockchain/real_estate_major.sol\":5799:5840  blocksPer30Day = 60*60*24*30/avgBlockTime */\n  0xffffff\n  and\n    /* \"blockchain/real_estate_major.sol\":5799:5813  blocksPer30Day */\n  0x06\n    /* \"blockchain/real_estate_major.sol\":5799:5840  blocksPer30Day = 60*60*24*30/avgBlockTime */\n  dup2\n  swap1\n  sstore\n  pop\n    /* \"blockchain/real_estate_major.sol\":5868:5870  12 */\n  0x0c\n    /* \"blockchain/real_estate_major.sol\":5848:5865  rentalLimitMonths */\n  0x00\n  0x03\n    /* \"blockchain/real_estate_major.sol\":5848:5870  rentalLimitMonths = 12 */\n  0x0100\n  exp\n  dup2\n  sload\n  dup2\n  0xff\n  mul\n  not\n  and\n  swap1\n  dup4\n  0xff\n  and\n  mul\n  or\n  swap1\n  sstore\n  pop\n    /* \"blockchain/real_estate_major.sol\":6013:6027  blocksPer30Day */\n  sload(0x06)\n    /* \"blockchain/real_estate_major.sol\":5993:6010  rentalLimitMonths */\n  0x00\n  0x03\n  swap1\n  sload\n  swap1\n  0x0100\n  exp\n  swap1\n  div\n  0xff\n  and\n    /* \"blockchain/real_estate_major.sol\":5993:6027  rentalLimitMonths * blocksPer30Day */\n  0xff\n  and\n  mul\n    /* \"blockchain/real_estate_major.sol\":5973:5990  rentalLimitBlocks */\n  0x01\n    /* \"blockchain/real_estate_major.sol\":5973:6027  rentalLimitBlocks = rentalLimitMonths * blocksPer30Day */\n  dup2\n  swap1\n  sstore\n  pop\n    /* \"blockchain/real_estate_major.sol\":4628:6032  constructor (string memory _propertyID, string memory _propertySymbol, address _mainPropertyOwner, uint8 _tax, uint8 _avgBlockTime) {\r... */\n  pop\n  pop\n  pop\n  pop\n  pop\n    /* \"blockchain/real_estate_major.sol\":60:16762  contract realEstate {\r... */\n  jump(tag_25)\ntag_20:\n  dup3\n  dup1\n  sload\n  0x01\n  dup2\n  0x01\n  and\n  iszero\n  0x0100\n  mul\n  sub\n  and\n  0x02\n  swap1\n  div\n  swap1\n  0x00\n  mstore\n  keccak256(0x00, 0x20)\n  swap1\n  0x1f\n  add\n  0x20\n  swap1\n  div\n  dup2\n  add\n  swap3\n  dup3\n  tag_27\n  jumpi\n  0x00\n  dup6\n  sstore\n  jump(tag_26)\ntag_27:\n  dup3\n  0x1f\n  lt\n  tag_28\n  jumpi\n  dup1\n  mload\n  not(0xff)\n  and\n  dup4\n  dup1\n  add\n  or\n  dup6\n  sstore\n  jump(tag_26)\ntag_28:\n  dup3\n  dup1\n  add\n  0x01\n  add\n  dup6\n  sstore\n  dup3\n  iszero\n  tag_26\n  jumpi\n  swap2\n  dup3\n  add\ntag_29:\n  dup3\n  dup2\n  gt\n  iszero\n  tag_30\n  jumpi\n  dup3\n  mload\n  dup3\n  sstore\n  swap2\n  0x20\n  add\n  swap2\n  swap1\n  0x01\n  add\n  swap1\n  jump(tag_29)\ntag_30:\ntag_26:\n  pop\n  swap1\n  pop\n  tag_31\n  swap2\n  swap1\n  tag_32\n  jump\t// in\ntag_31:\n  pop\n  swap1\n  jump\t// out\ntag_32:\ntag_33:\n  dup1\n  dup3\n  gt\n  iszero\n  tag_34\n  jumpi\n  0x00\n  dup2\n  0x00\n  swap1\n  sstore\n  pop\n  0x01\n  add\n  jump(tag_33)\ntag_34:\n  pop\n  swap1\n  jump\t// out\ntag_25:\n  dataSize(sub_0)\n  dup1\n  dataOffset(sub_0)\n  0x00\n  codecopy\n  0x00\n  return\nstop\n\nsub_0: assembly {\n        /* \"blockchain/real_estate_major.sol\":60:16762  contract realEstate {\r... */\n      mstore(0x40, 0x80)\n      jumpi(tag_1, lt(calldatasize, 0x04))\n      shr(0xe0, calldataload(0x00))\n      dup1\n      0x921d3ba4\n      gt\n      tag_43\n      jumpi\n      dup1\n      0xc202ea4c\n      gt\n      tag_44\n      jumpi\n      dup1\n      0xe5c42fd1\n      gt\n      tag_45\n      jumpi\n      dup1\n      0xe5c42fd1\n      eq\n      tag_38\n      jumpi\n      dup1\n      0xef037b90\n      eq\n      tag_39\n      jumpi\n      dup1\n      0xf002c9ff\n      eq\n      tag_40\n      jumpi\n      dup1\n      0xf19e1486\n      eq\n      tag_41\n      jumpi\n      dup1\n      0xfe40e492\n      eq\n      tag_42\n      jumpi\n      jump(tag_2)\n    tag_45:\n      dup1\n      0xc202ea4c\n      eq\n      tag_33\n      jumpi\n      dup1\n      0xc8af0342\n      eq\n      tag_34\n      jumpi\n      dup1\n      0xce7c2ac2\n      eq\n      tag_35\n      jumpi\n      dup1\n      0xd084c4e4\n      eq\n      tag_36\n      jumpi\n      dup1\n      0xe4fc6b6d\n      eq\n      tag_37\n      jumpi\n      jump(tag_2)\n    tag_44:\n      dup1\n      0x9d0677f9\n      gt\n      tag_46\n      jumpi\n      dup1\n      0x9d0677f9\n      eq\n      tag_28\n      jumpi\n      dup1\n      0x9d8e8384\n      eq\n      tag_29\n      jumpi\n      dup1\n      0xa9059cbb\n      eq\n      tag_30\n      jumpi\n      dup1\n      0xadf07791\n      eq\n      tag_31\n      jumpi\n      dup1\n      0xbbaa8803\n      eq\n      tag_32\n      jumpi\n      jump(tag_2)\n    tag_46:\n      dup1\n      0x921d3ba4\n      eq\n      tag_23\n      jumpi\n      dup1\n      0x95d89b41\n      eq\n      tag_24\n      jumpi\n      dup1\n      0x96178c20\n      eq\n      tag_25\n      jumpi\n      dup1\n      0x99c8d556\n      eq\n      tag_26\n      jumpi\n      dup1\n      0x9acb5045\n      eq\n      tag_27\n      jumpi\n      jump(tag_2)\n    tag_43:\n      dup1\n      0x3ccfd60b\n      gt\n      tag_47\n      jumpi\n      dup1\n      0x5759fb3c\n      gt\n      tag_48\n      jumpi\n      dup1\n      0x5759fb3c\n      eq\n      tag_18\n      jumpi\n      dup1\n      0x5fa8b49e\n      eq\n      tag_19\n      jumpi\n      dup1\n      0x78ae98c8\n      eq\n      tag_20\n      jumpi\n      dup1\n      0x7a044323\n      eq\n      tag_21\n      jumpi\n      dup1\n      0x804b2de2\n      eq\n      tag_22\n      jumpi\n      jump(tag_2)\n    tag_48:\n      dup1\n      0x3ccfd60b\n      eq\n      tag_13\n      jumpi\n      dup1\n      0x404c5663\n      eq\n      tag_14\n      jumpi\n      dup1\n      0x4e71e0c8\n      eq\n      tag_15\n      jumpi\n      dup1\n      0x4ff0fe9b\n      eq\n      tag_16\n      jumpi\n      dup1\n      0x51c791c7\n      eq\n      tag_17\n      jumpi\n      jump(tag_2)\n    tag_47:\n      dup1\n      0x1d6b8b72\n      gt\n      tag_49\n      jumpi\n      dup1\n      0x1d6b8b72\n      eq\n      tag_8\n      jumpi\n      dup1\n      0x2098ea40\n      eq\n      tag_9\n      jumpi\n      dup1\n      0x23980a7c\n      eq\n      tag_10\n      jumpi\n      dup1\n      0x25a6eb40\n      eq\n      tag_11\n      jumpi\n      dup1\n      0x31990c83\n      eq\n      tag_12\n      jumpi\n      jump(tag_2)\n    tag_49:\n      dup1\n      0x06fdde03\n      eq\n      tag_3\n      jumpi\n      dup1\n      0x07f084e6\n      eq\n      tag_4\n      jumpi\n      dup1\n      0x1034c896\n      eq\n      tag_5\n      jumpi\n      dup1\n      0x12d43a51\n      eq\n      tag_6\n      jumpi\n      dup1\n      0x18160ddd\n      eq\n      tag_7\n      jumpi\n      jump(tag_2)\n    tag_1:\n      jumpi(tag_2, calldatasize)\n        /* \"blockchain/real_estate_major.sol\":16716:16726  msg.sender */\n      caller\n        /* \"blockchain/real_estate_major.sol\":16715:16736  (msg.sender).transfer */\n      0xffffffffffffffffffffffffffffffffffffffff\n      and\n        /* \"blockchain/real_estate_major.sol\":16715:16747  (msg.sender).transfer(msg.value) */\n      0x08fc\n        /* \"blockchain/real_estate_major.sol\":16737:16746  msg.value */\n      callvalue\n        /* \"blockchain/real_estate_major.sol\":16715:16747  (msg.sender).transfer(msg.value) */\n      swap1\n      dup2\n      iszero\n      mul\n      swap1\n      mload(0x40)\n      0x00\n      mload(0x40)\n      dup1\n      dup4\n      sub\n      dup2\n      dup6\n      dup9\n      dup9\n      call\n      swap4\n      pop\n      pop\n      pop\n      pop\n      iszero\n      dup1\n      iszero\n      tag_53\n      jumpi\n      returndatasize\n      0x00\n      dup1\n      returndatacopy\n      revert(0x00, returndatasize)\n    tag_53:\n      pop\n        /* \"blockchain/real_estate_major.sol\":60:16762  contract realEstate {\r... */\n      stop\n    tag_2:\n      0x00\n      dup1\n      revert\n        /* \"blockchain/real_estate_major.sol\":1977:1995  string public name */\n    tag_3:\n      callvalue\n      dup1\n      iszero\n      tag_54\n      jumpi\n      0x00\n      dup1\n      revert\n    tag_54:\n      pop\n      tag_55\n      tag_56\n      jump\t// in\n    tag_55:\n      mload(0x40)\n      dup1\n      dup1\n      0x20\n      add\n      dup3\n      dup2\n      sub\n      dup3\n      mstore\n      dup4\n      dup2\n      dup2\n      mload\n      dup2\n      mstore\n      0x20\n      add\n      swap2\n      pop\n      dup1\n      mload\n      swap1\n      0x20\n      add\n      swap1\n      dup1\n      dup4\n      dup4\n      0x00\n    tag_57:\n      dup4\n      dup2\n      lt\n      iszero\n      tag_59\n      jumpi\n      dup1\n      dup3\n      add\n      mload\n      dup2\n      dup5\n      add\n      mstore\n      0x20\n      dup2\n      add\n      swap1\n      pop\n      jump(tag_57)\n    tag_59:\n      pop\n      pop\n      pop\n      pop\n      swap1\n      pop\n      swap1\n      dup2\n      add\n      swap1\n      0x1f\n      and\n      dup1\n      iszero\n      tag_60\n      jumpi\n      dup1\n      dup3\n      sub\n      dup1\n      mload\n      0x01\n      dup4\n      0x20\n      sub\n      0x0100\n      exp\n      sub\n      not\n      and\n      dup2\n      mstore\n      0x20\n      add\n      swap2\n      pop\n    tag_60:\n      pop\n      swap3\n      pop\n      pop\n      pop\n      mload(0x40)\n      dup1\n      swap2\n      sub\n      swap1\n      return\n        /* \"blockchain/real_estate_major.sol\":9114:9555  function SetAvgBlockTime (uint8 _sPerBlock) public onlyGov{         //we do not have a forgery proof time measurement in Ethereum. Therefore we count the ammount of blocks. One Block equals to 13s but this can be changed by the government.\r... */\n    tag_4:\n      callvalue\n      dup1\n      iszero\n      tag_61\n      jumpi\n      0x00\n      dup1\n      revert\n    tag_61:\n      pop\n      tag_62\n      0x04\n      dup1\n      calldatasize\n      sub\n      0x20\n      dup2\n      lt\n      iszero\n      tag_63\n      jumpi\n      0x00\n      dup1\n      revert\n    tag_63:\n      dup2\n      add\n      swap1\n      dup1\n      dup1\n      calldataload\n      0xff\n      and\n      swap1\n      0x20\n      add\n      swap1\n      swap3\n      swap2\n      swap1\n      pop\n      pop\n      pop\n      tag_64\n      jump\t// in\n    tag_62:\n      stop\n        /* \"blockchain/real_estate_major.sol\":7208:7927  function currentTenantCheck (address _tenantcheck) public view returns(bool,uint256){               //only works if from block.number on there is just one tenant, otherwise tells untill when rent is paid.\r... */\n    tag_5:\n      callvalue\n      dup1\n      iszero\n      tag_65\n      jumpi\n      0x00\n      dup1\n      revert\n    tag_65:\n      pop\n      tag_66\n      0x04\n      dup1\n      calldatasize\n      sub\n      0x20\n      dup2\n      lt\n      iszero\n      tag_67\n      jumpi\n      0x00\n      dup1\n      revert\n    tag_67:\n      dup2\n      add\n      swap1\n      dup1\n      dup1\n      calldataload\n      0xffffffffffffffffffffffffffffffffffffffff\n      and\n      swap1\n      0x20\n      add\n      swap1\n      swap3\n      swap2\n      swap1\n      pop\n      pop\n      pop\n      tag_68\n      jump\t// in\n    tag_66:\n      mload(0x40)\n      dup1\n      dup4\n      iszero\n      iszero\n      dup2\n      mstore\n      0x20\n      add\n      dup3\n      dup2\n      mstore\n      0x20\n      add\n      swap3\n      pop\n      pop\n      pop\n      mload(0x40)\n      dup1\n      swap2\n      sub\n      swap1\n      return\n        /* \"blockchain/real_estate_major.sol\":2251:2282  address public gov = msg.sender */\n    tag_6:\n      callvalue\n      dup1\n      iszero\n      tag_69\n      jumpi\n      0x00\n      dup1\n      revert\n    tag_69:\n      pop\n      tag_70\n      tag_71\n      jump\t// in\n    tag_70:\n      mload(0x40)\n      dup1\n      dup3\n      0xffffffffffffffffffffffffffffffffffffffff\n      and\n      dup2\n      mstore\n      0x20\n      add\n      swap2\n      pop\n      pop\n      mload(0x40)\n      dup1\n      swap2\n      sub\n      swap1\n      return\n        /* \"blockchain/real_estate_major.sol\":686:712  uint256 public totalSupply */\n    tag_7:\n      callvalue\n      dup1\n      iszero\n      tag_72\n      jumpi\n      0x00\n      dup1\n      revert\n    tag_72:\n      pop\n      tag_73\n      tag_74\n      jump\t// in\n    tag_73:\n      mload(0x40)\n      dup1\n      dup3\n      dup2\n      mstore\n      0x20\n      add\n      swap2\n      pop\n      pop\n      mload(0x40)\n      dup1\n      swap2\n      sub\n      swap1\n      return\n        /* \"blockchain/real_estate_major.sol\":2603:2632  address[] public stakeholders */\n    tag_8:\n      callvalue\n      dup1\n      iszero\n      tag_75\n      jumpi\n      0x00\n      dup1\n      revert\n    tag_75:\n      pop\n      tag_76\n      0x04\n      dup1\n      calldatasize\n      sub\n      0x20\n      dup2\n      lt\n      iszero\n      tag_77\n      jumpi\n      0x00\n      dup1\n      revert\n    tag_77:\n      dup2\n      add\n      swap1\n      dup1\n      dup1\n      calldataload\n      swap1\n      0x20\n      add\n      swap1\n      swap3\n      swap2\n      swap1\n      pop\n      pop\n      pop\n      tag_78\n      jump\t// in\n    tag_76:\n      mload(0x40)\n      dup1\n      dup3\n      0xffffffffffffffffffffffffffffffffffffffff\n      and\n      dup2\n      mstore\n      0x20\n      add\n      swap2\n      pop\n      pop\n      mload(0x40)\n      dup1\n      swap2\n      sub\n      swap1\n      return\n        /* \"blockchain/real_estate_major.sol\":10964:11157  function canPayRent(address _tenant) public onlyPropOwner{                  //decide who can pay rent in the future\r... */\n    tag_9:\n      callvalue\n      dup1\n      iszero\n      tag_79\n      jumpi\n      0x00\n      dup1\n      revert\n    tag_79:\n      pop\n      tag_80\n      0x04\n      dup1\n      calldatasize\n      sub\n      0x20\n      dup2\n      lt\n      iszero\n      tag_81\n      jumpi\n      0x00\n      dup1\n      revert\n    tag_81:\n      dup2\n      add\n      swap1\n      dup1\n      dup1\n      calldataload\n      0xffffffffffffffffffffffffffffffffffffffff\n      and\n      swap1\n      0x20\n      add\n      swap1\n      swap3\n      swap2\n      swap1\n      pop\n      pop\n      pop\n      tag_82\n      jump\t// in\n    tag_80:\n      stop\n        /* \"blockchain/real_estate_major.sol\":1311:1338  uint256 public rentPer30Day */\n    tag_10:\n      callvalue\n      dup1\n      iszero\n      tag_83\n      jumpi\n      0x00\n      dup1\n      revert\n    tag_83:\n      pop\n      tag_84\n      tag_85\n      jump\t// in\n    tag_84:\n      mload(0x40)\n      dup1\n      dup3\n      dup2\n      mstore\n      0x20\n      add\n      swap2\n      pop\n      pop\n      mload(0x40)\n      dup1\n      swap2\n      sub\n      swap1\n      return\n        /* \"blockchain/real_estate_major.sol\":11681:12162  function offerShares(uint256 _sharesOffered, uint256 _shareSellPrice) public{       //Stakeholder can offer # of Shares for  Price per Share\r... */\n    tag_11:\n      callvalue\n      dup1\n      iszero\n      tag_86\n      jumpi\n      0x00\n      dup1\n      revert\n    tag_86:\n      pop\n      tag_87\n      0x04\n      dup1\n      calldatasize\n      sub\n      0x40\n      dup2\n      lt\n      iszero\n      tag_88\n      jumpi\n      0x00\n      dup1\n      revert\n    tag_88:\n      dup2\n      add\n      swap1\n      dup1\n      dup1\n      calldataload\n      swap1\n      0x20\n      add\n      swap1\n      swap3\n      swap2\n      swap1\n      dup1\n      calldataload\n      swap1\n      0x20\n      add\n      swap1\n      swap3\n      swap2\n      swap1\n      pop\n      pop\n      pop\n      tag_89\n      jump\t// in\n    tag_87:\n      stop\n        /* \"blockchain/real_estate_major.sol\":11160:11435  function limitadvancedrent(uint8 _monthstolimit) onlyPropOwner public{      //mainPropertyOwner can decide how many months in advance the property can be rented out max\r... */\n    tag_12:\n      callvalue\n      dup1\n      iszero\n      tag_90\n      jumpi\n      0x00\n      dup1\n      revert\n    tag_90:\n      pop\n      tag_91\n      0x04\n      dup1\n      calldatasize\n      sub\n      0x20\n      dup2\n      lt\n      iszero\n      tag_92\n      jumpi\n      0x00\n      dup1\n      revert\n    tag_92:\n      dup2\n      add\n      swap1\n      dup1\n      dup1\n      calldataload\n      0xff\n      and\n      swap1\n      0x20\n      add\n      swap1\n      swap3\n      swap2\n      swap1\n      pop\n      pop\n      pop\n      tag_93\n      jump\t// in\n    tag_91:\n      stop\n        /* \"blockchain/real_estate_major.sol\":13667:13994  function withdraw() payable public {          //revenues can be withdrawn from individual shareholders (government can too withdraw its own revenues)\r... */\n    tag_13:\n      tag_94\n      tag_95\n      jump\t// in\n    tag_94:\n      stop\n        /* \"blockchain/real_estate_major.sol\":2338:2370  address public mainPropertyOwner */\n    tag_14:\n      callvalue\n      dup1\n      iszero\n      tag_96\n      jumpi\n      0x00\n      dup1\n      revert\n    tag_96:\n      pop\n      tag_97\n      tag_98\n      jump\t// in\n    tag_97:\n      mload(0x40)\n      dup1\n      dup3\n      0xffffffffffffffffffffffffffffffffffffffff\n      and\n      dup2\n      mstore\n      0x20\n      add\n      swap2\n      pop\n      pop\n      mload(0x40)\n      dup1\n      swap2\n      sub\n      swap1\n      return\n        /* \"blockchain/real_estate_major.sol\":13310:13656  function claimOwnership () public {             //claim main property ownership\r... */\n    tag_15:\n      callvalue\n      dup1\n      iszero\n      tag_99\n      jumpi\n      0x00\n      dup1\n      revert\n    tag_99:\n      pop\n      tag_100\n      tag_101\n      jump\t// in\n    tag_100:\n      stop\n        /* \"blockchain/real_estate_major.sol\":3242:3292  mapping (address => uint256) public rentpaidUntill */\n    tag_16:\n      callvalue\n      dup1\n      iszero\n      tag_102\n      jumpi\n      0x00\n      dup1\n      revert\n    tag_102:\n      pop\n      tag_103\n      0x04\n      dup1\n      calldatasize\n      sub\n      0x20\n      dup2\n      lt\n      iszero\n      tag_104\n      jumpi\n      0x00\n      dup1\n      revert\n    tag_104:\n      dup2\n      add\n      swap1\n      dup1\n      dup1\n      calldataload\n      0xffffffffffffffffffffffffffffffffffffffff\n      and\n      swap1\n      0x20\n      add\n      swap1\n      swap3\n      swap2\n      swap1\n      pop\n      pop\n      pop\n      tag_105\n      jump\t// in\n    tag_103:\n      mload(0x40)\n      dup1\n      dup3\n      dup2\n      mstore\n      0x20\n      add\n      swap2\n      pop\n      pop\n      mload(0x40)\n      dup1\n      swap2\n      sub\n      swap1\n      return\n        /* \"blockchain/real_estate_major.sol\":3462:3512  mapping (address => uint256) public shareSellPrice */\n    tag_17:\n      callvalue\n      dup1\n      iszero\n      tag_106\n      jumpi\n      0x00\n      dup1\n      revert\n    tag_106:\n      pop\n      tag_107\n      0x04\n      dup1\n      calldatasize\n      sub\n      0x20\n      dup2\n      lt\n      iszero\n      tag_108\n      jumpi\n      0x00\n      dup1\n      revert\n    tag_108:\n      dup2\n      add\n      swap1\n      dup1\n      dup1\n      calldataload\n      0xffffffffffffffffffffffffffffffffffffffff\n      and\n      swap1\n      0x20\n      add\n      swap1\n      swap3\n      swap2\n      swap1\n      pop\n      pop\n      pop\n      tag_109\n      jump\t// in\n    tag_107:\n      mload(0x40)\n      dup1\n      dup3\n      dup2\n      mstore\n      0x20\n      add\n      swap2\n      pop\n      pop\n      mload(0x40)\n      dup1\n      swap2\n      sub\n      swap1\n      return\n        /* \"blockchain/real_estate_major.sol\":8386:8861  function banStakeholder(address _stakeholder) public onlyGov {          // can remove stakeholder from stakeholders array and...\r... */\n    tag_18:\n      callvalue\n      dup1\n      iszero\n      tag_110\n      jumpi\n      0x00\n      dup1\n      revert\n    tag_110:\n      pop\n      tag_111\n      0x04\n      dup1\n      calldatasize\n      sub\n      0x20\n      dup2\n      lt\n      iszero\n      tag_112\n      jumpi\n      0x00\n      dup1\n      revert\n    tag_112:\n      dup2\n      add\n      swap1\n      dup1\n      dup1\n      calldataload\n      0xffffffffffffffffffffffffffffffffffffffff\n      and\n      swap1\n      0x20\n      add\n      swap1\n      swap3\n      swap2\n      swap1\n      pop\n      pop\n      pop\n      tag_113\n      jump\t// in\n    tag_111:\n      stop\n        /* \"blockchain/real_estate_major.sol\":14023:16588  function payRent(uint8 _months) public payable isMultipleOf eligibleToPayRent{          //needs to be eligible to pay rent\r... */\n    tag_19:\n      tag_114\n      0x04\n      dup1\n      calldatasize\n      sub\n      0x20\n      dup2\n      lt\n      iszero\n      tag_115\n      jumpi\n      0x00\n      dup1\n      revert\n    tag_115:\n      dup2\n      add\n      swap1\n      dup1\n      dup1\n      calldataload\n      0xff\n      and\n      swap1\n      0x20\n      add\n      swap1\n      swap3\n      swap2\n      swap1\n      pop\n      pop\n      pop\n      tag_116\n      jump\t// in\n    tag_114:\n      stop\n        /* \"blockchain/real_estate_major.sol\":2877:2921  mapping (address => uint256) public revenues */\n    tag_20:\n      callvalue\n      dup1\n      iszero\n      tag_117\n      jumpi\n      0x00\n      dup1\n      revert\n    tag_117:\n      pop\n      tag_118\n      0x04\n      dup1\n      calldatasize\n      sub\n      0x20\n      dup2\n      lt\n      iszero\n      tag_119\n      jumpi\n      0x00\n      dup1\n      revert\n    tag_119:\n      dup2\n      add\n      swap1\n      dup1\n      dup1\n      calldataload\n      0xffffffffffffffffffffffffffffffffffffffff\n      and\n      swap1\n      0x20\n      add\n      swap1\n      swap3\n      swap2\n      swap1\n      pop\n      pop\n      pop\n      tag_120\n      jump\t// in\n    tag_118:\n      mload(0x40)\n      dup1\n      dup3\n      dup2\n      mstore\n      0x20\n      add\n      swap2\n      pop\n      pop\n      mload(0x40)\n      dup1\n      swap2\n      sub\n      swap1\n      return\n        /* \"blockchain/real_estate_major.sol\":1423:1449  uint256 public accumulated */\n    tag_21:\n      callvalue\n      dup1\n      iszero\n      tag_121\n      jumpi\n      0x00\n      dup1\n      revert\n    tag_121:\n      pop\n      tag_122\n      tag_123\n      jump\t// in\n    tag_122:\n      mload(0x40)\n      dup1\n      dup3\n      dup2\n      mstore\n      0x20\n      add\n      swap2\n      pop\n      pop\n      mload(0x40)\n      dup1\n      swap2\n      sub\n      swap1\n      return\n        /* \"blockchain/real_estate_major.sol\":1768:1797  uint256 public occupiedUntill */\n    tag_22:\n      callvalue\n      dup1\n      iszero\n      tag_124\n      jumpi\n      0x00\n      dup1\n      revert\n    tag_124:\n      pop\n      tag_125\n      tag_126\n      jump\t// in\n    tag_125:\n      mload(0x40)\n      dup1\n      dup3\n      dup2\n      mstore\n      0x20\n      add\n      swap2\n      pop\n      pop\n      mload(0x40)\n      dup1\n      swap2\n      sub\n      swap1\n      return\n        /* \"blockchain/real_estate_major.sol\":435:465  uint8 public rentalLimitMonths */\n    tag_23:\n      callvalue\n      dup1\n      iszero\n      tag_127\n      jumpi\n      0x00\n      dup1\n      revert\n    tag_127:\n      pop\n      tag_128\n      tag_129\n      jump\t// in\n    tag_128:\n      mload(0x40)\n      dup1\n      dup3\n      0xff\n      and\n      dup2\n      mstore\n      0x20\n      add\n      swap2\n      pop\n      pop\n      mload(0x40)\n      dup1\n      swap2\n      sub\n      swap1\n      return\n        /* \"blockchain/real_estate_major.sol\":2110:2130  string public symbol */\n    tag_24:\n      callvalue\n      dup1\n      iszero\n      tag_130\n      jumpi\n      0x00\n      dup1\n      revert\n    tag_130:\n      pop\n      tag_131\n      tag_132\n      jump\t// in\n    tag_131:\n      mload(0x40)\n      dup1\n      dup1\n      0x20\n      add\n      dup3\n      dup2\n      sub\n      dup3\n      mstore\n      dup4\n      dup2\n      dup2\n      mload\n      dup2\n      mstore\n      0x20\n      add\n      swap2\n      pop\n      dup1\n      mload\n      swap1\n      0x20\n      add\n      swap1\n      dup1\n      dup4\n      dup4\n      0x00\n    tag_133:\n      dup4\n      dup2\n      lt\n      iszero\n      tag_135\n      jumpi\n      dup1\n      dup3\n      add\n      mload\n      dup2\n      dup5\n      add\n      mstore\n      0x20\n      dup2\n      add\n      swap1\n      pop\n      jump(tag_133)\n    tag_135:\n      pop\n      pop\n      pop\n      pop\n      swap1\n      pop\n      swap1\n      dup2\n      add\n      swap1\n      0x1f\n      and\n      dup1\n      iszero\n      tag_136\n      jumpi\n      dup1\n      dup3\n      sub\n      dup1\n      mload\n      0x01\n      dup4\n      0x20\n      sub\n      0x0100\n      exp\n      sub\n      not\n      and\n      dup2\n      mstore\n      0x20\n      add\n      swap2\n      pop\n    tag_136:\n      pop\n      swap3\n      pop\n      pop\n      pop\n      mload(0x40)\n      dup1\n      swap2\n      sub\n      swap1\n      return\n        /* \"blockchain/real_estate_major.sol\":794:821  uint256 public totalSupply2 */\n    tag_25:\n      callvalue\n      dup1\n      iszero\n      tag_137\n      jumpi\n      0x00\n      dup1\n      revert\n    tag_137:\n      pop\n      tag_138\n      tag_139\n      jump\t// in\n    tag_138:\n      mload(0x40)\n      dup1\n      dup3\n      dup2\n      mstore\n      0x20\n      add\n      swap2\n      pop\n      pop\n      mload(0x40)\n      dup1\n      swap2\n      sub\n      swap1\n      return\n        /* \"blockchain/real_estate_major.sol\":311:327  uint8 public tax */\n    tag_26:\n      callvalue\n      dup1\n      iszero\n      tag_140\n      jumpi\n      0x00\n      dup1\n      revert\n    tag_140:\n      pop\n      tag_141\n      tag_142\n      jump\t// in\n    tag_141:\n      mload(0x40)\n      dup1\n      dup3\n      0xff\n      and\n      dup2\n      mstore\n      0x20\n      add\n      swap2\n      pop\n      pop\n      mload(0x40)\n      dup1\n      swap2\n      sub\n      swap1\n      return\n        /* \"blockchain/real_estate_major.sol\":539:571  uint256 public rentalLimitBlocks */\n    tag_27:\n      callvalue\n      dup1\n      iszero\n      tag_143\n      jumpi\n      0x00\n      dup1\n      revert\n    tag_143:\n      pop\n      tag_144\n      tag_145\n      jump\t// in\n    tag_144:\n      mload(0x40)\n      dup1\n      dup3\n      dup2\n      mstore\n      0x20\n      add\n      swap2\n      pop\n      pop\n      mload(0x40)\n      dup1\n      swap2\n      sub\n      swap1\n      return\n        /* \"blockchain/real_estate_major.sol\":11443:11646  function setRentper30Day(uint256 _rent) public onlyPropOwner{               //mainPropertyOwner can set rentPer30Day in WEI\r... */\n    tag_28:\n      callvalue\n      dup1\n      iszero\n      tag_146\n      jumpi\n      0x00\n      dup1\n      revert\n    tag_146:\n      pop\n      tag_147\n      0x04\n      dup1\n      calldatasize\n      sub\n      0x20\n      dup2\n      lt\n      iszero\n      tag_148\n      jumpi\n      0x00\n      dup1\n      revert\n    tag_148:\n      dup2\n      add\n      swap1\n      dup1\n      dup1\n      calldataload\n      swap1\n      0x20\n      add\n      swap1\n      swap3\n      swap2\n      swap1\n      pop\n      pop\n      pop\n      tag_149\n      jump\t// in\n    tag_147:\n      stop\n        /* \"blockchain/real_estate_major.sol\":1557:1586  uint256 public blocksPer30Day */\n    tag_29:\n      callvalue\n      dup1\n      iszero\n      tag_150\n      jumpi\n      0x00\n      dup1\n      revert\n    tag_150:\n      pop\n      tag_151\n      tag_152\n      jump\t// in\n    tag_151:\n      mload(0x40)\n      dup1\n      dup3\n      dup2\n      mstore\n      0x20\n      add\n      swap2\n      pop\n      pop\n      mload(0x40)\n      dup1\n      swap2\n      sub\n      swap1\n      return\n        /* \"blockchain/real_estate_major.sol\":12878:13301  function transfer(address _recipient, uint256 _amount) public returns (bool) {      //transfer of Token, requires isStakeholder\r... */\n    tag_30:\n      callvalue\n      dup1\n      iszero\n      tag_153\n      jumpi\n      0x00\n      dup1\n      revert\n    tag_153:\n      pop\n      tag_154\n      0x04\n      dup1\n      calldatasize\n      sub\n      0x40\n      dup2\n      lt\n      iszero\n      tag_155\n      jumpi\n      0x00\n      dup1\n      revert\n    tag_155:\n      dup2\n      add\n      swap1\n      dup1\n      dup1\n      calldataload\n      0xffffffffffffffffffffffffffffffffffffffff\n      and\n      swap1\n      0x20\n      add\n      swap1\n      swap3\n      swap2\n      swap1\n      dup1\n      calldataload\n      swap1\n      0x20\n      add\n      swap1\n      swap3\n      swap2\n      swap1\n      pop\n      pop\n      pop\n      tag_156\n      jump\t// in\n    tag_154:\n      mload(0x40)\n      dup1\n      dup3\n      iszero\n      iszero\n      dup2\n      mstore\n      0x20\n      add\n      swap2\n      pop\n      pop\n      mload(0x40)\n      dup1\n      swap2\n      sub\n      swap1\n      return\n        /* \"blockchain/real_estate_major.sol\":2504:2525  address public tenant */\n    tag_31:\n      callvalue\n      dup1\n      iszero\n      tag_157\n      jumpi\n      0x00\n      dup1\n      revert\n    tag_157:\n      pop\n      tag_158\n      tag_159\n      jump\t// in\n    tag_158:\n      mload(0x40)\n      dup1\n      dup3\n      0xffffffffffffffffffffffffffffffffffffffff\n      and\n      dup2\n      mstore\n      0x20\n      add\n      swap2\n      pop\n      pop\n      mload(0x40)\n      dup1\n      swap2\n      sub\n      swap1\n      return\n        /* \"blockchain/real_estate_major.sol\":6765:6911  function showSharesOf(address _owner) public view returns (uint256 balance) {       //shows shares for each address.\r... */\n    tag_32:\n      callvalue\n      dup1\n      iszero\n      tag_160\n      jumpi\n      0x00\n      dup1\n      revert\n    tag_160:\n      pop\n      tag_161\n      0x04\n      dup1\n      calldatasize\n      sub\n      0x20\n      dup2\n      lt\n      iszero\n      tag_162\n      jumpi\n      0x00\n      dup1\n      revert\n    tag_162:\n      dup2\n      add\n      swap1\n      dup1\n      dup1\n      calldataload\n      0xffffffffffffffffffffffffffffffffffffffff\n      and\n      swap1\n      0x20\n      add\n      swap1\n      swap3\n      swap2\n      swap1\n      pop\n      pop\n      pop\n      tag_163\n      jump\t// in\n    tag_161:\n      mload(0x40)\n      dup1\n      dup3\n      dup2\n      mstore\n      0x20\n      add\n      swap2\n      pop\n      pop\n      mload(0x40)\n      dup1\n      swap2\n      sub\n      swap1\n      return\n        /* \"blockchain/real_estate_major.sol\":8866:9109  function setTax (uint8 _x) public onlyGov {                             //set new tax rate (for incoming rent being taxed with %)\r... */\n    tag_33:\n      callvalue\n      dup1\n      iszero\n      tag_164\n      jumpi\n      0x00\n      dup1\n      revert\n    tag_164:\n      pop\n      tag_165\n      0x04\n      dup1\n      calldatasize\n      sub\n      0x20\n      dup2\n      lt\n      iszero\n      tag_166\n      jumpi\n      0x00\n      dup1\n      revert\n    tag_166:\n      dup2\n      add\n      swap1\n      dup1\n      dup1\n      calldataload\n      0xff\n      and\n      swap1\n      0x20\n      add\n      swap1\n      swap3\n      swap2\n      swap1\n      pop\n      pop\n      pop\n      tag_167\n      jump\t// in\n    tag_165:\n      stop\n        /* \"blockchain/real_estate_major.sol\":10373:10926  function seizureFrom(address _from, address _to, uint256 _value) public returns (bool success) {           //government has unlimited allowance, therefore  can seize all assets from every stakeholder. Function also used to buyShares from Stakeholder.\r... */\n    tag_34:\n      callvalue\n      dup1\n      iszero\n      tag_168\n      jumpi\n      0x00\n      dup1\n      revert\n    tag_168:\n      pop\n      tag_169\n      0x04\n      dup1\n      calldatasize\n      sub\n      0x60\n      dup2\n      lt\n      iszero\n      tag_170\n      jumpi\n      0x00\n      dup1\n      revert\n    tag_170:\n      dup2\n      add\n      swap1\n      dup1\n      dup1\n      calldataload\n      0xffffffffffffffffffffffffffffffffffffffff\n      and\n      swap1\n      0x20\n      add\n      swap1\n      swap3\n      swap2\n      swap1\n      dup1\n      calldataload\n      0xffffffffffffffffffffffffffffffffffffffff\n      and\n      swap1\n      0x20\n      add\n      swap1\n      swap3\n      swap2\n      swap1\n      dup1\n      calldataload\n      swap1\n      0x20\n      add\n      swap1\n      swap3\n      swap2\n      swap1\n      pop\n      pop\n      pop\n      tag_171\n      jump\t// in\n    tag_169:\n      mload(0x40)\n      dup1\n      dup3\n      iszero\n      iszero\n      dup2\n      mstore\n      0x20\n      add\n      swap2\n      pop\n      pop\n      mload(0x40)\n      dup1\n      swap2\n      sub\n      swap1\n      return\n        /* \"blockchain/real_estate_major.sol\":3007:3049  mapping (address => uint256) public shares */\n    tag_35:\n      callvalue\n      dup1\n      iszero\n      tag_172\n      jumpi\n      0x00\n      dup1\n      revert\n    tag_172:\n      pop\n      tag_173\n      0x04\n      dup1\n      calldatasize\n      sub\n      0x20\n      dup2\n      lt\n      iszero\n      tag_174\n      jumpi\n      0x00\n      dup1\n      revert\n    tag_174:\n      dup2\n      add\n      swap1\n      dup1\n      dup1\n      calldataload\n      0xffffffffffffffffffffffffffffffffffffffff\n      and\n      swap1\n      0x20\n      add\n      swap1\n      swap3\n      swap2\n      swap1\n      pop\n      pop\n      pop\n      tag_175\n      jump\t// in\n    tag_173:\n      mload(0x40)\n      dup1\n      dup3\n      dup2\n      mstore\n      0x20\n      add\n      swap2\n      pop\n      pop\n      mload(0x40)\n      dup1\n      swap2\n      sub\n      swap1\n      return\n        /* \"blockchain/real_estate_major.sol\":3335:3384  mapping (address => uint256) public sharesOffered */\n    tag_36:\n      callvalue\n      dup1\n      iszero\n      tag_176\n      jumpi\n      0x00\n      dup1\n      revert\n    tag_176:\n      pop\n      tag_177\n      0x04\n      dup1\n      calldatasize\n      sub\n      0x20\n      dup2\n      lt\n      iszero\n      tag_178\n      jumpi\n      0x00\n      dup1\n      revert\n    tag_178:\n      dup2\n      add\n      swap1\n      dup1\n      dup1\n      calldataload\n      0xffffffffffffffffffffffffffffffffffffffff\n      and\n      swap1\n      0x20\n      add\n      swap1\n      swap3\n      swap2\n      swap1\n      pop\n      pop\n      pop\n      tag_179\n      jump\t// in\n    tag_177:\n      mload(0x40)\n      dup1\n      dup3\n      dup2\n      mstore\n      0x20\n      add\n      swap2\n      pop\n      pop\n      mload(0x40)\n      dup1\n      swap2\n      sub\n      swap1\n      return\n        /* \"blockchain/real_estate_major.sol\":9562:10343  function distribute() public onlyGov {       // accumulated funds are distributed into revenues array for each stakeholder according to how many shares are held by shareholders. Additionally, government gets tax revenues upon each rental payment.\r... */\n    tag_37:\n      callvalue\n      dup1\n      iszero\n      tag_180\n      jumpi\n      0x00\n      dup1\n      revert\n    tag_180:\n      pop\n      tag_181\n      tag_182\n      jump\t// in\n    tag_181:\n      stop\n        /* \"blockchain/real_estate_major.sol\":7968:8381  function addStakeholder(address _stakeholder) public onlyGov {      //can add more stakeholders.\r... */\n    tag_38:\n      callvalue\n      dup1\n      iszero\n      tag_183\n      jumpi\n      0x00\n      dup1\n      revert\n    tag_183:\n      pop\n      tag_184\n      0x04\n      dup1\n      calldatasize\n      sub\n      0x20\n      dup2\n      lt\n      iszero\n      tag_185\n      jumpi\n      0x00\n      dup1\n      revert\n    tag_185:\n      dup2\n      add\n      swap1\n      dup1\n      dup1\n      calldataload\n      0xffffffffffffffffffffffffffffffffffffffff\n      and\n      swap1\n      0x20\n      add\n      swap1\n      swap3\n      swap2\n      swap1\n      pop\n      pop\n      pop\n      tag_186\n      jump\t// in\n    tag_184:\n      stop\n        /* \"blockchain/real_estate_major.sol\":6917:7200  function isStakeholder(address _address) public view returns(bool, uint256) {      //shows whether someone is a stakeholder.\r... */\n    tag_39:\n      callvalue\n      dup1\n      iszero\n      tag_187\n      jumpi\n      0x00\n      dup1\n      revert\n    tag_187:\n      pop\n      tag_188\n      0x04\n      dup1\n      calldatasize\n      sub\n      0x20\n      dup2\n      lt\n      iszero\n      tag_189\n      jumpi\n      0x00\n      dup1\n      revert\n    tag_189:\n      dup2\n      add\n      swap1\n      dup1\n      dup1\n      calldataload\n      0xffffffffffffffffffffffffffffffffffffffff\n      and\n      swap1\n      0x20\n      add\n      swap1\n      swap3\n      swap2\n      swap1\n      pop\n      pop\n      pop\n      tag_190\n      jump\t// in\n    tag_188:\n      mload(0x40)\n      dup1\n      dup4\n      iszero\n      iszero\n      dup2\n      mstore\n      0x20\n      add\n      dup3\n      dup2\n      mstore\n      0x20\n      add\n      swap3\n      pop\n      pop\n      pop\n      mload(0x40)\n      dup1\n      swap2\n      sub\n      swap1\n      return\n        /* \"blockchain/real_estate_major.sol\":12170:12873  function buyShares (uint256 _sharesToBuy, address payable _from) public payable{    //Stakeholder can buy shares from seller for sellers price * ammount of shares\r... */\n    tag_40:\n      tag_191\n      0x04\n      dup1\n      calldatasize\n      sub\n      0x40\n      dup2\n      lt\n      iszero\n      tag_192\n      jumpi\n      0x00\n      dup1\n      revert\n    tag_192:\n      dup2\n      add\n      swap1\n      dup1\n      dup1\n      calldataload\n      swap1\n      0x20\n      add\n      swap1\n      swap3\n      swap2\n      swap1\n      dup1\n      calldataload\n      0xffffffffffffffffffffffffffffffffffffffff\n      and\n      swap1\n      0x20\n      add\n      swap1\n      swap3\n      swap2\n      swap1\n      pop\n      pop\n      pop\n      tag_193\n      jump\t// in\n    tag_191:\n      stop\n        /* \"blockchain/real_estate_major.sol\":133:158  uint8 public avgBlockTime */\n    tag_41:\n      callvalue\n      dup1\n      iszero\n      tag_194\n      jumpi\n      0x00\n      dup1\n      revert\n    tag_194:\n      pop\n      tag_195\n      tag_196\n      jump\t// in\n    tag_195:\n      mload(0x40)\n      dup1\n      dup3\n      0xff\n      and\n      dup2\n      mstore\n      0x20\n      add\n      swap2\n      pop\n      pop\n      mload(0x40)\n      dup1\n      swap2\n      sub\n      swap1\n      return\n        /* \"blockchain/real_estate_major.sol\":1679:1705  uint256 public rentalBegin */\n    tag_42:\n      callvalue\n      dup1\n      iszero\n      tag_197\n      jumpi\n      0x00\n      dup1\n      revert\n    tag_197:\n      pop\n      tag_198\n      tag_199\n      jump\t// in\n    tag_198:\n      mload(0x40)\n      dup1\n      dup3\n      dup2\n      mstore\n      0x20\n      add\n      swap2\n      pop\n      pop\n      mload(0x40)\n      dup1\n      swap2\n      sub\n      swap1\n      return\n        /* \"blockchain/real_estate_major.sol\":1977:1995  string public name */\n    tag_56:\n      0x0a\n      dup1\n      sload\n      0x01\n      dup2\n      0x01\n      and\n      iszero\n      0x0100\n      mul\n      sub\n      and\n      0x02\n      swap1\n      div\n      dup1\n      0x1f\n      add\n      0x20\n      dup1\n      swap2\n      div\n      mul\n      0x20\n      add\n      mload(0x40)\n      swap1\n      dup2\n      add\n      0x40\n      mstore\n      dup1\n      swap3\n      swap2\n      swap1\n      dup2\n      dup2\n      mstore\n      0x20\n      add\n      dup3\n      dup1\n      sload\n      0x01\n      dup2\n      0x01\n      and\n      iszero\n      0x0100\n      mul\n      sub\n      and\n      0x02\n      swap1\n      div\n      dup1\n      iszero\n      tag_200\n      jumpi\n      dup1\n      0x1f\n      lt\n      tag_201\n      jumpi\n      0x0100\n      dup1\n      dup4\n      sload\n      div\n      mul\n      dup4\n      mstore\n      swap2\n      0x20\n      add\n      swap2\n      jump(tag_200)\n    tag_201:\n      dup3\n      add\n      swap2\n      swap1\n      0x00\n      mstore\n      keccak256(0x00, 0x20)\n      swap1\n    tag_202:\n      dup2\n      sload\n      dup2\n      mstore\n      swap1\n      0x01\n      add\n      swap1\n      0x20\n      add\n      dup1\n      dup4\n      gt\n      tag_202\n      jumpi\n      dup3\n      swap1\n      sub\n      0x1f\n      and\n      dup3\n      add\n      swap2\n    tag_200:\n      pop\n      pop\n      pop\n      pop\n      pop\n      dup2\n      jump\t// out\n        /* \"blockchain/real_estate_major.sol\":9114:9555  function SetAvgBlockTime (uint8 _sPerBlock) public onlyGov{         //we do not have a forgery proof time measurement in Ethereum. Therefore we count the ammount of blocks. One Block equals to 13s but this can be changed by the government.\r... */\n    tag_64:\n        /* \"blockchain/real_estate_major.sol\":6121:6124  gov */\n      0x0c\n      0x00\n      swap1\n      sload\n      swap1\n      0x0100\n      exp\n      swap1\n      div\n      0xffffffffffffffffffffffffffffffffffffffff\n      and\n        /* \"blockchain/real_estate_major.sol\":6107:6124  msg.sender == gov */\n      0xffffffffffffffffffffffffffffffffffffffff\n      and\n        /* \"blockchain/real_estate_major.sol\":6107:6117  msg.sender */\n      caller\n        /* \"blockchain/real_estate_major.sol\":6107:6124  msg.sender == gov */\n      0xffffffffffffffffffffffffffffffffffffffff\n      and\n      eq\n        /* \"blockchain/real_estate_major.sol\":6099:6125  require(msg.sender == gov) */\n      tag_204\n      jumpi\n      0x00\n      dup1\n      revert\n    tag_204:\n        /* \"blockchain/real_estate_major.sol\":9381:9382  0 */\n      0x00\n        /* \"blockchain/real_estate_major.sol\":9368:9378  _sPerBlock */\n      dup2\n        /* \"blockchain/real_estate_major.sol\":9368:9382  _sPerBlock > 0 */\n      0xff\n      and\n      gt\n        /* \"blockchain/real_estate_major.sol\":9360:9415  require(_sPerBlock > 0, \"Please enter a Value above 0\") */\n      tag_206\n      jumpi\n      mload(0x40)\n      0x08c379a000000000000000000000000000000000000000000000000000000000\n      dup2\n      mstore\n      0x04\n      add\n      dup1\n      dup1\n      0x20\n      add\n      dup3\n      dup2\n      sub\n      dup3\n      mstore\n      0x1c\n      dup2\n      mstore\n      0x20\n      add\n      dup1\n      0x506c6561736520656e74657220612056616c75652061626f7665203000000000\n      dup2\n      mstore\n      pop\n      0x20\n      add\n      swap2\n      pop\n      pop\n      mload(0x40)\n      dup1\n      swap2\n      sub\n      swap1\n      revert\n    tag_206:\n        /* \"blockchain/real_estate_major.sol\":9438:9448  _sPerBlock */\n      dup1\n        /* \"blockchain/real_estate_major.sol\":9423:9435  avgBlockTime */\n      0x00\n      dup1\n        /* \"blockchain/real_estate_major.sol\":9423:9448  avgBlockTime = _sPerBlock */\n      0x0100\n      exp\n      dup2\n      sload\n      dup2\n      0xff\n      mul\n      not\n      and\n      swap1\n      dup4\n      0xff\n      and\n      mul\n      or\n      swap1\n      sstore\n      pop\n        /* \"blockchain/real_estate_major.sol\":9489:9501  avgBlockTime */\n      0x00\n      dup1\n      sload\n      swap1\n      0x0100\n      exp\n      swap1\n      div\n      0xff\n      and\n        /* \"blockchain/real_estate_major.sol\":9473:9501  (60*60*24*30) / avgBlockTime */\n      0xff\n      and\n        /* \"blockchain/real_estate_major.sol\":9474:9485  60*60*24*30 */\n      0x278d00\n        /* \"blockchain/real_estate_major.sol\":9473:9501  (60*60*24*30) / avgBlockTime */\n      dup2\n      tag_207\n      jumpi\n      invalid\n    tag_207:\n      div\n        /* \"blockchain/real_estate_major.sol\":9456:9501  blocksPer30Day = (60*60*24*30) / avgBlockTime */\n      0xffffff\n      and\n        /* \"blockchain/real_estate_major.sol\":9456:9470  blocksPer30Day */\n      0x06\n        /* \"blockchain/real_estate_major.sol\":9456:9501  blocksPer30Day = (60*60*24*30) / avgBlockTime */\n      dup2\n      swap1\n      sstore\n      pop\n        /* \"blockchain/real_estate_major.sol\":9514:9550  AvgBlockTimeChangedTo (avgBlockTime) */\n      0x51277831826fdbf3c68ee1e0a4294d6242d8d6b8115023b881e4506c52426f17\n        /* \"blockchain/real_estate_major.sol\":9537:9549  avgBlockTime */\n      0x00\n      dup1\n      sload\n      swap1\n      0x0100\n      exp\n      swap1\n      div\n      0xff\n      and\n        /* \"blockchain/real_estate_major.sol\":9514:9550  AvgBlockTimeChangedTo (avgBlockTime) */\n      mload(0x40)\n      dup1\n      dup3\n      0xff\n      and\n      dup2\n      mstore\n      0x20\n      add\n      swap2\n      pop\n      pop\n      mload(0x40)\n      dup1\n      swap2\n      sub\n      swap1\n      log1\n        /* \"blockchain/real_estate_major.sol\":9114:9555  function SetAvgBlockTime (uint8 _sPerBlock) public onlyGov{         //we do not have a forgery proof time measurement in Ethereum. Therefore we count the ammount of blocks. One Block equals to 13s but this can be changed by the government.\r... */\n      pop\n      jump\t// out\n        /* \"blockchain/real_estate_major.sol\":7208:7927  function currentTenantCheck (address _tenantcheck) public view returns(bool,uint256){               //only works if from block.number on there is just one tenant, otherwise tells untill when rent is paid.\r... */\n    tag_68:\n        /* \"blockchain/real_estate_major.sol\":7279:7283  bool */\n      0x00\n        /* \"blockchain/real_estate_major.sol\":7284:7291  uint256 */\n      dup1\n        /* \"blockchain/real_estate_major.sol\":7448:7462  rentpaidUntill */\n      0x13\n        /* \"blockchain/real_estate_major.sol\":7448:7470  rentpaidUntill[tenant] */\n      0x00\n        /* \"blockchain/real_estate_major.sol\":7463:7469  tenant */\n      0x0e\n      0x00\n      swap1\n      sload\n      swap1\n      0x0100\n      exp\n      swap1\n      div\n      0xffffffffffffffffffffffffffffffffffffffff\n      and\n        /* \"blockchain/real_estate_major.sol\":7448:7470  rentpaidUntill[tenant] */\n      0xffffffffffffffffffffffffffffffffffffffff\n      and\n      0xffffffffffffffffffffffffffffffffffffffff\n      and\n      dup2\n      mstore\n      0x20\n      add\n      swap1\n      dup2\n      mstore\n      0x20\n      add\n      0x00\n      keccak256\n      sload\n        /* \"blockchain/real_estate_major.sol\":7430:7444  occupiedUntill */\n      sload(0x08)\n        /* \"blockchain/real_estate_major.sol\":7430:7470  occupiedUntill == rentpaidUntill[tenant] */\n      eq\n        /* \"blockchain/real_estate_major.sol\":7422:7520  require(occupiedUntill == rentpaidUntill[tenant], \"The entered address is not the current tenant\") */\n      tag_209\n      jumpi\n      mload(0x40)\n      0x08c379a000000000000000000000000000000000000000000000000000000000\n      dup2\n      mstore\n      0x04\n      add\n      dup1\n      dup1\n      0x20\n      add\n      dup3\n      dup2\n      sub\n      dup3\n      mstore\n      0x2d\n      dup2\n      mstore\n      0x20\n      add\n      dup1\n      data_a611e1fe410a8ad5003671978617d3ecaa8e0105c1f7b48e1648e4bd2eeafd1e\n      0x2d\n      swap2\n      codecopy\n      0x40\n      add\n      swap2\n      pop\n      pop\n      mload(0x40)\n      dup1\n      swap2\n      sub\n      swap1\n      revert\n    tag_209:\n        /* \"blockchain/real_estate_major.sol\":7566:7578  block.number */\n      number\n        /* \"blockchain/real_estate_major.sol\":7535:7549  rentpaidUntill */\n      0x13\n        /* \"blockchain/real_estate_major.sol\":7535:7563  rentpaidUntill[_tenantcheck] */\n      0x00\n        /* \"blockchain/real_estate_major.sol\":7550:7562  _tenantcheck */\n      dup6\n        /* \"blockchain/real_estate_major.sol\":7535:7563  rentpaidUntill[_tenantcheck] */\n      0xffffffffffffffffffffffffffffffffffffffff\n      and\n      0xffffffffffffffffffffffffffffffffffffffff\n      and\n      dup2\n      mstore\n      0x20\n      add\n      swap1\n      dup2\n      mstore\n      0x20\n      add\n      0x00\n      keccak256\n      sload\n        /* \"blockchain/real_estate_major.sol\":7535:7578  rentpaidUntill[_tenantcheck] > block.number */\n      gt\n        /* \"blockchain/real_estate_major.sol\":7531:7919  if (rentpaidUntill[_tenantcheck] > block.number){\r... */\n      iszero\n      tag_210\n      jumpi\n        /* \"blockchain/real_estate_major.sol\":7590:7611  uint256 daysRemaining */\n      0x00\n        /* \"blockchain/real_estate_major.sol\":7673:7678  86400 */\n      0x015180\n        /* \"blockchain/real_estate_major.sol\":7660:7672  avgBlockTime */\n      0x00\n      dup1\n      sload\n      swap1\n      0x0100\n      exp\n      swap1\n      div\n      0xff\n      and\n        /* \"blockchain/real_estate_major.sol\":7614:7672  (rentpaidUntill[_tenantcheck] - block.number)*avgBlockTime */\n      0xff\n      and\n        /* \"blockchain/real_estate_major.sol\":7646:7658  block.number */\n      number\n        /* \"blockchain/real_estate_major.sol\":7615:7629  rentpaidUntill */\n      0x13\n        /* \"blockchain/real_estate_major.sol\":7615:7643  rentpaidUntill[_tenantcheck] */\n      0x00\n        /* \"blockchain/real_estate_major.sol\":7630:7642  _tenantcheck */\n      dup9\n        /* \"blockchain/real_estate_major.sol\":7615:7643  rentpaidUntill[_tenantcheck] */\n      0xffffffffffffffffffffffffffffffffffffffff\n      and\n      0xffffffffffffffffffffffffffffffffffffffff\n      and\n      dup2\n      mstore\n      0x20\n      add\n      swap1\n      dup2\n      mstore\n      0x20\n      add\n      0x00\n      keccak256\n      sload\n        /* \"blockchain/real_estate_major.sol\":7615:7658  rentpaidUntill[_tenantcheck] - block.number */\n      sub\n        /* \"blockchain/real_estate_major.sol\":7614:7672  (rentpaidUntill[_tenantcheck] - block.number)*avgBlockTime */\n      mul\n        /* \"blockchain/real_estate_major.sol\":7614:7678  (rentpaidUntill[_tenantcheck] - block.number)*avgBlockTime/86400 */\n      dup2\n      tag_211\n      jumpi\n      invalid\n    tag_211:\n      div\n        /* \"blockchain/real_estate_major.sol\":7590:7678  uint256 daysRemaining = (rentpaidUntill[_tenantcheck] - block.number)*avgBlockTime/86400 */\n      swap1\n      pop\n        /* \"blockchain/real_estate_major.sol\":7729:7733  true */\n      0x01\n        /* \"blockchain/real_estate_major.sol\":7735:7748  daysRemaining */\n      dup2\n        /* \"blockchain/real_estate_major.sol\":7721:7749  return (true, daysRemaining) */\n      swap3\n      pop\n      swap3\n      pop\n      pop\n      jump(tag_208)\n        /* \"blockchain/real_estate_major.sol\":7531:7919  if (rentpaidUntill[_tenantcheck] > block.number){\r... */\n    tag_210:\n        /* \"blockchain/real_estate_major.sol\":7910:7915  false */\n      0x00\n        /* \"blockchain/real_estate_major.sol\":7917:7918  0 */\n      dup1\n        /* \"blockchain/real_estate_major.sol\":7902:7919  return (false, 0) */\n      swap2\n      pop\n      swap2\n      pop\n        /* \"blockchain/real_estate_major.sol\":7208:7927  function currentTenantCheck (address _tenantcheck) public view returns(bool,uint256){               //only works if from block.number on there is just one tenant, otherwise tells untill when rent is paid.\r... */\n    tag_208:\n      swap2\n      pop\n      swap2\n      jump\t// out\n        /* \"blockchain/real_estate_major.sol\":2251:2282  address public gov = msg.sender */\n    tag_71:\n      0x0c\n      0x00\n      swap1\n      sload\n      swap1\n      0x0100\n      exp\n      swap1\n      div\n      0xffffffffffffffffffffffffffffffffffffffff\n      and\n      dup2\n      jump\t// out\n        /* \"blockchain/real_estate_major.sol\":686:712  uint256 public totalSupply */\n    tag_74:\n      sload(0x02)\n      dup2\n      jump\t// out\n        /* \"blockchain/real_estate_major.sol\":2603:2632  address[] public stakeholders */\n    tag_78:\n      0x0f\n      dup2\n      dup2\n      sload\n      dup2\n      lt\n      tag_213\n      jumpi\n      0x00\n      dup1\n      revert\n    tag_213:\n      swap1\n      0x00\n      mstore\n      keccak256(0x00, 0x20)\n      add\n      0x00\n      swap2\n      pop\n      sload\n      swap1\n      0x0100\n      exp\n      swap1\n      div\n      0xffffffffffffffffffffffffffffffffffffffff\n      and\n      dup2\n      jump\t// out\n        /* \"blockchain/real_estate_major.sol\":10964:11157  function canPayRent(address _tenant) public onlyPropOwner{                  //decide who can pay rent in the future\r... */\n    tag_82:\n        /* \"blockchain/real_estate_major.sol\":6192:6209  mainPropertyOwner */\n      0x0d\n      0x00\n      swap1\n      sload\n      swap1\n      0x0100\n      exp\n      swap1\n      div\n      0xffffffffffffffffffffffffffffffffffffffff\n      and\n        /* \"blockchain/real_estate_major.sol\":6178:6209  msg.sender == mainPropertyOwner */\n      0xffffffffffffffffffffffffffffffffffffffff\n      and\n        /* \"blockchain/real_estate_major.sol\":6178:6188  msg.sender */\n      caller\n        /* \"blockchain/real_estate_major.sol\":6178:6209  msg.sender == mainPropertyOwner */\n      0xffffffffffffffffffffffffffffffffffffffff\n      and\n      eq\n        /* \"blockchain/real_estate_major.sol\":6170:6210  require(msg.sender == mainPropertyOwner) */\n      tag_216\n      jumpi\n      0x00\n      dup1\n      revert\n    tag_216:\n        /* \"blockchain/real_estate_major.sol\":11096:11103  _tenant */\n      dup1\n        /* \"blockchain/real_estate_major.sol\":11087:11093  tenant */\n      0x0e\n      0x00\n        /* \"blockchain/real_estate_major.sol\":11087:11103  tenant = _tenant */\n      0x0100\n      exp\n      dup2\n      sload\n      dup2\n      0xffffffffffffffffffffffffffffffffffffffff\n      mul\n      not\n      and\n      swap1\n      dup4\n      0xffffffffffffffffffffffffffffffffffffffff\n      and\n      mul\n      or\n      swap1\n      sstore\n      pop\n        /* \"blockchain/real_estate_major.sol\":11117:11152  CurrentlyEligibletoPayRent (tenant) */\n      0xeefc7205a767c82d33fcbbd6ff72253da987fa9e4bc4a0fa6b973c3badbb5878\n        /* \"blockchain/real_estate_major.sol\":11145:11151  tenant */\n      0x0e\n      0x00\n      swap1\n      sload\n      swap1\n      0x0100\n      exp\n      swap1\n      div\n      0xffffffffffffffffffffffffffffffffffffffff\n      and\n        /* \"blockchain/real_estate_major.sol\":11117:11152  CurrentlyEligibletoPayRent (tenant) */\n      mload(0x40)\n      dup1\n      dup3\n      0xffffffffffffffffffffffffffffffffffffffff\n      and\n      dup2\n      mstore\n      0x20\n      add\n      swap2\n      pop\n      pop\n      mload(0x40)\n      dup1\n      swap2\n      sub\n      swap1\n      log1\n        /* \"blockchain/real_estate_major.sol\":10964:11157  function canPayRent(address _tenant) public onlyPropOwner{                  //decide who can pay rent in the future\r... */\n      pop\n      jump\t// out\n        /* \"blockchain/real_estate_major.sol\":1311:1338  uint256 public rentPer30Day */\n    tag_85:\n      sload(0x04)\n      dup2\n      jump\t// out\n        /* \"blockchain/real_estate_major.sol\":11681:12162  function offerShares(uint256 _sharesOffered, uint256 _shareSellPrice) public{       //Stakeholder can offer # of Shares for  Price per Share\r... */\n    tag_89:\n        /* \"blockchain/real_estate_major.sol\":11832:11851  bool _isStakeholder */\n      0x00\n        /* \"blockchain/real_estate_major.sol\":11857:11882  isStakeholder(msg.sender) */\n      tag_219\n        /* \"blockchain/real_estate_major.sol\":11871:11881  msg.sender */\n      caller\n        /* \"blockchain/real_estate_major.sol\":11857:11870  isStakeholder */\n      tag_190\n        /* \"blockchain/real_estate_major.sol\":11857:11882  isStakeholder(msg.sender) */\n      jump\t// in\n    tag_219:\n        /* \"blockchain/real_estate_major.sol\":11831:11882  (bool _isStakeholder, ) = isStakeholder(msg.sender) */\n      pop\n      swap1\n      pop\n        /* \"blockchain/real_estate_major.sol\":11901:11915  _isStakeholder */\n      dup1\n        /* \"blockchain/real_estate_major.sol\":11893:11916  require(_isStakeholder) */\n      tag_220\n      jumpi\n      0x00\n      dup1\n      revert\n    tag_220:\n        /* \"blockchain/real_estate_major.sol\":11953:11959  shares */\n      0x11\n        /* \"blockchain/real_estate_major.sol\":11953:11971  shares[msg.sender] */\n      0x00\n        /* \"blockchain/real_estate_major.sol\":11960:11970  msg.sender */\n      caller\n        /* \"blockchain/real_estate_major.sol\":11953:11971  shares[msg.sender] */\n      0xffffffffffffffffffffffffffffffffffffffff\n      and\n      0xffffffffffffffffffffffffffffffffffffffff\n      and\n      dup2\n      mstore\n      0x20\n      add\n      swap1\n      dup2\n      mstore\n      0x20\n      add\n      0x00\n      keccak256\n      sload\n        /* \"blockchain/real_estate_major.sol\":11935:11949  _sharesOffered */\n      dup4\n        /* \"blockchain/real_estate_major.sol\":11935:11971  _sharesOffered <= shares[msg.sender] */\n      gt\n      iszero\n        /* \"blockchain/real_estate_major.sol\":11927:11972  require(_sharesOffered <= shares[msg.sender]) */\n      tag_221\n      jumpi\n      0x00\n      dup1\n      revert\n    tag_221:\n        /* \"blockchain/real_estate_major.sol\":12011:12025  _sharesOffered */\n      dup3\n        /* \"blockchain/real_estate_major.sol\":11983:11996  sharesOffered */\n      0x14\n        /* \"blockchain/real_estate_major.sol\":11983:12008  sharesOffered[msg.sender] */\n      0x00\n        /* \"blockchain/real_estate_major.sol\":11997:12007  msg.sender */\n      caller\n        /* \"blockchain/real_estate_major.sol\":11983:12008  sharesOffered[msg.sender] */\n      0xffffffffffffffffffffffffffffffffffffffff\n      and\n      0xffffffffffffffffffffffffffffffffffffffff\n      and\n      dup2\n      mstore\n      0x20\n      add\n      swap1\n      dup2\n      mstore\n      0x20\n      add\n      0x00\n      keccak256\n        /* \"blockchain/real_estate_major.sol\":11983:12025  sharesOffered[msg.sender] = _sharesOffered */\n      dup2\n      swap1\n      sstore\n      pop\n        /* \"blockchain/real_estate_major.sol\":12065:12080  _shareSellPrice */\n      dup2\n        /* \"blockchain/real_estate_major.sol\":12036:12050  shareSellPrice */\n      0x15\n        /* \"blockchain/real_estate_major.sol\":12036:12062  shareSellPrice[msg.sender] */\n      0x00\n        /* \"blockchain/real_estate_major.sol\":12051:12061  msg.sender */\n      caller\n        /* \"blockchain/real_estate_major.sol\":12036:12062  shareSellPrice[msg.sender] */\n      0xffffffffffffffffffffffffffffffffffffffff\n      and\n      0xffffffffffffffffffffffffffffffffffffffff\n      and\n      dup2\n      mstore\n      0x20\n      add\n      swap1\n      dup2\n      mstore\n      0x20\n      add\n      0x00\n      keccak256\n        /* \"blockchain/real_estate_major.sol\":12036:12080  shareSellPrice[msg.sender] = _shareSellPrice */\n      dup2\n      swap1\n      sstore\n      pop\n        /* \"blockchain/real_estate_major.sol\":12096:12154  SharesOffered(msg.sender, _sharesOffered, _shareSellPrice) */\n      0x8d14c92991df2bd2abd30417fe4d309c90c0c9516b16cf6c1ffbdceab2e3ec9d\n        /* \"blockchain/real_estate_major.sol\":12110:12120  msg.sender */\n      caller\n        /* \"blockchain/real_estate_major.sol\":12122:12136  _sharesOffered */\n      dup5\n        /* \"blockchain/real_estate_major.sol\":12138:12153  _shareSellPrice */\n      dup5\n        /* \"blockchain/real_estate_major.sol\":12096:12154  SharesOffered(msg.sender, _sharesOffered, _shareSellPrice) */\n      mload(0x40)\n      dup1\n      dup5\n      0xffffffffffffffffffffffffffffffffffffffff\n      and\n      dup2\n      mstore\n      0x20\n      add\n      dup4\n      dup2\n      mstore\n      0x20\n      add\n      dup3\n      dup2\n      mstore\n      0x20\n      add\n      swap4\n      pop\n      pop\n      pop\n      pop\n      mload(0x40)\n      dup1\n      swap2\n      sub\n      swap1\n      log1\n        /* \"blockchain/real_estate_major.sol\":11681:12162  function offerShares(uint256 _sharesOffered, uint256 _shareSellPrice) public{       //Stakeholder can offer # of Shares for  Price per Share\r... */\n      pop\n      pop\n      pop\n      jump\t// out\n        /* \"blockchain/real_estate_major.sol\":11160:11435  function limitadvancedrent(uint8 _monthstolimit) onlyPropOwner public{      //mainPropertyOwner can decide how many months in advance the property can be rented out max\r... */\n    tag_93:\n        /* \"blockchain/real_estate_major.sol\":6192:6209  mainPropertyOwner */\n      0x0d\n      0x00\n      swap1\n      sload\n      swap1\n      0x0100\n      exp\n      swap1\n      div\n      0xffffffffffffffffffffffffffffffffffffffff\n      and\n        /* \"blockchain/real_estate_major.sol\":6178:6209  msg.sender == mainPropertyOwner */\n      0xffffffffffffffffffffffffffffffffffffffff\n      and\n        /* \"blockchain/real_estate_major.sol\":6178:6188  msg.sender */\n      caller\n        /* \"blockchain/real_estate_major.sol\":6178:6209  msg.sender == mainPropertyOwner */\n      0xffffffffffffffffffffffffffffffffffffffff\n      and\n      eq\n        /* \"blockchain/real_estate_major.sol\":6170:6210  require(msg.sender == mainPropertyOwner) */\n      tag_223\n      jumpi\n      0x00\n      dup1\n      revert\n    tag_223:\n        /* \"blockchain/real_estate_major.sol\":11371:11385  blocksPer30Day */\n      sload(0x06)\n        /* \"blockchain/real_estate_major.sol\":11355:11369  _monthstolimit */\n      dup2\n        /* \"blockchain/real_estate_major.sol\":11355:11385  _monthstolimit *blocksPer30Day */\n      0xff\n      and\n      mul\n        /* \"blockchain/real_estate_major.sol\":11335:11352  rentalLimitBlocks */\n      0x01\n        /* \"blockchain/real_estate_major.sol\":11335:11385  rentalLimitBlocks = _monthstolimit *blocksPer30Day */\n      dup2\n      swap1\n      sstore\n      pop\n        /* \"blockchain/real_estate_major.sol\":11398:11430  PrePayRentLimit (_monthstolimit) */\n      0x71360850cda8a5de5050d1e5c516ceca328e4dcd2718c89035a82629ae950925\n        /* \"blockchain/real_estate_major.sol\":11415:11429  _monthstolimit */\n      dup2\n        /* \"blockchain/real_estate_major.sol\":11398:11430  PrePayRentLimit (_monthstolimit) */\n      mload(0x40)\n      dup1\n      dup3\n      0xff\n      and\n      dup2\n      mstore\n      0x20\n      add\n      swap2\n      pop\n      pop\n      mload(0x40)\n      dup1\n      swap2\n      sub\n      swap1\n      log1\n        /* \"blockchain/real_estate_major.sol\":11160:11435  function limitadvancedrent(uint8 _monthstolimit) onlyPropOwner public{      //mainPropertyOwner can decide how many months in advance the property can be rented out max\r... */\n      pop\n      jump\t// out\n        /* \"blockchain/real_estate_major.sol\":13667:13994  function withdraw() payable public {          //revenues can be withdrawn from individual shareholders (government can too withdraw its own revenues)\r... */\n    tag_95:\n        /* \"blockchain/real_estate_major.sol\":13826:13841  uint256 revenue */\n      0x00\n        /* \"blockchain/real_estate_major.sol\":13844:13852  revenues */\n      0x10\n        /* \"blockchain/real_estate_major.sol\":13844:13864  revenues[msg.sender] */\n      0x00\n        /* \"blockchain/real_estate_major.sol\":13853:13863  msg.sender */\n      caller\n        /* \"blockchain/real_estate_major.sol\":13844:13864  revenues[msg.sender] */\n      0xffffffffffffffffffffffffffffffffffffffff\n      and\n      0xffffffffffffffffffffffffffffffffffffffff\n      and\n      dup2\n      mstore\n      0x20\n      add\n      swap1\n      dup2\n      mstore\n      0x20\n      add\n      0x00\n      keccak256\n      sload\n        /* \"blockchain/real_estate_major.sol\":13826:13864  uint256 revenue = revenues[msg.sender] */\n      swap1\n      pop\n        /* \"blockchain/real_estate_major.sol\":13898:13899  0 */\n      0x00\n        /* \"blockchain/real_estate_major.sol\":13875:13883  revenues */\n      0x10\n        /* \"blockchain/real_estate_major.sol\":13875:13895  revenues[msg.sender] */\n      0x00\n        /* \"blockchain/real_estate_major.sol\":13884:13894  msg.sender */\n      caller\n        /* \"blockchain/real_estate_major.sol\":13875:13895  revenues[msg.sender] */\n      0xffffffffffffffffffffffffffffffffffffffff\n      and\n      0xffffffffffffffffffffffffffffffffffffffff\n      and\n      dup2\n      mstore\n      0x20\n      add\n      swap1\n      dup2\n      mstore\n      0x20\n      add\n      0x00\n      keccak256\n        /* \"blockchain/real_estate_major.sol\":13875:13899  revenues[msg.sender] = 0 */\n      dup2\n      swap1\n      sstore\n      pop\n        /* \"blockchain/real_estate_major.sol\":13911:13921  msg.sender */\n      caller\n        /* \"blockchain/real_estate_major.sol\":13910:13931  (msg.sender).transfer */\n      0xffffffffffffffffffffffffffffffffffffffff\n      and\n        /* \"blockchain/real_estate_major.sol\":13910:13940  (msg.sender).transfer(revenue) */\n      0x08fc\n        /* \"blockchain/real_estate_major.sol\":13932:13939  revenue */\n      dup3\n        /* \"blockchain/real_estate_major.sol\":13910:13940  (msg.sender).transfer(revenue) */\n      swap1\n      dup2\n      iszero\n      mul\n      swap1\n      mload(0x40)\n      0x00\n      mload(0x40)\n      dup1\n      dup4\n      sub\n      dup2\n      dup6\n      dup9\n      dup9\n      call\n      swap4\n      pop\n      pop\n      pop\n      pop\n      iszero\n      dup1\n      iszero\n      tag_227\n      jumpi\n      returndatasize\n      0x00\n      dup1\n      returndatacopy\n      revert(0x00, returndatasize)\n    tag_227:\n      pop\n        /* \"blockchain/real_estate_major.sol\":13956:13987  Withdrawal(msg.sender, revenue) */\n      0x7fcf532c15f0a6db0bd6d0e038bea71d30d808c7d98cb3bf7268a95bf5081b65\n        /* \"blockchain/real_estate_major.sol\":13967:13977  msg.sender */\n      caller\n        /* \"blockchain/real_estate_major.sol\":13979:13986  revenue */\n      dup3\n        /* \"blockchain/real_estate_major.sol\":13956:13987  Withdrawal(msg.sender, revenue) */\n      mload(0x40)\n      dup1\n      dup4\n      0xffffffffffffffffffffffffffffffffffffffff\n      and\n      dup2\n      mstore\n      0x20\n      add\n      dup3\n      dup2\n      mstore\n      0x20\n      add\n      swap3\n      pop\n      pop\n      pop\n      mload(0x40)\n      dup1\n      swap2\n      sub\n      swap1\n      log1\n        /* \"blockchain/real_estate_major.sol\":13667:13994  function withdraw() payable public {          //revenues can be withdrawn from individual shareholders (government can too withdraw its own revenues)\r... */\n      pop\n      jump\t// out\n        /* \"blockchain/real_estate_major.sol\":2338:2370  address public mainPropertyOwner */\n    tag_98:\n      0x0d\n      0x00\n      swap1\n      sload\n      swap1\n      0x0100\n      exp\n      swap1\n      div\n      0xffffffffffffffffffffffffffffffffffffffff\n      and\n      dup2\n      jump\t// out\n        /* \"blockchain/real_estate_major.sol\":13310:13656  function claimOwnership () public {             //claim main property ownership\r... */\n    tag_101:\n        /* \"blockchain/real_estate_major.sol\":13436:13437  2 */\n      0x02\n        /* \"blockchain/real_estate_major.sol\":13423:13434  totalSupply */\n      dup1\n      sload\n        /* \"blockchain/real_estate_major.sol\":13423:13437  totalSupply /2 */\n      dup2\n      tag_229\n      jumpi\n      invalid\n    tag_229:\n      div\n        /* \"blockchain/real_estate_major.sol\":13401:13407  shares */\n      0x11\n        /* \"blockchain/real_estate_major.sol\":13401:13419  shares[msg.sender] */\n      0x00\n        /* \"blockchain/real_estate_major.sol\":13408:13418  msg.sender */\n      caller\n        /* \"blockchain/real_estate_major.sol\":13401:13419  shares[msg.sender] */\n      0xffffffffffffffffffffffffffffffffffffffff\n      and\n      0xffffffffffffffffffffffffffffffffffffffff\n      and\n      dup2\n      mstore\n      0x20\n      add\n      swap1\n      dup2\n      mstore\n      0x20\n      add\n      0x00\n      keccak256\n      sload\n        /* \"blockchain/real_estate_major.sol\":13401:13438  shares[msg.sender] > (totalSupply /2) */\n      gt\n        /* \"blockchain/real_estate_major.sol\":13401:13473  shares[msg.sender] > (totalSupply /2) && msg.sender != mainPropertyOwner */\n      dup1\n      iszero\n      tag_230\n      jumpi\n      pop\n        /* \"blockchain/real_estate_major.sol\":13456:13473  mainPropertyOwner */\n      0x0d\n      0x00\n      swap1\n      sload\n      swap1\n      0x0100\n      exp\n      swap1\n      div\n      0xffffffffffffffffffffffffffffffffffffffff\n      and\n        /* \"blockchain/real_estate_major.sol\":13442:13473  msg.sender != mainPropertyOwner */\n      0xffffffffffffffffffffffffffffffffffffffff\n      and\n        /* \"blockchain/real_estate_major.sol\":13442:13452  msg.sender */\n      caller\n        /* \"blockchain/real_estate_major.sol\":13442:13473  msg.sender != mainPropertyOwner */\n      0xffffffffffffffffffffffffffffffffffffffff\n      and\n      eq\n      iszero\n        /* \"blockchain/real_estate_major.sol\":13401:13473  shares[msg.sender] > (totalSupply /2) && msg.sender != mainPropertyOwner */\n    tag_230:\n        /* \"blockchain/real_estate_major.sol\":13393:13570  require(shares[msg.sender] > (totalSupply /2) && msg.sender != mainPropertyOwner,\"Error. You do not own more than 50% of the property tokens or you are the main owner allready\") */\n      tag_231\n      jumpi\n      mload(0x40)\n      0x08c379a000000000000000000000000000000000000000000000000000000000\n      dup2\n      mstore\n      0x04\n      add\n      dup1\n      dup1\n      0x20\n      add\n      dup3\n      dup2\n      sub\n      dup3\n      mstore\n      0x5d\n      dup2\n      mstore\n      0x20\n      add\n      dup1\n      data_e86f3964bc4c52ab5e658506d7b6f3b4169d55cb4c8012337b6b939f32138f14\n      0x5d\n      swap2\n      codecopy\n      0x60\n      add\n      swap2\n      pop\n      pop\n      mload(0x40)\n      dup1\n      swap2\n      sub\n      swap1\n      revert\n    tag_231:\n        /* \"blockchain/real_estate_major.sol\":13595:13605  msg.sender */\n      caller\n        /* \"blockchain/real_estate_major.sol\":13575:13592  mainPropertyOwner */\n      0x0d\n      0x00\n        /* \"blockchain/real_estate_major.sol\":13575:13605  mainPropertyOwner = msg.sender */\n      0x0100\n      exp\n      dup2\n      sload\n      dup2\n      0xffffffffffffffffffffffffffffffffffffffff\n      mul\n      not\n      and\n      swap1\n      dup4\n      0xffffffffffffffffffffffffffffffffffffffff\n      and\n      mul\n      or\n      swap1\n      sstore\n      pop\n        /* \"blockchain/real_estate_major.sol\":13615:13651  MainPropertyOwner(mainPropertyOwner) */\n      0xa0efd61da798bc54cf93315c74a19efbb7f71b174337d216ffe4bbc761234ca1\n        /* \"blockchain/real_estate_major.sol\":13633:13650  mainPropertyOwner */\n      0x0d\n      0x00\n      swap1\n      sload\n      swap1\n      0x0100\n      exp\n      swap1\n      div\n      0xffffffffffffffffffffffffffffffffffffffff\n      and\n        /* \"blockchain/real_estate_major.sol\":13615:13651  MainPropertyOwner(mainPropertyOwner) */\n      mload(0x40)\n      dup1\n      dup3\n      0xffffffffffffffffffffffffffffffffffffffff\n      and\n      dup2\n      mstore\n      0x20\n      add\n      swap2\n      pop\n      pop\n      mload(0x40)\n      dup1\n      swap2\n      sub\n      swap1\n      log1\n        /* \"blockchain/real_estate_major.sol\":13310:13656  function claimOwnership () public {             //claim main property ownership\r... */\n      jump\t// out\n        /* \"blockchain/real_estate_major.sol\":3242:3292  mapping (address => uint256) public rentpaidUntill */\n    tag_105:\n      mstore(0x20, 0x13)\n      dup1\n      0x00\n      mstore\n      keccak256(0x00, 0x40)\n      0x00\n      swap2\n      pop\n      swap1\n      pop\n      sload\n      dup2\n      jump\t// out\n        /* \"blockchain/real_estate_major.sol\":3462:3512  mapping (address => uint256) public shareSellPrice */\n    tag_109:\n      mstore(0x20, 0x15)\n      dup1\n      0x00\n      mstore\n      keccak256(0x00, 0x40)\n      0x00\n      swap2\n      pop\n      swap1\n      pop\n      sload\n      dup2\n      jump\t// out\n        /* \"blockchain/real_estate_major.sol\":8386:8861  function banStakeholder(address _stakeholder) public onlyGov {          // can remove stakeholder from stakeholders array and...\r... */\n    tag_113:\n        /* \"blockchain/real_estate_major.sol\":6121:6124  gov */\n      0x0c\n      0x00\n      swap1\n      sload\n      swap1\n      0x0100\n      exp\n      swap1\n      div\n      0xffffffffffffffffffffffffffffffffffffffff\n      and\n        /* \"blockchain/real_estate_major.sol\":6107:6124  msg.sender == gov */\n      0xffffffffffffffffffffffffffffffffffffffff\n      and\n        /* \"blockchain/real_estate_major.sol\":6107:6117  msg.sender */\n      caller\n        /* \"blockchain/real_estate_major.sol\":6107:6124  msg.sender == gov */\n      0xffffffffffffffffffffffffffffffffffffffff\n      and\n      eq\n        /* \"blockchain/real_estate_major.sol\":6099:6125  require(msg.sender == gov) */\n      tag_233\n      jumpi\n      0x00\n      dup1\n      revert\n    tag_233:\n        /* \"blockchain/real_estate_major.sol\":8522:8541  bool _isStakeholder */\n      0x00\n        /* \"blockchain/real_estate_major.sol\":8543:8552  uint256 s */\n      dup1\n        /* \"blockchain/real_estate_major.sol\":8556:8583  isStakeholder(_stakeholder) */\n      tag_235\n        /* \"blockchain/real_estate_major.sol\":8570:8582  _stakeholder */\n      dup4\n        /* \"blockchain/real_estate_major.sol\":8556:8569  isStakeholder */\n      tag_190\n        /* \"blockchain/real_estate_major.sol\":8556:8583  isStakeholder(_stakeholder) */\n      jump\t// in\n    tag_235:\n        /* \"blockchain/real_estate_major.sol\":8521:8583  (bool _isStakeholder, uint256 s) = isStakeholder(_stakeholder) */\n      swap2\n      pop\n      swap2\n      pop\n        /* \"blockchain/real_estate_major.sol\":8595:8609  _isStakeholder */\n      dup2\n        /* \"blockchain/real_estate_major.sol\":8591:8857  if (_isStakeholder){\r... */\n      iszero\n      tag_236\n      jumpi\n        /* \"blockchain/real_estate_major.sol\":8640:8652  stakeholders */\n      0x0f\n        /* \"blockchain/real_estate_major.sol\":8675:8676  1 */\n      0x01\n        /* \"blockchain/real_estate_major.sol\":8653:8665  stakeholders */\n      0x0f\n        /* \"blockchain/real_estate_major.sol\":8653:8672  stakeholders.length */\n      dup1\n      sload\n      swap1\n      pop\n        /* \"blockchain/real_estate_major.sol\":8653:8676  stakeholders.length - 1 */\n      sub\n        /* \"blockchain/real_estate_major.sol\":8640:8677  stakeholders[stakeholders.length - 1] */\n      dup2\n      sload\n      dup2\n      lt\n      tag_237\n      jumpi\n      invalid\n    tag_237:\n      swap1\n      0x00\n      mstore\n      keccak256(0x00, 0x20)\n      add\n      0x00\n      swap1\n      sload\n      swap1\n      0x0100\n      exp\n      swap1\n      div\n      0xffffffffffffffffffffffffffffffffffffffff\n      and\n        /* \"blockchain/real_estate_major.sol\":8622:8634  stakeholders */\n      0x0f\n        /* \"blockchain/real_estate_major.sol\":8635:8636  s */\n      dup3\n        /* \"blockchain/real_estate_major.sol\":8622:8637  stakeholders[s] */\n      dup2\n      sload\n      dup2\n      lt\n      tag_239\n      jumpi\n      invalid\n    tag_239:\n      swap1\n      0x00\n      mstore\n      keccak256(0x00, 0x20)\n      add\n      0x00\n        /* \"blockchain/real_estate_major.sol\":8622:8677  stakeholders[s] = stakeholders[stakeholders.length - 1] */\n      0x0100\n      exp\n      dup2\n      sload\n      dup2\n      0xffffffffffffffffffffffffffffffffffffffff\n      mul\n      not\n      and\n      swap1\n      dup4\n      0xffffffffffffffffffffffffffffffffffffffff\n      and\n      mul\n      or\n      swap1\n      sstore\n      pop\n        /* \"blockchain/real_estate_major.sol\":8689:8701  stakeholders */\n      0x0f\n        /* \"blockchain/real_estate_major.sol\":8689:8707  stakeholders.pop() */\n      dup1\n      sload\n      dup1\n      tag_241\n      jumpi\n      invalid\n    tag_241:\n      0x01\n      swap1\n      sub\n      dup2\n      dup2\n      swap1\n      0x00\n      mstore\n      keccak256(0x00, 0x20)\n      add\n      exp(0x0100, 0x00)\n      dup2\n      sload\n      swap1\n      0xffffffffffffffffffffffffffffffffffffffff\n      mul\n      not\n      and\n      swap1\n      sstore\n      swap1\n      sstore\n        /* \"blockchain/real_estate_major.sol\":8719:8778  seizureFrom (_stakeholder, msg.sender,shares[_stakeholder]) */\n      tag_243\n        /* \"blockchain/real_estate_major.sol\":8732:8744  _stakeholder */\n      dup4\n        /* \"blockchain/real_estate_major.sol\":8746:8756  msg.sender */\n      caller\n        /* \"blockchain/real_estate_major.sol\":8757:8763  shares */\n      0x11\n        /* \"blockchain/real_estate_major.sol\":8757:8777  shares[_stakeholder] */\n      0x00\n        /* \"blockchain/real_estate_major.sol\":8764:8776  _stakeholder */\n      dup8\n        /* \"blockchain/real_estate_major.sol\":8757:8777  shares[_stakeholder] */\n      0xffffffffffffffffffffffffffffffffffffffff\n      and\n      0xffffffffffffffffffffffffffffffffffffffff\n      and\n      dup2\n      mstore\n      0x20\n      add\n      swap1\n      dup2\n      mstore\n      0x20\n      add\n      0x00\n      keccak256\n      sload\n        /* \"blockchain/real_estate_major.sol\":8719:8730  seizureFrom */\n      tag_171\n        /* \"blockchain/real_estate_major.sol\":8719:8778  seizureFrom (_stakeholder, msg.sender,shares[_stakeholder]) */\n      jump\t// in\n    tag_243:\n      pop\n        /* \"blockchain/real_estate_major.sol\":8817:8848  StakeHolderBanned(_stakeholder) */\n      0xbe753d52a25516e4650afc9ed346554a6deaafd77409fb97d4ffc95c8fe12477\n        /* \"blockchain/real_estate_major.sol\":8835:8847  _stakeholder */\n      dup4\n        /* \"blockchain/real_estate_major.sol\":8817:8848  StakeHolderBanned(_stakeholder) */\n      mload(0x40)\n      dup1\n      dup3\n      0xffffffffffffffffffffffffffffffffffffffff\n      and\n      dup2\n      mstore\n      0x20\n      add\n      swap2\n      pop\n      pop\n      mload(0x40)\n      dup1\n      swap2\n      sub\n      swap1\n      log1\n        /* \"blockchain/real_estate_major.sol\":8591:8857  if (_isStakeholder){\r... */\n    tag_236:\n        /* \"blockchain/real_estate_major.sol\":6131:6132  _ */\n      pop\n      pop\n        /* \"blockchain/real_estate_major.sol\":8386:8861  function banStakeholder(address _stakeholder) public onlyGov {          // can remove stakeholder from stakeholders array and...\r... */\n      pop\n      jump\t// out\n        /* \"blockchain/real_estate_major.sol\":14023:16588  function payRent(uint8 _months) public payable isMultipleOf eligibleToPayRent{          //needs to be eligible to pay rent\r... */\n    tag_116:\n        /* \"blockchain/real_estate_major.sol\":6291:6292  0 */\n      0x00\n        /* \"blockchain/real_estate_major.sol\":6275:6287  totalSupply2 */\n      sload(0x03)\n        /* \"blockchain/real_estate_major.sol\":6263:6272  msg.value */\n      callvalue\n        /* \"blockchain/real_estate_major.sol\":6263:6287  msg.value % totalSupply2 */\n      dup2\n      tag_245\n      jumpi\n      invalid\n    tag_245:\n      mod\n        /* \"blockchain/real_estate_major.sol\":6263:6292  msg.value % totalSupply2 == 0 */\n      eq\n        /* \"blockchain/real_estate_major.sol\":6255:6293  require(msg.value % totalSupply2 == 0) */\n      tag_246\n      jumpi\n      0x00\n      dup1\n      revert\n    tag_246:\n        /* \"blockchain/real_estate_major.sol\":6673:6679  tenant */\n      0x0e\n      0x00\n      swap1\n      sload\n      swap1\n      0x0100\n      exp\n      swap1\n      div\n      0xffffffffffffffffffffffffffffffffffffffff\n      and\n        /* \"blockchain/real_estate_major.sol\":6659:6679  msg.sender == tenant */\n      0xffffffffffffffffffffffffffffffffffffffff\n      and\n        /* \"blockchain/real_estate_major.sol\":6659:6669  msg.sender */\n      caller\n        /* \"blockchain/real_estate_major.sol\":6659:6679  msg.sender == tenant */\n      0xffffffffffffffffffffffffffffffffffffffff\n      and\n      eq\n        /* \"blockchain/real_estate_major.sol\":6651:6680  require(msg.sender == tenant) */\n      tag_248\n      jumpi\n      0x00\n      dup1\n      revert\n    tag_248:\n        /* \"blockchain/real_estate_major.sol\":14155:14172  uint256  _rentdue */\n      0x00\n        /* \"blockchain/real_estate_major.sol\":14186:14198  rentPer30Day */\n      sload(0x04)\n        /* \"blockchain/real_estate_major.sol\":14176:14183  _months */\n      dup3\n        /* \"blockchain/real_estate_major.sol\":14176:14198  _months * rentPer30Day */\n      0xff\n      and\n      mul\n        /* \"blockchain/real_estate_major.sol\":14155:14198  uint256  _rentdue  = _months * rentPer30Day */\n      swap1\n      pop\n        /* \"blockchain/real_estate_major.sol\":14209:14235  uint256  _additionalBlocks */\n      0x00\n        /* \"blockchain/real_estate_major.sol\":14249:14263  blocksPer30Day */\n      sload(0x06)\n        /* \"blockchain/real_estate_major.sol\":14239:14246  _months */\n      dup4\n        /* \"blockchain/real_estate_major.sol\":14239:14263  _months * blocksPer30Day */\n      0xff\n      and\n      mul\n        /* \"blockchain/real_estate_major.sol\":14209:14263  uint256  _additionalBlocks  = _months * blocksPer30Day */\n      swap1\n      pop\n        /* \"blockchain/real_estate_major.sol\":14296:14304  _rentdue */\n      dup2\n        /* \"blockchain/real_estate_major.sol\":14283:14292  msg.value */\n      callvalue\n        /* \"blockchain/real_estate_major.sol\":14283:14304  msg.value == _rentdue */\n      eq\n        /* \"blockchain/real_estate_major.sol\":14283:14375  msg.value == _rentdue && block.number + _additionalBlocks < block.number + rentalLimitBlocks */\n      dup1\n      iszero\n      tag_250\n      jumpi\n      pop\n        /* \"blockchain/real_estate_major.sol\":14358:14375  rentalLimitBlocks */\n      sload(0x01)\n        /* \"blockchain/real_estate_major.sol\":14343:14355  block.number */\n      number\n        /* \"blockchain/real_estate_major.sol\":14343:14375  block.number + rentalLimitBlocks */\n      add\n        /* \"blockchain/real_estate_major.sol\":14323:14340  _additionalBlocks */\n      dup2\n        /* \"blockchain/real_estate_major.sol\":14308:14320  block.number */\n      number\n        /* \"blockchain/real_estate_major.sol\":14308:14340  block.number + _additionalBlocks */\n      add\n        /* \"blockchain/real_estate_major.sol\":14308:14375  block.number + _additionalBlocks < block.number + rentalLimitBlocks */\n      lt\n        /* \"blockchain/real_estate_major.sol\":14283:14375  msg.value == _rentdue && block.number + _additionalBlocks < block.number + rentalLimitBlocks */\n    tag_250:\n        /* \"blockchain/real_estate_major.sol\":14274:14376  require (msg.value == _rentdue && block.number + _additionalBlocks < block.number + rentalLimitBlocks) */\n      tag_251\n      jumpi\n      0x00\n      dup1\n      revert\n    tag_251:\n        /* \"blockchain/real_estate_major.sol\":14523:14526  tax */\n      0x00\n      0x02\n      swap1\n      sload\n      swap1\n      0x0100\n      exp\n      swap1\n      div\n      0xff\n      and\n        /* \"blockchain/real_estate_major.sol\":14499:14526  msg.value/totalSupply * tax */\n      0xff\n      and\n        /* \"blockchain/real_estate_major.sol\":14509:14520  totalSupply */\n      sload(0x02)\n        /* \"blockchain/real_estate_major.sol\":14499:14508  msg.value */\n      callvalue\n        /* \"blockchain/real_estate_major.sol\":14499:14520  msg.value/totalSupply */\n      dup2\n      tag_252\n      jumpi\n      invalid\n    tag_252:\n      div\n        /* \"blockchain/real_estate_major.sol\":14499:14526  msg.value/totalSupply * tax */\n      mul\n        /* \"blockchain/real_estate_major.sol\":14485:14495  _taxdeduct */\n      0x09\n        /* \"blockchain/real_estate_major.sol\":14485:14527  _taxdeduct = (msg.value/totalSupply * tax) */\n      dup2\n      swap1\n      sstore\n      pop\n        /* \"blockchain/real_estate_major.sol\":14613:14623  _taxdeduct */\n      sload(0x09)\n        /* \"blockchain/real_estate_major.sol\":14601:14610  msg.value */\n      callvalue\n        /* \"blockchain/real_estate_major.sol\":14601:14623  msg.value - _taxdeduct */\n      sub\n        /* \"blockchain/real_estate_major.sol\":14585:14596  accumulated */\n      0x05\n      0x00\n        /* \"blockchain/real_estate_major.sol\":14585:14624  accumulated += (msg.value - _taxdeduct) */\n      dup3\n      dup3\n      sload\n      add\n      swap3\n      pop\n      pop\n      dup2\n      swap1\n      sstore\n      pop\n        /* \"blockchain/real_estate_major.sol\":14709:14719  _taxdeduct */\n      sload(0x09)\n        /* \"blockchain/real_estate_major.sol\":14692:14700  revenues */\n      0x10\n        /* \"blockchain/real_estate_major.sol\":14692:14705  revenues[gov] */\n      0x00\n        /* \"blockchain/real_estate_major.sol\":14701:14704  gov */\n      0x0c\n      0x00\n      swap1\n      sload\n      swap1\n      0x0100\n      exp\n      swap1\n      div\n      0xffffffffffffffffffffffffffffffffffffffff\n      and\n        /* \"blockchain/real_estate_major.sol\":14692:14705  revenues[gov] */\n      0xffffffffffffffffffffffffffffffffffffffff\n      and\n      0xffffffffffffffffffffffffffffffffffffffff\n      and\n      dup2\n      mstore\n      0x20\n      add\n      swap1\n      dup2\n      mstore\n      0x20\n      add\n      0x00\n      keccak256\n      0x00\n        /* \"blockchain/real_estate_major.sol\":14692:14719  revenues[gov] += _taxdeduct */\n      dup3\n      dup3\n      sload\n      add\n      swap3\n      pop\n      pop\n      dup2\n      swap1\n      sstore\n      pop\n        /* \"blockchain/real_estate_major.sol\":14826:14827  0 */\n      0x00\n        /* \"blockchain/real_estate_major.sol\":14800:14814  rentpaidUntill */\n      0x13\n        /* \"blockchain/real_estate_major.sol\":14800:14822  rentpaidUntill[tenant] */\n      0x00\n        /* \"blockchain/real_estate_major.sol\":14815:14821  tenant */\n      0x0e\n      0x00\n      swap1\n      sload\n      swap1\n      0x0100\n      exp\n      swap1\n      div\n      0xffffffffffffffffffffffffffffffffffffffff\n      and\n        /* \"blockchain/real_estate_major.sol\":14800:14822  rentpaidUntill[tenant] */\n      0xffffffffffffffffffffffffffffffffffffffff\n      and\n      0xffffffffffffffffffffffffffffffffffffffff\n      and\n      dup2\n      mstore\n      0x20\n      add\n      swap1\n      dup2\n      mstore\n      0x20\n      add\n      0x00\n      keccak256\n      sload\n        /* \"blockchain/real_estate_major.sol\":14800:14827  rentpaidUntill[tenant] == 0 */\n      eq\n        /* \"blockchain/real_estate_major.sol\":14800:14860  rentpaidUntill[tenant] == 0 && occupiedUntill < block.number */\n      dup1\n      iszero\n      tag_253\n      jumpi\n      pop\n        /* \"blockchain/real_estate_major.sol\":14848:14860  block.number */\n      number\n        /* \"blockchain/real_estate_major.sol\":14831:14845  occupiedUntill */\n      sload(0x08)\n        /* \"blockchain/real_estate_major.sol\":14831:14860  occupiedUntill < block.number */\n      lt\n        /* \"blockchain/real_estate_major.sol\":14800:14860  rentpaidUntill[tenant] == 0 && occupiedUntill < block.number */\n    tag_253:\n        /* \"blockchain/real_estate_major.sol\":14796:16333  if (rentpaidUntill[tenant] == 0 && occupiedUntill < block.number) {         //hasn't rented yet & flat is empty\r... */\n      iszero\n      tag_254\n      jumpi\n        /* \"blockchain/real_estate_major.sol\":14961:14978  _additionalBlocks */\n      dup1\n        /* \"blockchain/real_estate_major.sol\":14946:14958  block.number */\n      number\n        /* \"blockchain/real_estate_major.sol\":14946:14978  block.number + _additionalBlocks */\n      add\n        /* \"blockchain/real_estate_major.sol\":14921:14935  rentpaidUntill */\n      0x13\n        /* \"blockchain/real_estate_major.sol\":14921:14943  rentpaidUntill[tenant] */\n      0x00\n        /* \"blockchain/real_estate_major.sol\":14936:14942  tenant */\n      0x0e\n      0x00\n      swap1\n      sload\n      swap1\n      0x0100\n      exp\n      swap1\n      div\n      0xffffffffffffffffffffffffffffffffffffffff\n      and\n        /* \"blockchain/real_estate_major.sol\":14921:14943  rentpaidUntill[tenant] */\n      0xffffffffffffffffffffffffffffffffffffffff\n      and\n      0xffffffffffffffffffffffffffffffffffffffff\n      and\n      dup2\n      mstore\n      0x20\n      add\n      swap1\n      dup2\n      mstore\n      0x20\n      add\n      0x00\n      keccak256\n        /* \"blockchain/real_estate_major.sol\":14921:14978  rentpaidUntill[tenant] = block.number + _additionalBlocks */\n      dup2\n      swap1\n      sstore\n      pop\n        /* \"blockchain/real_estate_major.sol\":15040:15052  block.number */\n      number\n        /* \"blockchain/real_estate_major.sol\":15026:15037  rentalBegin */\n      0x07\n        /* \"blockchain/real_estate_major.sol\":15026:15052  rentalBegin = block.number */\n      dup2\n      swap1\n      sstore\n      pop\n        /* \"blockchain/real_estate_major.sol\":14796:16333  if (rentpaidUntill[tenant] == 0 && occupiedUntill < block.number) {         //hasn't rented yet & flat is empty\r... */\n      jump(tag_255)\n    tag_254:\n        /* \"blockchain/real_estate_major.sol\":15109:15110  0 */\n      0x00\n        /* \"blockchain/real_estate_major.sol\":15083:15097  rentpaidUntill */\n      0x13\n        /* \"blockchain/real_estate_major.sol\":15083:15105  rentpaidUntill[tenant] */\n      0x00\n        /* \"blockchain/real_estate_major.sol\":15098:15104  tenant */\n      0x0e\n      0x00\n      swap1\n      sload\n      swap1\n      0x0100\n      exp\n      swap1\n      div\n      0xffffffffffffffffffffffffffffffffffffffff\n      and\n        /* \"blockchain/real_estate_major.sol\":15083:15105  rentpaidUntill[tenant] */\n      0xffffffffffffffffffffffffffffffffffffffff\n      and\n      0xffffffffffffffffffffffffffffffffffffffff\n      and\n      dup2\n      mstore\n      0x20\n      add\n      swap1\n      dup2\n      mstore\n      0x20\n      add\n      0x00\n      keccak256\n      sload\n        /* \"blockchain/real_estate_major.sol\":15083:15110  rentpaidUntill[tenant] == 0 */\n      eq\n        /* \"blockchain/real_estate_major.sol\":15083:15143  rentpaidUntill[tenant] == 0 && occupiedUntill > block.number */\n      dup1\n      iszero\n      tag_256\n      jumpi\n      pop\n        /* \"blockchain/real_estate_major.sol\":15131:15143  block.number */\n      number\n        /* \"blockchain/real_estate_major.sol\":15114:15128  occupiedUntill */\n      sload(0x08)\n        /* \"blockchain/real_estate_major.sol\":15114:15143  occupiedUntill > block.number */\n      gt\n        /* \"blockchain/real_estate_major.sol\":15083:15143  rentpaidUntill[tenant] == 0 && occupiedUntill > block.number */\n    tag_256:\n        /* \"blockchain/real_estate_major.sol\":15079:16333  if (rentpaidUntill[tenant] == 0 && occupiedUntill > block.number) {    //hasn't rented yet & flat is occupied\r... */\n      iszero\n      tag_257\n      jumpi\n        /* \"blockchain/real_estate_major.sol\":15244:15261  _additionalBlocks */\n      dup1\n        /* \"blockchain/real_estate_major.sol\":15227:15241  occupiedUntill */\n      sload(0x08)\n        /* \"blockchain/real_estate_major.sol\":15227:15261  occupiedUntill + _additionalBlocks */\n      add\n        /* \"blockchain/real_estate_major.sol\":15202:15216  rentpaidUntill */\n      0x13\n        /* \"blockchain/real_estate_major.sol\":15202:15224  rentpaidUntill[tenant] */\n      0x00\n        /* \"blockchain/real_estate_major.sol\":15217:15223  tenant */\n      0x0e\n      0x00\n      swap1\n      sload\n      swap1\n      0x0100\n      exp\n      swap1\n      div\n      0xffffffffffffffffffffffffffffffffffffffff\n      and\n        /* \"blockchain/real_estate_major.sol\":15202:15224  rentpaidUntill[tenant] */\n      0xffffffffffffffffffffffffffffffffffffffff\n      and\n      0xffffffffffffffffffffffffffffffffffffffff\n      and\n      dup2\n      mstore\n      0x20\n      add\n      swap1\n      dup2\n      mstore\n      0x20\n      add\n      0x00\n      keccak256\n        /* \"blockchain/real_estate_major.sol\":15202:15261  rentpaidUntill[tenant] = occupiedUntill + _additionalBlocks */\n      dup2\n      swap1\n      sstore\n      pop\n        /* \"blockchain/real_estate_major.sol\":15330:15344  occupiedUntill */\n      sload(0x08)\n        /* \"blockchain/real_estate_major.sol\":15316:15327  rentalBegin */\n      0x07\n        /* \"blockchain/real_estate_major.sol\":15316:15344  rentalBegin = occupiedUntill */\n      dup2\n      swap1\n      sstore\n      pop\n        /* \"blockchain/real_estate_major.sol\":15079:16333  if (rentpaidUntill[tenant] == 0 && occupiedUntill > block.number) {    //hasn't rented yet & flat is occupied\r... */\n      jump(tag_258)\n    tag_257:\n        /* \"blockchain/real_estate_major.sol\":15401:15413  block.number */\n      number\n        /* \"blockchain/real_estate_major.sol\":15376:15390  rentpaidUntill */\n      0x13\n        /* \"blockchain/real_estate_major.sol\":15376:15398  rentpaidUntill[tenant] */\n      0x00\n        /* \"blockchain/real_estate_major.sol\":15391:15397  tenant */\n      0x0e\n      0x00\n      swap1\n      sload\n      swap1\n      0x0100\n      exp\n      swap1\n      div\n      0xffffffffffffffffffffffffffffffffffffffff\n      and\n        /* \"blockchain/real_estate_major.sol\":15376:15398  rentpaidUntill[tenant] */\n      0xffffffffffffffffffffffffffffffffffffffff\n      and\n      0xffffffffffffffffffffffffffffffffffffffff\n      and\n      dup2\n      mstore\n      0x20\n      add\n      swap1\n      dup2\n      mstore\n      0x20\n      add\n      0x00\n      keccak256\n      sload\n        /* \"blockchain/real_estate_major.sol\":15376:15413  rentpaidUntill[tenant] > block.number */\n      gt\n        /* \"blockchain/real_estate_major.sol\":15371:16333  if ( rentpaidUntill[tenant] > block.number) {                          //is renting, contract is runing\r... */\n      iszero\n      tag_259\n      jumpi\n        /* \"blockchain/real_estate_major.sol\":15514:15531  _additionalBlocks */\n      dup1\n        /* \"blockchain/real_estate_major.sol\":15488:15502  rentpaidUntill */\n      0x13\n        /* \"blockchain/real_estate_major.sol\":15488:15510  rentpaidUntill[tenant] */\n      0x00\n        /* \"blockchain/real_estate_major.sol\":15503:15509  tenant */\n      0x0e\n      0x00\n      swap1\n      sload\n      swap1\n      0x0100\n      exp\n      swap1\n      div\n      0xffffffffffffffffffffffffffffffffffffffff\n      and\n        /* \"blockchain/real_estate_major.sol\":15488:15510  rentpaidUntill[tenant] */\n      0xffffffffffffffffffffffffffffffffffffffff\n      and\n      0xffffffffffffffffffffffffffffffffffffffff\n      and\n      dup2\n      mstore\n      0x20\n      add\n      swap1\n      dup2\n      mstore\n      0x20\n      add\n      0x00\n      keccak256\n      0x00\n        /* \"blockchain/real_estate_major.sol\":15488:15531  rentpaidUntill[tenant] += _additionalBlocks */\n      dup3\n      dup3\n      sload\n      add\n      swap3\n      pop\n      pop\n      dup2\n      swap1\n      sstore\n      pop\n        /* \"blockchain/real_estate_major.sol\":15616:15630  occupiedUntill */\n      sload(0x08)\n        /* \"blockchain/real_estate_major.sol\":15602:15613  rentalBegin */\n      0x07\n        /* \"blockchain/real_estate_major.sol\":15602:15630  rentalBegin = occupiedUntill */\n      dup2\n      swap1\n      sstore\n      pop\n        /* \"blockchain/real_estate_major.sol\":15371:16333  if ( rentpaidUntill[tenant] > block.number) {                          //is renting, contract is runing\r... */\n      jump(tag_260)\n    tag_259:\n        /* \"blockchain/real_estate_major.sol\":15686:15698  block.number */\n      number\n        /* \"blockchain/real_estate_major.sol\":15661:15675  rentpaidUntill */\n      0x13\n        /* \"blockchain/real_estate_major.sol\":15661:15683  rentpaidUntill[tenant] */\n      0x00\n        /* \"blockchain/real_estate_major.sol\":15676:15682  tenant */\n      0x0e\n      0x00\n      swap1\n      sload\n      swap1\n      0x0100\n      exp\n      swap1\n      div\n      0xffffffffffffffffffffffffffffffffffffffff\n      and\n        /* \"blockchain/real_estate_major.sol\":15661:15683  rentpaidUntill[tenant] */\n      0xffffffffffffffffffffffffffffffffffffffff\n      and\n      0xffffffffffffffffffffffffffffffffffffffff\n      and\n      dup2\n      mstore\n      0x20\n      add\n      swap1\n      dup2\n      mstore\n      0x20\n      add\n      0x00\n      keccak256\n      sload\n        /* \"blockchain/real_estate_major.sol\":15661:15698  rentpaidUntill[tenant] < block.number */\n      lt\n        /* \"blockchain/real_estate_major.sol\":15661:15729  rentpaidUntill[tenant] < block.number && occupiedUntill>block.number */\n      dup1\n      iszero\n      tag_261\n      jumpi\n      pop\n        /* \"blockchain/real_estate_major.sol\":15717:15729  block.number */\n      number\n        /* \"blockchain/real_estate_major.sol\":15702:15716  occupiedUntill */\n      sload(0x08)\n        /* \"blockchain/real_estate_major.sol\":15702:15729  occupiedUntill>block.number */\n      gt\n        /* \"blockchain/real_estate_major.sol\":15661:15729  rentpaidUntill[tenant] < block.number && occupiedUntill>block.number */\n    tag_261:\n        /* \"blockchain/real_estate_major.sol\":15657:16333  if (rentpaidUntill[tenant] < block.number && occupiedUntill>block.number) {    //has rented before & flat is occupied\r... */\n      iszero\n      tag_262\n      jumpi\n        /* \"blockchain/real_estate_major.sol\":15829:15846  _additionalBlocks */\n      dup1\n        /* \"blockchain/real_estate_major.sol\":15813:15827  occupiedUntill */\n      sload(0x08)\n        /* \"blockchain/real_estate_major.sol\":15813:15846  occupiedUntill +_additionalBlocks */\n      add\n        /* \"blockchain/real_estate_major.sol\":15788:15802  rentpaidUntill */\n      0x13\n        /* \"blockchain/real_estate_major.sol\":15788:15810  rentpaidUntill[tenant] */\n      0x00\n        /* \"blockchain/real_estate_major.sol\":15803:15809  tenant */\n      0x0e\n      0x00\n      swap1\n      sload\n      swap1\n      0x0100\n      exp\n      swap1\n      div\n      0xffffffffffffffffffffffffffffffffffffffff\n      and\n        /* \"blockchain/real_estate_major.sol\":15788:15810  rentpaidUntill[tenant] */\n      0xffffffffffffffffffffffffffffffffffffffff\n      and\n      0xffffffffffffffffffffffffffffffffffffffff\n      and\n      dup2\n      mstore\n      0x20\n      add\n      swap1\n      dup2\n      mstore\n      0x20\n      add\n      0x00\n      keccak256\n        /* \"blockchain/real_estate_major.sol\":15788:15846  rentpaidUntill[tenant] = occupiedUntill +_additionalBlocks */\n      dup2\n      swap1\n      sstore\n      pop\n        /* \"blockchain/real_estate_major.sol\":15924:15938  occupiedUntill */\n      sload(0x08)\n        /* \"blockchain/real_estate_major.sol\":15910:15921  rentalBegin */\n      0x07\n        /* \"blockchain/real_estate_major.sol\":15910:15938  rentalBegin = occupiedUntill */\n      dup2\n      swap1\n      sstore\n      pop\n        /* \"blockchain/real_estate_major.sol\":15657:16333  if (rentpaidUntill[tenant] < block.number && occupiedUntill>block.number) {    //has rented before & flat is occupied\r... */\n      jump(tag_263)\n    tag_262:\n        /* \"blockchain/real_estate_major.sol\":15994:16006  block.number */\n      number\n        /* \"blockchain/real_estate_major.sol\":15969:15983  rentpaidUntill */\n      0x13\n        /* \"blockchain/real_estate_major.sol\":15969:15991  rentpaidUntill[tenant] */\n      0x00\n        /* \"blockchain/real_estate_major.sol\":15984:15990  tenant */\n      0x0e\n      0x00\n      swap1\n      sload\n      swap1\n      0x0100\n      exp\n      swap1\n      div\n      0xffffffffffffffffffffffffffffffffffffffff\n      and\n        /* \"blockchain/real_estate_major.sol\":15969:15991  rentpaidUntill[tenant] */\n      0xffffffffffffffffffffffffffffffffffffffff\n      and\n      0xffffffffffffffffffffffffffffffffffffffff\n      and\n      dup2\n      mstore\n      0x20\n      add\n      swap1\n      dup2\n      mstore\n      0x20\n      add\n      0x00\n      keccak256\n      sload\n        /* \"blockchain/real_estate_major.sol\":15969:16006  rentpaidUntill[tenant] < block.number */\n      lt\n        /* \"blockchain/real_estate_major.sol\":15969:16037  rentpaidUntill[tenant] < block.number && occupiedUntill<block.number */\n      dup1\n      iszero\n      tag_264\n      jumpi\n      pop\n        /* \"blockchain/real_estate_major.sol\":16025:16037  block.number */\n      number\n        /* \"blockchain/real_estate_major.sol\":16010:16024  occupiedUntill */\n      sload(0x08)\n        /* \"blockchain/real_estate_major.sol\":16010:16037  occupiedUntill<block.number */\n      lt\n        /* \"blockchain/real_estate_major.sol\":15969:16037  rentpaidUntill[tenant] < block.number && occupiedUntill<block.number */\n    tag_264:\n        /* \"blockchain/real_estate_major.sol\":15965:16333  if (rentpaidUntill[tenant] < block.number && occupiedUntill<block.number) {    //has rented before & flat is empty\r... */\n      iszero\n      tag_265\n      jumpi\n        /* \"blockchain/real_estate_major.sol\":16133:16150  _additionalBlocks */\n      dup1\n        /* \"blockchain/real_estate_major.sol\":16118:16130  block.number */\n      number\n        /* \"blockchain/real_estate_major.sol\":16118:16150  block.number + _additionalBlocks */\n      add\n        /* \"blockchain/real_estate_major.sol\":16093:16107  rentpaidUntill */\n      0x13\n        /* \"blockchain/real_estate_major.sol\":16093:16115  rentpaidUntill[tenant] */\n      0x00\n        /* \"blockchain/real_estate_major.sol\":16108:16114  tenant */\n      0x0e\n      0x00\n      swap1\n      sload\n      swap1\n      0x0100\n      exp\n      swap1\n      div\n      0xffffffffffffffffffffffffffffffffffffffff\n      and\n        /* \"blockchain/real_estate_major.sol\":16093:16115  rentpaidUntill[tenant] */\n      0xffffffffffffffffffffffffffffffffffffffff\n      and\n      0xffffffffffffffffffffffffffffffffffffffff\n      and\n      dup2\n      mstore\n      0x20\n      add\n      swap1\n      dup2\n      mstore\n      0x20\n      add\n      0x00\n      keccak256\n        /* \"blockchain/real_estate_major.sol\":16093:16150  rentpaidUntill[tenant] = block.number + _additionalBlocks */\n      dup2\n      swap1\n      sstore\n      pop\n        /* \"blockchain/real_estate_major.sol\":16220:16232  block.number */\n      number\n        /* \"blockchain/real_estate_major.sol\":16206:16217  rentalBegin */\n      0x07\n        /* \"blockchain/real_estate_major.sol\":16206:16232  rentalBegin = block.number */\n      dup2\n      swap1\n      sstore\n      pop\n        /* \"blockchain/real_estate_major.sol\":15965:16333  if (rentpaidUntill[tenant] < block.number && occupiedUntill<block.number) {    //has rented before & flat is empty\r... */\n    tag_265:\n        /* \"blockchain/real_estate_major.sol\":15657:16333  if (rentpaidUntill[tenant] < block.number && occupiedUntill>block.number) {    //has rented before & flat is occupied\r... */\n    tag_263:\n        /* \"blockchain/real_estate_major.sol\":15371:16333  if ( rentpaidUntill[tenant] > block.number) {                          //is renting, contract is runing\r... */\n    tag_260:\n        /* \"blockchain/real_estate_major.sol\":15079:16333  if (rentpaidUntill[tenant] == 0 && occupiedUntill > block.number) {    //hasn't rented yet & flat is occupied\r... */\n    tag_258:\n        /* \"blockchain/real_estate_major.sol\":14796:16333  if (rentpaidUntill[tenant] == 0 && occupiedUntill < block.number) {         //hasn't rented yet & flat is empty\r... */\n    tag_255:\n        /* \"blockchain/real_estate_major.sol\":16361:16375  rentpaidUntill */\n      0x13\n        /* \"blockchain/real_estate_major.sol\":16361:16383  rentpaidUntill[tenant] */\n      0x00\n        /* \"blockchain/real_estate_major.sol\":16376:16382  tenant */\n      0x0e\n      0x00\n      swap1\n      sload\n      swap1\n      0x0100\n      exp\n      swap1\n      div\n      0xffffffffffffffffffffffffffffffffffffffff\n      and\n        /* \"blockchain/real_estate_major.sol\":16361:16383  rentpaidUntill[tenant] */\n      0xffffffffffffffffffffffffffffffffffffffff\n      and\n      0xffffffffffffffffffffffffffffffffffffffff\n      and\n      dup2\n      mstore\n      0x20\n      add\n      swap1\n      dup2\n      mstore\n      0x20\n      add\n      0x00\n      keccak256\n      sload\n        /* \"blockchain/real_estate_major.sol\":16343:16357  occupiedUntill */\n      0x08\n        /* \"blockchain/real_estate_major.sol\":16343:16383  occupiedUntill  = rentpaidUntill[tenant] */\n      dup2\n      swap1\n      sstore\n      pop\n        /* \"blockchain/real_estate_major.sol\":16466:16580  Rental (block.timestamp, msg.sender, msg.value, _taxdeduct, (msg.value - _taxdeduct), rentalBegin, occupiedUntill) */\n      0xed0bcf6e75dafae47cced3978b084c050054931a5b61248517a6d69b00641aa6\n        /* \"blockchain/real_estate_major.sol\":16474:16489  block.timestamp */\n      timestamp\n        /* \"blockchain/real_estate_major.sol\":16491:16501  msg.sender */\n      caller\n        /* \"blockchain/real_estate_major.sol\":16503:16512  msg.value */\n      callvalue\n        /* \"blockchain/real_estate_major.sol\":16514:16524  _taxdeduct */\n      sload(0x09)\n        /* \"blockchain/real_estate_major.sol\":16539:16549  _taxdeduct */\n      sload(0x09)\n        /* \"blockchain/real_estate_major.sol\":16527:16536  msg.value */\n      callvalue\n        /* \"blockchain/real_estate_major.sol\":16527:16549  msg.value - _taxdeduct */\n      sub\n        /* \"blockchain/real_estate_major.sol\":16552:16563  rentalBegin */\n      sload(0x07)\n        /* \"blockchain/real_estate_major.sol\":16565:16579  occupiedUntill */\n      sload(0x08)\n        /* \"blockchain/real_estate_major.sol\":16466:16580  Rental (block.timestamp, msg.sender, msg.value, _taxdeduct, (msg.value - _taxdeduct), rentalBegin, occupiedUntill) */\n      mload(0x40)\n      dup1\n      dup9\n      dup2\n      mstore\n      0x20\n      add\n      dup8\n      0xffffffffffffffffffffffffffffffffffffffff\n      and\n      dup2\n      mstore\n      0x20\n      add\n      dup7\n      dup2\n      mstore\n      0x20\n      add\n      dup6\n      dup2\n      mstore\n      0x20\n      add\n      dup5\n      dup2\n      mstore\n      0x20\n      add\n      dup4\n      dup2\n      mstore\n      0x20\n      add\n      dup3\n      dup2\n      mstore\n      0x20\n      add\n      swap8\n      pop\n      pop\n      pop\n      pop\n      pop\n      pop\n      pop\n      pop\n      mload(0x40)\n      dup1\n      swap2\n      sub\n      swap1\n      log1\n        /* \"blockchain/real_estate_major.sol\":6688:6689  _ */\n      pop\n      pop\n        /* \"blockchain/real_estate_major.sol\":14023:16588  function payRent(uint8 _months) public payable isMultipleOf eligibleToPayRent{          //needs to be eligible to pay rent\r... */\n      pop\n      jump\t// out\n        /* \"blockchain/real_estate_major.sol\":2877:2921  mapping (address => uint256) public revenues */\n    tag_120:\n      mstore(0x20, 0x10)\n      dup1\n      0x00\n      mstore\n      keccak256(0x00, 0x40)\n      0x00\n      swap2\n      pop\n      swap1\n      pop\n      sload\n      dup2\n      jump\t// out\n        /* \"blockchain/real_estate_major.sol\":1423:1449  uint256 public accumulated */\n    tag_123:\n      sload(0x05)\n      dup2\n      jump\t// out\n        /* \"blockchain/real_estate_major.sol\":1768:1797  uint256 public occupiedUntill */\n    tag_126:\n      sload(0x08)\n      dup2\n      jump\t// out\n        /* \"blockchain/real_estate_major.sol\":435:465  uint8 public rentalLimitMonths */\n    tag_129:\n      0x00\n      0x03\n      swap1\n      sload\n      swap1\n      0x0100\n      exp\n      swap1\n      div\n      0xff\n      and\n      dup2\n      jump\t// out\n        /* \"blockchain/real_estate_major.sol\":2110:2130  string public symbol */\n    tag_132:\n      0x0b\n      dup1\n      sload\n      0x01\n      dup2\n      0x01\n      and\n      iszero\n      0x0100\n      mul\n      sub\n      and\n      0x02\n      swap1\n      div\n      dup1\n      0x1f\n      add\n      0x20\n      dup1\n      swap2\n      div\n      mul\n      0x20\n      add\n      mload(0x40)\n      swap1\n      dup2\n      add\n      0x40\n      mstore\n      dup1\n      swap3\n      swap2\n      swap1\n      dup2\n      dup2\n      mstore\n      0x20\n      add\n      dup3\n      dup1\n      sload\n      0x01\n      dup2\n      0x01\n      and\n      iszero\n      0x0100\n      mul\n      sub\n      and\n      0x02\n      swap1\n      div\n      dup1\n      iszero\n      tag_266\n      jumpi\n      dup1\n      0x1f\n      lt\n      tag_267\n      jumpi\n      0x0100\n      dup1\n      dup4\n      sload\n      div\n      mul\n      dup4\n      mstore\n      swap2\n      0x20\n      add\n      swap2\n      jump(tag_266)\n    tag_267:\n      dup3\n      add\n      swap2\n      swap1\n      0x00\n      mstore\n      keccak256(0x00, 0x20)\n      swap1\n    tag_268:\n      dup2\n      sload\n      dup2\n      mstore\n      swap1\n      0x01\n      add\n      swap1\n      0x20\n      add\n      dup1\n      dup4\n      gt\n      tag_268\n      jumpi\n      dup3\n      swap1\n      sub\n      0x1f\n      and\n      dup3\n      add\n      swap2\n    tag_266:\n      pop\n      pop\n      pop\n      pop\n      pop\n      dup2\n      jump\t// out\n        /* \"blockchain/real_estate_major.sol\":794:821  uint256 public totalSupply2 */\n    tag_139:\n      sload(0x03)\n      dup2\n      jump\t// out\n        /* \"blockchain/real_estate_major.sol\":311:327  uint8 public tax */\n    tag_142:\n      0x00\n      0x02\n      swap1\n      sload\n      swap1\n      0x0100\n      exp\n      swap1\n      div\n      0xff\n      and\n      dup2\n      jump\t// out\n        /* \"blockchain/real_estate_major.sol\":539:571  uint256 public rentalLimitBlocks */\n    tag_145:\n      sload(0x01)\n      dup2\n      jump\t// out\n        /* \"blockchain/real_estate_major.sol\":11443:11646  function setRentper30Day(uint256 _rent) public onlyPropOwner{               //mainPropertyOwner can set rentPer30Day in WEI\r... */\n    tag_149:\n        /* \"blockchain/real_estate_major.sol\":6192:6209  mainPropertyOwner */\n      0x0d\n      0x00\n      swap1\n      sload\n      swap1\n      0x0100\n      exp\n      swap1\n      div\n      0xffffffffffffffffffffffffffffffffffffffff\n      and\n        /* \"blockchain/real_estate_major.sol\":6178:6209  msg.sender == mainPropertyOwner */\n      0xffffffffffffffffffffffffffffffffffffffff\n      and\n        /* \"blockchain/real_estate_major.sol\":6178:6188  msg.sender */\n      caller\n        /* \"blockchain/real_estate_major.sol\":6178:6209  msg.sender == mainPropertyOwner */\n      0xffffffffffffffffffffffffffffffffffffffff\n      and\n      eq\n        /* \"blockchain/real_estate_major.sol\":6170:6210  require(msg.sender == mainPropertyOwner) */\n      tag_270\n      jumpi\n      0x00\n      dup1\n      revert\n    tag_270:\n        /* \"blockchain/real_estate_major.sol\":11588:11593  _rent */\n      dup1\n        /* \"blockchain/real_estate_major.sol\":11573:11585  rentPer30Day */\n      0x04\n        /* \"blockchain/real_estate_major.sol\":11573:11593  rentPer30Day = _rent */\n      dup2\n      swap1\n      sstore\n      pop\n        /* \"blockchain/real_estate_major.sol\":11606:11638  RentPer30DaySetTo (rentPer30Day) */\n      0x01c0501a0159c81ad08156852da610a4651db498b9140fd2978130a2ad4817a9\n        /* \"blockchain/real_estate_major.sol\":11625:11637  rentPer30Day */\n      sload(0x04)\n        /* \"blockchain/real_estate_major.sol\":11606:11638  RentPer30DaySetTo (rentPer30Day) */\n      mload(0x40)\n      dup1\n      dup3\n      dup2\n      mstore\n      0x20\n      add\n      swap2\n      pop\n      pop\n      mload(0x40)\n      dup1\n      swap2\n      sub\n      swap1\n      log1\n        /* \"blockchain/real_estate_major.sol\":11443:11646  function setRentper30Day(uint256 _rent) public onlyPropOwner{               //mainPropertyOwner can set rentPer30Day in WEI\r... */\n      pop\n      jump\t// out\n        /* \"blockchain/real_estate_major.sol\":1557:1586  uint256 public blocksPer30Day */\n    tag_152:\n      sload(0x06)\n      dup2\n      jump\t// out\n        /* \"blockchain/real_estate_major.sol\":12878:13301  function transfer(address _recipient, uint256 _amount) public returns (bool) {      //transfer of Token, requires isStakeholder\r... */\n    tag_156:\n        /* \"blockchain/real_estate_major.sol\":12949:12953  bool */\n      0x00\n        /* \"blockchain/real_estate_major.sol\":13016:13035  bool isStakeholderX */\n      dup1\n        /* \"blockchain/real_estate_major.sol\":13041:13066  isStakeholder(_recipient) */\n      tag_273\n        /* \"blockchain/real_estate_major.sol\":13055:13065  _recipient */\n      dup5\n        /* \"blockchain/real_estate_major.sol\":13041:13054  isStakeholder */\n      tag_190\n        /* \"blockchain/real_estate_major.sol\":13041:13066  isStakeholder(_recipient) */\n      jump\t// in\n    tag_273:\n        /* \"blockchain/real_estate_major.sol\":13015:13066  (bool isStakeholderX, ) = isStakeholder(_recipient) */\n      pop\n      swap1\n      pop\n        /* \"blockchain/real_estate_major.sol\":13082:13096  isStakeholderX */\n      dup1\n        /* \"blockchain/real_estate_major.sol\":13074:13097  require(isStakeholderX) */\n      tag_274\n      jumpi\n      0x00\n      dup1\n      revert\n    tag_274:\n        /* \"blockchain/real_estate_major.sol\":13135:13142  _amount */\n      dup3\n        /* \"blockchain/real_estate_major.sol\":13113:13119  shares */\n      0x11\n        /* \"blockchain/real_estate_major.sol\":13113:13131  shares[msg.sender] */\n      0x00\n        /* \"blockchain/real_estate_major.sol\":13120:13130  msg.sender */\n      caller\n        /* \"blockchain/real_estate_major.sol\":13113:13131  shares[msg.sender] */\n      0xffffffffffffffffffffffffffffffffffffffff\n      and\n      0xffffffffffffffffffffffffffffffffffffffff\n      and\n      dup2\n      mstore\n      0x20\n      add\n      swap1\n      dup2\n      mstore\n      0x20\n      add\n      0x00\n      keccak256\n      sload\n        /* \"blockchain/real_estate_major.sol\":13113:13142  shares[msg.sender] >= _amount */\n      lt\n      iszero\n        /* \"blockchain/real_estate_major.sol\":13105:13143  require(shares[msg.sender] >= _amount) */\n      tag_275\n      jumpi\n      0x00\n      dup1\n      revert\n    tag_275:\n        /* \"blockchain/real_estate_major.sol\":13173:13180  _amount */\n      dup3\n        /* \"blockchain/real_estate_major.sol\":13151:13157  shares */\n      0x11\n        /* \"blockchain/real_estate_major.sol\":13151:13169  shares[msg.sender] */\n      0x00\n        /* \"blockchain/real_estate_major.sol\":13158:13168  msg.sender */\n      caller\n        /* \"blockchain/real_estate_major.sol\":13151:13169  shares[msg.sender] */\n      0xffffffffffffffffffffffffffffffffffffffff\n      and\n      0xffffffffffffffffffffffffffffffffffffffff\n      and\n      dup2\n      mstore\n      0x20\n      add\n      swap1\n      dup2\n      mstore\n      0x20\n      add\n      0x00\n      keccak256\n      0x00\n        /* \"blockchain/real_estate_major.sol\":13151:13180  shares[msg.sender] -= _amount */\n      dup3\n      dup3\n      sload\n      sub\n      swap3\n      pop\n      pop\n      dup2\n      swap1\n      sstore\n      pop\n        /* \"blockchain/real_estate_major.sol\":13210:13217  _amount */\n      dup3\n        /* \"blockchain/real_estate_major.sol\":13188:13194  shares */\n      0x11\n        /* \"blockchain/real_estate_major.sol\":13188:13206  shares[_recipient] */\n      0x00\n        /* \"blockchain/real_estate_major.sol\":13195:13205  _recipient */\n      dup7\n        /* \"blockchain/real_estate_major.sol\":13188:13206  shares[_recipient] */\n      0xffffffffffffffffffffffffffffffffffffffff\n      and\n      0xffffffffffffffffffffffffffffffffffffffff\n      and\n      dup2\n      mstore\n      0x20\n      add\n      swap1\n      dup2\n      mstore\n      0x20\n      add\n      0x00\n      keccak256\n      0x00\n        /* \"blockchain/real_estate_major.sol\":13188:13217  shares[_recipient] += _amount */\n      dup3\n      dup3\n      sload\n      add\n      swap3\n      pop\n      pop\n      dup2\n      swap1\n      sstore\n      pop\n        /* \"blockchain/real_estate_major.sol\":13256:13266  _recipient */\n      dup4\n        /* \"blockchain/real_estate_major.sol\":13230:13276  ShareTransfer(msg.sender, _recipient, _amount) */\n      0xffffffffffffffffffffffffffffffffffffffff\n      and\n        /* \"blockchain/real_estate_major.sol\":13244:13254  msg.sender */\n      caller\n        /* \"blockchain/real_estate_major.sol\":13230:13276  ShareTransfer(msg.sender, _recipient, _amount) */\n      0xffffffffffffffffffffffffffffffffffffffff\n      and\n      0xf65b362dee26383a16fab495d027c962695fd9f6b89f5eece76ded00c8223a2d\n        /* \"blockchain/real_estate_major.sol\":13268:13275  _amount */\n      dup6\n        /* \"blockchain/real_estate_major.sol\":13230:13276  ShareTransfer(msg.sender, _recipient, _amount) */\n      mload(0x40)\n      dup1\n      dup3\n      dup2\n      mstore\n      0x20\n      add\n      swap2\n      pop\n      pop\n      mload(0x40)\n      dup1\n      swap2\n      sub\n      swap1\n      log3\n        /* \"blockchain/real_estate_major.sol\":13291:13295  true */\n      0x01\n        /* \"blockchain/real_estate_major.sol\":13284:13295  return true */\n      swap2\n      pop\n      pop\n        /* \"blockchain/real_estate_major.sol\":12878:13301  function transfer(address _recipient, uint256 _amount) public returns (bool) {      //transfer of Token, requires isStakeholder\r... */\n      swap3\n      swap2\n      pop\n      pop\n      jump\t// out\n        /* \"blockchain/real_estate_major.sol\":2504:2525  address public tenant */\n    tag_159:\n      0x0e\n      0x00\n      swap1\n      sload\n      swap1\n      0x0100\n      exp\n      swap1\n      div\n      0xffffffffffffffffffffffffffffffffffffffff\n      and\n      dup2\n      jump\t// out\n        /* \"blockchain/real_estate_major.sol\":6765:6911  function showSharesOf(address _owner) public view returns (uint256 balance) {       //shows shares for each address.\r... */\n    tag_163:\n        /* \"blockchain/real_estate_major.sol\":6824:6839  uint256 balance */\n      0x00\n        /* \"blockchain/real_estate_major.sol\":6892:6898  shares */\n      0x11\n        /* \"blockchain/real_estate_major.sol\":6892:6906  shares[_owner] */\n      0x00\n        /* \"blockchain/real_estate_major.sol\":6899:6905  _owner */\n      dup4\n        /* \"blockchain/real_estate_major.sol\":6892:6906  shares[_owner] */\n      0xffffffffffffffffffffffffffffffffffffffff\n      and\n      0xffffffffffffffffffffffffffffffffffffffff\n      and\n      dup2\n      mstore\n      0x20\n      add\n      swap1\n      dup2\n      mstore\n      0x20\n      add\n      0x00\n      keccak256\n      sload\n        /* \"blockchain/real_estate_major.sol\":6885:6906  return shares[_owner] */\n      swap1\n      pop\n        /* \"blockchain/real_estate_major.sol\":6765:6911  function showSharesOf(address _owner) public view returns (uint256 balance) {       //shows shares for each address.\r... */\n      swap2\n      swap1\n      pop\n      jump\t// out\n        /* \"blockchain/real_estate_major.sol\":8866:9109  function setTax (uint8 _x) public onlyGov {                             //set new tax rate (for incoming rent being taxed with %)\r... */\n    tag_167:\n        /* \"blockchain/real_estate_major.sol\":6121:6124  gov */\n      0x0c\n      0x00\n      swap1\n      sload\n      swap1\n      0x0100\n      exp\n      swap1\n      div\n      0xffffffffffffffffffffffffffffffffffffffff\n      and\n        /* \"blockchain/real_estate_major.sol\":6107:6124  msg.sender == gov */\n      0xffffffffffffffffffffffffffffffffffffffff\n      and\n        /* \"blockchain/real_estate_major.sol\":6107:6117  msg.sender */\n      caller\n        /* \"blockchain/real_estate_major.sol\":6107:6124  msg.sender == gov */\n      0xffffffffffffffffffffffffffffffffffffffff\n      and\n      eq\n        /* \"blockchain/real_estate_major.sol\":6099:6125  require(msg.sender == gov) */\n      tag_278\n      jumpi\n      0x00\n      dup1\n      revert\n    tag_278:\n        /* \"blockchain/real_estate_major.sol\":9016:9019  100 */\n      0x64\n        /* \"blockchain/real_estate_major.sol\":9010:9012  _x */\n      dup2\n        /* \"blockchain/real_estate_major.sol\":9010:9019  _x <= 100 */\n      0xff\n      and\n      gt\n      iszero\n        /* \"blockchain/real_estate_major.sol\":9001:9061  require( _x <= 100, \"Valid tax rate  (0% - 100%) required\" ) */\n      tag_280\n      jumpi\n      mload(0x40)\n      0x08c379a000000000000000000000000000000000000000000000000000000000\n      dup2\n      mstore\n      0x04\n      add\n      dup1\n      dup1\n      0x20\n      add\n      dup3\n      dup2\n      sub\n      dup3\n      mstore\n      0x24\n      dup2\n      mstore\n      0x20\n      add\n      dup1\n      data_f4c7e2f8a31f25d366f4f6478cb74420db6675131647e7811675c1683b0a7f1a\n      0x24\n      swap2\n      codecopy\n      0x40\n      add\n      swap2\n      pop\n      pop\n      mload(0x40)\n      dup1\n      swap2\n      sub\n      swap1\n      revert\n    tag_280:\n        /* \"blockchain/real_estate_major.sol\":9074:9076  _x */\n      dup1\n        /* \"blockchain/real_estate_major.sol\":9068:9071  tax */\n      0x00\n      0x02\n        /* \"blockchain/real_estate_major.sol\":9068:9076  tax = _x */\n      0x0100\n      exp\n      dup2\n      sload\n      dup2\n      0xff\n      mul\n      not\n      and\n      swap1\n      dup4\n      0xff\n      and\n      mul\n      or\n      swap1\n      sstore\n      pop\n        /* \"blockchain/real_estate_major.sol\":9088:9104  ChangedTax (tax) */\n      0x945421baf50aff36cdd701534d69b85e9c3da3be3505f8fcc971d3f067c04243\n        /* \"blockchain/real_estate_major.sol\":9100:9103  tax */\n      0x00\n      0x02\n      swap1\n      sload\n      swap1\n      0x0100\n      exp\n      swap1\n      div\n      0xff\n      and\n        /* \"blockchain/real_estate_major.sol\":9088:9104  ChangedTax (tax) */\n      mload(0x40)\n      dup1\n      dup3\n      0xff\n      and\n      dup2\n      mstore\n      0x20\n      add\n      swap2\n      pop\n      pop\n      mload(0x40)\n      dup1\n      swap2\n      sub\n      swap1\n      log1\n        /* \"blockchain/real_estate_major.sol\":8866:9109  function setTax (uint8 _x) public onlyGov {                             //set new tax rate (for incoming rent being taxed with %)\r... */\n      pop\n      jump\t// out\n        /* \"blockchain/real_estate_major.sol\":10373:10926  function seizureFrom(address _from, address _to, uint256 _value) public returns (bool success) {           //government has unlimited allowance, therefore  can seize all assets from every stakeholder. Function also used to buyShares from Stakeholder.\r... */\n    tag_171:\n        /* \"blockchain/real_estate_major.sol\":10454:10466  bool success */\n      0x00\n        /* \"blockchain/real_estate_major.sol\":10627:10644  uint256 allowance */\n      dup1\n        /* \"blockchain/real_estate_major.sol\":10647:10654  allowed */\n      0x12\n        /* \"blockchain/real_estate_major.sol\":10647:10661  allowed[_from] */\n      0x00\n        /* \"blockchain/real_estate_major.sol\":10655:10660  _from */\n      dup7\n        /* \"blockchain/real_estate_major.sol\":10647:10661  allowed[_from] */\n      0xffffffffffffffffffffffffffffffffffffffff\n      and\n      0xffffffffffffffffffffffffffffffffffffffff\n      and\n      dup2\n      mstore\n      0x20\n      add\n      swap1\n      dup2\n      mstore\n      0x20\n      add\n      0x00\n      keccak256\n        /* \"blockchain/real_estate_major.sol\":10647:10673  allowed[_from][msg.sender] */\n      0x00\n        /* \"blockchain/real_estate_major.sol\":10662:10672  msg.sender */\n      caller\n        /* \"blockchain/real_estate_major.sol\":10647:10673  allowed[_from][msg.sender] */\n      0xffffffffffffffffffffffffffffffffffffffff\n      and\n      0xffffffffffffffffffffffffffffffffffffffff\n      and\n      dup2\n      mstore\n      0x20\n      add\n      swap1\n      dup2\n      mstore\n      0x20\n      add\n      0x00\n      keccak256\n      sload\n        /* \"blockchain/real_estate_major.sol\":10627:10673  uint256 allowance = allowed[_from][msg.sender] */\n      swap1\n      pop\n        /* \"blockchain/real_estate_major.sol\":10703:10709  _value */\n      dup3\n        /* \"blockchain/real_estate_major.sol\":10686:10692  shares */\n      0x11\n        /* \"blockchain/real_estate_major.sol\":10686:10699  shares[_from] */\n      0x00\n        /* \"blockchain/real_estate_major.sol\":10693:10698  _from */\n      dup8\n        /* \"blockchain/real_estate_major.sol\":10686:10699  shares[_from] */\n      0xffffffffffffffffffffffffffffffffffffffff\n      and\n      0xffffffffffffffffffffffffffffffffffffffff\n      and\n      dup2\n      mstore\n      0x20\n      add\n      swap1\n      dup2\n      mstore\n      0x20\n      add\n      0x00\n      keccak256\n      sload\n        /* \"blockchain/real_estate_major.sol\":10686:10709  shares[_from] >= _value */\n      lt\n      iszero\n        /* \"blockchain/real_estate_major.sol\":10686:10732  shares[_from] >= _value && allowance >= _value */\n      dup1\n      iszero\n      tag_282\n      jumpi\n      pop\n        /* \"blockchain/real_estate_major.sol\":10726:10732  _value */\n      dup3\n        /* \"blockchain/real_estate_major.sol\":10713:10722  allowance */\n      dup2\n        /* \"blockchain/real_estate_major.sol\":10713:10732  allowance >= _value */\n      lt\n      iszero\n        /* \"blockchain/real_estate_major.sol\":10686:10732  shares[_from] >= _value && allowance >= _value */\n    tag_282:\n        /* \"blockchain/real_estate_major.sol\":10678:10733  require(shares[_from] >= _value && allowance >= _value) */\n      tag_283\n      jumpi\n      0x00\n      dup1\n      revert\n    tag_283:\n        /* \"blockchain/real_estate_major.sol\":10753:10759  _value */\n      dup3\n        /* \"blockchain/real_estate_major.sol\":10738:10744  shares */\n      0x11\n        /* \"blockchain/real_estate_major.sol\":10738:10749  shares[_to] */\n      0x00\n        /* \"blockchain/real_estate_major.sol\":10745:10748  _to */\n      dup7\n        /* \"blockchain/real_estate_major.sol\":10738:10749  shares[_to] */\n      0xffffffffffffffffffffffffffffffffffffffff\n      and\n      0xffffffffffffffffffffffffffffffffffffffff\n      and\n      dup2\n      mstore\n      0x20\n      add\n      swap1\n      dup2\n      mstore\n      0x20\n      add\n      0x00\n      keccak256\n      0x00\n        /* \"blockchain/real_estate_major.sol\":10738:10759  shares[_to] += _value */\n      dup3\n      dup3\n      sload\n      add\n      swap3\n      pop\n      pop\n      dup2\n      swap1\n      sstore\n      pop\n        /* \"blockchain/real_estate_major.sol\":10781:10787  _value */\n      dup3\n        /* \"blockchain/real_estate_major.sol\":10764:10770  shares */\n      0x11\n        /* \"blockchain/real_estate_major.sol\":10764:10777  shares[_from] */\n      0x00\n        /* \"blockchain/real_estate_major.sol\":10771:10776  _from */\n      dup8\n        /* \"blockchain/real_estate_major.sol\":10764:10777  shares[_from] */\n      0xffffffffffffffffffffffffffffffffffffffff\n      and\n      0xffffffffffffffffffffffffffffffffffffffff\n      and\n      dup2\n      mstore\n      0x20\n      add\n      swap1\n      dup2\n      mstore\n      0x20\n      add\n      0x00\n      keccak256\n      0x00\n        /* \"blockchain/real_estate_major.sol\":10764:10787  shares[_from] -= _value */\n      dup3\n      dup3\n      sload\n      sub\n      swap3\n      pop\n      pop\n      dup2\n      swap1\n      sstore\n      pop\n        /* \"blockchain/real_estate_major.sol\":649:659  2**256 - 1 */\n      0xffffffffffffffffffffffffffffffffffffffffffffffffffffffffffffffff\n        /* \"blockchain/real_estate_major.sol\":10796:10805  allowance */\n      dup2\n        /* \"blockchain/real_estate_major.sol\":10796:10819  allowance < MAX_UINT256 */\n      lt\n        /* \"blockchain/real_estate_major.sol\":10792:10869  if (allowance < MAX_UINT256) {\r... */\n      iszero\n      tag_284\n      jumpi\n        /* \"blockchain/real_estate_major.sol\":10857:10863  _value */\n      dup3\n        /* \"blockchain/real_estate_major.sol\":10827:10834  allowed */\n      0x12\n        /* \"blockchain/real_estate_major.sol\":10827:10841  allowed[_from] */\n      0x00\n        /* \"blockchain/real_estate_major.sol\":10835:10840  _from */\n      dup8\n        /* \"blockchain/real_estate_major.sol\":10827:10841  allowed[_from] */\n      0xffffffffffffffffffffffffffffffffffffffff\n      and\n      0xffffffffffffffffffffffffffffffffffffffff\n      and\n      dup2\n      mstore\n      0x20\n      add\n      swap1\n      dup2\n      mstore\n      0x20\n      add\n      0x00\n      keccak256\n        /* \"blockchain/real_estate_major.sol\":10827:10853  allowed[_from][msg.sender] */\n      0x00\n        /* \"blockchain/real_estate_major.sol\":10842:10852  msg.sender */\n      caller\n        /* \"blockchain/real_estate_major.sol\":10827:10853  allowed[_from][msg.sender] */\n      0xffffffffffffffffffffffffffffffffffffffff\n      and\n      0xffffffffffffffffffffffffffffffffffffffff\n      and\n      dup2\n      mstore\n      0x20\n      add\n      swap1\n      dup2\n      mstore\n      0x20\n      add\n      0x00\n      keccak256\n      0x00\n        /* \"blockchain/real_estate_major.sol\":10827:10863  allowed[_from][msg.sender] -= _value */\n      dup3\n      dup3\n      sload\n      sub\n      swap3\n      pop\n      pop\n      dup2\n      swap1\n      sstore\n      pop\n        /* \"blockchain/real_estate_major.sol\":10792:10869  if (allowance < MAX_UINT256) {\r... */\n    tag_284:\n        /* \"blockchain/real_estate_major.sol\":10893:10896  _to */\n      dup4\n        /* \"blockchain/real_estate_major.sol\":10878:10905  Seizure(_from, _to, _value) */\n      0xffffffffffffffffffffffffffffffffffffffff\n      and\n        /* \"blockchain/real_estate_major.sol\":10886:10891  _from */\n      dup6\n        /* \"blockchain/real_estate_major.sol\":10878:10905  Seizure(_from, _to, _value) */\n      0xffffffffffffffffffffffffffffffffffffffff\n      and\n      0xa4c1382703d8dfd8f268be7fe05f096f71f7058b19de5f2be32af150b8c424c4\n        /* \"blockchain/real_estate_major.sol\":10898:10904  _value */\n      dup6\n        /* \"blockchain/real_estate_major.sol\":10878:10905  Seizure(_from, _to, _value) */\n      mload(0x40)\n      dup1\n      dup3\n      dup2\n      mstore\n      0x20\n      add\n      swap2\n      pop\n      pop\n      mload(0x40)\n      dup1\n      swap2\n      sub\n      swap1\n      log3\n        /* \"blockchain/real_estate_major.sol\":10917:10921  true */\n      0x01\n        /* \"blockchain/real_estate_major.sol\":10910:10921  return true */\n      swap2\n      pop\n      pop\n        /* \"blockchain/real_estate_major.sol\":10373:10926  function seizureFrom(address _from, address _to, uint256 _value) public returns (bool success) {           //government has unlimited allowance, therefore  can seize all assets from every stakeholder. Function also used to buyShares from Stakeholder.\r... */\n      swap4\n      swap3\n      pop\n      pop\n      pop\n      jump\t// out\n        /* \"blockchain/real_estate_major.sol\":3007:3049  mapping (address => uint256) public shares */\n    tag_175:\n      mstore(0x20, 0x11)\n      dup1\n      0x00\n      mstore\n      keccak256(0x00, 0x40)\n      0x00\n      swap2\n      pop\n      swap1\n      pop\n      sload\n      dup2\n      jump\t// out\n        /* \"blockchain/real_estate_major.sol\":3335:3384  mapping (address => uint256) public sharesOffered */\n    tag_179:\n      mstore(0x20, 0x14)\n      dup1\n      0x00\n      mstore\n      keccak256(0x00, 0x40)\n      0x00\n      swap2\n      pop\n      swap1\n      pop\n      sload\n      dup2\n      jump\t// out\n        /* \"blockchain/real_estate_major.sol\":9562:10343  function distribute() public onlyGov {       // accumulated funds are distributed into revenues array for each stakeholder according to how many shares are held by shareholders. Additionally, government gets tax revenues upon each rental payment.\r... */\n    tag_182:\n        /* \"blockchain/real_estate_major.sol\":6121:6124  gov */\n      0x0c\n      0x00\n      swap1\n      sload\n      swap1\n      0x0100\n      exp\n      swap1\n      div\n      0xffffffffffffffffffffffffffffffffffffffff\n      and\n        /* \"blockchain/real_estate_major.sol\":6107:6124  msg.sender == gov */\n      0xffffffffffffffffffffffffffffffffffffffff\n      and\n        /* \"blockchain/real_estate_major.sol\":6107:6117  msg.sender */\n      caller\n        /* \"blockchain/real_estate_major.sol\":6107:6124  msg.sender == gov */\n      0xffffffffffffffffffffffffffffffffffffffff\n      and\n      eq\n        /* \"blockchain/real_estate_major.sol\":6099:6125  require(msg.sender == gov) */\n      tag_286\n      jumpi\n      0x00\n      dup1\n      revert\n    tag_286:\n        /* \"blockchain/real_estate_major.sol\":9818:9838  uint256 _accumulated */\n      0x00\n        /* \"blockchain/real_estate_major.sol\":9841:9852  accumulated */\n      sload(0x05)\n        /* \"blockchain/real_estate_major.sol\":9818:9852  uint256 _accumulated = accumulated */\n      swap1\n      pop\n        /* \"blockchain/real_estate_major.sol\":9868:9877  uint256 s */\n      0x00\n        /* \"blockchain/real_estate_major.sol\":9863:10337  for (uint256 s = 0; s < stakeholders.length; s += 1){\r... */\n    tag_288:\n        /* \"blockchain/real_estate_major.sol\":9887:9899  stakeholders */\n      0x0f\n        /* \"blockchain/real_estate_major.sol\":9887:9906  stakeholders.length */\n      dup1\n      sload\n      swap1\n      pop\n        /* \"blockchain/real_estate_major.sol\":9883:9884  s */\n      dup2\n        /* \"blockchain/real_estate_major.sol\":9883:9906  s < stakeholders.length */\n      lt\n        /* \"blockchain/real_estate_major.sol\":9863:10337  for (uint256 s = 0; s < stakeholders.length; s += 1){\r... */\n      iszero\n      tag_289\n      jumpi\n        /* \"blockchain/real_estate_major.sol\":9930:9949  address stakeholder */\n      0x00\n        /* \"blockchain/real_estate_major.sol\":9952:9964  stakeholders */\n      0x0f\n        /* \"blockchain/real_estate_major.sol\":9965:9966  s */\n      dup3\n        /* \"blockchain/real_estate_major.sol\":9952:9967  stakeholders[s] */\n      dup2\n      sload\n      dup2\n      lt\n      tag_291\n      jumpi\n      invalid\n    tag_291:\n      swap1\n      0x00\n      mstore\n      keccak256(0x00, 0x20)\n      add\n      0x00\n      swap1\n      sload\n      swap1\n      0x0100\n      exp\n      swap1\n      div\n      0xffffffffffffffffffffffffffffffffffffffff\n      and\n        /* \"blockchain/real_estate_major.sol\":9930:9967  address stakeholder = stakeholders[s] */\n      swap1\n      pop\n        /* \"blockchain/real_estate_major.sol\":9982:9997  uint256 _shares */\n      0x00\n        /* \"blockchain/real_estate_major.sol\":10000:10025  showSharesOf(stakeholder) */\n      tag_293\n        /* \"blockchain/real_estate_major.sol\":10013:10024  stakeholder */\n      dup3\n        /* \"blockchain/real_estate_major.sol\":10000:10012  showSharesOf */\n      tag_163\n        /* \"blockchain/real_estate_major.sol\":10000:10025  showSharesOf(stakeholder) */\n      jump\t// in\n    tag_293:\n        /* \"blockchain/real_estate_major.sol\":9982:10025  uint256 _shares = showSharesOf(stakeholder) */\n      swap1\n      pop\n        /* \"blockchain/real_estate_major.sol\":10040:10062  uint256 ethertoreceive */\n      0x00\n        /* \"blockchain/real_estate_major.sol\":10094:10101  _shares */\n      dup2\n        /* \"blockchain/real_estate_major.sol\":10080:10091  totalSupply */\n      sload(0x02)\n        /* \"blockchain/real_estate_major.sol\":10066:10078  _accumulated */\n      dup7\n        /* \"blockchain/real_estate_major.sol\":10066:10092  _accumulated/(totalSupply) */\n      dup2\n      tag_294\n      jumpi\n      invalid\n    tag_294:\n      div\n        /* \"blockchain/real_estate_major.sol\":10065:10101  (_accumulated/(totalSupply))*_shares */\n      mul\n        /* \"blockchain/real_estate_major.sol\":10040:10101  uint256 ethertoreceive = (_accumulated/(totalSupply))*_shares */\n      swap1\n      pop\n        /* \"blockchain/real_estate_major.sol\":10144:10158  ethertoreceive */\n      dup1\n        /* \"blockchain/real_estate_major.sol\":10130:10141  accumulated */\n      sload(0x05)\n        /* \"blockchain/real_estate_major.sol\":10130:10158  accumulated - ethertoreceive */\n      sub\n        /* \"blockchain/real_estate_major.sol\":10116:10127  accumulated */\n      0x05\n        /* \"blockchain/real_estate_major.sol\":10116:10158  accumulated = accumulated - ethertoreceive */\n      dup2\n      swap1\n      sstore\n      pop\n        /* \"blockchain/real_estate_major.sol\":10221:10235  ethertoreceive */\n      dup1\n        /* \"blockchain/real_estate_major.sol\":10197:10205  revenues */\n      0x10\n        /* \"blockchain/real_estate_major.sol\":10197:10218  revenues[stakeholder] */\n      0x00\n        /* \"blockchain/real_estate_major.sol\":10206:10217  stakeholder */\n      dup6\n        /* \"blockchain/real_estate_major.sol\":10197:10218  revenues[stakeholder] */\n      0xffffffffffffffffffffffffffffffffffffffff\n      and\n      0xffffffffffffffffffffffffffffffffffffffff\n      and\n      dup2\n      mstore\n      0x20\n      add\n      swap1\n      dup2\n      mstore\n      0x20\n      add\n      0x00\n      keccak256\n      sload\n        /* \"blockchain/real_estate_major.sol\":10197:10235  revenues[stakeholder] + ethertoreceive */\n      add\n        /* \"blockchain/real_estate_major.sol\":10173:10181  revenues */\n      0x10\n        /* \"blockchain/real_estate_major.sol\":10173:10194  revenues[stakeholder] */\n      0x00\n        /* \"blockchain/real_estate_major.sol\":10182:10193  stakeholder */\n      dup6\n        /* \"blockchain/real_estate_major.sol\":10173:10194  revenues[stakeholder] */\n      0xffffffffffffffffffffffffffffffffffffffff\n      and\n      0xffffffffffffffffffffffffffffffffffffffff\n      and\n      dup2\n      mstore\n      0x20\n      add\n      swap1\n      dup2\n      mstore\n      0x20\n      add\n      0x00\n      keccak256\n        /* \"blockchain/real_estate_major.sol\":10173:10235  revenues[stakeholder] = revenues[stakeholder] + ethertoreceive */\n      dup2\n      swap1\n      sstore\n      pop\n        /* \"blockchain/real_estate_major.sol\":10255:10325  RevenuesDistributed(stakeholder,ethertoreceive, revenues[stakeholder]) */\n      0xea08f10be57ab8257f730df5853ed8eb8726227c896c3bd660fce914769bcab4\n        /* \"blockchain/real_estate_major.sol\":10275:10286  stakeholder */\n      dup4\n        /* \"blockchain/real_estate_major.sol\":10287:10301  ethertoreceive */\n      dup3\n        /* \"blockchain/real_estate_major.sol\":10303:10311  revenues */\n      0x10\n        /* \"blockchain/real_estate_major.sol\":10303:10324  revenues[stakeholder] */\n      0x00\n        /* \"blockchain/real_estate_major.sol\":10312:10323  stakeholder */\n      dup8\n        /* \"blockchain/real_estate_major.sol\":10303:10324  revenues[stakeholder] */\n      0xffffffffffffffffffffffffffffffffffffffff\n      and\n      0xffffffffffffffffffffffffffffffffffffffff\n      and\n      dup2\n      mstore\n      0x20\n      add\n      swap1\n      dup2\n      mstore\n      0x20\n      add\n      0x00\n      keccak256\n      sload\n        /* \"blockchain/real_estate_major.sol\":10255:10325  RevenuesDistributed(stakeholder,ethertoreceive, revenues[stakeholder]) */\n      mload(0x40)\n      dup1\n      dup5\n      0xffffffffffffffffffffffffffffffffffffffff\n      and\n      dup2\n      mstore\n      0x20\n      add\n      dup4\n      dup2\n      mstore\n      0x20\n      add\n      dup3\n      dup2\n      mstore\n      0x20\n      add\n      swap4\n      pop\n      pop\n      pop\n      pop\n      mload(0x40)\n      dup1\n      swap2\n      sub\n      swap1\n      log1\n        /* \"blockchain/real_estate_major.sol\":9863:10337  for (uint256 s = 0; s < stakeholders.length; s += 1){\r... */\n      pop\n      pop\n      pop\n        /* \"blockchain/real_estate_major.sol\":9913:9914  1 */\n      0x01\n        /* \"blockchain/real_estate_major.sol\":9908:9914  s += 1 */\n      dup2\n      add\n      swap1\n      pop\n        /* \"blockchain/real_estate_major.sol\":9863:10337  for (uint256 s = 0; s < stakeholders.length; s += 1){\r... */\n      jump(tag_288)\n    tag_289:\n      pop\n        /* \"blockchain/real_estate_major.sol\":6131:6132  _ */\n      pop\n        /* \"blockchain/real_estate_major.sol\":9562:10343  function distribute() public onlyGov {       // accumulated funds are distributed into revenues array for each stakeholder according to how many shares are held by shareholders. Additionally, government gets tax revenues upon each rental payment.\r... */\n      jump\t// out\n        /* \"blockchain/real_estate_major.sol\":7968:8381  function addStakeholder(address _stakeholder) public onlyGov {      //can add more stakeholders.\r... */\n    tag_186:\n        /* \"blockchain/real_estate_major.sol\":6121:6124  gov */\n      0x0c\n      0x00\n      swap1\n      sload\n      swap1\n      0x0100\n      exp\n      swap1\n      div\n      0xffffffffffffffffffffffffffffffffffffffff\n      and\n        /* \"blockchain/real_estate_major.sol\":6107:6124  msg.sender == gov */\n      0xffffffffffffffffffffffffffffffffffffffff\n      and\n        /* \"blockchain/real_estate_major.sol\":6107:6117  msg.sender */\n      caller\n        /* \"blockchain/real_estate_major.sol\":6107:6124  msg.sender == gov */\n      0xffffffffffffffffffffffffffffffffffffffff\n      and\n      eq\n        /* \"blockchain/real_estate_major.sol\":6099:6125  require(msg.sender == gov) */\n      tag_296\n      jumpi\n      0x00\n      dup1\n      revert\n    tag_296:\n        /* \"blockchain/real_estate_major.sol\":8069:8088  bool _isStakeholder */\n      0x00\n        /* \"blockchain/real_estate_major.sol\":8094:8121  isStakeholder(_stakeholder) */\n      tag_298\n        /* \"blockchain/real_estate_major.sol\":8108:8120  _stakeholder */\n      dup3\n        /* \"blockchain/real_estate_major.sol\":8094:8107  isStakeholder */\n      tag_190\n        /* \"blockchain/real_estate_major.sol\":8094:8121  isStakeholder(_stakeholder) */\n      jump\t// in\n    tag_298:\n        /* \"blockchain/real_estate_major.sol\":8068:8121  (bool _isStakeholder, ) = isStakeholder(_stakeholder) */\n      pop\n      swap1\n      pop\n        /* \"blockchain/real_estate_major.sol\":8131:8145  _isStakeholder */\n      dup1\n        /* \"blockchain/real_estate_major.sol\":8126:8178  if (!_isStakeholder) stakeholders.push(_stakeholder) */\n      tag_299\n      jumpi\n        /* \"blockchain/real_estate_major.sol\":8147:8159  stakeholders */\n      0x0f\n        /* \"blockchain/real_estate_major.sol\":8165:8177  _stakeholder */\n      dup3\n        /* \"blockchain/real_estate_major.sol\":8147:8178  stakeholders.push(_stakeholder) */\n      swap1\n      dup1\n      0x01\n      dup2\n      sload\n      add\n      dup1\n      dup3\n      sstore\n      dup1\n      swap2\n      pop\n      pop\n      0x01\n      swap1\n      sub\n      swap1\n      0x00\n      mstore\n      keccak256(0x00, 0x20)\n      add\n      0x00\n      swap1\n      swap2\n      swap1\n      swap2\n      swap1\n      swap2\n      0x0100\n      exp\n      dup2\n      sload\n      dup2\n      0xffffffffffffffffffffffffffffffffffffffff\n      mul\n      not\n      and\n      swap1\n      dup4\n      0xffffffffffffffffffffffffffffffffffffffff\n      and\n      mul\n      or\n      swap1\n      sstore\n      pop\n        /* \"blockchain/real_estate_major.sol\":8126:8178  if (!_isStakeholder) stakeholders.push(_stakeholder) */\n    tag_299:\n        /* \"blockchain/real_estate_major.sol\":649:659  2**256 - 1 */\n      0xffffffffffffffffffffffffffffffffffffffffffffffffffffffffffffffff\n        /* \"blockchain/real_estate_major.sol\":8183:8190  allowed */\n      0x12\n        /* \"blockchain/real_estate_major.sol\":8183:8204  allowed[_stakeholder] */\n      0x00\n        /* \"blockchain/real_estate_major.sol\":8191:8203  _stakeholder */\n      dup5\n        /* \"blockchain/real_estate_major.sol\":8183:8204  allowed[_stakeholder] */\n      0xffffffffffffffffffffffffffffffffffffffff\n      and\n      0xffffffffffffffffffffffffffffffffffffffff\n      and\n      dup2\n      mstore\n      0x20\n      add\n      swap1\n      dup2\n      mstore\n      0x20\n      add\n      0x00\n      keccak256\n        /* \"blockchain/real_estate_major.sol\":8183:8209  allowed[_stakeholder][gov] */\n      0x00\n        /* \"blockchain/real_estate_major.sol\":8205:8208  gov */\n      0x0c\n      0x00\n      swap1\n      sload\n      swap1\n      0x0100\n      exp\n      swap1\n      div\n      0xffffffffffffffffffffffffffffffffffffffff\n      and\n        /* \"blockchain/real_estate_major.sol\":8183:8209  allowed[_stakeholder][gov] */\n      0xffffffffffffffffffffffffffffffffffffffff\n      and\n      0xffffffffffffffffffffffffffffffffffffffff\n      and\n      dup2\n      mstore\n      0x20\n      add\n      swap1\n      dup2\n      mstore\n      0x20\n      add\n      0x00\n      keccak256\n        /* \"blockchain/real_estate_major.sol\":8183:8223  allowed[_stakeholder][gov] = MAX_UINT256 */\n      dup2\n      swap1\n      sstore\n      pop\n        /* \"blockchain/real_estate_major.sol\":8344:8373  NewStakeHolder (_stakeholder) */\n      0xbf0d83a1aed38e16f3afa9a5fdc87d08590574fe387b21095fb0a7e643f803b1\n        /* \"blockchain/real_estate_major.sol\":8360:8372  _stakeholder */\n      dup3\n        /* \"blockchain/real_estate_major.sol\":8344:8373  NewStakeHolder (_stakeholder) */\n      mload(0x40)\n      dup1\n      dup3\n      0xffffffffffffffffffffffffffffffffffffffff\n      and\n      dup2\n      mstore\n      0x20\n      add\n      swap2\n      pop\n      pop\n      mload(0x40)\n      dup1\n      swap2\n      sub\n      swap1\n      log1\n        /* \"blockchain/real_estate_major.sol\":6131:6132  _ */\n      pop\n        /* \"blockchain/real_estate_major.sol\":7968:8381  function addStakeholder(address _stakeholder) public onlyGov {      //can add more stakeholders.\r... */\n      pop\n      jump\t// out\n        /* \"blockchain/real_estate_major.sol\":6917:7200  function isStakeholder(address _address) public view returns(bool, uint256) {      //shows whether someone is a stakeholder.\r... */\n    tag_190:\n        /* \"blockchain/real_estate_major.sol\":6978:6982  bool */\n      0x00\n        /* \"blockchain/real_estate_major.sol\":6984:6991  uint256 */\n      dup1\n        /* \"blockchain/real_estate_major.sol\":7053:7062  uint256 s */\n      0x00\n        /* \"blockchain/real_estate_major.sol\":7048:7170  for (uint256 s = 0; s < stakeholders.length; s += 1){\r... */\n    tag_302:\n        /* \"blockchain/real_estate_major.sol\":7072:7084  stakeholders */\n      0x0f\n        /* \"blockchain/real_estate_major.sol\":7072:7091  stakeholders.length */\n      dup1\n      sload\n      swap1\n      pop\n        /* \"blockchain/real_estate_major.sol\":7068:7069  s */\n      dup2\n        /* \"blockchain/real_estate_major.sol\":7068:7091  s < stakeholders.length */\n      lt\n        /* \"blockchain/real_estate_major.sol\":7048:7170  for (uint256 s = 0; s < stakeholders.length; s += 1){\r... */\n      iszero\n      tag_303\n      jumpi\n        /* \"blockchain/real_estate_major.sol\":7128:7140  stakeholders */\n      0x0f\n        /* \"blockchain/real_estate_major.sol\":7141:7142  s */\n      dup2\n        /* \"blockchain/real_estate_major.sol\":7128:7143  stakeholders[s] */\n      dup2\n      sload\n      dup2\n      lt\n      tag_305\n      jumpi\n      invalid\n    tag_305:\n      swap1\n      0x00\n      mstore\n      keccak256(0x00, 0x20)\n      add\n      0x00\n      swap1\n      sload\n      swap1\n      0x0100\n      exp\n      swap1\n      div\n      0xffffffffffffffffffffffffffffffffffffffff\n      and\n        /* \"blockchain/real_estate_major.sol\":7116:7143  _address == stakeholders[s] */\n      0xffffffffffffffffffffffffffffffffffffffff\n      and\n        /* \"blockchain/real_estate_major.sol\":7116:7124  _address */\n      dup5\n        /* \"blockchain/real_estate_major.sol\":7116:7143  _address == stakeholders[s] */\n      0xffffffffffffffffffffffffffffffffffffffff\n      and\n      eq\n        /* \"blockchain/real_estate_major.sol\":7112:7161  if (_address == stakeholders[s]) return (true, s) */\n      iszero\n      tag_307\n      jumpi\n        /* \"blockchain/real_estate_major.sol\":7153:7157  true */\n      0x01\n        /* \"blockchain/real_estate_major.sol\":7159:7160  s */\n      dup2\n        /* \"blockchain/real_estate_major.sol\":7145:7161  return (true, s) */\n      swap3\n      pop\n      swap3\n      pop\n      pop\n      jump(tag_301)\n        /* \"blockchain/real_estate_major.sol\":7112:7161  if (_address == stakeholders[s]) return (true, s) */\n    tag_307:\n        /* \"blockchain/real_estate_major.sol\":7098:7099  1 */\n      0x01\n        /* \"blockchain/real_estate_major.sol\":7093:7099  s += 1 */\n      dup2\n      add\n      swap1\n      pop\n        /* \"blockchain/real_estate_major.sol\":7048:7170  for (uint256 s = 0; s < stakeholders.length; s += 1){\r... */\n      jump(tag_302)\n    tag_303:\n      pop\n        /* \"blockchain/real_estate_major.sol\":7185:7190  false */\n      0x00\n        /* \"blockchain/real_estate_major.sol\":7192:7193  0 */\n      dup1\n        /* \"blockchain/real_estate_major.sol\":7177:7194  return (false, 0) */\n      swap2\n      pop\n      swap2\n      pop\n        /* \"blockchain/real_estate_major.sol\":6917:7200  function isStakeholder(address _address) public view returns(bool, uint256) {      //shows whether someone is a stakeholder.\r... */\n    tag_301:\n      swap2\n      pop\n      swap2\n      jump\t// out\n        /* \"blockchain/real_estate_major.sol\":12170:12873  function buyShares (uint256 _sharesToBuy, address payable _from) public payable{    //Stakeholder can buy shares from seller for sellers price * ammount of shares\r... */\n    tag_193:\n        /* \"blockchain/real_estate_major.sol\":12343:12362  bool _isStakeholder */\n      0x00\n        /* \"blockchain/real_estate_major.sol\":12368:12393  isStakeholder(msg.sender) */\n      tag_309\n        /* \"blockchain/real_estate_major.sol\":12382:12392  msg.sender */\n      caller\n        /* \"blockchain/real_estate_major.sol\":12368:12381  isStakeholder */\n      tag_190\n        /* \"blockchain/real_estate_major.sol\":12368:12393  isStakeholder(msg.sender) */\n      jump\t// in\n    tag_309:\n        /* \"blockchain/real_estate_major.sol\":12342:12393  (bool _isStakeholder, ) = isStakeholder(msg.sender) */\n      pop\n      swap1\n      pop\n        /* \"blockchain/real_estate_major.sol\":12412:12426  _isStakeholder */\n      dup1\n        /* \"blockchain/real_estate_major.sol\":12404:12427  require(_isStakeholder) */\n      tag_310\n      jumpi\n      0x00\n      dup1\n      revert\n    tag_310:\n        /* \"blockchain/real_estate_major.sol\":12474:12488  shareSellPrice */\n      0x15\n        /* \"blockchain/real_estate_major.sol\":12474:12495  shareSellPrice[_from] */\n      0x00\n        /* \"blockchain/real_estate_major.sol\":12489:12494  _from */\n      dup4\n        /* \"blockchain/real_estate_major.sol\":12474:12495  shareSellPrice[_from] */\n      0xffffffffffffffffffffffffffffffffffffffff\n      and\n      0xffffffffffffffffffffffffffffffffffffffff\n      and\n      dup2\n      mstore\n      0x20\n      add\n      swap1\n      dup2\n      mstore\n      0x20\n      add\n      0x00\n      keccak256\n      sload\n        /* \"blockchain/real_estate_major.sol\":12459:12471  _sharesToBuy */\n      dup4\n        /* \"blockchain/real_estate_major.sol\":12459:12495  _sharesToBuy * shareSellPrice[_from] */\n      mul\n        /* \"blockchain/real_estate_major.sol\":12446:12455  msg.value */\n      callvalue\n        /* \"blockchain/real_estate_major.sol\":12446:12495  msg.value == _sharesToBuy * shareSellPrice[_from] */\n      eq\n        /* \"blockchain/real_estate_major.sol\":12446:12535  msg.value == _sharesToBuy * shareSellPrice[_from] && _sharesToBuy <= sharesOffered[_from] */\n      dup1\n      iszero\n      tag_311\n      jumpi\n      pop\n        /* \"blockchain/real_estate_major.sol\":12515:12528  sharesOffered */\n      0x14\n        /* \"blockchain/real_estate_major.sol\":12515:12535  sharesOffered[_from] */\n      0x00\n        /* \"blockchain/real_estate_major.sol\":12529:12534  _from */\n      dup4\n        /* \"blockchain/real_estate_major.sol\":12515:12535  sharesOffered[_from] */\n      0xffffffffffffffffffffffffffffffffffffffff\n      and\n      0xffffffffffffffffffffffffffffffffffffffff\n      and\n      dup2\n      mstore\n      0x20\n      add\n      swap1\n      dup2\n      mstore\n      0x20\n      add\n      0x00\n      keccak256\n      sload\n        /* \"blockchain/real_estate_major.sol\":12499:12511  _sharesToBuy */\n      dup4\n        /* \"blockchain/real_estate_major.sol\":12499:12535  _sharesToBuy <= sharesOffered[_from] */\n      gt\n      iszero\n        /* \"blockchain/real_estate_major.sol\":12446:12535  msg.value == _sharesToBuy * shareSellPrice[_from] && _sharesToBuy <= sharesOffered[_from] */\n    tag_311:\n        /* \"blockchain/real_estate_major.sol\":12446:12568  msg.value == _sharesToBuy * shareSellPrice[_from] && _sharesToBuy <= sharesOffered[_from] && _sharesToBuy <= shares[_from] */\n      dup1\n      iszero\n      tag_312\n      jumpi\n      pop\n        /* \"blockchain/real_estate_major.sol\":12555:12561  shares */\n      0x11\n        /* \"blockchain/real_estate_major.sol\":12555:12568  shares[_from] */\n      0x00\n        /* \"blockchain/real_estate_major.sol\":12562:12567  _from */\n      dup4\n        /* \"blockchain/real_estate_major.sol\":12555:12568  shares[_from] */\n      0xffffffffffffffffffffffffffffffffffffffff\n      and\n      0xffffffffffffffffffffffffffffffffffffffff\n      and\n      dup2\n      mstore\n      0x20\n      add\n      swap1\n      dup2\n      mstore\n      0x20\n      add\n      0x00\n      keccak256\n      sload\n        /* \"blockchain/real_estate_major.sol\":12539:12551  _sharesToBuy */\n      dup4\n        /* \"blockchain/real_estate_major.sol\":12539:12568  _sharesToBuy <= shares[_from] */\n      gt\n      iszero\n        /* \"blockchain/real_estate_major.sol\":12446:12568  msg.value == _sharesToBuy * shareSellPrice[_from] && _sharesToBuy <= sharesOffered[_from] && _sharesToBuy <= shares[_from] */\n    tag_312:\n        /* \"blockchain/real_estate_major.sol\":12446:12590  msg.value == _sharesToBuy * shareSellPrice[_from] && _sharesToBuy <= sharesOffered[_from] && _sharesToBuy <= shares[_from] &&_from != msg.sender */\n      dup1\n      iszero\n      tag_313\n      jumpi\n      pop\n        /* \"blockchain/real_estate_major.sol\":12580:12590  msg.sender */\n      caller\n        /* \"blockchain/real_estate_major.sol\":12571:12590  _from != msg.sender */\n      0xffffffffffffffffffffffffffffffffffffffff\n      and\n        /* \"blockchain/real_estate_major.sol\":12571:12576  _from */\n      dup3\n        /* \"blockchain/real_estate_major.sol\":12571:12590  _from != msg.sender */\n      0xffffffffffffffffffffffffffffffffffffffff\n      and\n      eq\n      iszero\n        /* \"blockchain/real_estate_major.sol\":12446:12590  msg.value == _sharesToBuy * shareSellPrice[_from] && _sharesToBuy <= sharesOffered[_from] && _sharesToBuy <= shares[_from] &&_from != msg.sender */\n    tag_313:\n        /* \"blockchain/real_estate_major.sol\":12438:12591  require(msg.value == _sharesToBuy * shareSellPrice[_from] && _sharesToBuy <= sharesOffered[_from] && _sharesToBuy <= shares[_from] &&_from != msg.sender) */\n      tag_314\n      jumpi\n      0x00\n      dup1\n      revert\n    tag_314:\n        /* \"blockchain/real_estate_major.sol\":12634:12646  _sharesToBuy */\n      dup3\n        /* \"blockchain/real_estate_major.sol\":12605:12612  allowed */\n      0x12\n        /* \"blockchain/real_estate_major.sol\":12605:12619  allowed[_from] */\n      0x00\n        /* \"blockchain/real_estate_major.sol\":12613:12618  _from */\n      dup5\n        /* \"blockchain/real_estate_major.sol\":12605:12619  allowed[_from] */\n      0xffffffffffffffffffffffffffffffffffffffff\n      and\n      0xffffffffffffffffffffffffffffffffffffffff\n      and\n      dup2\n      mstore\n      0x20\n      add\n      swap1\n      dup2\n      mstore\n      0x20\n      add\n      0x00\n      keccak256\n        /* \"blockchain/real_estate_major.sol\":12605:12631  allowed[_from][msg.sender] */\n      0x00\n        /* \"blockchain/real_estate_major.sol\":12620:12630  msg.sender */\n      caller\n        /* \"blockchain/real_estate_major.sol\":12605:12631  allowed[_from][msg.sender] */\n      0xffffffffffffffffffffffffffffffffffffffff\n      and\n      0xffffffffffffffffffffffffffffffffffffffff\n      and\n      dup2\n      mstore\n      0x20\n      add\n      swap1\n      dup2\n      mstore\n      0x20\n      add\n      0x00\n      keccak256\n        /* \"blockchain/real_estate_major.sol\":12605:12646  allowed[_from][msg.sender] = _sharesToBuy */\n      dup2\n      swap1\n      sstore\n      pop\n        /* \"blockchain/real_estate_major.sol\":12657:12701  seizureFrom(_from, msg.sender, _sharesToBuy) */\n      tag_315\n        /* \"blockchain/real_estate_major.sol\":12669:12674  _from */\n      dup3\n        /* \"blockchain/real_estate_major.sol\":12676:12686  msg.sender */\n      caller\n        /* \"blockchain/real_estate_major.sol\":12688:12700  _sharesToBuy */\n      dup6\n        /* \"blockchain/real_estate_major.sol\":12657:12668  seizureFrom */\n      tag_171\n        /* \"blockchain/real_estate_major.sol\":12657:12701  seizureFrom(_from, msg.sender, _sharesToBuy) */\n      jump\t// in\n    tag_315:\n      pop\n        /* \"blockchain/real_estate_major.sol\":12736:12748  _sharesToBuy */\n      dup3\n        /* \"blockchain/real_estate_major.sol\":12712:12725  sharesOffered */\n      0x14\n        /* \"blockchain/real_estate_major.sol\":12712:12732  sharesOffered[_from] */\n      0x00\n        /* \"blockchain/real_estate_major.sol\":12726:12731  _from */\n      dup5\n        /* \"blockchain/real_estate_major.sol\":12712:12732  sharesOffered[_from] */\n      0xffffffffffffffffffffffffffffffffffffffff\n      and\n      0xffffffffffffffffffffffffffffffffffffffff\n      and\n      dup2\n      mstore\n      0x20\n      add\n      swap1\n      dup2\n      mstore\n      0x20\n      add\n      0x00\n      keccak256\n      0x00\n        /* \"blockchain/real_estate_major.sol\":12712:12748  sharesOffered[_from] -= _sharesToBuy */\n      dup3\n      dup3\n      sload\n      sub\n      swap3\n      pop\n      pop\n      dup2\n      swap1\n      sstore\n      pop\n        /* \"blockchain/real_estate_major.sol\":12759:12764  _from */\n      dup2\n        /* \"blockchain/real_estate_major.sol\":12759:12773  _from.transfer */\n      0xffffffffffffffffffffffffffffffffffffffff\n      and\n        /* \"blockchain/real_estate_major.sol\":12759:12784  _from.transfer(msg.value) */\n      0x08fc\n        /* \"blockchain/real_estate_major.sol\":12774:12783  msg.value */\n      callvalue\n        /* \"blockchain/real_estate_major.sol\":12759:12784  _from.transfer(msg.value) */\n      swap1\n      dup2\n      iszero\n      mul\n      swap1\n      mload(0x40)\n      0x00\n      mload(0x40)\n      dup1\n      dup4\n      sub\n      dup2\n      dup6\n      dup9\n      dup9\n      call\n      swap4\n      pop\n      pop\n      pop\n      pop\n      iszero\n      dup1\n      iszero\n      tag_317\n      jumpi\n      returndatasize\n      0x00\n      dup1\n      returndatacopy\n      revert(0x00, returndatasize)\n    tag_317:\n      pop\n        /* \"blockchain/real_estate_major.sol\":12800:12865  SharesSold(_from, msg.sender, _sharesToBuy,shareSellPrice[_from]) */\n      0x2337403031e4afe46802c69e84a928bfb1d575c9353dffbde39fc2ac31154e4a\n        /* \"blockchain/real_estate_major.sol\":12811:12816  _from */\n      dup3\n        /* \"blockchain/real_estate_major.sol\":12818:12828  msg.sender */\n      caller\n        /* \"blockchain/real_estate_major.sol\":12830:12842  _sharesToBuy */\n      dup6\n        /* \"blockchain/real_estate_major.sol\":12843:12857  shareSellPrice */\n      0x15\n        /* \"blockchain/real_estate_major.sol\":12843:12864  shareSellPrice[_from] */\n      0x00\n        /* \"blockchain/real_estate_major.sol\":12858:12863  _from */\n      dup8\n        /* \"blockchain/real_estate_major.sol\":12843:12864  shareSellPrice[_from] */\n      0xffffffffffffffffffffffffffffffffffffffff\n      and\n      0xffffffffffffffffffffffffffffffffffffffff\n      and\n      dup2\n      mstore\n      0x20\n      add\n      swap1\n      dup2\n      mstore\n      0x20\n      add\n      0x00\n      keccak256\n      sload\n        /* \"blockchain/real_estate_major.sol\":12800:12865  SharesSold(_from, msg.sender, _sharesToBuy,shareSellPrice[_from]) */\n      mload(0x40)\n      dup1\n      dup6\n      0xffffffffffffffffffffffffffffffffffffffff\n      and\n      dup2\n      mstore\n      0x20\n      add\n      dup5\n      0xffffffffffffffffffffffffffffffffffffffff\n      and\n      dup2\n      mstore\n      0x20\n      add\n      dup4\n      dup2\n      mstore\n      0x20\n      add\n      dup3\n      dup2\n      mstore\n      0x20\n      add\n      swap5\n      pop\n      pop\n      pop\n      pop\n      pop\n      mload(0x40)\n      dup1\n      swap2\n      sub\n      swap1\n      log1\n        /* \"blockchain/real_estate_major.sol\":12170:12873  function buyShares (uint256 _sharesToBuy, address payable _from) public payable{    //Stakeholder can buy shares from seller for sellers price * ammount of shares\r... */\n      pop\n      pop\n      pop\n      jump\t// out\n        /* \"blockchain/real_estate_major.sol\":133:158  uint8 public avgBlockTime */\n    tag_196:\n      0x00\n      dup1\n      sload\n      swap1\n      0x0100\n      exp\n      swap1\n      div\n      0xff\n      and\n      dup2\n      jump\t// out\n        /* \"blockchain/real_estate_major.sol\":1679:1705  uint256 public rentalBegin */\n    tag_199:\n      sload(0x07)\n      dup2\n      jump\t// out\n    stop\n    data_a611e1fe410a8ad5003671978617d3ecaa8e0105c1f7b48e1648e4bd2eeafd1e 54686520656e74657265642061646472657373206973206e6f74207468652063757272656e742074656e616e74\n    data_e86f3964bc4c52ab5e658506d7b6f3b4169d55cb4c8012337b6b939f32138f14 4572726f722e20596f7520646f206e6f74206f776e206d6f7265207468616e20353025206f66207468652070726f706572747920746f6b656e73206f7220796f752061726520746865206d61696e206f776e657220616c6c7265616479\n    data_f4c7e2f8a31f25d366f4f6478cb74420db6675131647e7811675c1683b0a7f1a 56616c69642074617820726174652020283025202d203130302529207265717569726564\n\n    auxdata: 0xa264697066735822122096bd78692c9d8ea933f9d33cf92c40a865bbd64b984875c23a834f225031e6e264736f6c63430007060033\n}\n",
				"bytecode": {
					"linkReferences": {},
					"object": "608060405233600c60006101000a81548173ffffffffffffffffffffffffffffffffffffffff021916908373ffffffffffffffffffffffffffffffffffffffff1602179055503480156200005257600080fd5b506040516200370a3803806200370a833981810160405260a08110156200007857600080fd5b81019080805160405193929190846401000000008211156200009957600080fd5b83820191506020820185811115620000b057600080fd5b8251866001820283011164010000000082111715620000ce57600080fd5b8083526020830192505050908051906020019080838360005b8381101562000104578082015181840152602081019050620000e7565b50505050905090810190601f168015620001325780820380516001836020036101000a031916815260200191505b50604052602001805160405193929190846401000000008211156200015657600080fd5b838201915060208201858111156200016d57600080fd5b82518660018202830111640100000000821117156200018b57600080fd5b8083526020830192505050908051906020019080838360005b83811015620001c1578082015181840152602081019050620001a4565b50505050905090810190601f168015620001ef5780820380516001836020036101000a031916815260200191505b506040526020018051906020019092919080519060200190929190805190602001909291905050506064601160008573ffffffffffffffffffffffffffffffffffffffff1673ffffffffffffffffffffffffffffffffffffffff168152602001908152602001600020819055506064600281905550600280540a60038190555084600a9080519060200190620002879291906200058e565b5060008060016101000a81548160ff021916908360ff16021790555083600b9080519060200190620002bb9291906200058e565b5081600060026101000a81548160ff021916908360ff16021790555082600d60006101000a81548173ffffffffffffffffffffffffffffffffffffffff021916908373ffffffffffffffffffffffffffffffffffffffff160217905550600f600c60009054906101000a900473ffffffffffffffffffffffffffffffffffffffff169080600181540180825580915050600190039060005260206000200160009091909190916101000a81548173ffffffffffffffffffffffffffffffffffffffff021916908373ffffffffffffffffffffffffffffffffffffffff160217905550600f600d60009054906101000a900473ffffffffffffffffffffffffffffffffffffffff169080600181540180825580915050600190039060005260206000200160009091909190916101000a81548173ffffffffffffffffffffffffffffffffffffffff021916908373ffffffffffffffffffffffffffffffffffffffff1602179055507fffffffffffffffffffffffffffffffffffffffffffffffffffffffffffffffff60126000600d60009054906101000a900473ffffffffffffffffffffffffffffffffffffffff1673ffffffffffffffffffffffffffffffffffffffff1673ffffffffffffffffffffffffffffffffffffffff1681526020019081526020016000206000600c60009054906101000a900473ffffffffffffffffffffffffffffffffffffffff1673ffffffffffffffffffffffffffffffffffffffff1673ffffffffffffffffffffffffffffffffffffffff16815260200190815260200160002081905550806000806101000a81548160ff021916908360ff16021790555060008054906101000a900460ff1660ff1662278d00816200053e57fe5b0462ffffff16600681905550600c600060036101000a81548160ff021916908360ff160217905550600654600060039054906101000a900460ff1660ff1602600181905550505050505062000644565b828054600181600116156101000203166002900490600052602060002090601f016020900481019282620005c6576000855562000612565b82601f10620005e157805160ff191683800117855562000612565b8280016001018555821562000612579182015b8281111562000611578251825591602001919060010190620005f4565b5b50905062000621919062000625565b5090565b5b808211156200064057600081600090555060010162000626565b5090565b6130b680620006546000396000f3fe60806040526004361061023f5760003560e01c8063921d3ba41161012e578063c202ea4c116100ab578063e5c42fd11161006f578063e5c42fd114610c76578063ef037b9014610cc7578063f002c9ff14610d35578063f19e148614610d83578063fe40e49214610db15761028d565b8063c202ea4c14610ac6578063c8af034214610b04578063ce7c2ac214610b95578063d084c4e414610bfa578063e4fc6b6d14610c5f5761028d565b80639d0677f9116100f25780639d0677f9146109495780639d8e838414610984578063a9059cbb146109af578063adf0779114610a20578063bbaa880314610a615761028d565b8063921d3ba41461080757806395d89b411461083557806396178c20146108c557806399c8d556146108f05780639acb50451461091e5761028d565b80633ccfd60b116101bc5780635759fb3c116101805780635759fb3c146106ca5780635fa8b49e1461071b57806378ae98c81461074c5780637a044323146107b1578063804b2de2146107dc5761028d565b80633ccfd60b1461059e578063404c5663146105a85780634e71e0c8146105e95780634ff0fe9b1461060057806351c791c7146106655761028d565b80631d6b8b72116102035780631d6b8b721461043a5780632098ea401461049f57806323980a7c146104f057806325a6eb401461051b57806331990c83146105605761028d565b806306fdde031461029257806307f084e6146103225780631034c8961461036057806312d43a51146103ce57806318160ddd1461040f5761028d565b3661028d573373ffffffffffffffffffffffffffffffffffffffff166108fc349081150290604051600060405180830381858888f1935050505015801561028a573d6000803e3d6000fd5b50005b600080fd5b34801561029e57600080fd5b506102a7610ddc565b6040518080602001828103825283818151815260200191508051906020019080838360005b838110156102e75780820151818401526020810190506102cc565b50505050905090810190601f1680156103145780820380516001836020036101000a031916815260200191505b509250505060405180910390f35b34801561032e57600080fd5b5061035e6004803603602081101561034557600080fd5b81019080803560ff169060200190929190505050610e7a565b005b34801561036c57600080fd5b506103af6004803603602081101561038357600080fd5b81019080803573ffffffffffffffffffffffffffffffffffffffff169060200190929190505050610fd9565b6040518083151581526020018281526020019250505060405180910390f35b3480156103da57600080fd5b506103e361115c565b604051808273ffffffffffffffffffffffffffffffffffffffff16815260200191505060405180910390f35b34801561041b57600080fd5b50610424611182565b6040518082815260200191505060405180910390f35b34801561044657600080fd5b506104736004803603602081101561045d57600080fd5b8101908080359060200190929190505050611188565b604051808273ffffffffffffffffffffffffffffffffffffffff16815260200191505060405180910390f35b3480156104ab57600080fd5b506104ee600480360360208110156104c257600080fd5b81019080803573ffffffffffffffffffffffffffffffffffffffff1690602001909291905050506111c7565b005b3480156104fc57600080fd5b506105056112d4565b6040518082815260200191505060405180910390f35b34801561052757600080fd5b5061055e6004803603604081101561053e57600080fd5b8101908080359060200190929190803590602001909291905050506112da565b005b34801561056c57600080fd5b5061059c6004803603602081101561058357600080fd5b81019080803560ff169060200190929190505050611428565b005b6105a66114cd565b005b3480156105b457600080fd5b506105bd6115f5565b604051808273ffffffffffffffffffffffffffffffffffffffff16815260200191505060405180910390f35b3480156105f557600080fd5b506105fe61161b565b005b34801561060c57600080fd5b5061064f6004803603602081101561062357600080fd5b81019080803573ffffffffffffffffffffffffffffffffffffffff1690602001909291905050506117c9565b6040518082815260200191505060405180910390f35b34801561067157600080fd5b506106b46004803603602081101561068857600080fd5b81019080803573ffffffffffffffffffffffffffffffffffffffff1690602001909291905050506117e1565b6040518082815260200191505060405180910390f35b3480156106d657600080fd5b50610719600480360360208110156106ed57600080fd5b81019080803573ffffffffffffffffffffffffffffffffffffffff1690602001909291905050506117f9565b005b61074a6004803603602081101561073157600080fd5b81019080803560ff1690602001909291905050506119dc565b005b34801561075857600080fd5b5061079b6004803603602081101561076f57600080fd5b81019080803573ffffffffffffffffffffffffffffffffffffffff1690602001909291905050506120ba565b6040518082815260200191505060405180910390f35b3480156107bd57600080fd5b506107c66120d2565b6040518082815260200191505060405180910390f35b3480156107e857600080fd5b506107f16120d8565b6040518082815260200191505060405180910390f35b34801561081357600080fd5b5061081c6120de565b604051808260ff16815260200191505060405180910390f35b34801561084157600080fd5b5061084a6120f1565b6040518080602001828103825283818151815260200191508051906020019080838360005b8381101561088a57808201518184015260208101905061086f565b50505050905090810190601f1680156108b75780820380516001836020036101000a031916815260200191505b509250505060405180910390f35b3480156108d157600080fd5b506108da61218f565b6040518082815260200191505060405180910390f35b3480156108fc57600080fd5b50610905612195565b604051808260ff16815260200191505060405180910390f35b34801561092a57600080fd5b506109336121a8565b6040518082815260200191505060405180910390f35b34801561095557600080fd5b506109826004803603602081101561096c57600080fd5b81019080803590602001909291905050506121ae565b005b34801561099057600080fd5b5061099961224b565b6040518082815260200191505060405180910390f35b3480156109bb57600080fd5b50610a08600480360360408110156109d257600080fd5b81019080803573ffffffffffffffffffffffffffffffffffffffff16906020019092919080359060200190929190505050612251565b60405180821515815260200191505060405180910390f35b348015610a2c57600080fd5b50610a356123c0565b604051808273ffffffffffffffffffffffffffffffffffffffff16815260200191505060405180910390f35b348015610a6d57600080fd5b50610ab060048036036020811015610a8457600080fd5b81019080803573ffffffffffffffffffffffffffffffffffffffff1690602001909291905050506123e6565b6040518082815260200191505060405180910390f35b348015610ad257600080fd5b50610b0260048036036020811015610ae957600080fd5b81019080803560ff16906020019092919050505061242f565b005b348015610b1057600080fd5b50610b7d60048036036060811015610b2757600080fd5b81019080803573ffffffffffffffffffffffffffffffffffffffff169060200190929190803573ffffffffffffffffffffffffffffffffffffffff1690602001909291908035906020019092919050505061254d565b60405180821515815260200191505060405180910390f35b348015610ba157600080fd5b50610be460048036036020811015610bb857600080fd5b81019080803573ffffffffffffffffffffffffffffffffffffffff1690602001909291905050506127e5565b6040518082815260200191505060405180910390f35b348015610c0657600080fd5b50610c4960048036036020811015610c1d57600080fd5b81019080803573ffffffffffffffffffffffffffffffffffffffff1690602001909291905050506127fd565b6040518082815260200191505060405180910390f35b348015610c6b57600080fd5b50610c74612815565b005b348015610c8257600080fd5b50610cc560048036036020811015610c9957600080fd5b81019080803573ffffffffffffffffffffffffffffffffffffffff169060200190929190505050612a1f565b005b348015610cd357600080fd5b50610d1660048036036020811015610cea57600080fd5b81019080803573ffffffffffffffffffffffffffffffffffffffff169060200190929190505050612c04565b6040518083151581526020018281526020019250505060405180910390f35b610d8160048036036040811015610d4b57600080fd5b8101908080359060200190929190803573ffffffffffffffffffffffffffffffffffffffff169060200190929190505050612ca8565b005b348015610d8f57600080fd5b50610d98612fbb565b604051808260ff16815260200191505060405180910390f35b348015610dbd57600080fd5b50610dc6612fcc565b6040518082815260200191505060405180910390f35b600a8054600181600116156101000203166002900480601f016020809104026020016040519081016040528092919081815260200182805460018160011615610100020316600290048015610e725780601f10610e4757610100808354040283529160200191610e72565b820191906000526020600020905b815481529060010190602001808311610e5557829003601f168201915b505050505081565b600c60009054906101000a900473ffffffffffffffffffffffffffffffffffffffff1673ffffffffffffffffffffffffffffffffffffffff163373ffffffffffffffffffffffffffffffffffffffff1614610ed457600080fd5b60008160ff1611610f4d576040517f08c379a000000000000000000000000000000000000000000000000000000000815260040180806020018281038252601c8152602001807f506c6561736520656e74657220612056616c75652061626f766520300000000081525060200191505060405180910390fd5b806000806101000a81548160ff021916908360ff16021790555060008054906101000a900460ff1660ff1662278d0081610f8357fe5b0462ffffff166006819055507f51277831826fdbf3c68ee1e0a4294d6242d8d6b8115023b881e4506c52426f1760008054906101000a900460ff16604051808260ff16815260200191505060405180910390a150565b60008060136000600e60009054906101000a900473ffffffffffffffffffffffffffffffffffffffff1673ffffffffffffffffffffffffffffffffffffffff1673ffffffffffffffffffffffffffffffffffffffff1681526020019081526020016000205460085414611097576040517f08c379a000000000000000000000000000000000000000000000000000000000815260040180806020018281038252602d815260200180612fd3602d913960400191505060405180910390fd5b43601360008573ffffffffffffffffffffffffffffffffffffffff1673ffffffffffffffffffffffffffffffffffffffff16815260200190815260200160002054111561114f5760006201518060008054906101000a900460ff1660ff1643601360008873ffffffffffffffffffffffffffffffffffffffff1673ffffffffffffffffffffffffffffffffffffffff1681526020019081526020016000205403028161113f57fe5b0490506001819250925050611157565b600080915091505b915091565b600c60009054906101000a900473ffffffffffffffffffffffffffffffffffffffff1681565b60025481565b600f818154811061119857600080fd5b906000526020600020016000915054906101000a900473ffffffffffffffffffffffffffffffffffffffff1681565b600d60009054906101000a900473ffffffffffffffffffffffffffffffffffffffff1673ffffffffffffffffffffffffffffffffffffffff163373ffffffffffffffffffffffffffffffffffffffff161461122157600080fd5b80600e60006101000a81548173ffffffffffffffffffffffffffffffffffffffff021916908373ffffffffffffffffffffffffffffffffffffffff1602179055507feefc7205a767c82d33fcbbd6ff72253da987fa9e4bc4a0fa6b973c3badbb5878600e60009054906101000a900473ffffffffffffffffffffffffffffffffffffffff16604051808273ffffffffffffffffffffffffffffffffffffffff16815260200191505060405180910390a150565b60045481565b60006112e533612c04565b509050806112f257600080fd5b601160003373ffffffffffffffffffffffffffffffffffffffff1673ffffffffffffffffffffffffffffffffffffffff1681526020019081526020016000205483111561133e57600080fd5b82601460003373ffffffffffffffffffffffffffffffffffffffff1673ffffffffffffffffffffffffffffffffffffffff1681526020019081526020016000208190555081601560003373ffffffffffffffffffffffffffffffffffffffff1673ffffffffffffffffffffffffffffffffffffffff168152602001908152602001600020819055507f8d14c92991df2bd2abd30417fe4d309c90c0c9516b16cf6c1ffbdceab2e3ec9d338484604051808473ffffffffffffffffffffffffffffffffffffffff168152602001838152602001828152602001935050505060405180910390a1505050565b600d60009054906101000a900473ffffffffffffffffffffffffffffffffffffffff1673ffffffffffffffffffffffffffffffffffffffff163373ffffffffffffffffffffffffffffffffffffffff161461148257600080fd5b6006548160ff16026001819055507f71360850cda8a5de5050d1e5c516ceca328e4dcd2718c89035a82629ae95092581604051808260ff16815260200191505060405180910390a150565b6000601060003373ffffffffffffffffffffffffffffffffffffffff1673ffffffffffffffffffffffffffffffffffffffff1681526020019081526020016000205490506000601060003373ffffffffffffffffffffffffffffffffffffffff1673ffffffffffffffffffffffffffffffffffffffff168152602001908152602001600020819055503373ffffffffffffffffffffffffffffffffffffffff166108fc829081150290604051600060405180830381858888f1935050505015801561159c573d6000803e3d6000fd5b507f7fcf532c15f0a6db0bd6d0e038bea71d30d808c7d98cb3bf7268a95bf5081b653382604051808373ffffffffffffffffffffffffffffffffffffffff1681526020018281526020019250505060405180910390a150565b600d60009054906101000a900473ffffffffffffffffffffffffffffffffffffffff1681565b600280548161162657fe5b04601160003373ffffffffffffffffffffffffffffffffffffffff1673ffffffffffffffffffffffffffffffffffffffff168152602001908152602001600020541180156116c25750600d60009054906101000a900473ffffffffffffffffffffffffffffffffffffffff1673ffffffffffffffffffffffffffffffffffffffff163373ffffffffffffffffffffffffffffffffffffffff1614155b611717576040517f08c379a000000000000000000000000000000000000000000000000000000000815260040180806020018281038252605d815260200180613000605d913960600191505060405180910390fd5b33600d60006101000a81548173ffffffffffffffffffffffffffffffffffffffff021916908373ffffffffffffffffffffffffffffffffffffffff1602179055507fa0efd61da798bc54cf93315c74a19efbb7f71b174337d216ffe4bbc761234ca1600d60009054906101000a900473ffffffffffffffffffffffffffffffffffffffff16604051808273ffffffffffffffffffffffffffffffffffffffff16815260200191505060405180910390a1565b60136020528060005260406000206000915090505481565b60156020528060005260406000206000915090505481565b600c60009054906101000a900473ffffffffffffffffffffffffffffffffffffffff1673ffffffffffffffffffffffffffffffffffffffff163373ffffffffffffffffffffffffffffffffffffffff161461185357600080fd5b60008061185f83612c04565b9150915081156119d757600f6001600f80549050038154811061187e57fe5b9060005260206000200160009054906101000a900473ffffffffffffffffffffffffffffffffffffffff16600f82815481106118b657fe5b9060005260206000200160006101000a81548173ffffffffffffffffffffffffffffffffffffffff021916908373ffffffffffffffffffffffffffffffffffffffff160217905550600f80548061190957fe5b6001900381819060005260206000200160006101000a81549073ffffffffffffffffffffffffffffffffffffffff021916905590556119888333601160008773ffffffffffffffffffffffffffffffffffffffff1673ffffffffffffffffffffffffffffffffffffffff1681526020019081526020016000205461254d565b507fbe753d52a25516e4650afc9ed346554a6deaafd77409fb97d4ffc95c8fe1247783604051808273ffffffffffffffffffffffffffffffffffffffff16815260200191505060405180910390a15b505050565b600060035434816119e957fe5b06146119f457600080fd5b600e60009054906101000a900473ffffffffffffffffffffffffffffffffffffffff1673ffffffffffffffffffffffffffffffffffffffff163373ffffffffffffffffffffffffffffffffffffffff1614611a4e57600080fd5b60006004548260ff1602905060006006548360ff160290508134148015611a7a57506001544301814301105b611a8357600080fd5b600060029054906101000a900460ff1660ff166002543481611aa157fe5b0402600981905550600954340360056000828254019250508190555060095460106000600c60009054906101000a900473ffffffffffffffffffffffffffffffffffffffff1673ffffffffffffffffffffffffffffffffffffffff1673ffffffffffffffffffffffffffffffffffffffff16815260200190815260200160002060008282540192505081905550600060136000600e60009054906101000a900473ffffffffffffffffffffffffffffffffffffffff1673ffffffffffffffffffffffffffffffffffffffff1673ffffffffffffffffffffffffffffffffffffffff16815260200190815260200160002054148015611ba0575043600854105b15611c195780430160136000600e60009054906101000a900473ffffffffffffffffffffffffffffffffffffffff1673ffffffffffffffffffffffffffffffffffffffff1673ffffffffffffffffffffffffffffffffffffffff1681526020019081526020016000208190555043600781905550611fc6565b600060136000600e60009054906101000a900473ffffffffffffffffffffffffffffffffffffffff1673ffffffffffffffffffffffffffffffffffffffff1673ffffffffffffffffffffffffffffffffffffffff16815260200190815260200160002054148015611c8b575043600854115b15611d0857806008540160136000600e60009054906101000a900473ffffffffffffffffffffffffffffffffffffffff1673ffffffffffffffffffffffffffffffffffffffff1673ffffffffffffffffffffffffffffffffffffffff16815260200190815260200160002081905550600854600781905550611fc5565b4360136000600e60009054906101000a900473ffffffffffffffffffffffffffffffffffffffff1673ffffffffffffffffffffffffffffffffffffffff1673ffffffffffffffffffffffffffffffffffffffff168152602001908152602001600020541115611dee578060136000600e60009054906101000a900473ffffffffffffffffffffffffffffffffffffffff1673ffffffffffffffffffffffffffffffffffffffff1673ffffffffffffffffffffffffffffffffffffffff16815260200190815260200160002060008282540192505081905550600854600781905550611fc4565b4360136000600e60009054906101000a900473ffffffffffffffffffffffffffffffffffffffff1673ffffffffffffffffffffffffffffffffffffffff1673ffffffffffffffffffffffffffffffffffffffff16815260200190815260200160002054108015611e5f575043600854115b15611edc57806008540160136000600e60009054906101000a900473ffffffffffffffffffffffffffffffffffffffff1673ffffffffffffffffffffffffffffffffffffffff1673ffffffffffffffffffffffffffffffffffffffff16815260200190815260200160002081905550600854600781905550611fc3565b4360136000600e60009054906101000a900473ffffffffffffffffffffffffffffffffffffffff1673ffffffffffffffffffffffffffffffffffffffff1673ffffffffffffffffffffffffffffffffffffffff16815260200190815260200160002054108015611f4d575043600854105b15611fc25780430160136000600e60009054906101000a900473ffffffffffffffffffffffffffffffffffffffff1673ffffffffffffffffffffffffffffffffffffffff1673ffffffffffffffffffffffffffffffffffffffff16815260200190815260200160002081905550436007819055505b5b5b5b5b60136000600e60009054906101000a900473ffffffffffffffffffffffffffffffffffffffff1673ffffffffffffffffffffffffffffffffffffffff1673ffffffffffffffffffffffffffffffffffffffff168152602001908152602001600020546008819055507fed0bcf6e75dafae47cced3978b084c050054931a5b61248517a6d69b00641aa64233346009546009543403600754600854604051808881526020018773ffffffffffffffffffffffffffffffffffffffff16815260200186815260200185815260200184815260200183815260200182815260200197505050505050505060405180910390a1505050565b60106020528060005260406000206000915090505481565b60055481565b60085481565b600060039054906101000a900460ff1681565b600b8054600181600116156101000203166002900480601f0160208091040260200160405190810160405280929190818152602001828054600181600116156101000203166002900480156121875780601f1061215c57610100808354040283529160200191612187565b820191906000526020600020905b81548152906001019060200180831161216a57829003601f168201915b505050505081565b60035481565b600060029054906101000a900460ff1681565b60015481565b600d60009054906101000a900473ffffffffffffffffffffffffffffffffffffffff1673ffffffffffffffffffffffffffffffffffffffff163373ffffffffffffffffffffffffffffffffffffffff161461220857600080fd5b806004819055507f01c0501a0159c81ad08156852da610a4651db498b9140fd2978130a2ad4817a96004546040518082815260200191505060405180910390a150565b60065481565b60008061225d84612c04565b5090508061226a57600080fd5b82601160003373ffffffffffffffffffffffffffffffffffffffff1673ffffffffffffffffffffffffffffffffffffffff1681526020019081526020016000205410156122b657600080fd5b82601160003373ffffffffffffffffffffffffffffffffffffffff1673ffffffffffffffffffffffffffffffffffffffff1681526020019081526020016000206000828254039250508190555082601160008673ffffffffffffffffffffffffffffffffffffffff1673ffffffffffffffffffffffffffffffffffffffff168152602001908152602001600020600082825401925050819055508373ffffffffffffffffffffffffffffffffffffffff163373ffffffffffffffffffffffffffffffffffffffff167ff65b362dee26383a16fab495d027c962695fd9f6b89f5eece76ded00c8223a2d856040518082815260200191505060405180910390a3600191505092915050565b600e60009054906101000a900473ffffffffffffffffffffffffffffffffffffffff1681565b6000601160008373ffffffffffffffffffffffffffffffffffffffff1673ffffffffffffffffffffffffffffffffffffffff168152602001908152602001600020549050919050565b600c60009054906101000a900473ffffffffffffffffffffffffffffffffffffffff1673ffffffffffffffffffffffffffffffffffffffff163373ffffffffffffffffffffffffffffffffffffffff161461248957600080fd5b60648160ff1611156124e6576040517f08c379a000000000000000000000000000000000000000000000000000000000815260040180806020018281038252602481526020018061305d6024913960400191505060405180910390fd5b80600060026101000a81548160ff021916908360ff1602179055507f945421baf50aff36cdd701534d69b85e9c3da3be3505f8fcc971d3f067c04243600060029054906101000a900460ff16604051808260ff16815260200191505060405180910390a150565b600080601260008673ffffffffffffffffffffffffffffffffffffffff1673ffffffffffffffffffffffffffffffffffffffff16815260200190815260200160002060003373ffffffffffffffffffffffffffffffffffffffff1673ffffffffffffffffffffffffffffffffffffffff16815260200190815260200160002054905082601160008773ffffffffffffffffffffffffffffffffffffffff1673ffffffffffffffffffffffffffffffffffffffff168152602001908152602001600020541015801561261e5750828110155b61262757600080fd5b82601160008673ffffffffffffffffffffffffffffffffffffffff1673ffffffffffffffffffffffffffffffffffffffff1681526020019081526020016000206000828254019250508190555082601160008773ffffffffffffffffffffffffffffffffffffffff1673ffffffffffffffffffffffffffffffffffffffff168152602001908152602001600020600082825403925050819055507fffffffffffffffffffffffffffffffffffffffffffffffffffffffffffffffff8110156127745782601260008773ffffffffffffffffffffffffffffffffffffffff1673ffffffffffffffffffffffffffffffffffffffff16815260200190815260200160002060003373ffffffffffffffffffffffffffffffffffffffff1673ffffffffffffffffffffffffffffffffffffffff168152602001908152602001600020600082825403925050819055505b8373ffffffffffffffffffffffffffffffffffffffff168573ffffffffffffffffffffffffffffffffffffffff167fa4c1382703d8dfd8f268be7fe05f096f71f7058b19de5f2be32af150b8c424c4856040518082815260200191505060405180910390a360019150509392505050565b60116020528060005260406000206000915090505481565b60146020528060005260406000206000915090505481565b600c60009054906101000a900473ffffffffffffffffffffffffffffffffffffffff1673ffffffffffffffffffffffffffffffffffffffff163373ffffffffffffffffffffffffffffffffffffffff161461286f57600080fd5b6000600554905060005b600f80549050811015612a1b576000600f828154811061289557fe5b9060005260206000200160009054906101000a900473ffffffffffffffffffffffffffffffffffffffff16905060006128cd826123e6565b905060008160025486816128dd57fe5b04029050806005540360058190555080601060008573ffffffffffffffffffffffffffffffffffffffff1673ffffffffffffffffffffffffffffffffffffffff1681526020019081526020016000205401601060008573ffffffffffffffffffffffffffffffffffffffff1673ffffffffffffffffffffffffffffffffffffffff168152602001908152602001600020819055507fea08f10be57ab8257f730df5853ed8eb8726227c896c3bd660fce914769bcab48382601060008773ffffffffffffffffffffffffffffffffffffffff1673ffffffffffffffffffffffffffffffffffffffff16815260200190815260200160002054604051808473ffffffffffffffffffffffffffffffffffffffff168152602001838152602001828152602001935050505060405180910390a1505050600181019050612879565b5050565b600c60009054906101000a900473ffffffffffffffffffffffffffffffffffffffff1673ffffffffffffffffffffffffffffffffffffffff163373ffffffffffffffffffffffffffffffffffffffff1614612a7957600080fd5b6000612a8482612c04565b50905080612af057600f829080600181540180825580915050600190039060005260206000200160009091909190916101000a81548173ffffffffffffffffffffffffffffffffffffffff021916908373ffffffffffffffffffffffffffffffffffffffff1602179055505b7fffffffffffffffffffffffffffffffffffffffffffffffffffffffffffffffff601260008473ffffffffffffffffffffffffffffffffffffffff1673ffffffffffffffffffffffffffffffffffffffff1681526020019081526020016000206000600c60009054906101000a900473ffffffffffffffffffffffffffffffffffffffff1673ffffffffffffffffffffffffffffffffffffffff1673ffffffffffffffffffffffffffffffffffffffff168152602001908152602001600020819055507fbf0d83a1aed38e16f3afa9a5fdc87d08590574fe387b21095fb0a7e643f803b182604051808273ffffffffffffffffffffffffffffffffffffffff16815260200191505060405180910390a15050565b60008060005b600f80549050811015612c9a57600f8181548110612c2457fe5b9060005260206000200160009054906101000a900473ffffffffffffffffffffffffffffffffffffffff1673ffffffffffffffffffffffffffffffffffffffff168473ffffffffffffffffffffffffffffffffffffffff161415612c8f576001819250925050612ca3565b600181019050612c0a565b50600080915091505b915091565b6000612cb333612c04565b50905080612cc057600080fd5b601560008373ffffffffffffffffffffffffffffffffffffffff1673ffffffffffffffffffffffffffffffffffffffff16815260200190815260200160002054830234148015612d4f5750601460008373ffffffffffffffffffffffffffffffffffffffff1673ffffffffffffffffffffffffffffffffffffffff168152602001908152602001600020548311155b8015612d9a5750601160008373ffffffffffffffffffffffffffffffffffffffff1673ffffffffffffffffffffffffffffffffffffffff168152602001908152602001600020548311155b8015612dd257503373ffffffffffffffffffffffffffffffffffffffff168273ffffffffffffffffffffffffffffffffffffffff1614155b612ddb57600080fd5b82601260008473ffffffffffffffffffffffffffffffffffffffff1673ffffffffffffffffffffffffffffffffffffffff16815260200190815260200160002060003373ffffffffffffffffffffffffffffffffffffffff1673ffffffffffffffffffffffffffffffffffffffff16815260200190815260200160002081905550612e6782338561254d565b5082601460008473ffffffffffffffffffffffffffffffffffffffff1673ffffffffffffffffffffffffffffffffffffffff168152602001908152602001600020600082825403925050819055508173ffffffffffffffffffffffffffffffffffffffff166108fc349081150290604051600060405180830381858888f19350505050158015612efb573d6000803e3d6000fd5b507f2337403031e4afe46802c69e84a928bfb1d575c9353dffbde39fc2ac31154e4a823385601560008773ffffffffffffffffffffffffffffffffffffffff1673ffffffffffffffffffffffffffffffffffffffff16815260200190815260200160002054604051808573ffffffffffffffffffffffffffffffffffffffff1681526020018473ffffffffffffffffffffffffffffffffffffffff16815260200183815260200182815260200194505050505060405180910390a1505050565b60008054906101000a900460ff1681565b6007548156fe54686520656e74657265642061646472657373206973206e6f74207468652063757272656e742074656e616e744572726f722e20596f7520646f206e6f74206f776e206d6f7265207468616e20353025206f66207468652070726f706572747920746f6b656e73206f7220796f752061726520746865206d61696e206f776e657220616c6c726561647956616c69642074617820726174652020283025202d203130302529207265717569726564a264697066735822122096bd78692c9d8ea933f9d33cf92c40a865bbd64b984875c23a834f225031e6e264736f6c63430007060033",
					"opcodes": "PUSH1 0x80 PUSH1 0x40 MSTORE CALLER PUSH1 0xC PUSH1 0x0 PUSH2 0x100 EXP DUP2 SLOAD DUP2 PUSH20 0xFFFFFFFFFFFFFFFFFFFFFFFFFFFFFFFFFFFFFFFF MUL NOT AND SWAP1 DUP4 PUSH20 0xFFFFFFFFFFFFFFFFFFFFFFFFFFFFFFFFFFFFFFFF AND MUL OR SWAP1 SSTORE POP CALLVALUE DUP1 ISZERO PUSH3 0x52 JUMPI PUSH1 0x0 DUP1 REVERT JUMPDEST POP PUSH1 0x40 MLOAD PUSH3 0x370A CODESIZE SUB DUP1 PUSH3 0x370A DUP4 CODECOPY DUP2 DUP2 ADD PUSH1 0x40 MSTORE PUSH1 0xA0 DUP2 LT ISZERO PUSH3 0x78 JUMPI PUSH1 0x0 DUP1 REVERT JUMPDEST DUP2 ADD SWAP1 DUP1 DUP1 MLOAD PUSH1 0x40 MLOAD SWAP4 SWAP3 SWAP2 SWAP1 DUP5 PUSH5 0x100000000 DUP3 GT ISZERO PUSH3 0x99 JUMPI PUSH1 0x0 DUP1 REVERT JUMPDEST DUP4 DUP3 ADD SWAP2 POP PUSH1 0x20 DUP3 ADD DUP6 DUP2 GT ISZERO PUSH3 0xB0 JUMPI PUSH1 0x0 DUP1 REVERT JUMPDEST DUP3 MLOAD DUP7 PUSH1 0x1 DUP3 MUL DUP4 ADD GT PUSH5 0x100000000 DUP3 GT OR ISZERO PUSH3 0xCE JUMPI PUSH1 0x0 DUP1 REVERT JUMPDEST DUP1 DUP4 MSTORE PUSH1 0x20 DUP4 ADD SWAP3 POP POP POP SWAP1 DUP1 MLOAD SWAP1 PUSH1 0x20 ADD SWAP1 DUP1 DUP4 DUP4 PUSH1 0x0 JUMPDEST DUP4 DUP2 LT ISZERO PUSH3 0x104 JUMPI DUP1 DUP3 ADD MLOAD DUP2 DUP5 ADD MSTORE PUSH1 0x20 DUP2 ADD SWAP1 POP PUSH3 0xE7 JUMP JUMPDEST POP POP POP POP SWAP1 POP SWAP1 DUP2 ADD SWAP1 PUSH1 0x1F AND DUP1 ISZERO PUSH3 0x132 JUMPI DUP1 DUP3 SUB DUP1 MLOAD PUSH1 0x1 DUP4 PUSH1 0x20 SUB PUSH2 0x100 EXP SUB NOT AND DUP2 MSTORE PUSH1 0x20 ADD SWAP2 POP JUMPDEST POP PUSH1 0x40 MSTORE PUSH1 0x20 ADD DUP1 MLOAD PUSH1 0x40 MLOAD SWAP4 SWAP3 SWAP2 SWAP1 DUP5 PUSH5 0x100000000 DUP3 GT ISZERO PUSH3 0x156 JUMPI PUSH1 0x0 DUP1 REVERT JUMPDEST DUP4 DUP3 ADD SWAP2 POP PUSH1 0x20 DUP3 ADD DUP6 DUP2 GT ISZERO PUSH3 0x16D JUMPI PUSH1 0x0 DUP1 REVERT JUMPDEST DUP3 MLOAD DUP7 PUSH1 0x1 DUP3 MUL DUP4 ADD GT PUSH5 0x100000000 DUP3 GT OR ISZERO PUSH3 0x18B JUMPI PUSH1 0x0 DUP1 REVERT JUMPDEST DUP1 DUP4 MSTORE PUSH1 0x20 DUP4 ADD SWAP3 POP POP POP SWAP1 DUP1 MLOAD SWAP1 PUSH1 0x20 ADD SWAP1 DUP1 DUP4 DUP4 PUSH1 0x0 JUMPDEST DUP4 DUP2 LT ISZERO PUSH3 0x1C1 JUMPI DUP1 DUP3 ADD MLOAD DUP2 DUP5 ADD MSTORE PUSH1 0x20 DUP2 ADD SWAP1 POP PUSH3 0x1A4 JUMP JUMPDEST POP POP POP POP SWAP1 POP SWAP1 DUP2 ADD SWAP1 PUSH1 0x1F AND DUP1 ISZERO PUSH3 0x1EF JUMPI DUP1 DUP3 SUB DUP1 MLOAD PUSH1 0x1 DUP4 PUSH1 0x20 SUB PUSH2 0x100 EXP SUB NOT AND DUP2 MSTORE PUSH1 0x20 ADD SWAP2 POP JUMPDEST POP PUSH1 0x40 MSTORE PUSH1 0x20 ADD DUP1 MLOAD SWAP1 PUSH1 0x20 ADD SWAP1 SWAP3 SWAP2 SWAP1 DUP1 MLOAD SWAP1 PUSH1 0x20 ADD SWAP1 SWAP3 SWAP2 SWAP1 DUP1 MLOAD SWAP1 PUSH1 0x20 ADD SWAP1 SWAP3 SWAP2 SWAP1 POP POP POP PUSH1 0x64 PUSH1 0x11 PUSH1 0x0 DUP6 PUSH20 0xFFFFFFFFFFFFFFFFFFFFFFFFFFFFFFFFFFFFFFFF AND PUSH20 0xFFFFFFFFFFFFFFFFFFFFFFFFFFFFFFFFFFFFFFFF AND DUP2 MSTORE PUSH1 0x20 ADD SWAP1 DUP2 MSTORE PUSH1 0x20 ADD PUSH1 0x0 KECCAK256 DUP2 SWAP1 SSTORE POP PUSH1 0x64 PUSH1 0x2 DUP2 SWAP1 SSTORE POP PUSH1 0x2 DUP1 SLOAD EXP PUSH1 0x3 DUP2 SWAP1 SSTORE POP DUP5 PUSH1 0xA SWAP1 DUP1 MLOAD SWAP1 PUSH1 0x20 ADD SWAP1 PUSH3 0x287 SWAP3 SWAP2 SWAP1 PUSH3 0x58E JUMP JUMPDEST POP PUSH1 0x0 DUP1 PUSH1 0x1 PUSH2 0x100 EXP DUP2 SLOAD DUP2 PUSH1 0xFF MUL NOT AND SWAP1 DUP4 PUSH1 0xFF AND MUL OR SWAP1 SSTORE POP DUP4 PUSH1 0xB SWAP1 DUP1 MLOAD SWAP1 PUSH1 0x20 ADD SWAP1 PUSH3 0x2BB SWAP3 SWAP2 SWAP1 PUSH3 0x58E JUMP JUMPDEST POP DUP2 PUSH1 0x0 PUSH1 0x2 PUSH2 0x100 EXP DUP2 SLOAD DUP2 PUSH1 0xFF MUL NOT AND SWAP1 DUP4 PUSH1 0xFF AND MUL OR SWAP1 SSTORE POP DUP3 PUSH1 0xD PUSH1 0x0 PUSH2 0x100 EXP DUP2 SLOAD DUP2 PUSH20 0xFFFFFFFFFFFFFFFFFFFFFFFFFFFFFFFFFFFFFFFF MUL NOT AND SWAP1 DUP4 PUSH20 0xFFFFFFFFFFFFFFFFFFFFFFFFFFFFFFFFFFFFFFFF AND MUL OR SWAP1 SSTORE POP PUSH1 0xF PUSH1 0xC PUSH1 0x0 SWAP1 SLOAD SWAP1 PUSH2 0x100 EXP SWAP1 DIV PUSH20 0xFFFFFFFFFFFFFFFFFFFFFFFFFFFFFFFFFFFFFFFF AND SWAP1 DUP1 PUSH1 0x1 DUP2 SLOAD ADD DUP1 DUP3 SSTORE DUP1 SWAP2 POP POP PUSH1 0x1 SWAP1 SUB SWAP1 PUSH1 0x0 MSTORE PUSH1 0x20 PUSH1 0x0 KECCAK256 ADD PUSH1 0x0 SWAP1 SWAP2 SWAP1 SWAP2 SWAP1 SWAP2 PUSH2 0x100 EXP DUP2 SLOAD DUP2 PUSH20 0xFFFFFFFFFFFFFFFFFFFFFFFFFFFFFFFFFFFFFFFF MUL NOT AND SWAP1 DUP4 PUSH20 0xFFFFFFFFFFFFFFFFFFFFFFFFFFFFFFFFFFFFFFFF AND MUL OR SWAP1 SSTORE POP PUSH1 0xF PUSH1 0xD PUSH1 0x0 SWAP1 SLOAD SWAP1 PUSH2 0x100 EXP SWAP1 DIV PUSH20 0xFFFFFFFFFFFFFFFFFFFFFFFFFFFFFFFFFFFFFFFF AND SWAP1 DUP1 PUSH1 0x1 DUP2 SLOAD ADD DUP1 DUP3 SSTORE DUP1 SWAP2 POP POP PUSH1 0x1 SWAP1 SUB SWAP1 PUSH1 0x0 MSTORE PUSH1 0x20 PUSH1 0x0 KECCAK256 ADD PUSH1 0x0 SWAP1 SWAP2 SWAP1 SWAP2 SWAP1 SWAP2 PUSH2 0x100 EXP DUP2 SLOAD DUP2 PUSH20 0xFFFFFFFFFFFFFFFFFFFFFFFFFFFFFFFFFFFFFFFF MUL NOT AND SWAP1 DUP4 PUSH20 0xFFFFFFFFFFFFFFFFFFFFFFFFFFFFFFFFFFFFFFFF AND MUL OR SWAP1 SSTORE POP PUSH32 0xFFFFFFFFFFFFFFFFFFFFFFFFFFFFFFFFFFFFFFFFFFFFFFFFFFFFFFFFFFFFFFFF PUSH1 0x12 PUSH1 0x0 PUSH1 0xD PUSH1 0x0 SWAP1 SLOAD SWAP1 PUSH2 0x100 EXP SWAP1 DIV PUSH20 0xFFFFFFFFFFFFFFFFFFFFFFFFFFFFFFFFFFFFFFFF AND PUSH20 0xFFFFFFFFFFFFFFFFFFFFFFFFFFFFFFFFFFFFFFFF AND PUSH20 0xFFFFFFFFFFFFFFFFFFFFFFFFFFFFFFFFFFFFFFFF AND DUP2 MSTORE PUSH1 0x20 ADD SWAP1 DUP2 MSTORE PUSH1 0x20 ADD PUSH1 0x0 KECCAK256 PUSH1 0x0 PUSH1 0xC PUSH1 0x0 SWAP1 SLOAD SWAP1 PUSH2 0x100 EXP SWAP1 DIV PUSH20 0xFFFFFFFFFFFFFFFFFFFFFFFFFFFFFFFFFFFFFFFF AND PUSH20 0xFFFFFFFFFFFFFFFFFFFFFFFFFFFFFFFFFFFFFFFF AND PUSH20 0xFFFFFFFFFFFFFFFFFFFFFFFFFFFFFFFFFFFFFFFF AND DUP2 MSTORE PUSH1 0x20 ADD SWAP1 DUP2 MSTORE PUSH1 0x20 ADD PUSH1 0x0 KECCAK256 DUP2 SWAP1 SSTORE POP DUP1 PUSH1 0x0 DUP1 PUSH2 0x100 EXP DUP2 SLOAD DUP2 PUSH1 0xFF MUL NOT AND SWAP1 DUP4 PUSH1 0xFF AND MUL OR SWAP1 SSTORE POP PUSH1 0x0 DUP1 SLOAD SWAP1 PUSH2 0x100 EXP SWAP1 DIV PUSH1 0xFF AND PUSH1 0xFF AND PUSH3 0x278D00 DUP2 PUSH3 0x53E JUMPI INVALID JUMPDEST DIV PUSH3 0xFFFFFF AND PUSH1 0x6 DUP2 SWAP1 SSTORE POP PUSH1 0xC PUSH1 0x0 PUSH1 0x3 PUSH2 0x100 EXP DUP2 SLOAD DUP2 PUSH1 0xFF MUL NOT AND SWAP1 DUP4 PUSH1 0xFF AND MUL OR SWAP1 SSTORE POP PUSH1 0x6 SLOAD PUSH1 0x0 PUSH1 0x3 SWAP1 SLOAD SWAP1 PUSH2 0x100 EXP SWAP1 DIV PUSH1 0xFF AND PUSH1 0xFF AND MUL PUSH1 0x1 DUP2 SWAP1 SSTORE POP POP POP POP POP POP PUSH3 0x644 JUMP JUMPDEST DUP3 DUP1 SLOAD PUSH1 0x1 DUP2 PUSH1 0x1 AND ISZERO PUSH2 0x100 MUL SUB AND PUSH1 0x2 SWAP1 DIV SWAP1 PUSH1 0x0 MSTORE PUSH1 0x20 PUSH1 0x0 KECCAK256 SWAP1 PUSH1 0x1F ADD PUSH1 0x20 SWAP1 DIV DUP2 ADD SWAP3 DUP3 PUSH3 0x5C6 JUMPI PUSH1 0x0 DUP6 SSTORE PUSH3 0x612 JUMP JUMPDEST DUP3 PUSH1 0x1F LT PUSH3 0x5E1 JUMPI DUP1 MLOAD PUSH1 0xFF NOT AND DUP4 DUP1 ADD OR DUP6 SSTORE PUSH3 0x612 JUMP JUMPDEST DUP3 DUP1 ADD PUSH1 0x1 ADD DUP6 SSTORE DUP3 ISZERO PUSH3 0x612 JUMPI SWAP2 DUP3 ADD JUMPDEST DUP3 DUP2 GT ISZERO PUSH3 0x611 JUMPI DUP3 MLOAD DUP3 SSTORE SWAP2 PUSH1 0x20 ADD SWAP2 SWAP1 PUSH1 0x1 ADD SWAP1 PUSH3 0x5F4 JUMP JUMPDEST JUMPDEST POP SWAP1 POP PUSH3 0x621 SWAP2 SWAP1 PUSH3 0x625 JUMP JUMPDEST POP SWAP1 JUMP JUMPDEST JUMPDEST DUP1 DUP3 GT ISZERO PUSH3 0x640 JUMPI PUSH1 0x0 DUP2 PUSH1 0x0 SWAP1 SSTORE POP PUSH1 0x1 ADD PUSH3 0x626 JUMP JUMPDEST POP SWAP1 JUMP JUMPDEST PUSH2 0x30B6 DUP1 PUSH3 0x654 PUSH1 0x0 CODECOPY PUSH1 0x0 RETURN INVALID PUSH1 0x80 PUSH1 0x40 MSTORE PUSH1 0x4 CALLDATASIZE LT PUSH2 0x23F JUMPI PUSH1 0x0 CALLDATALOAD PUSH1 0xE0 SHR DUP1 PUSH4 0x921D3BA4 GT PUSH2 0x12E JUMPI DUP1 PUSH4 0xC202EA4C GT PUSH2 0xAB JUMPI DUP1 PUSH4 0xE5C42FD1 GT PUSH2 0x6F JUMPI DUP1 PUSH4 0xE5C42FD1 EQ PUSH2 0xC76 JUMPI DUP1 PUSH4 0xEF037B90 EQ PUSH2 0xCC7 JUMPI DUP1 PUSH4 0xF002C9FF EQ PUSH2 0xD35 JUMPI DUP1 PUSH4 0xF19E1486 EQ PUSH2 0xD83 JUMPI DUP1 PUSH4 0xFE40E492 EQ PUSH2 0xDB1 JUMPI PUSH2 0x28D JUMP JUMPDEST DUP1 PUSH4 0xC202EA4C EQ PUSH2 0xAC6 JUMPI DUP1 PUSH4 0xC8AF0342 EQ PUSH2 0xB04 JUMPI DUP1 PUSH4 0xCE7C2AC2 EQ PUSH2 0xB95 JUMPI DUP1 PUSH4 0xD084C4E4 EQ PUSH2 0xBFA JUMPI DUP1 PUSH4 0xE4FC6B6D EQ PUSH2 0xC5F JUMPI PUSH2 0x28D JUMP JUMPDEST DUP1 PUSH4 0x9D0677F9 GT PUSH2 0xF2 JUMPI DUP1 PUSH4 0x9D0677F9 EQ PUSH2 0x949 JUMPI DUP1 PUSH4 0x9D8E8384 EQ PUSH2 0x984 JUMPI DUP1 PUSH4 0xA9059CBB EQ PUSH2 0x9AF JUMPI DUP1 PUSH4 0xADF07791 EQ PUSH2 0xA20 JUMPI DUP1 PUSH4 0xBBAA8803 EQ PUSH2 0xA61 JUMPI PUSH2 0x28D JUMP JUMPDEST DUP1 PUSH4 0x921D3BA4 EQ PUSH2 0x807 JUMPI DUP1 PUSH4 0x95D89B41 EQ PUSH2 0x835 JUMPI DUP1 PUSH4 0x96178C20 EQ PUSH2 0x8C5 JUMPI DUP1 PUSH4 0x99C8D556 EQ PUSH2 0x8F0 JUMPI DUP1 PUSH4 0x9ACB5045 EQ PUSH2 0x91E JUMPI PUSH2 0x28D JUMP JUMPDEST DUP1 PUSH4 0x3CCFD60B GT PUSH2 0x1BC JUMPI DUP1 PUSH4 0x5759FB3C GT PUSH2 0x180 JUMPI DUP1 PUSH4 0x5759FB3C EQ PUSH2 0x6CA JUMPI DUP1 PUSH4 0x5FA8B49E EQ PUSH2 0x71B JUMPI DUP1 PUSH4 0x78AE98C8 EQ PUSH2 0x74C JUMPI DUP1 PUSH4 0x7A044323 EQ PUSH2 0x7B1 JUMPI DUP1 PUSH4 0x804B2DE2 EQ PUSH2 0x7DC JUMPI PUSH2 0x28D JUMP JUMPDEST DUP1 PUSH4 0x3CCFD60B EQ PUSH2 0x59E JUMPI DUP1 PUSH4 0x404C5663 EQ PUSH2 0x5A8 JUMPI DUP1 PUSH4 0x4E71E0C8 EQ PUSH2 0x5E9 JUMPI DUP1 PUSH4 0x4FF0FE9B EQ PUSH2 0x600 JUMPI DUP1 PUSH4 0x51C791C7 EQ PUSH2 0x665 JUMPI PUSH2 0x28D JUMP JUMPDEST DUP1 PUSH4 0x1D6B8B72 GT PUSH2 0x203 JUMPI DUP1 PUSH4 0x1D6B8B72 EQ PUSH2 0x43A JUMPI DUP1 PUSH4 0x2098EA40 EQ PUSH2 0x49F JUMPI DUP1 PUSH4 0x23980A7C EQ PUSH2 0x4F0 JUMPI DUP1 PUSH4 0x25A6EB40 EQ PUSH2 0x51B JUMPI DUP1 PUSH4 0x31990C83 EQ PUSH2 0x560 JUMPI PUSH2 0x28D JUMP JUMPDEST DUP1 PUSH4 0x6FDDE03 EQ PUSH2 0x292 JUMPI DUP1 PUSH4 0x7F084E6 EQ PUSH2 0x322 JUMPI DUP1 PUSH4 0x1034C896 EQ PUSH2 0x360 JUMPI DUP1 PUSH4 0x12D43A51 EQ PUSH2 0x3CE JUMPI DUP1 PUSH4 0x18160DDD EQ PUSH2 0x40F JUMPI PUSH2 0x28D JUMP JUMPDEST CALLDATASIZE PUSH2 0x28D JUMPI CALLER PUSH20 0xFFFFFFFFFFFFFFFFFFFFFFFFFFFFFFFFFFFFFFFF AND PUSH2 0x8FC CALLVALUE SWAP1 DUP2 ISZERO MUL SWAP1 PUSH1 0x40 MLOAD PUSH1 0x0 PUSH1 0x40 MLOAD DUP1 DUP4 SUB DUP2 DUP6 DUP9 DUP9 CALL SWAP4 POP POP POP POP ISZERO DUP1 ISZERO PUSH2 0x28A JUMPI RETURNDATASIZE PUSH1 0x0 DUP1 RETURNDATACOPY RETURNDATASIZE PUSH1 0x0 REVERT JUMPDEST POP STOP JUMPDEST PUSH1 0x0 DUP1 REVERT JUMPDEST CALLVALUE DUP1 ISZERO PUSH2 0x29E JUMPI PUSH1 0x0 DUP1 REVERT JUMPDEST POP PUSH2 0x2A7 PUSH2 0xDDC JUMP JUMPDEST PUSH1 0x40 MLOAD DUP1 DUP1 PUSH1 0x20 ADD DUP3 DUP2 SUB DUP3 MSTORE DUP4 DUP2 DUP2 MLOAD DUP2 MSTORE PUSH1 0x20 ADD SWAP2 POP DUP1 MLOAD SWAP1 PUSH1 0x20 ADD SWAP1 DUP1 DUP4 DUP4 PUSH1 0x0 JUMPDEST DUP4 DUP2 LT ISZERO PUSH2 0x2E7 JUMPI DUP1 DUP3 ADD MLOAD DUP2 DUP5 ADD MSTORE PUSH1 0x20 DUP2 ADD SWAP1 POP PUSH2 0x2CC JUMP JUMPDEST POP POP POP POP SWAP1 POP SWAP1 DUP2 ADD SWAP1 PUSH1 0x1F AND DUP1 ISZERO PUSH2 0x314 JUMPI DUP1 DUP3 SUB DUP1 MLOAD PUSH1 0x1 DUP4 PUSH1 0x20 SUB PUSH2 0x100 EXP SUB NOT AND DUP2 MSTORE PUSH1 0x20 ADD SWAP2 POP JUMPDEST POP SWAP3 POP POP POP PUSH1 0x40 MLOAD DUP1 SWAP2 SUB SWAP1 RETURN JUMPDEST CALLVALUE DUP1 ISZERO PUSH2 0x32E JUMPI PUSH1 0x0 DUP1 REVERT JUMPDEST POP PUSH2 0x35E PUSH1 0x4 DUP1 CALLDATASIZE SUB PUSH1 0x20 DUP2 LT ISZERO PUSH2 0x345 JUMPI PUSH1 0x0 DUP1 REVERT JUMPDEST DUP2 ADD SWAP1 DUP1 DUP1 CALLDATALOAD PUSH1 0xFF AND SWAP1 PUSH1 0x20 ADD SWAP1 SWAP3 SWAP2 SWAP1 POP POP POP PUSH2 0xE7A JUMP JUMPDEST STOP JUMPDEST CALLVALUE DUP1 ISZERO PUSH2 0x36C JUMPI PUSH1 0x0 DUP1 REVERT JUMPDEST POP PUSH2 0x3AF PUSH1 0x4 DUP1 CALLDATASIZE SUB PUSH1 0x20 DUP2 LT ISZERO PUSH2 0x383 JUMPI PUSH1 0x0 DUP1 REVERT JUMPDEST DUP2 ADD SWAP1 DUP1 DUP1 CALLDATALOAD PUSH20 0xFFFFFFFFFFFFFFFFFFFFFFFFFFFFFFFFFFFFFFFF AND SWAP1 PUSH1 0x20 ADD SWAP1 SWAP3 SWAP2 SWAP1 POP POP POP PUSH2 0xFD9 JUMP JUMPDEST PUSH1 0x40 MLOAD DUP1 DUP4 ISZERO ISZERO DUP2 MSTORE PUSH1 0x20 ADD DUP3 DUP2 MSTORE PUSH1 0x20 ADD SWAP3 POP POP POP PUSH1 0x40 MLOAD DUP1 SWAP2 SUB SWAP1 RETURN JUMPDEST CALLVALUE DUP1 ISZERO PUSH2 0x3DA JUMPI PUSH1 0x0 DUP1 REVERT JUMPDEST POP PUSH2 0x3E3 PUSH2 0x115C JUMP JUMPDEST PUSH1 0x40 MLOAD DUP1 DUP3 PUSH20 0xFFFFFFFFFFFFFFFFFFFFFFFFFFFFFFFFFFFFFFFF AND DUP2 MSTORE PUSH1 0x20 ADD SWAP2 POP POP PUSH1 0x40 MLOAD DUP1 SWAP2 SUB SWAP1 RETURN JUMPDEST CALLVALUE DUP1 ISZERO PUSH2 0x41B JUMPI PUSH1 0x0 DUP1 REVERT JUMPDEST POP PUSH2 0x424 PUSH2 0x1182 JUMP JUMPDEST PUSH1 0x40 MLOAD DUP1 DUP3 DUP2 MSTORE PUSH1 0x20 ADD SWAP2 POP POP PUSH1 0x40 MLOAD DUP1 SWAP2 SUB SWAP1 RETURN JUMPDEST CALLVALUE DUP1 ISZERO PUSH2 0x446 JUMPI PUSH1 0x0 DUP1 REVERT JUMPDEST POP PUSH2 0x473 PUSH1 0x4 DUP1 CALLDATASIZE SUB PUSH1 0x20 DUP2 LT ISZERO PUSH2 0x45D JUMPI PUSH1 0x0 DUP1 REVERT JUMPDEST DUP2 ADD SWAP1 DUP1 DUP1 CALLDATALOAD SWAP1 PUSH1 0x20 ADD SWAP1 SWAP3 SWAP2 SWAP1 POP POP POP PUSH2 0x1188 JUMP JUMPDEST PUSH1 0x40 MLOAD DUP1 DUP3 PUSH20 0xFFFFFFFFFFFFFFFFFFFFFFFFFFFFFFFFFFFFFFFF AND DUP2 MSTORE PUSH1 0x20 ADD SWAP2 POP POP PUSH1 0x40 MLOAD DUP1 SWAP2 SUB SWAP1 RETURN JUMPDEST CALLVALUE DUP1 ISZERO PUSH2 0x4AB JUMPI PUSH1 0x0 DUP1 REVERT JUMPDEST POP PUSH2 0x4EE PUSH1 0x4 DUP1 CALLDATASIZE SUB PUSH1 0x20 DUP2 LT ISZERO PUSH2 0x4C2 JUMPI PUSH1 0x0 DUP1 REVERT JUMPDEST DUP2 ADD SWAP1 DUP1 DUP1 CALLDATALOAD PUSH20 0xFFFFFFFFFFFFFFFFFFFFFFFFFFFFFFFFFFFFFFFF AND SWAP1 PUSH1 0x20 ADD SWAP1 SWAP3 SWAP2 SWAP1 POP POP POP PUSH2 0x11C7 JUMP JUMPDEST STOP JUMPDEST CALLVALUE DUP1 ISZERO PUSH2 0x4FC JUMPI PUSH1 0x0 DUP1 REVERT JUMPDEST POP PUSH2 0x505 PUSH2 0x12D4 JUMP JUMPDEST PUSH1 0x40 MLOAD DUP1 DUP3 DUP2 MSTORE PUSH1 0x20 ADD SWAP2 POP POP PUSH1 0x40 MLOAD DUP1 SWAP2 SUB SWAP1 RETURN JUMPDEST CALLVALUE DUP1 ISZERO PUSH2 0x527 JUMPI PUSH1 0x0 DUP1 REVERT JUMPDEST POP PUSH2 0x55E PUSH1 0x4 DUP1 CALLDATASIZE SUB PUSH1 0x40 DUP2 LT ISZERO PUSH2 0x53E JUMPI PUSH1 0x0 DUP1 REVERT JUMPDEST DUP2 ADD SWAP1 DUP1 DUP1 CALLDATALOAD SWAP1 PUSH1 0x20 ADD SWAP1 SWAP3 SWAP2 SWAP1 DUP1 CALLDATALOAD SWAP1 PUSH1 0x20 ADD SWAP1 SWAP3 SWAP2 SWAP1 POP POP POP PUSH2 0x12DA JUMP JUMPDEST STOP JUMPDEST CALLVALUE DUP1 ISZERO PUSH2 0x56C JUMPI PUSH1 0x0 DUP1 REVERT JUMPDEST POP PUSH2 0x59C PUSH1 0x4 DUP1 CALLDATASIZE SUB PUSH1 0x20 DUP2 LT ISZERO PUSH2 0x583 JUMPI PUSH1 0x0 DUP1 REVERT JUMPDEST DUP2 ADD SWAP1 DUP1 DUP1 CALLDATALOAD PUSH1 0xFF AND SWAP1 PUSH1 0x20 ADD SWAP1 SWAP3 SWAP2 SWAP1 POP POP POP PUSH2 0x1428 JUMP JUMPDEST STOP JUMPDEST PUSH2 0x5A6 PUSH2 0x14CD JUMP JUMPDEST STOP JUMPDEST CALLVALUE DUP1 ISZERO PUSH2 0x5B4 JUMPI PUSH1 0x0 DUP1 REVERT JUMPDEST POP PUSH2 0x5BD PUSH2 0x15F5 JUMP JUMPDEST PUSH1 0x40 MLOAD DUP1 DUP3 PUSH20 0xFFFFFFFFFFFFFFFFFFFFFFFFFFFFFFFFFFFFFFFF AND DUP2 MSTORE PUSH1 0x20 ADD SWAP2 POP POP PUSH1 0x40 MLOAD DUP1 SWAP2 SUB SWAP1 RETURN JUMPDEST CALLVALUE DUP1 ISZERO PUSH2 0x5F5 JUMPI PUSH1 0x0 DUP1 REVERT JUMPDEST POP PUSH2 0x5FE PUSH2 0x161B JUMP JUMPDEST STOP JUMPDEST CALLVALUE DUP1 ISZERO PUSH2 0x60C JUMPI PUSH1 0x0 DUP1 REVERT JUMPDEST POP PUSH2 0x64F PUSH1 0x4 DUP1 CALLDATASIZE SUB PUSH1 0x20 DUP2 LT ISZERO PUSH2 0x623 JUMPI PUSH1 0x0 DUP1 REVERT JUMPDEST DUP2 ADD SWAP1 DUP1 DUP1 CALLDATALOAD PUSH20 0xFFFFFFFFFFFFFFFFFFFFFFFFFFFFFFFFFFFFFFFF AND SWAP1 PUSH1 0x20 ADD SWAP1 SWAP3 SWAP2 SWAP1 POP POP POP PUSH2 0x17C9 JUMP JUMPDEST PUSH1 0x40 MLOAD DUP1 DUP3 DUP2 MSTORE PUSH1 0x20 ADD SWAP2 POP POP PUSH1 0x40 MLOAD DUP1 SWAP2 SUB SWAP1 RETURN JUMPDEST CALLVALUE DUP1 ISZERO PUSH2 0x671 JUMPI PUSH1 0x0 DUP1 REVERT JUMPDEST POP PUSH2 0x6B4 PUSH1 0x4 DUP1 CALLDATASIZE SUB PUSH1 0x20 DUP2 LT ISZERO PUSH2 0x688 JUMPI PUSH1 0x0 DUP1 REVERT JUMPDEST DUP2 ADD SWAP1 DUP1 DUP1 CALLDATALOAD PUSH20 0xFFFFFFFFFFFFFFFFFFFFFFFFFFFFFFFFFFFFFFFF AND SWAP1 PUSH1 0x20 ADD SWAP1 SWAP3 SWAP2 SWAP1 POP POP POP PUSH2 0x17E1 JUMP JUMPDEST PUSH1 0x40 MLOAD DUP1 DUP3 DUP2 MSTORE PUSH1 0x20 ADD SWAP2 POP POP PUSH1 0x40 MLOAD DUP1 SWAP2 SUB SWAP1 RETURN JUMPDEST CALLVALUE DUP1 ISZERO PUSH2 0x6D6 JUMPI PUSH1 0x0 DUP1 REVERT JUMPDEST POP PUSH2 0x719 PUSH1 0x4 DUP1 CALLDATASIZE SUB PUSH1 0x20 DUP2 LT ISZERO PUSH2 0x6ED JUMPI PUSH1 0x0 DUP1 REVERT JUMPDEST DUP2 ADD SWAP1 DUP1 DUP1 CALLDATALOAD PUSH20 0xFFFFFFFFFFFFFFFFFFFFFFFFFFFFFFFFFFFFFFFF AND SWAP1 PUSH1 0x20 ADD SWAP1 SWAP3 SWAP2 SWAP1 POP POP POP PUSH2 0x17F9 JUMP JUMPDEST STOP JUMPDEST PUSH2 0x74A PUSH1 0x4 DUP1 CALLDATASIZE SUB PUSH1 0x20 DUP2 LT ISZERO PUSH2 0x731 JUMPI PUSH1 0x0 DUP1 REVERT JUMPDEST DUP2 ADD SWAP1 DUP1 DUP1 CALLDATALOAD PUSH1 0xFF AND SWAP1 PUSH1 0x20 ADD SWAP1 SWAP3 SWAP2 SWAP1 POP POP POP PUSH2 0x19DC JUMP JUMPDEST STOP JUMPDEST CALLVALUE DUP1 ISZERO PUSH2 0x758 JUMPI PUSH1 0x0 DUP1 REVERT JUMPDEST POP PUSH2 0x79B PUSH1 0x4 DUP1 CALLDATASIZE SUB PUSH1 0x20 DUP2 LT ISZERO PUSH2 0x76F JUMPI PUSH1 0x0 DUP1 REVERT JUMPDEST DUP2 ADD SWAP1 DUP1 DUP1 CALLDATALOAD PUSH20 0xFFFFFFFFFFFFFFFFFFFFFFFFFFFFFFFFFFFFFFFF AND SWAP1 PUSH1 0x20 ADD SWAP1 SWAP3 SWAP2 SWAP1 POP POP POP PUSH2 0x20BA JUMP JUMPDEST PUSH1 0x40 MLOAD DUP1 DUP3 DUP2 MSTORE PUSH1 0x20 ADD SWAP2 POP POP PUSH1 0x40 MLOAD DUP1 SWAP2 SUB SWAP1 RETURN JUMPDEST CALLVALUE DUP1 ISZERO PUSH2 0x7BD JUMPI PUSH1 0x0 DUP1 REVERT JUMPDEST POP PUSH2 0x7C6 PUSH2 0x20D2 JUMP JUMPDEST PUSH1 0x40 MLOAD DUP1 DUP3 DUP2 MSTORE PUSH1 0x20 ADD SWAP2 POP POP PUSH1 0x40 MLOAD DUP1 SWAP2 SUB SWAP1 RETURN JUMPDEST CALLVALUE DUP1 ISZERO PUSH2 0x7E8 JUMPI PUSH1 0x0 DUP1 REVERT JUMPDEST POP PUSH2 0x7F1 PUSH2 0x20D8 JUMP JUMPDEST PUSH1 0x40 MLOAD DUP1 DUP3 DUP2 MSTORE PUSH1 0x20 ADD SWAP2 POP POP PUSH1 0x40 MLOAD DUP1 SWAP2 SUB SWAP1 RETURN JUMPDEST CALLVALUE DUP1 ISZERO PUSH2 0x813 JUMPI PUSH1 0x0 DUP1 REVERT JUMPDEST POP PUSH2 0x81C PUSH2 0x20DE JUMP JUMPDEST PUSH1 0x40 MLOAD DUP1 DUP3 PUSH1 0xFF AND DUP2 MSTORE PUSH1 0x20 ADD SWAP2 POP POP PUSH1 0x40 MLOAD DUP1 SWAP2 SUB SWAP1 RETURN JUMPDEST CALLVALUE DUP1 ISZERO PUSH2 0x841 JUMPI PUSH1 0x0 DUP1 REVERT JUMPDEST POP PUSH2 0x84A PUSH2 0x20F1 JUMP JUMPDEST PUSH1 0x40 MLOAD DUP1 DUP1 PUSH1 0x20 ADD DUP3 DUP2 SUB DUP3 MSTORE DUP4 DUP2 DUP2 MLOAD DUP2 MSTORE PUSH1 0x20 ADD SWAP2 POP DUP1 MLOAD SWAP1 PUSH1 0x20 ADD SWAP1 DUP1 DUP4 DUP4 PUSH1 0x0 JUMPDEST DUP4 DUP2 LT ISZERO PUSH2 0x88A JUMPI DUP1 DUP3 ADD MLOAD DUP2 DUP5 ADD MSTORE PUSH1 0x20 DUP2 ADD SWAP1 POP PUSH2 0x86F JUMP JUMPDEST POP POP POP POP SWAP1 POP SWAP1 DUP2 ADD SWAP1 PUSH1 0x1F AND DUP1 ISZERO PUSH2 0x8B7 JUMPI DUP1 DUP3 SUB DUP1 MLOAD PUSH1 0x1 DUP4 PUSH1 0x20 SUB PUSH2 0x100 EXP SUB NOT AND DUP2 MSTORE PUSH1 0x20 ADD SWAP2 POP JUMPDEST POP SWAP3 POP POP POP PUSH1 0x40 MLOAD DUP1 SWAP2 SUB SWAP1 RETURN JUMPDEST CALLVALUE DUP1 ISZERO PUSH2 0x8D1 JUMPI PUSH1 0x0 DUP1 REVERT JUMPDEST POP PUSH2 0x8DA PUSH2 0x218F JUMP JUMPDEST PUSH1 0x40 MLOAD DUP1 DUP3 DUP2 MSTORE PUSH1 0x20 ADD SWAP2 POP POP PUSH1 0x40 MLOAD DUP1 SWAP2 SUB SWAP1 RETURN JUMPDEST CALLVALUE DUP1 ISZERO PUSH2 0x8FC JUMPI PUSH1 0x0 DUP1 REVERT JUMPDEST POP PUSH2 0x905 PUSH2 0x2195 JUMP JUMPDEST PUSH1 0x40 MLOAD DUP1 DUP3 PUSH1 0xFF AND DUP2 MSTORE PUSH1 0x20 ADD SWAP2 POP POP PUSH1 0x40 MLOAD DUP1 SWAP2 SUB SWAP1 RETURN JUMPDEST CALLVALUE DUP1 ISZERO PUSH2 0x92A JUMPI PUSH1 0x0 DUP1 REVERT JUMPDEST POP PUSH2 0x933 PUSH2 0x21A8 JUMP JUMPDEST PUSH1 0x40 MLOAD DUP1 DUP3 DUP2 MSTORE PUSH1 0x20 ADD SWAP2 POP POP PUSH1 0x40 MLOAD DUP1 SWAP2 SUB SWAP1 RETURN JUMPDEST CALLVALUE DUP1 ISZERO PUSH2 0x955 JUMPI PUSH1 0x0 DUP1 REVERT JUMPDEST POP PUSH2 0x982 PUSH1 0x4 DUP1 CALLDATASIZE SUB PUSH1 0x20 DUP2 LT ISZERO PUSH2 0x96C JUMPI PUSH1 0x0 DUP1 REVERT JUMPDEST DUP2 ADD SWAP1 DUP1 DUP1 CALLDATALOAD SWAP1 PUSH1 0x20 ADD SWAP1 SWAP3 SWAP2 SWAP1 POP POP POP PUSH2 0x21AE JUMP JUMPDEST STOP JUMPDEST CALLVALUE DUP1 ISZERO PUSH2 0x990 JUMPI PUSH1 0x0 DUP1 REVERT JUMPDEST POP PUSH2 0x999 PUSH2 0x224B JUMP JUMPDEST PUSH1 0x40 MLOAD DUP1 DUP3 DUP2 MSTORE PUSH1 0x20 ADD SWAP2 POP POP PUSH1 0x40 MLOAD DUP1 SWAP2 SUB SWAP1 RETURN JUMPDEST CALLVALUE DUP1 ISZERO PUSH2 0x9BB JUMPI PUSH1 0x0 DUP1 REVERT JUMPDEST POP PUSH2 0xA08 PUSH1 0x4 DUP1 CALLDATASIZE SUB PUSH1 0x40 DUP2 LT ISZERO PUSH2 0x9D2 JUMPI PUSH1 0x0 DUP1 REVERT JUMPDEST DUP2 ADD SWAP1 DUP1 DUP1 CALLDATALOAD PUSH20 0xFFFFFFFFFFFFFFFFFFFFFFFFFFFFFFFFFFFFFFFF AND SWAP1 PUSH1 0x20 ADD SWAP1 SWAP3 SWAP2 SWAP1 DUP1 CALLDATALOAD SWAP1 PUSH1 0x20 ADD SWAP1 SWAP3 SWAP2 SWAP1 POP POP POP PUSH2 0x2251 JUMP JUMPDEST PUSH1 0x40 MLOAD DUP1 DUP3 ISZERO ISZERO DUP2 MSTORE PUSH1 0x20 ADD SWAP2 POP POP PUSH1 0x40 MLOAD DUP1 SWAP2 SUB SWAP1 RETURN JUMPDEST CALLVALUE DUP1 ISZERO PUSH2 0xA2C JUMPI PUSH1 0x0 DUP1 REVERT JUMPDEST POP PUSH2 0xA35 PUSH2 0x23C0 JUMP JUMPDEST PUSH1 0x40 MLOAD DUP1 DUP3 PUSH20 0xFFFFFFFFFFFFFFFFFFFFFFFFFFFFFFFFFFFFFFFF AND DUP2 MSTORE PUSH1 0x20 ADD SWAP2 POP POP PUSH1 0x40 MLOAD DUP1 SWAP2 SUB SWAP1 RETURN JUMPDEST CALLVALUE DUP1 ISZERO PUSH2 0xA6D JUMPI PUSH1 0x0 DUP1 REVERT JUMPDEST POP PUSH2 0xAB0 PUSH1 0x4 DUP1 CALLDATASIZE SUB PUSH1 0x20 DUP2 LT ISZERO PUSH2 0xA84 JUMPI PUSH1 0x0 DUP1 REVERT JUMPDEST DUP2 ADD SWAP1 DUP1 DUP1 CALLDATALOAD PUSH20 0xFFFFFFFFFFFFFFFFFFFFFFFFFFFFFFFFFFFFFFFF AND SWAP1 PUSH1 0x20 ADD SWAP1 SWAP3 SWAP2 SWAP1 POP POP POP PUSH2 0x23E6 JUMP JUMPDEST PUSH1 0x40 MLOAD DUP1 DUP3 DUP2 MSTORE PUSH1 0x20 ADD SWAP2 POP POP PUSH1 0x40 MLOAD DUP1 SWAP2 SUB SWAP1 RETURN JUMPDEST CALLVALUE DUP1 ISZERO PUSH2 0xAD2 JUMPI PUSH1 0x0 DUP1 REVERT JUMPDEST POP PUSH2 0xB02 PUSH1 0x4 DUP1 CALLDATASIZE SUB PUSH1 0x20 DUP2 LT ISZERO PUSH2 0xAE9 JUMPI PUSH1 0x0 DUP1 REVERT JUMPDEST DUP2 ADD SWAP1 DUP1 DUP1 CALLDATALOAD PUSH1 0xFF AND SWAP1 PUSH1 0x20 ADD SWAP1 SWAP3 SWAP2 SWAP1 POP POP POP PUSH2 0x242F JUMP JUMPDEST STOP JUMPDEST CALLVALUE DUP1 ISZERO PUSH2 0xB10 JUMPI PUSH1 0x0 DUP1 REVERT JUMPDEST POP PUSH2 0xB7D PUSH1 0x4 DUP1 CALLDATASIZE SUB PUSH1 0x60 DUP2 LT ISZERO PUSH2 0xB27 JUMPI PUSH1 0x0 DUP1 REVERT JUMPDEST DUP2 ADD SWAP1 DUP1 DUP1 CALLDATALOAD PUSH20 0xFFFFFFFFFFFFFFFFFFFFFFFFFFFFFFFFFFFFFFFF AND SWAP1 PUSH1 0x20 ADD SWAP1 SWAP3 SWAP2 SWAP1 DUP1 CALLDATALOAD PUSH20 0xFFFFFFFFFFFFFFFFFFFFFFFFFFFFFFFFFFFFFFFF AND SWAP1 PUSH1 0x20 ADD SWAP1 SWAP3 SWAP2 SWAP1 DUP1 CALLDATALOAD SWAP1 PUSH1 0x20 ADD SWAP1 SWAP3 SWAP2 SWAP1 POP POP POP PUSH2 0x254D JUMP JUMPDEST PUSH1 0x40 MLOAD DUP1 DUP3 ISZERO ISZERO DUP2 MSTORE PUSH1 0x20 ADD SWAP2 POP POP PUSH1 0x40 MLOAD DUP1 SWAP2 SUB SWAP1 RETURN JUMPDEST CALLVALUE DUP1 ISZERO PUSH2 0xBA1 JUMPI PUSH1 0x0 DUP1 REVERT JUMPDEST POP PUSH2 0xBE4 PUSH1 0x4 DUP1 CALLDATASIZE SUB PUSH1 0x20 DUP2 LT ISZERO PUSH2 0xBB8 JUMPI PUSH1 0x0 DUP1 REVERT JUMPDEST DUP2 ADD SWAP1 DUP1 DUP1 CALLDATALOAD PUSH20 0xFFFFFFFFFFFFFFFFFFFFFFFFFFFFFFFFFFFFFFFF AND SWAP1 PUSH1 0x20 ADD SWAP1 SWAP3 SWAP2 SWAP1 POP POP POP PUSH2 0x27E5 JUMP JUMPDEST PUSH1 0x40 MLOAD DUP1 DUP3 DUP2 MSTORE PUSH1 0x20 ADD SWAP2 POP POP PUSH1 0x40 MLOAD DUP1 SWAP2 SUB SWAP1 RETURN JUMPDEST CALLVALUE DUP1 ISZERO PUSH2 0xC06 JUMPI PUSH1 0x0 DUP1 REVERT JUMPDEST POP PUSH2 0xC49 PUSH1 0x4 DUP1 CALLDATASIZE SUB PUSH1 0x20 DUP2 LT ISZERO PUSH2 0xC1D JUMPI PUSH1 0x0 DUP1 REVERT JUMPDEST DUP2 ADD SWAP1 DUP1 DUP1 CALLDATALOAD PUSH20 0xFFFFFFFFFFFFFFFFFFFFFFFFFFFFFFFFFFFFFFFF AND SWAP1 PUSH1 0x20 ADD SWAP1 SWAP3 SWAP2 SWAP1 POP POP POP PUSH2 0x27FD JUMP JUMPDEST PUSH1 0x40 MLOAD DUP1 DUP3 DUP2 MSTORE PUSH1 0x20 ADD SWAP2 POP POP PUSH1 0x40 MLOAD DUP1 SWAP2 SUB SWAP1 RETURN JUMPDEST CALLVALUE DUP1 ISZERO PUSH2 0xC6B JUMPI PUSH1 0x0 DUP1 REVERT JUMPDEST POP PUSH2 0xC74 PUSH2 0x2815 JUMP JUMPDEST STOP JUMPDEST CALLVALUE DUP1 ISZERO PUSH2 0xC82 JUMPI PUSH1 0x0 DUP1 REVERT JUMPDEST POP PUSH2 0xCC5 PUSH1 0x4 DUP1 CALLDATASIZE SUB PUSH1 0x20 DUP2 LT ISZERO PUSH2 0xC99 JUMPI PUSH1 0x0 DUP1 REVERT JUMPDEST DUP2 ADD SWAP1 DUP1 DUP1 CALLDATALOAD PUSH20 0xFFFFFFFFFFFFFFFFFFFFFFFFFFFFFFFFFFFFFFFF AND SWAP1 PUSH1 0x20 ADD SWAP1 SWAP3 SWAP2 SWAP1 POP POP POP PUSH2 0x2A1F JUMP JUMPDEST STOP JUMPDEST CALLVALUE DUP1 ISZERO PUSH2 0xCD3 JUMPI PUSH1 0x0 DUP1 REVERT JUMPDEST POP PUSH2 0xD16 PUSH1 0x4 DUP1 CALLDATASIZE SUB PUSH1 0x20 DUP2 LT ISZERO PUSH2 0xCEA JUMPI PUSH1 0x0 DUP1 REVERT JUMPDEST DUP2 ADD SWAP1 DUP1 DUP1 CALLDATALOAD PUSH20 0xFFFFFFFFFFFFFFFFFFFFFFFFFFFFFFFFFFFFFFFF AND SWAP1 PUSH1 0x20 ADD SWAP1 SWAP3 SWAP2 SWAP1 POP POP POP PUSH2 0x2C04 JUMP JUMPDEST PUSH1 0x40 MLOAD DUP1 DUP4 ISZERO ISZERO DUP2 MSTORE PUSH1 0x20 ADD DUP3 DUP2 MSTORE PUSH1 0x20 ADD SWAP3 POP POP POP PUSH1 0x40 MLOAD DUP1 SWAP2 SUB SWAP1 RETURN JUMPDEST PUSH2 0xD81 PUSH1 0x4 DUP1 CALLDATASIZE SUB PUSH1 0x40 DUP2 LT ISZERO PUSH2 0xD4B JUMPI PUSH1 0x0 DUP1 REVERT JUMPDEST DUP2 ADD SWAP1 DUP1 DUP1 CALLDATALOAD SWAP1 PUSH1 0x20 ADD SWAP1 SWAP3 SWAP2 SWAP1 DUP1 CALLDATALOAD PUSH20 0xFFFFFFFFFFFFFFFFFFFFFFFFFFFFFFFFFFFFFFFF AND SWAP1 PUSH1 0x20 ADD SWAP1 SWAP3 SWAP2 SWAP1 POP POP POP PUSH2 0x2CA8 JUMP JUMPDEST STOP JUMPDEST CALLVALUE DUP1 ISZERO PUSH2 0xD8F JUMPI PUSH1 0x0 DUP1 REVERT JUMPDEST POP PUSH2 0xD98 PUSH2 0x2FBB JUMP JUMPDEST PUSH1 0x40 MLOAD DUP1 DUP3 PUSH1 0xFF AND DUP2 MSTORE PUSH1 0x20 ADD SWAP2 POP POP PUSH1 0x40 MLOAD DUP1 SWAP2 SUB SWAP1 RETURN JUMPDEST CALLVALUE DUP1 ISZERO PUSH2 0xDBD JUMPI PUSH1 0x0 DUP1 REVERT JUMPDEST POP PUSH2 0xDC6 PUSH2 0x2FCC JUMP JUMPDEST PUSH1 0x40 MLOAD DUP1 DUP3 DUP2 MSTORE PUSH1 0x20 ADD SWAP2 POP POP PUSH1 0x40 MLOAD DUP1 SWAP2 SUB SWAP1 RETURN JUMPDEST PUSH1 0xA DUP1 SLOAD PUSH1 0x1 DUP2 PUSH1 0x1 AND ISZERO PUSH2 0x100 MUL SUB AND PUSH1 0x2 SWAP1 DIV DUP1 PUSH1 0x1F ADD PUSH1 0x20 DUP1 SWAP2 DIV MUL PUSH1 0x20 ADD PUSH1 0x40 MLOAD SWAP1 DUP2 ADD PUSH1 0x40 MSTORE DUP1 SWAP3 SWAP2 SWAP1 DUP2 DUP2 MSTORE PUSH1 0x20 ADD DUP3 DUP1 SLOAD PUSH1 0x1 DUP2 PUSH1 0x1 AND ISZERO PUSH2 0x100 MUL SUB AND PUSH1 0x2 SWAP1 DIV DUP1 ISZERO PUSH2 0xE72 JUMPI DUP1 PUSH1 0x1F LT PUSH2 0xE47 JUMPI PUSH2 0x100 DUP1 DUP4 SLOAD DIV MUL DUP4 MSTORE SWAP2 PUSH1 0x20 ADD SWAP2 PUSH2 0xE72 JUMP JUMPDEST DUP3 ADD SWAP2 SWAP1 PUSH1 0x0 MSTORE PUSH1 0x20 PUSH1 0x0 KECCAK256 SWAP1 JUMPDEST DUP2 SLOAD DUP2 MSTORE SWAP1 PUSH1 0x1 ADD SWAP1 PUSH1 0x20 ADD DUP1 DUP4 GT PUSH2 0xE55 JUMPI DUP3 SWAP1 SUB PUSH1 0x1F AND DUP3 ADD SWAP2 JUMPDEST POP POP POP POP POP DUP2 JUMP JUMPDEST PUSH1 0xC PUSH1 0x0 SWAP1 SLOAD SWAP1 PUSH2 0x100 EXP SWAP1 DIV PUSH20 0xFFFFFFFFFFFFFFFFFFFFFFFFFFFFFFFFFFFFFFFF AND PUSH20 0xFFFFFFFFFFFFFFFFFFFFFFFFFFFFFFFFFFFFFFFF AND CALLER PUSH20 0xFFFFFFFFFFFFFFFFFFFFFFFFFFFFFFFFFFFFFFFF AND EQ PUSH2 0xED4 JUMPI PUSH1 0x0 DUP1 REVERT JUMPDEST PUSH1 0x0 DUP2 PUSH1 0xFF AND GT PUSH2 0xF4D JUMPI PUSH1 0x40 MLOAD PUSH32 0x8C379A000000000000000000000000000000000000000000000000000000000 DUP2 MSTORE PUSH1 0x4 ADD DUP1 DUP1 PUSH1 0x20 ADD DUP3 DUP2 SUB DUP3 MSTORE PUSH1 0x1C DUP2 MSTORE PUSH1 0x20 ADD DUP1 PUSH32 0x506C6561736520656E74657220612056616C75652061626F7665203000000000 DUP2 MSTORE POP PUSH1 0x20 ADD SWAP2 POP POP PUSH1 0x40 MLOAD DUP1 SWAP2 SUB SWAP1 REVERT JUMPDEST DUP1 PUSH1 0x0 DUP1 PUSH2 0x100 EXP DUP2 SLOAD DUP2 PUSH1 0xFF MUL NOT AND SWAP1 DUP4 PUSH1 0xFF AND MUL OR SWAP1 SSTORE POP PUSH1 0x0 DUP1 SLOAD SWAP1 PUSH2 0x100 EXP SWAP1 DIV PUSH1 0xFF AND PUSH1 0xFF AND PUSH3 0x278D00 DUP2 PUSH2 0xF83 JUMPI INVALID JUMPDEST DIV PUSH3 0xFFFFFF AND PUSH1 0x6 DUP2 SWAP1 SSTORE POP PUSH32 0x51277831826FDBF3C68EE1E0A4294D6242D8D6B8115023B881E4506C52426F17 PUSH1 0x0 DUP1 SLOAD SWAP1 PUSH2 0x100 EXP SWAP1 DIV PUSH1 0xFF AND PUSH1 0x40 MLOAD DUP1 DUP3 PUSH1 0xFF AND DUP2 MSTORE PUSH1 0x20 ADD SWAP2 POP POP PUSH1 0x40 MLOAD DUP1 SWAP2 SUB SWAP1 LOG1 POP JUMP JUMPDEST PUSH1 0x0 DUP1 PUSH1 0x13 PUSH1 0x0 PUSH1 0xE PUSH1 0x0 SWAP1 SLOAD SWAP1 PUSH2 0x100 EXP SWAP1 DIV PUSH20 0xFFFFFFFFFFFFFFFFFFFFFFFFFFFFFFFFFFFFFFFF AND PUSH20 0xFFFFFFFFFFFFFFFFFFFFFFFFFFFFFFFFFFFFFFFF AND PUSH20 0xFFFFFFFFFFFFFFFFFFFFFFFFFFFFFFFFFFFFFFFF AND DUP2 MSTORE PUSH1 0x20 ADD SWAP1 DUP2 MSTORE PUSH1 0x20 ADD PUSH1 0x0 KECCAK256 SLOAD PUSH1 0x8 SLOAD EQ PUSH2 0x1097 JUMPI PUSH1 0x40 MLOAD PUSH32 0x8C379A000000000000000000000000000000000000000000000000000000000 DUP2 MSTORE PUSH1 0x4 ADD DUP1 DUP1 PUSH1 0x20 ADD DUP3 DUP2 SUB DUP3 MSTORE PUSH1 0x2D DUP2 MSTORE PUSH1 0x20 ADD DUP1 PUSH2 0x2FD3 PUSH1 0x2D SWAP2 CODECOPY PUSH1 0x40 ADD SWAP2 POP POP PUSH1 0x40 MLOAD DUP1 SWAP2 SUB SWAP1 REVERT JUMPDEST NUMBER PUSH1 0x13 PUSH1 0x0 DUP6 PUSH20 0xFFFFFFFFFFFFFFFFFFFFFFFFFFFFFFFFFFFFFFFF AND PUSH20 0xFFFFFFFFFFFFFFFFFFFFFFFFFFFFFFFFFFFFFFFF AND DUP2 MSTORE PUSH1 0x20 ADD SWAP1 DUP2 MSTORE PUSH1 0x20 ADD PUSH1 0x0 KECCAK256 SLOAD GT ISZERO PUSH2 0x114F JUMPI PUSH1 0x0 PUSH3 0x15180 PUSH1 0x0 DUP1 SLOAD SWAP1 PUSH2 0x100 EXP SWAP1 DIV PUSH1 0xFF AND PUSH1 0xFF AND NUMBER PUSH1 0x13 PUSH1 0x0 DUP9 PUSH20 0xFFFFFFFFFFFFFFFFFFFFFFFFFFFFFFFFFFFFFFFF AND PUSH20 0xFFFFFFFFFFFFFFFFFFFFFFFFFFFFFFFFFFFFFFFF AND DUP2 MSTORE PUSH1 0x20 ADD SWAP1 DUP2 MSTORE PUSH1 0x20 ADD PUSH1 0x0 KECCAK256 SLOAD SUB MUL DUP2 PUSH2 0x113F JUMPI INVALID JUMPDEST DIV SWAP1 POP PUSH1 0x1 DUP2 SWAP3 POP SWAP3 POP POP PUSH2 0x1157 JUMP JUMPDEST PUSH1 0x0 DUP1 SWAP2 POP SWAP2 POP JUMPDEST SWAP2 POP SWAP2 JUMP JUMPDEST PUSH1 0xC PUSH1 0x0 SWAP1 SLOAD SWAP1 PUSH2 0x100 EXP SWAP1 DIV PUSH20 0xFFFFFFFFFFFFFFFFFFFFFFFFFFFFFFFFFFFFFFFF AND DUP2 JUMP JUMPDEST PUSH1 0x2 SLOAD DUP2 JUMP JUMPDEST PUSH1 0xF DUP2 DUP2 SLOAD DUP2 LT PUSH2 0x1198 JUMPI PUSH1 0x0 DUP1 REVERT JUMPDEST SWAP1 PUSH1 0x0 MSTORE PUSH1 0x20 PUSH1 0x0 KECCAK256 ADD PUSH1 0x0 SWAP2 POP SLOAD SWAP1 PUSH2 0x100 EXP SWAP1 DIV PUSH20 0xFFFFFFFFFFFFFFFFFFFFFFFFFFFFFFFFFFFFFFFF AND DUP2 JUMP JUMPDEST PUSH1 0xD PUSH1 0x0 SWAP1 SLOAD SWAP1 PUSH2 0x100 EXP SWAP1 DIV PUSH20 0xFFFFFFFFFFFFFFFFFFFFFFFFFFFFFFFFFFFFFFFF AND PUSH20 0xFFFFFFFFFFFFFFFFFFFFFFFFFFFFFFFFFFFFFFFF AND CALLER PUSH20 0xFFFFFFFFFFFFFFFFFFFFFFFFFFFFFFFFFFFFFFFF AND EQ PUSH2 0x1221 JUMPI PUSH1 0x0 DUP1 REVERT JUMPDEST DUP1 PUSH1 0xE PUSH1 0x0 PUSH2 0x100 EXP DUP2 SLOAD DUP2 PUSH20 0xFFFFFFFFFFFFFFFFFFFFFFFFFFFFFFFFFFFFFFFF MUL NOT AND SWAP1 DUP4 PUSH20 0xFFFFFFFFFFFFFFFFFFFFFFFFFFFFFFFFFFFFFFFF AND MUL OR SWAP1 SSTORE POP PUSH32 0xEEFC7205A767C82D33FCBBD6FF72253DA987FA9E4BC4A0FA6B973C3BADBB5878 PUSH1 0xE PUSH1 0x0 SWAP1 SLOAD SWAP1 PUSH2 0x100 EXP SWAP1 DIV PUSH20 0xFFFFFFFFFFFFFFFFFFFFFFFFFFFFFFFFFFFFFFFF AND PUSH1 0x40 MLOAD DUP1 DUP3 PUSH20 0xFFFFFFFFFFFFFFFFFFFFFFFFFFFFFFFFFFFFFFFF AND DUP2 MSTORE PUSH1 0x20 ADD SWAP2 POP POP PUSH1 0x40 MLOAD DUP1 SWAP2 SUB SWAP1 LOG1 POP JUMP JUMPDEST PUSH1 0x4 SLOAD DUP2 JUMP JUMPDEST PUSH1 0x0 PUSH2 0x12E5 CALLER PUSH2 0x2C04 JUMP JUMPDEST POP SWAP1 POP DUP1 PUSH2 0x12F2 JUMPI PUSH1 0x0 DUP1 REVERT JUMPDEST PUSH1 0x11 PUSH1 0x0 CALLER PUSH20 0xFFFFFFFFFFFFFFFFFFFFFFFFFFFFFFFFFFFFFFFF AND PUSH20 0xFFFFFFFFFFFFFFFFFFFFFFFFFFFFFFFFFFFFFFFF AND DUP2 MSTORE PUSH1 0x20 ADD SWAP1 DUP2 MSTORE PUSH1 0x20 ADD PUSH1 0x0 KECCAK256 SLOAD DUP4 GT ISZERO PUSH2 0x133E JUMPI PUSH1 0x0 DUP1 REVERT JUMPDEST DUP3 PUSH1 0x14 PUSH1 0x0 CALLER PUSH20 0xFFFFFFFFFFFFFFFFFFFFFFFFFFFFFFFFFFFFFFFF AND PUSH20 0xFFFFFFFFFFFFFFFFFFFFFFFFFFFFFFFFFFFFFFFF AND DUP2 MSTORE PUSH1 0x20 ADD SWAP1 DUP2 MSTORE PUSH1 0x20 ADD PUSH1 0x0 KECCAK256 DUP2 SWAP1 SSTORE POP DUP2 PUSH1 0x15 PUSH1 0x0 CALLER PUSH20 0xFFFFFFFFFFFFFFFFFFFFFFFFFFFFFFFFFFFFFFFF AND PUSH20 0xFFFFFFFFFFFFFFFFFFFFFFFFFFFFFFFFFFFFFFFF AND DUP2 MSTORE PUSH1 0x20 ADD SWAP1 DUP2 MSTORE PUSH1 0x20 ADD PUSH1 0x0 KECCAK256 DUP2 SWAP1 SSTORE POP PUSH32 0x8D14C92991DF2BD2ABD30417FE4D309C90C0C9516B16CF6C1FFBDCEAB2E3EC9D CALLER DUP5 DUP5 PUSH1 0x40 MLOAD DUP1 DUP5 PUSH20 0xFFFFFFFFFFFFFFFFFFFFFFFFFFFFFFFFFFFFFFFF AND DUP2 MSTORE PUSH1 0x20 ADD DUP4 DUP2 MSTORE PUSH1 0x20 ADD DUP3 DUP2 MSTORE PUSH1 0x20 ADD SWAP4 POP POP POP POP PUSH1 0x40 MLOAD DUP1 SWAP2 SUB SWAP1 LOG1 POP POP POP JUMP JUMPDEST PUSH1 0xD PUSH1 0x0 SWAP1 SLOAD SWAP1 PUSH2 0x100 EXP SWAP1 DIV PUSH20 0xFFFFFFFFFFFFFFFFFFFFFFFFFFFFFFFFFFFFFFFF AND PUSH20 0xFFFFFFFFFFFFFFFFFFFFFFFFFFFFFFFFFFFFFFFF AND CALLER PUSH20 0xFFFFFFFFFFFFFFFFFFFFFFFFFFFFFFFFFFFFFFFF AND EQ PUSH2 0x1482 JUMPI PUSH1 0x0 DUP1 REVERT JUMPDEST PUSH1 0x6 SLOAD DUP2 PUSH1 0xFF AND MUL PUSH1 0x1 DUP2 SWAP1 SSTORE POP PUSH32 0x71360850CDA8A5DE5050D1E5C516CECA328E4DCD2718C89035A82629AE950925 DUP2 PUSH1 0x40 MLOAD DUP1 DUP3 PUSH1 0xFF AND DUP2 MSTORE PUSH1 0x20 ADD SWAP2 POP POP PUSH1 0x40 MLOAD DUP1 SWAP2 SUB SWAP1 LOG1 POP JUMP JUMPDEST PUSH1 0x0 PUSH1 0x10 PUSH1 0x0 CALLER PUSH20 0xFFFFFFFFFFFFFFFFFFFFFFFFFFFFFFFFFFFFFFFF AND PUSH20 0xFFFFFFFFFFFFFFFFFFFFFFFFFFFFFFFFFFFFFFFF AND DUP2 MSTORE PUSH1 0x20 ADD SWAP1 DUP2 MSTORE PUSH1 0x20 ADD PUSH1 0x0 KECCAK256 SLOAD SWAP1 POP PUSH1 0x0 PUSH1 0x10 PUSH1 0x0 CALLER PUSH20 0xFFFFFFFFFFFFFFFFFFFFFFFFFFFFFFFFFFFFFFFF AND PUSH20 0xFFFFFFFFFFFFFFFFFFFFFFFFFFFFFFFFFFFFFFFF AND DUP2 MSTORE PUSH1 0x20 ADD SWAP1 DUP2 MSTORE PUSH1 0x20 ADD PUSH1 0x0 KECCAK256 DUP2 SWAP1 SSTORE POP CALLER PUSH20 0xFFFFFFFFFFFFFFFFFFFFFFFFFFFFFFFFFFFFFFFF AND PUSH2 0x8FC DUP3 SWAP1 DUP2 ISZERO MUL SWAP1 PUSH1 0x40 MLOAD PUSH1 0x0 PUSH1 0x40 MLOAD DUP1 DUP4 SUB DUP2 DUP6 DUP9 DUP9 CALL SWAP4 POP POP POP POP ISZERO DUP1 ISZERO PUSH2 0x159C JUMPI RETURNDATASIZE PUSH1 0x0 DUP1 RETURNDATACOPY RETURNDATASIZE PUSH1 0x0 REVERT JUMPDEST POP PUSH32 0x7FCF532C15F0A6DB0BD6D0E038BEA71D30D808C7D98CB3BF7268A95BF5081B65 CALLER DUP3 PUSH1 0x40 MLOAD DUP1 DUP4 PUSH20 0xFFFFFFFFFFFFFFFFFFFFFFFFFFFFFFFFFFFFFFFF AND DUP2 MSTORE PUSH1 0x20 ADD DUP3 DUP2 MSTORE PUSH1 0x20 ADD SWAP3 POP POP POP PUSH1 0x40 MLOAD DUP1 SWAP2 SUB SWAP1 LOG1 POP JUMP JUMPDEST PUSH1 0xD PUSH1 0x0 SWAP1 SLOAD SWAP1 PUSH2 0x100 EXP SWAP1 DIV PUSH20 0xFFFFFFFFFFFFFFFFFFFFFFFFFFFFFFFFFFFFFFFF AND DUP2 JUMP JUMPDEST PUSH1 0x2 DUP1 SLOAD DUP2 PUSH2 0x1626 JUMPI INVALID JUMPDEST DIV PUSH1 0x11 PUSH1 0x0 CALLER PUSH20 0xFFFFFFFFFFFFFFFFFFFFFFFFFFFFFFFFFFFFFFFF AND PUSH20 0xFFFFFFFFFFFFFFFFFFFFFFFFFFFFFFFFFFFFFFFF AND DUP2 MSTORE PUSH1 0x20 ADD SWAP1 DUP2 MSTORE PUSH1 0x20 ADD PUSH1 0x0 KECCAK256 SLOAD GT DUP1 ISZERO PUSH2 0x16C2 JUMPI POP PUSH1 0xD PUSH1 0x0 SWAP1 SLOAD SWAP1 PUSH2 0x100 EXP SWAP1 DIV PUSH20 0xFFFFFFFFFFFFFFFFFFFFFFFFFFFFFFFFFFFFFFFF AND PUSH20 0xFFFFFFFFFFFFFFFFFFFFFFFFFFFFFFFFFFFFFFFF AND CALLER PUSH20 0xFFFFFFFFFFFFFFFFFFFFFFFFFFFFFFFFFFFFFFFF AND EQ ISZERO JUMPDEST PUSH2 0x1717 JUMPI PUSH1 0x40 MLOAD PUSH32 0x8C379A000000000000000000000000000000000000000000000000000000000 DUP2 MSTORE PUSH1 0x4 ADD DUP1 DUP1 PUSH1 0x20 ADD DUP3 DUP2 SUB DUP3 MSTORE PUSH1 0x5D DUP2 MSTORE PUSH1 0x20 ADD DUP1 PUSH2 0x3000 PUSH1 0x5D SWAP2 CODECOPY PUSH1 0x60 ADD SWAP2 POP POP PUSH1 0x40 MLOAD DUP1 SWAP2 SUB SWAP1 REVERT JUMPDEST CALLER PUSH1 0xD PUSH1 0x0 PUSH2 0x100 EXP DUP2 SLOAD DUP2 PUSH20 0xFFFFFFFFFFFFFFFFFFFFFFFFFFFFFFFFFFFFFFFF MUL NOT AND SWAP1 DUP4 PUSH20 0xFFFFFFFFFFFFFFFFFFFFFFFFFFFFFFFFFFFFFFFF AND MUL OR SWAP1 SSTORE POP PUSH32 0xA0EFD61DA798BC54CF93315C74A19EFBB7F71B174337D216FFE4BBC761234CA1 PUSH1 0xD PUSH1 0x0 SWAP1 SLOAD SWAP1 PUSH2 0x100 EXP SWAP1 DIV PUSH20 0xFFFFFFFFFFFFFFFFFFFFFFFFFFFFFFFFFFFFFFFF AND PUSH1 0x40 MLOAD DUP1 DUP3 PUSH20 0xFFFFFFFFFFFFFFFFFFFFFFFFFFFFFFFFFFFFFFFF AND DUP2 MSTORE PUSH1 0x20 ADD SWAP2 POP POP PUSH1 0x40 MLOAD DUP1 SWAP2 SUB SWAP1 LOG1 JUMP JUMPDEST PUSH1 0x13 PUSH1 0x20 MSTORE DUP1 PUSH1 0x0 MSTORE PUSH1 0x40 PUSH1 0x0 KECCAK256 PUSH1 0x0 SWAP2 POP SWAP1 POP SLOAD DUP2 JUMP JUMPDEST PUSH1 0x15 PUSH1 0x20 MSTORE DUP1 PUSH1 0x0 MSTORE PUSH1 0x40 PUSH1 0x0 KECCAK256 PUSH1 0x0 SWAP2 POP SWAP1 POP SLOAD DUP2 JUMP JUMPDEST PUSH1 0xC PUSH1 0x0 SWAP1 SLOAD SWAP1 PUSH2 0x100 EXP SWAP1 DIV PUSH20 0xFFFFFFFFFFFFFFFFFFFFFFFFFFFFFFFFFFFFFFFF AND PUSH20 0xFFFFFFFFFFFFFFFFFFFFFFFFFFFFFFFFFFFFFFFF AND CALLER PUSH20 0xFFFFFFFFFFFFFFFFFFFFFFFFFFFFFFFFFFFFFFFF AND EQ PUSH2 0x1853 JUMPI PUSH1 0x0 DUP1 REVERT JUMPDEST PUSH1 0x0 DUP1 PUSH2 0x185F DUP4 PUSH2 0x2C04 JUMP JUMPDEST SWAP2 POP SWAP2 POP DUP2 ISZERO PUSH2 0x19D7 JUMPI PUSH1 0xF PUSH1 0x1 PUSH1 0xF DUP1 SLOAD SWAP1 POP SUB DUP2 SLOAD DUP2 LT PUSH2 0x187E JUMPI INVALID JUMPDEST SWAP1 PUSH1 0x0 MSTORE PUSH1 0x20 PUSH1 0x0 KECCAK256 ADD PUSH1 0x0 SWAP1 SLOAD SWAP1 PUSH2 0x100 EXP SWAP1 DIV PUSH20 0xFFFFFFFFFFFFFFFFFFFFFFFFFFFFFFFFFFFFFFFF AND PUSH1 0xF DUP3 DUP2 SLOAD DUP2 LT PUSH2 0x18B6 JUMPI INVALID JUMPDEST SWAP1 PUSH1 0x0 MSTORE PUSH1 0x20 PUSH1 0x0 KECCAK256 ADD PUSH1 0x0 PUSH2 0x100 EXP DUP2 SLOAD DUP2 PUSH20 0xFFFFFFFFFFFFFFFFFFFFFFFFFFFFFFFFFFFFFFFF MUL NOT AND SWAP1 DUP4 PUSH20 0xFFFFFFFFFFFFFFFFFFFFFFFFFFFFFFFFFFFFFFFF AND MUL OR SWAP1 SSTORE POP PUSH1 0xF DUP1 SLOAD DUP1 PUSH2 0x1909 JUMPI INVALID JUMPDEST PUSH1 0x1 SWAP1 SUB DUP2 DUP2 SWAP1 PUSH1 0x0 MSTORE PUSH1 0x20 PUSH1 0x0 KECCAK256 ADD PUSH1 0x0 PUSH2 0x100 EXP DUP2 SLOAD SWAP1 PUSH20 0xFFFFFFFFFFFFFFFFFFFFFFFFFFFFFFFFFFFFFFFF MUL NOT AND SWAP1 SSTORE SWAP1 SSTORE PUSH2 0x1988 DUP4 CALLER PUSH1 0x11 PUSH1 0x0 DUP8 PUSH20 0xFFFFFFFFFFFFFFFFFFFFFFFFFFFFFFFFFFFFFFFF AND PUSH20 0xFFFFFFFFFFFFFFFFFFFFFFFFFFFFFFFFFFFFFFFF AND DUP2 MSTORE PUSH1 0x20 ADD SWAP1 DUP2 MSTORE PUSH1 0x20 ADD PUSH1 0x0 KECCAK256 SLOAD PUSH2 0x254D JUMP JUMPDEST POP PUSH32 0xBE753D52A25516E4650AFC9ED346554A6DEAAFD77409FB97D4FFC95C8FE12477 DUP4 PUSH1 0x40 MLOAD DUP1 DUP3 PUSH20 0xFFFFFFFFFFFFFFFFFFFFFFFFFFFFFFFFFFFFFFFF AND DUP2 MSTORE PUSH1 0x20 ADD SWAP2 POP POP PUSH1 0x40 MLOAD DUP1 SWAP2 SUB SWAP1 LOG1 JUMPDEST POP POP POP JUMP JUMPDEST PUSH1 0x0 PUSH1 0x3 SLOAD CALLVALUE DUP2 PUSH2 0x19E9 JUMPI INVALID JUMPDEST MOD EQ PUSH2 0x19F4 JUMPI PUSH1 0x0 DUP1 REVERT JUMPDEST PUSH1 0xE PUSH1 0x0 SWAP1 SLOAD SWAP1 PUSH2 0x100 EXP SWAP1 DIV PUSH20 0xFFFFFFFFFFFFFFFFFFFFFFFFFFFFFFFFFFFFFFFF AND PUSH20 0xFFFFFFFFFFFFFFFFFFFFFFFFFFFFFFFFFFFFFFFF AND CALLER PUSH20 0xFFFFFFFFFFFFFFFFFFFFFFFFFFFFFFFFFFFFFFFF AND EQ PUSH2 0x1A4E JUMPI PUSH1 0x0 DUP1 REVERT JUMPDEST PUSH1 0x0 PUSH1 0x4 SLOAD DUP3 PUSH1 0xFF AND MUL SWAP1 POP PUSH1 0x0 PUSH1 0x6 SLOAD DUP4 PUSH1 0xFF AND MUL SWAP1 POP DUP2 CALLVALUE EQ DUP1 ISZERO PUSH2 0x1A7A JUMPI POP PUSH1 0x1 SLOAD NUMBER ADD DUP2 NUMBER ADD LT JUMPDEST PUSH2 0x1A83 JUMPI PUSH1 0x0 DUP1 REVERT JUMPDEST PUSH1 0x0 PUSH1 0x2 SWAP1 SLOAD SWAP1 PUSH2 0x100 EXP SWAP1 DIV PUSH1 0xFF AND PUSH1 0xFF AND PUSH1 0x2 SLOAD CALLVALUE DUP2 PUSH2 0x1AA1 JUMPI INVALID JUMPDEST DIV MUL PUSH1 0x9 DUP2 SWAP1 SSTORE POP PUSH1 0x9 SLOAD CALLVALUE SUB PUSH1 0x5 PUSH1 0x0 DUP3 DUP3 SLOAD ADD SWAP3 POP POP DUP2 SWAP1 SSTORE POP PUSH1 0x9 SLOAD PUSH1 0x10 PUSH1 0x0 PUSH1 0xC PUSH1 0x0 SWAP1 SLOAD SWAP1 PUSH2 0x100 EXP SWAP1 DIV PUSH20 0xFFFFFFFFFFFFFFFFFFFFFFFFFFFFFFFFFFFFFFFF AND PUSH20 0xFFFFFFFFFFFFFFFFFFFFFFFFFFFFFFFFFFFFFFFF AND PUSH20 0xFFFFFFFFFFFFFFFFFFFFFFFFFFFFFFFFFFFFFFFF AND DUP2 MSTORE PUSH1 0x20 ADD SWAP1 DUP2 MSTORE PUSH1 0x20 ADD PUSH1 0x0 KECCAK256 PUSH1 0x0 DUP3 DUP3 SLOAD ADD SWAP3 POP POP DUP2 SWAP1 SSTORE POP PUSH1 0x0 PUSH1 0x13 PUSH1 0x0 PUSH1 0xE PUSH1 0x0 SWAP1 SLOAD SWAP1 PUSH2 0x100 EXP SWAP1 DIV PUSH20 0xFFFFFFFFFFFFFFFFFFFFFFFFFFFFFFFFFFFFFFFF AND PUSH20 0xFFFFFFFFFFFFFFFFFFFFFFFFFFFFFFFFFFFFFFFF AND PUSH20 0xFFFFFFFFFFFFFFFFFFFFFFFFFFFFFFFFFFFFFFFF AND DUP2 MSTORE PUSH1 0x20 ADD SWAP1 DUP2 MSTORE PUSH1 0x20 ADD PUSH1 0x0 KECCAK256 SLOAD EQ DUP1 ISZERO PUSH2 0x1BA0 JUMPI POP NUMBER PUSH1 0x8 SLOAD LT JUMPDEST ISZERO PUSH2 0x1C19 JUMPI DUP1 NUMBER ADD PUSH1 0x13 PUSH1 0x0 PUSH1 0xE PUSH1 0x0 SWAP1 SLOAD SWAP1 PUSH2 0x100 EXP SWAP1 DIV PUSH20 0xFFFFFFFFFFFFFFFFFFFFFFFFFFFFFFFFFFFFFFFF AND PUSH20 0xFFFFFFFFFFFFFFFFFFFFFFFFFFFFFFFFFFFFFFFF AND PUSH20 0xFFFFFFFFFFFFFFFFFFFFFFFFFFFFFFFFFFFFFFFF AND DUP2 MSTORE PUSH1 0x20 ADD SWAP1 DUP2 MSTORE PUSH1 0x20 ADD PUSH1 0x0 KECCAK256 DUP2 SWAP1 SSTORE POP NUMBER PUSH1 0x7 DUP2 SWAP1 SSTORE POP PUSH2 0x1FC6 JUMP JUMPDEST PUSH1 0x0 PUSH1 0x13 PUSH1 0x0 PUSH1 0xE PUSH1 0x0 SWAP1 SLOAD SWAP1 PUSH2 0x100 EXP SWAP1 DIV PUSH20 0xFFFFFFFFFFFFFFFFFFFFFFFFFFFFFFFFFFFFFFFF AND PUSH20 0xFFFFFFFFFFFFFFFFFFFFFFFFFFFFFFFFFFFFFFFF AND PUSH20 0xFFFFFFFFFFFFFFFFFFFFFFFFFFFFFFFFFFFFFFFF AND DUP2 MSTORE PUSH1 0x20 ADD SWAP1 DUP2 MSTORE PUSH1 0x20 ADD PUSH1 0x0 KECCAK256 SLOAD EQ DUP1 ISZERO PUSH2 0x1C8B JUMPI POP NUMBER PUSH1 0x8 SLOAD GT JUMPDEST ISZERO PUSH2 0x1D08 JUMPI DUP1 PUSH1 0x8 SLOAD ADD PUSH1 0x13 PUSH1 0x0 PUSH1 0xE PUSH1 0x0 SWAP1 SLOAD SWAP1 PUSH2 0x100 EXP SWAP1 DIV PUSH20 0xFFFFFFFFFFFFFFFFFFFFFFFFFFFFFFFFFFFFFFFF AND PUSH20 0xFFFFFFFFFFFFFFFFFFFFFFFFFFFFFFFFFFFFFFFF AND PUSH20 0xFFFFFFFFFFFFFFFFFFFFFFFFFFFFFFFFFFFFFFFF AND DUP2 MSTORE PUSH1 0x20 ADD SWAP1 DUP2 MSTORE PUSH1 0x20 ADD PUSH1 0x0 KECCAK256 DUP2 SWAP1 SSTORE POP PUSH1 0x8 SLOAD PUSH1 0x7 DUP2 SWAP1 SSTORE POP PUSH2 0x1FC5 JUMP JUMPDEST NUMBER PUSH1 0x13 PUSH1 0x0 PUSH1 0xE PUSH1 0x0 SWAP1 SLOAD SWAP1 PUSH2 0x100 EXP SWAP1 DIV PUSH20 0xFFFFFFFFFFFFFFFFFFFFFFFFFFFFFFFFFFFFFFFF AND PUSH20 0xFFFFFFFFFFFFFFFFFFFFFFFFFFFFFFFFFFFFFFFF AND PUSH20 0xFFFFFFFFFFFFFFFFFFFFFFFFFFFFFFFFFFFFFFFF AND DUP2 MSTORE PUSH1 0x20 ADD SWAP1 DUP2 MSTORE PUSH1 0x20 ADD PUSH1 0x0 KECCAK256 SLOAD GT ISZERO PUSH2 0x1DEE JUMPI DUP1 PUSH1 0x13 PUSH1 0x0 PUSH1 0xE PUSH1 0x0 SWAP1 SLOAD SWAP1 PUSH2 0x100 EXP SWAP1 DIV PUSH20 0xFFFFFFFFFFFFFFFFFFFFFFFFFFFFFFFFFFFFFFFF AND PUSH20 0xFFFFFFFFFFFFFFFFFFFFFFFFFFFFFFFFFFFFFFFF AND PUSH20 0xFFFFFFFFFFFFFFFFFFFFFFFFFFFFFFFFFFFFFFFF AND DUP2 MSTORE PUSH1 0x20 ADD SWAP1 DUP2 MSTORE PUSH1 0x20 ADD PUSH1 0x0 KECCAK256 PUSH1 0x0 DUP3 DUP3 SLOAD ADD SWAP3 POP POP DUP2 SWAP1 SSTORE POP PUSH1 0x8 SLOAD PUSH1 0x7 DUP2 SWAP1 SSTORE POP PUSH2 0x1FC4 JUMP JUMPDEST NUMBER PUSH1 0x13 PUSH1 0x0 PUSH1 0xE PUSH1 0x0 SWAP1 SLOAD SWAP1 PUSH2 0x100 EXP SWAP1 DIV PUSH20 0xFFFFFFFFFFFFFFFFFFFFFFFFFFFFFFFFFFFFFFFF AND PUSH20 0xFFFFFFFFFFFFFFFFFFFFFFFFFFFFFFFFFFFFFFFF AND PUSH20 0xFFFFFFFFFFFFFFFFFFFFFFFFFFFFFFFFFFFFFFFF AND DUP2 MSTORE PUSH1 0x20 ADD SWAP1 DUP2 MSTORE PUSH1 0x20 ADD PUSH1 0x0 KECCAK256 SLOAD LT DUP1 ISZERO PUSH2 0x1E5F JUMPI POP NUMBER PUSH1 0x8 SLOAD GT JUMPDEST ISZERO PUSH2 0x1EDC JUMPI DUP1 PUSH1 0x8 SLOAD ADD PUSH1 0x13 PUSH1 0x0 PUSH1 0xE PUSH1 0x0 SWAP1 SLOAD SWAP1 PUSH2 0x100 EXP SWAP1 DIV PUSH20 0xFFFFFFFFFFFFFFFFFFFFFFFFFFFFFFFFFFFFFFFF AND PUSH20 0xFFFFFFFFFFFFFFFFFFFFFFFFFFFFFFFFFFFFFFFF AND PUSH20 0xFFFFFFFFFFFFFFFFFFFFFFFFFFFFFFFFFFFFFFFF AND DUP2 MSTORE PUSH1 0x20 ADD SWAP1 DUP2 MSTORE PUSH1 0x20 ADD PUSH1 0x0 KECCAK256 DUP2 SWAP1 SSTORE POP PUSH1 0x8 SLOAD PUSH1 0x7 DUP2 SWAP1 SSTORE POP PUSH2 0x1FC3 JUMP JUMPDEST NUMBER PUSH1 0x13 PUSH1 0x0 PUSH1 0xE PUSH1 0x0 SWAP1 SLOAD SWAP1 PUSH2 0x100 EXP SWAP1 DIV PUSH20 0xFFFFFFFFFFFFFFFFFFFFFFFFFFFFFFFFFFFFFFFF AND PUSH20 0xFFFFFFFFFFFFFFFFFFFFFFFFFFFFFFFFFFFFFFFF AND PUSH20 0xFFFFFFFFFFFFFFFFFFFFFFFFFFFFFFFFFFFFFFFF AND DUP2 MSTORE PUSH1 0x20 ADD SWAP1 DUP2 MSTORE PUSH1 0x20 ADD PUSH1 0x0 KECCAK256 SLOAD LT DUP1 ISZERO PUSH2 0x1F4D JUMPI POP NUMBER PUSH1 0x8 SLOAD LT JUMPDEST ISZERO PUSH2 0x1FC2 JUMPI DUP1 NUMBER ADD PUSH1 0x13 PUSH1 0x0 PUSH1 0xE PUSH1 0x0 SWAP1 SLOAD SWAP1 PUSH2 0x100 EXP SWAP1 DIV PUSH20 0xFFFFFFFFFFFFFFFFFFFFFFFFFFFFFFFFFFFFFFFF AND PUSH20 0xFFFFFFFFFFFFFFFFFFFFFFFFFFFFFFFFFFFFFFFF AND PUSH20 0xFFFFFFFFFFFFFFFFFFFFFFFFFFFFFFFFFFFFFFFF AND DUP2 MSTORE PUSH1 0x20 ADD SWAP1 DUP2 MSTORE PUSH1 0x20 ADD PUSH1 0x0 KECCAK256 DUP2 SWAP1 SSTORE POP NUMBER PUSH1 0x7 DUP2 SWAP1 SSTORE POP JUMPDEST JUMPDEST JUMPDEST JUMPDEST JUMPDEST PUSH1 0x13 PUSH1 0x0 PUSH1 0xE PUSH1 0x0 SWAP1 SLOAD SWAP1 PUSH2 0x100 EXP SWAP1 DIV PUSH20 0xFFFFFFFFFFFFFFFFFFFFFFFFFFFFFFFFFFFFFFFF AND PUSH20 0xFFFFFFFFFFFFFFFFFFFFFFFFFFFFFFFFFFFFFFFF AND PUSH20 0xFFFFFFFFFFFFFFFFFFFFFFFFFFFFFFFFFFFFFFFF AND DUP2 MSTORE PUSH1 0x20 ADD SWAP1 DUP2 MSTORE PUSH1 0x20 ADD PUSH1 0x0 KECCAK256 SLOAD PUSH1 0x8 DUP2 SWAP1 SSTORE POP PUSH32 0xED0BCF6E75DAFAE47CCED3978B084C050054931A5B61248517A6D69B00641AA6 TIMESTAMP CALLER CALLVALUE PUSH1 0x9 SLOAD PUSH1 0x9 SLOAD CALLVALUE SUB PUSH1 0x7 SLOAD PUSH1 0x8 SLOAD PUSH1 0x40 MLOAD DUP1 DUP9 DUP2 MSTORE PUSH1 0x20 ADD DUP8 PUSH20 0xFFFFFFFFFFFFFFFFFFFFFFFFFFFFFFFFFFFFFFFF AND DUP2 MSTORE PUSH1 0x20 ADD DUP7 DUP2 MSTORE PUSH1 0x20 ADD DUP6 DUP2 MSTORE PUSH1 0x20 ADD DUP5 DUP2 MSTORE PUSH1 0x20 ADD DUP4 DUP2 MSTORE PUSH1 0x20 ADD DUP3 DUP2 MSTORE PUSH1 0x20 ADD SWAP8 POP POP POP POP POP POP POP POP PUSH1 0x40 MLOAD DUP1 SWAP2 SUB SWAP1 LOG1 POP POP POP JUMP JUMPDEST PUSH1 0x10 PUSH1 0x20 MSTORE DUP1 PUSH1 0x0 MSTORE PUSH1 0x40 PUSH1 0x0 KECCAK256 PUSH1 0x0 SWAP2 POP SWAP1 POP SLOAD DUP2 JUMP JUMPDEST PUSH1 0x5 SLOAD DUP2 JUMP JUMPDEST PUSH1 0x8 SLOAD DUP2 JUMP JUMPDEST PUSH1 0x0 PUSH1 0x3 SWAP1 SLOAD SWAP1 PUSH2 0x100 EXP SWAP1 DIV PUSH1 0xFF AND DUP2 JUMP JUMPDEST PUSH1 0xB DUP1 SLOAD PUSH1 0x1 DUP2 PUSH1 0x1 AND ISZERO PUSH2 0x100 MUL SUB AND PUSH1 0x2 SWAP1 DIV DUP1 PUSH1 0x1F ADD PUSH1 0x20 DUP1 SWAP2 DIV MUL PUSH1 0x20 ADD PUSH1 0x40 MLOAD SWAP1 DUP2 ADD PUSH1 0x40 MSTORE DUP1 SWAP3 SWAP2 SWAP1 DUP2 DUP2 MSTORE PUSH1 0x20 ADD DUP3 DUP1 SLOAD PUSH1 0x1 DUP2 PUSH1 0x1 AND ISZERO PUSH2 0x100 MUL SUB AND PUSH1 0x2 SWAP1 DIV DUP1 ISZERO PUSH2 0x2187 JUMPI DUP1 PUSH1 0x1F LT PUSH2 0x215C JUMPI PUSH2 0x100 DUP1 DUP4 SLOAD DIV MUL DUP4 MSTORE SWAP2 PUSH1 0x20 ADD SWAP2 PUSH2 0x2187 JUMP JUMPDEST DUP3 ADD SWAP2 SWAP1 PUSH1 0x0 MSTORE PUSH1 0x20 PUSH1 0x0 KECCAK256 SWAP1 JUMPDEST DUP2 SLOAD DUP2 MSTORE SWAP1 PUSH1 0x1 ADD SWAP1 PUSH1 0x20 ADD DUP1 DUP4 GT PUSH2 0x216A JUMPI DUP3 SWAP1 SUB PUSH1 0x1F AND DUP3 ADD SWAP2 JUMPDEST POP POP POP POP POP DUP2 JUMP JUMPDEST PUSH1 0x3 SLOAD DUP2 JUMP JUMPDEST PUSH1 0x0 PUSH1 0x2 SWAP1 SLOAD SWAP1 PUSH2 0x100 EXP SWAP1 DIV PUSH1 0xFF AND DUP2 JUMP JUMPDEST PUSH1 0x1 SLOAD DUP2 JUMP JUMPDEST PUSH1 0xD PUSH1 0x0 SWAP1 SLOAD SWAP1 PUSH2 0x100 EXP SWAP1 DIV PUSH20 0xFFFFFFFFFFFFFFFFFFFFFFFFFFFFFFFFFFFFFFFF AND PUSH20 0xFFFFFFFFFFFFFFFFFFFFFFFFFFFFFFFFFFFFFFFF AND CALLER PUSH20 0xFFFFFFFFFFFFFFFFFFFFFFFFFFFFFFFFFFFFFFFF AND EQ PUSH2 0x2208 JUMPI PUSH1 0x0 DUP1 REVERT JUMPDEST DUP1 PUSH1 0x4 DUP2 SWAP1 SSTORE POP PUSH32 0x1C0501A0159C81AD08156852DA610A4651DB498B9140FD2978130A2AD4817A9 PUSH1 0x4 SLOAD PUSH1 0x40 MLOAD DUP1 DUP3 DUP2 MSTORE PUSH1 0x20 ADD SWAP2 POP POP PUSH1 0x40 MLOAD DUP1 SWAP2 SUB SWAP1 LOG1 POP JUMP JUMPDEST PUSH1 0x6 SLOAD DUP2 JUMP JUMPDEST PUSH1 0x0 DUP1 PUSH2 0x225D DUP5 PUSH2 0x2C04 JUMP JUMPDEST POP SWAP1 POP DUP1 PUSH2 0x226A JUMPI PUSH1 0x0 DUP1 REVERT JUMPDEST DUP3 PUSH1 0x11 PUSH1 0x0 CALLER PUSH20 0xFFFFFFFFFFFFFFFFFFFFFFFFFFFFFFFFFFFFFFFF AND PUSH20 0xFFFFFFFFFFFFFFFFFFFFFFFFFFFFFFFFFFFFFFFF AND DUP2 MSTORE PUSH1 0x20 ADD SWAP1 DUP2 MSTORE PUSH1 0x20 ADD PUSH1 0x0 KECCAK256 SLOAD LT ISZERO PUSH2 0x22B6 JUMPI PUSH1 0x0 DUP1 REVERT JUMPDEST DUP3 PUSH1 0x11 PUSH1 0x0 CALLER PUSH20 0xFFFFFFFFFFFFFFFFFFFFFFFFFFFFFFFFFFFFFFFF AND PUSH20 0xFFFFFFFFFFFFFFFFFFFFFFFFFFFFFFFFFFFFFFFF AND DUP2 MSTORE PUSH1 0x20 ADD SWAP1 DUP2 MSTORE PUSH1 0x20 ADD PUSH1 0x0 KECCAK256 PUSH1 0x0 DUP3 DUP3 SLOAD SUB SWAP3 POP POP DUP2 SWAP1 SSTORE POP DUP3 PUSH1 0x11 PUSH1 0x0 DUP7 PUSH20 0xFFFFFFFFFFFFFFFFFFFFFFFFFFFFFFFFFFFFFFFF AND PUSH20 0xFFFFFFFFFFFFFFFFFFFFFFFFFFFFFFFFFFFFFFFF AND DUP2 MSTORE PUSH1 0x20 ADD SWAP1 DUP2 MSTORE PUSH1 0x20 ADD PUSH1 0x0 KECCAK256 PUSH1 0x0 DUP3 DUP3 SLOAD ADD SWAP3 POP POP DUP2 SWAP1 SSTORE POP DUP4 PUSH20 0xFFFFFFFFFFFFFFFFFFFFFFFFFFFFFFFFFFFFFFFF AND CALLER PUSH20 0xFFFFFFFFFFFFFFFFFFFFFFFFFFFFFFFFFFFFFFFF AND PUSH32 0xF65B362DEE26383A16FAB495D027C962695FD9F6B89F5EECE76DED00C8223A2D DUP6 PUSH1 0x40 MLOAD DUP1 DUP3 DUP2 MSTORE PUSH1 0x20 ADD SWAP2 POP POP PUSH1 0x40 MLOAD DUP1 SWAP2 SUB SWAP1 LOG3 PUSH1 0x1 SWAP2 POP POP SWAP3 SWAP2 POP POP JUMP JUMPDEST PUSH1 0xE PUSH1 0x0 SWAP1 SLOAD SWAP1 PUSH2 0x100 EXP SWAP1 DIV PUSH20 0xFFFFFFFFFFFFFFFFFFFFFFFFFFFFFFFFFFFFFFFF AND DUP2 JUMP JUMPDEST PUSH1 0x0 PUSH1 0x11 PUSH1 0x0 DUP4 PUSH20 0xFFFFFFFFFFFFFFFFFFFFFFFFFFFFFFFFFFFFFFFF AND PUSH20 0xFFFFFFFFFFFFFFFFFFFFFFFFFFFFFFFFFFFFFFFF AND DUP2 MSTORE PUSH1 0x20 ADD SWAP1 DUP2 MSTORE PUSH1 0x20 ADD PUSH1 0x0 KECCAK256 SLOAD SWAP1 POP SWAP2 SWAP1 POP JUMP JUMPDEST PUSH1 0xC PUSH1 0x0 SWAP1 SLOAD SWAP1 PUSH2 0x100 EXP SWAP1 DIV PUSH20 0xFFFFFFFFFFFFFFFFFFFFFFFFFFFFFFFFFFFFFFFF AND PUSH20 0xFFFFFFFFFFFFFFFFFFFFFFFFFFFFFFFFFFFFFFFF AND CALLER PUSH20 0xFFFFFFFFFFFFFFFFFFFFFFFFFFFFFFFFFFFFFFFF AND EQ PUSH2 0x2489 JUMPI PUSH1 0x0 DUP1 REVERT JUMPDEST PUSH1 0x64 DUP2 PUSH1 0xFF AND GT ISZERO PUSH2 0x24E6 JUMPI PUSH1 0x40 MLOAD PUSH32 0x8C379A000000000000000000000000000000000000000000000000000000000 DUP2 MSTORE PUSH1 0x4 ADD DUP1 DUP1 PUSH1 0x20 ADD DUP3 DUP2 SUB DUP3 MSTORE PUSH1 0x24 DUP2 MSTORE PUSH1 0x20 ADD DUP1 PUSH2 0x305D PUSH1 0x24 SWAP2 CODECOPY PUSH1 0x40 ADD SWAP2 POP POP PUSH1 0x40 MLOAD DUP1 SWAP2 SUB SWAP1 REVERT JUMPDEST DUP1 PUSH1 0x0 PUSH1 0x2 PUSH2 0x100 EXP DUP2 SLOAD DUP2 PUSH1 0xFF MUL NOT AND SWAP1 DUP4 PUSH1 0xFF AND MUL OR SWAP1 SSTORE POP PUSH32 0x945421BAF50AFF36CDD701534D69B85E9C3DA3BE3505F8FCC971D3F067C04243 PUSH1 0x0 PUSH1 0x2 SWAP1 SLOAD SWAP1 PUSH2 0x100 EXP SWAP1 DIV PUSH1 0xFF AND PUSH1 0x40 MLOAD DUP1 DUP3 PUSH1 0xFF AND DUP2 MSTORE PUSH1 0x20 ADD SWAP2 POP POP PUSH1 0x40 MLOAD DUP1 SWAP2 SUB SWAP1 LOG1 POP JUMP JUMPDEST PUSH1 0x0 DUP1 PUSH1 0x12 PUSH1 0x0 DUP7 PUSH20 0xFFFFFFFFFFFFFFFFFFFFFFFFFFFFFFFFFFFFFFFF AND PUSH20 0xFFFFFFFFFFFFFFFFFFFFFFFFFFFFFFFFFFFFFFFF AND DUP2 MSTORE PUSH1 0x20 ADD SWAP1 DUP2 MSTORE PUSH1 0x20 ADD PUSH1 0x0 KECCAK256 PUSH1 0x0 CALLER PUSH20 0xFFFFFFFFFFFFFFFFFFFFFFFFFFFFFFFFFFFFFFFF AND PUSH20 0xFFFFFFFFFFFFFFFFFFFFFFFFFFFFFFFFFFFFFFFF AND DUP2 MSTORE PUSH1 0x20 ADD SWAP1 DUP2 MSTORE PUSH1 0x20 ADD PUSH1 0x0 KECCAK256 SLOAD SWAP1 POP DUP3 PUSH1 0x11 PUSH1 0x0 DUP8 PUSH20 0xFFFFFFFFFFFFFFFFFFFFFFFFFFFFFFFFFFFFFFFF AND PUSH20 0xFFFFFFFFFFFFFFFFFFFFFFFFFFFFFFFFFFFFFFFF AND DUP2 MSTORE PUSH1 0x20 ADD SWAP1 DUP2 MSTORE PUSH1 0x20 ADD PUSH1 0x0 KECCAK256 SLOAD LT ISZERO DUP1 ISZERO PUSH2 0x261E JUMPI POP DUP3 DUP2 LT ISZERO JUMPDEST PUSH2 0x2627 JUMPI PUSH1 0x0 DUP1 REVERT JUMPDEST DUP3 PUSH1 0x11 PUSH1 0x0 DUP7 PUSH20 0xFFFFFFFFFFFFFFFFFFFFFFFFFFFFFFFFFFFFFFFF AND PUSH20 0xFFFFFFFFFFFFFFFFFFFFFFFFFFFFFFFFFFFFFFFF AND DUP2 MSTORE PUSH1 0x20 ADD SWAP1 DUP2 MSTORE PUSH1 0x20 ADD PUSH1 0x0 KECCAK256 PUSH1 0x0 DUP3 DUP3 SLOAD ADD SWAP3 POP POP DUP2 SWAP1 SSTORE POP DUP3 PUSH1 0x11 PUSH1 0x0 DUP8 PUSH20 0xFFFFFFFFFFFFFFFFFFFFFFFFFFFFFFFFFFFFFFFF AND PUSH20 0xFFFFFFFFFFFFFFFFFFFFFFFFFFFFFFFFFFFFFFFF AND DUP2 MSTORE PUSH1 0x20 ADD SWAP1 DUP2 MSTORE PUSH1 0x20 ADD PUSH1 0x0 KECCAK256 PUSH1 0x0 DUP3 DUP3 SLOAD SUB SWAP3 POP POP DUP2 SWAP1 SSTORE POP PUSH32 0xFFFFFFFFFFFFFFFFFFFFFFFFFFFFFFFFFFFFFFFFFFFFFFFFFFFFFFFFFFFFFFFF DUP2 LT ISZERO PUSH2 0x2774 JUMPI DUP3 PUSH1 0x12 PUSH1 0x0 DUP8 PUSH20 0xFFFFFFFFFFFFFFFFFFFFFFFFFFFFFFFFFFFFFFFF AND PUSH20 0xFFFFFFFFFFFFFFFFFFFFFFFFFFFFFFFFFFFFFFFF AND DUP2 MSTORE PUSH1 0x20 ADD SWAP1 DUP2 MSTORE PUSH1 0x20 ADD PUSH1 0x0 KECCAK256 PUSH1 0x0 CALLER PUSH20 0xFFFFFFFFFFFFFFFFFFFFFFFFFFFFFFFFFFFFFFFF AND PUSH20 0xFFFFFFFFFFFFFFFFFFFFFFFFFFFFFFFFFFFFFFFF AND DUP2 MSTORE PUSH1 0x20 ADD SWAP1 DUP2 MSTORE PUSH1 0x20 ADD PUSH1 0x0 KECCAK256 PUSH1 0x0 DUP3 DUP3 SLOAD SUB SWAP3 POP POP DUP2 SWAP1 SSTORE POP JUMPDEST DUP4 PUSH20 0xFFFFFFFFFFFFFFFFFFFFFFFFFFFFFFFFFFFFFFFF AND DUP6 PUSH20 0xFFFFFFFFFFFFFFFFFFFFFFFFFFFFFFFFFFFFFFFF AND PUSH32 0xA4C1382703D8DFD8F268BE7FE05F096F71F7058B19DE5F2BE32AF150B8C424C4 DUP6 PUSH1 0x40 MLOAD DUP1 DUP3 DUP2 MSTORE PUSH1 0x20 ADD SWAP2 POP POP PUSH1 0x40 MLOAD DUP1 SWAP2 SUB SWAP1 LOG3 PUSH1 0x1 SWAP2 POP POP SWAP4 SWAP3 POP POP POP JUMP JUMPDEST PUSH1 0x11 PUSH1 0x20 MSTORE DUP1 PUSH1 0x0 MSTORE PUSH1 0x40 PUSH1 0x0 KECCAK256 PUSH1 0x0 SWAP2 POP SWAP1 POP SLOAD DUP2 JUMP JUMPDEST PUSH1 0x14 PUSH1 0x20 MSTORE DUP1 PUSH1 0x0 MSTORE PUSH1 0x40 PUSH1 0x0 KECCAK256 PUSH1 0x0 SWAP2 POP SWAP1 POP SLOAD DUP2 JUMP JUMPDEST PUSH1 0xC PUSH1 0x0 SWAP1 SLOAD SWAP1 PUSH2 0x100 EXP SWAP1 DIV PUSH20 0xFFFFFFFFFFFFFFFFFFFFFFFFFFFFFFFFFFFFFFFF AND PUSH20 0xFFFFFFFFFFFFFFFFFFFFFFFFFFFFFFFFFFFFFFFF AND CALLER PUSH20 0xFFFFFFFFFFFFFFFFFFFFFFFFFFFFFFFFFFFFFFFF AND EQ PUSH2 0x286F JUMPI PUSH1 0x0 DUP1 REVERT JUMPDEST PUSH1 0x0 PUSH1 0x5 SLOAD SWAP1 POP PUSH1 0x0 JUMPDEST PUSH1 0xF DUP1 SLOAD SWAP1 POP DUP2 LT ISZERO PUSH2 0x2A1B JUMPI PUSH1 0x0 PUSH1 0xF DUP3 DUP2 SLOAD DUP2 LT PUSH2 0x2895 JUMPI INVALID JUMPDEST SWAP1 PUSH1 0x0 MSTORE PUSH1 0x20 PUSH1 0x0 KECCAK256 ADD PUSH1 0x0 SWAP1 SLOAD SWAP1 PUSH2 0x100 EXP SWAP1 DIV PUSH20 0xFFFFFFFFFFFFFFFFFFFFFFFFFFFFFFFFFFFFFFFF AND SWAP1 POP PUSH1 0x0 PUSH2 0x28CD DUP3 PUSH2 0x23E6 JUMP JUMPDEST SWAP1 POP PUSH1 0x0 DUP2 PUSH1 0x2 SLOAD DUP7 DUP2 PUSH2 0x28DD JUMPI INVALID JUMPDEST DIV MUL SWAP1 POP DUP1 PUSH1 0x5 SLOAD SUB PUSH1 0x5 DUP2 SWAP1 SSTORE POP DUP1 PUSH1 0x10 PUSH1 0x0 DUP6 PUSH20 0xFFFFFFFFFFFFFFFFFFFFFFFFFFFFFFFFFFFFFFFF AND PUSH20 0xFFFFFFFFFFFFFFFFFFFFFFFFFFFFFFFFFFFFFFFF AND DUP2 MSTORE PUSH1 0x20 ADD SWAP1 DUP2 MSTORE PUSH1 0x20 ADD PUSH1 0x0 KECCAK256 SLOAD ADD PUSH1 0x10 PUSH1 0x0 DUP6 PUSH20 0xFFFFFFFFFFFFFFFFFFFFFFFFFFFFFFFFFFFFFFFF AND PUSH20 0xFFFFFFFFFFFFFFFFFFFFFFFFFFFFFFFFFFFFFFFF AND DUP2 MSTORE PUSH1 0x20 ADD SWAP1 DUP2 MSTORE PUSH1 0x20 ADD PUSH1 0x0 KECCAK256 DUP2 SWAP1 SSTORE POP PUSH32 0xEA08F10BE57AB8257F730DF5853ED8EB8726227C896C3BD660FCE914769BCAB4 DUP4 DUP3 PUSH1 0x10 PUSH1 0x0 DUP8 PUSH20 0xFFFFFFFFFFFFFFFFFFFFFFFFFFFFFFFFFFFFFFFF AND PUSH20 0xFFFFFFFFFFFFFFFFFFFFFFFFFFFFFFFFFFFFFFFF AND DUP2 MSTORE PUSH1 0x20 ADD SWAP1 DUP2 MSTORE PUSH1 0x20 ADD PUSH1 0x0 KECCAK256 SLOAD PUSH1 0x40 MLOAD DUP1 DUP5 PUSH20 0xFFFFFFFFFFFFFFFFFFFFFFFFFFFFFFFFFFFFFFFF AND DUP2 MSTORE PUSH1 0x20 ADD DUP4 DUP2 MSTORE PUSH1 0x20 ADD DUP3 DUP2 MSTORE PUSH1 0x20 ADD SWAP4 POP POP POP POP PUSH1 0x40 MLOAD DUP1 SWAP2 SUB SWAP1 LOG1 POP POP POP PUSH1 0x1 DUP2 ADD SWAP1 POP PUSH2 0x2879 JUMP JUMPDEST POP POP JUMP JUMPDEST PUSH1 0xC PUSH1 0x0 SWAP1 SLOAD SWAP1 PUSH2 0x100 EXP SWAP1 DIV PUSH20 0xFFFFFFFFFFFFFFFFFFFFFFFFFFFFFFFFFFFFFFFF AND PUSH20 0xFFFFFFFFFFFFFFFFFFFFFFFFFFFFFFFFFFFFFFFF AND CALLER PUSH20 0xFFFFFFFFFFFFFFFFFFFFFFFFFFFFFFFFFFFFFFFF AND EQ PUSH2 0x2A79 JUMPI PUSH1 0x0 DUP1 REVERT JUMPDEST PUSH1 0x0 PUSH2 0x2A84 DUP3 PUSH2 0x2C04 JUMP JUMPDEST POP SWAP1 POP DUP1 PUSH2 0x2AF0 JUMPI PUSH1 0xF DUP3 SWAP1 DUP1 PUSH1 0x1 DUP2 SLOAD ADD DUP1 DUP3 SSTORE DUP1 SWAP2 POP POP PUSH1 0x1 SWAP1 SUB SWAP1 PUSH1 0x0 MSTORE PUSH1 0x20 PUSH1 0x0 KECCAK256 ADD PUSH1 0x0 SWAP1 SWAP2 SWAP1 SWAP2 SWAP1 SWAP2 PUSH2 0x100 EXP DUP2 SLOAD DUP2 PUSH20 0xFFFFFFFFFFFFFFFFFFFFFFFFFFFFFFFFFFFFFFFF MUL NOT AND SWAP1 DUP4 PUSH20 0xFFFFFFFFFFFFFFFFFFFFFFFFFFFFFFFFFFFFFFFF AND MUL OR SWAP1 SSTORE POP JUMPDEST PUSH32 0xFFFFFFFFFFFFFFFFFFFFFFFFFFFFFFFFFFFFFFFFFFFFFFFFFFFFFFFFFFFFFFFF PUSH1 0x12 PUSH1 0x0 DUP5 PUSH20 0xFFFFFFFFFFFFFFFFFFFFFFFFFFFFFFFFFFFFFFFF AND PUSH20 0xFFFFFFFFFFFFFFFFFFFFFFFFFFFFFFFFFFFFFFFF AND DUP2 MSTORE PUSH1 0x20 ADD SWAP1 DUP2 MSTORE PUSH1 0x20 ADD PUSH1 0x0 KECCAK256 PUSH1 0x0 PUSH1 0xC PUSH1 0x0 SWAP1 SLOAD SWAP1 PUSH2 0x100 EXP SWAP1 DIV PUSH20 0xFFFFFFFFFFFFFFFFFFFFFFFFFFFFFFFFFFFFFFFF AND PUSH20 0xFFFFFFFFFFFFFFFFFFFFFFFFFFFFFFFFFFFFFFFF AND PUSH20 0xFFFFFFFFFFFFFFFFFFFFFFFFFFFFFFFFFFFFFFFF AND DUP2 MSTORE PUSH1 0x20 ADD SWAP1 DUP2 MSTORE PUSH1 0x20 ADD PUSH1 0x0 KECCAK256 DUP2 SWAP1 SSTORE POP PUSH32 0xBF0D83A1AED38E16F3AFA9A5FDC87D08590574FE387B21095FB0A7E643F803B1 DUP3 PUSH1 0x40 MLOAD DUP1 DUP3 PUSH20 0xFFFFFFFFFFFFFFFFFFFFFFFFFFFFFFFFFFFFFFFF AND DUP2 MSTORE PUSH1 0x20 ADD SWAP2 POP POP PUSH1 0x40 MLOAD DUP1 SWAP2 SUB SWAP1 LOG1 POP POP JUMP JUMPDEST PUSH1 0x0 DUP1 PUSH1 0x0 JUMPDEST PUSH1 0xF DUP1 SLOAD SWAP1 POP DUP2 LT ISZERO PUSH2 0x2C9A JUMPI PUSH1 0xF DUP2 DUP2 SLOAD DUP2 LT PUSH2 0x2C24 JUMPI INVALID JUMPDEST SWAP1 PUSH1 0x0 MSTORE PUSH1 0x20 PUSH1 0x0 KECCAK256 ADD PUSH1 0x0 SWAP1 SLOAD SWAP1 PUSH2 0x100 EXP SWAP1 DIV PUSH20 0xFFFFFFFFFFFFFFFFFFFFFFFFFFFFFFFFFFFFFFFF AND PUSH20 0xFFFFFFFFFFFFFFFFFFFFFFFFFFFFFFFFFFFFFFFF AND DUP5 PUSH20 0xFFFFFFFFFFFFFFFFFFFFFFFFFFFFFFFFFFFFFFFF AND EQ ISZERO PUSH2 0x2C8F JUMPI PUSH1 0x1 DUP2 SWAP3 POP SWAP3 POP POP PUSH2 0x2CA3 JUMP JUMPDEST PUSH1 0x1 DUP2 ADD SWAP1 POP PUSH2 0x2C0A JUMP JUMPDEST POP PUSH1 0x0 DUP1 SWAP2 POP SWAP2 POP JUMPDEST SWAP2 POP SWAP2 JUMP JUMPDEST PUSH1 0x0 PUSH2 0x2CB3 CALLER PUSH2 0x2C04 JUMP JUMPDEST POP SWAP1 POP DUP1 PUSH2 0x2CC0 JUMPI PUSH1 0x0 DUP1 REVERT JUMPDEST PUSH1 0x15 PUSH1 0x0 DUP4 PUSH20 0xFFFFFFFFFFFFFFFFFFFFFFFFFFFFFFFFFFFFFFFF AND PUSH20 0xFFFFFFFFFFFFFFFFFFFFFFFFFFFFFFFFFFFFFFFF AND DUP2 MSTORE PUSH1 0x20 ADD SWAP1 DUP2 MSTORE PUSH1 0x20 ADD PUSH1 0x0 KECCAK256 SLOAD DUP4 MUL CALLVALUE EQ DUP1 ISZERO PUSH2 0x2D4F JUMPI POP PUSH1 0x14 PUSH1 0x0 DUP4 PUSH20 0xFFFFFFFFFFFFFFFFFFFFFFFFFFFFFFFFFFFFFFFF AND PUSH20 0xFFFFFFFFFFFFFFFFFFFFFFFFFFFFFFFFFFFFFFFF AND DUP2 MSTORE PUSH1 0x20 ADD SWAP1 DUP2 MSTORE PUSH1 0x20 ADD PUSH1 0x0 KECCAK256 SLOAD DUP4 GT ISZERO JUMPDEST DUP1 ISZERO PUSH2 0x2D9A JUMPI POP PUSH1 0x11 PUSH1 0x0 DUP4 PUSH20 0xFFFFFFFFFFFFFFFFFFFFFFFFFFFFFFFFFFFFFFFF AND PUSH20 0xFFFFFFFFFFFFFFFFFFFFFFFFFFFFFFFFFFFFFFFF AND DUP2 MSTORE PUSH1 0x20 ADD SWAP1 DUP2 MSTORE PUSH1 0x20 ADD PUSH1 0x0 KECCAK256 SLOAD DUP4 GT ISZERO JUMPDEST DUP1 ISZERO PUSH2 0x2DD2 JUMPI POP CALLER PUSH20 0xFFFFFFFFFFFFFFFFFFFFFFFFFFFFFFFFFFFFFFFF AND DUP3 PUSH20 0xFFFFFFFFFFFFFFFFFFFFFFFFFFFFFFFFFFFFFFFF AND EQ ISZERO JUMPDEST PUSH2 0x2DDB JUMPI PUSH1 0x0 DUP1 REVERT JUMPDEST DUP3 PUSH1 0x12 PUSH1 0x0 DUP5 PUSH20 0xFFFFFFFFFFFFFFFFFFFFFFFFFFFFFFFFFFFFFFFF AND PUSH20 0xFFFFFFFFFFFFFFFFFFFFFFFFFFFFFFFFFFFFFFFF AND DUP2 MSTORE PUSH1 0x20 ADD SWAP1 DUP2 MSTORE PUSH1 0x20 ADD PUSH1 0x0 KECCAK256 PUSH1 0x0 CALLER PUSH20 0xFFFFFFFFFFFFFFFFFFFFFFFFFFFFFFFFFFFFFFFF AND PUSH20 0xFFFFFFFFFFFFFFFFFFFFFFFFFFFFFFFFFFFFFFFF AND DUP2 MSTORE PUSH1 0x20 ADD SWAP1 DUP2 MSTORE PUSH1 0x20 ADD PUSH1 0x0 KECCAK256 DUP2 SWAP1 SSTORE POP PUSH2 0x2E67 DUP3 CALLER DUP6 PUSH2 0x254D JUMP JUMPDEST POP DUP3 PUSH1 0x14 PUSH1 0x0 DUP5 PUSH20 0xFFFFFFFFFFFFFFFFFFFFFFFFFFFFFFFFFFFFFFFF AND PUSH20 0xFFFFFFFFFFFFFFFFFFFFFFFFFFFFFFFFFFFFFFFF AND DUP2 MSTORE PUSH1 0x20 ADD SWAP1 DUP2 MSTORE PUSH1 0x20 ADD PUSH1 0x0 KECCAK256 PUSH1 0x0 DUP3 DUP3 SLOAD SUB SWAP3 POP POP DUP2 SWAP1 SSTORE POP DUP2 PUSH20 0xFFFFFFFFFFFFFFFFFFFFFFFFFFFFFFFFFFFFFFFF AND PUSH2 0x8FC CALLVALUE SWAP1 DUP2 ISZERO MUL SWAP1 PUSH1 0x40 MLOAD PUSH1 0x0 PUSH1 0x40 MLOAD DUP1 DUP4 SUB DUP2 DUP6 DUP9 DUP9 CALL SWAP4 POP POP POP POP ISZERO DUP1 ISZERO PUSH2 0x2EFB JUMPI RETURNDATASIZE PUSH1 0x0 DUP1 RETURNDATACOPY RETURNDATASIZE PUSH1 0x0 REVERT JUMPDEST POP PUSH32 0x2337403031E4AFE46802C69E84A928BFB1D575C9353DFFBDE39FC2AC31154E4A DUP3 CALLER DUP6 PUSH1 0x15 PUSH1 0x0 DUP8 PUSH20 0xFFFFFFFFFFFFFFFFFFFFFFFFFFFFFFFFFFFFFFFF AND PUSH20 0xFFFFFFFFFFFFFFFFFFFFFFFFFFFFFFFFFFFFFFFF AND DUP2 MSTORE PUSH1 0x20 ADD SWAP1 DUP2 MSTORE PUSH1 0x20 ADD PUSH1 0x0 KECCAK256 SLOAD PUSH1 0x40 MLOAD DUP1 DUP6 PUSH20 0xFFFFFFFFFFFFFFFFFFFFFFFFFFFFFFFFFFFFFFFF AND DUP2 MSTORE PUSH1 0x20 ADD DUP5 PUSH20 0xFFFFFFFFFFFFFFFFFFFFFFFFFFFFFFFFFFFFFFFF AND DUP2 MSTORE PUSH1 0x20 ADD DUP4 DUP2 MSTORE PUSH1 0x20 ADD DUP3 DUP2 MSTORE PUSH1 0x20 ADD SWAP5 POP POP POP POP POP PUSH1 0x40 MLOAD DUP1 SWAP2 SUB SWAP1 LOG1 POP POP POP JUMP JUMPDEST PUSH1 0x0 DUP1 SLOAD SWAP1 PUSH2 0x100 EXP SWAP1 DIV PUSH1 0xFF AND DUP2 JUMP JUMPDEST PUSH1 0x7 SLOAD DUP2 JUMP INVALID SLOAD PUSH9 0x6520656E7465726564 KECCAK256 PUSH2 0x6464 PUSH19 0x657373206973206E6F74207468652063757272 PUSH6 0x6E742074656E PUSH2 0x6E74 GASLIMIT PUSH19 0x726F722E20596F7520646F206E6F74206F776E KECCAK256 PUSH14 0x6F7265207468616E20353025206F PUSH7 0x20746865207072 PUSH16 0x706572747920746F6B656E73206F7220 PUSH26 0x6F752061726520746865206D61696E206F776E657220616C6C72 PUSH6 0x61647956616C PUSH10 0x64207461782072617465 KECCAK256 KECCAK256 0x28 ADDRESS 0x25 KECCAK256 0x2D KECCAK256 BALANCE ADDRESS ADDRESS 0x25 0x29 KECCAK256 PUSH19 0x65717569726564A264697066735822122096BD PUSH25 0x692C9D8EA933F9D33CF92C40A865BBD64B984875C23A834F22 POP BALANCE 0xE6 0xE2 PUSH5 0x736F6C6343 STOP SMOD MOD STOP CALLER "
				},
				"gasEstimates": {
					"creation": {
						"codeDepositCost": "2494000",
						"executionCost": "infinite",
						"totalCost": "infinite"
					},
					"external": {
						"SetAvgBlockTime(uint8)": "44859",
						"accumulated()": "1116",
						"addStakeholder(address)": "infinite",
						"avgBlockTime()": "1154",
						"banStakeholder(address)": "infinite",
						"blocksPer30Day()": "1072",
						"buyShares(uint256,address)": "infinite",
						"canPayRent(address)": "23948",
						"claimOwnership()": "infinite",
						"currentTenantCheck(address)": "infinite",
						"distribute()": "infinite",
						"gov()": "1160",
						"isStakeholder(address)": "infinite",
						"limitadvancedrent(uint8)": "23139",
						"mainPropertyOwner()": "1115",
						"name()": "infinite",
						"occupiedUntill()": "1138",
						"offerShares(uint256,uint256)": "infinite",
						"payRent(uint8)": "151174",
						"rentPer30Day()": "1095",
						"rentalBegin()": "1137",
						"rentalLimitBlocks()": "1139",
						"rentalLimitMonths()": "1143",
						"rentpaidUntill(address)": "1281",
						"revenues(address)": "1258",
						"seizureFrom(address,address,uint256)": "67098",
						"setRentper30Day(uint256)": "23024",
						"setTax(uint8)": "infinite",
						"shareSellPrice(address)": "1303",
						"shares(address)": "1258",
						"sharesOffered(address)": "1280",
						"showSharesOf(address)": "1329",
						"stakeholders(uint256)": "2057",
						"symbol()": "infinite",
						"tax()": "1209",
						"tenant()": "1158",
						"totalSupply()": "1140",
						"totalSupply2()": "1095",
						"transfer(address,uint256)": "infinite",
						"withdraw()": "infinite"
					}
				},
				"methodIdentifiers": {
					"SetAvgBlockTime(uint8)": "07f084e6",
					"accumulated()": "7a044323",
					"addStakeholder(address)": "e5c42fd1",
					"avgBlockTime()": "f19e1486",
					"banStakeholder(address)": "5759fb3c",
					"blocksPer30Day()": "9d8e8384",
					"buyShares(uint256,address)": "f002c9ff",
					"canPayRent(address)": "2098ea40",
					"claimOwnership()": "4e71e0c8",
					"currentTenantCheck(address)": "1034c896",
					"distribute()": "e4fc6b6d",
					"gov()": "12d43a51",
					"isStakeholder(address)": "ef037b90",
					"limitadvancedrent(uint8)": "31990c83",
					"mainPropertyOwner()": "404c5663",
					"name()": "06fdde03",
					"occupiedUntill()": "804b2de2",
					"offerShares(uint256,uint256)": "25a6eb40",
					"payRent(uint8)": "5fa8b49e",
					"rentPer30Day()": "23980a7c",
					"rentalBegin()": "fe40e492",
					"rentalLimitBlocks()": "9acb5045",
					"rentalLimitMonths()": "921d3ba4",
					"rentpaidUntill(address)": "4ff0fe9b",
					"revenues(address)": "78ae98c8",
					"seizureFrom(address,address,uint256)": "c8af0342",
					"setRentper30Day(uint256)": "9d0677f9",
					"setTax(uint8)": "c202ea4c",
					"shareSellPrice(address)": "51c791c7",
					"shares(address)": "ce7c2ac2",
					"sharesOffered(address)": "d084c4e4",
					"showSharesOf(address)": "bbaa8803",
					"stakeholders(uint256)": "1d6b8b72",
					"symbol()": "95d89b41",
					"tax()": "99c8d556",
					"tenant()": "adf07791",
					"totalSupply()": "18160ddd",
					"totalSupply2()": "96178c20",
					"transfer(address,uint256)": "a9059cbb",
					"withdraw()": "3ccfd60b"
				}
			},
			"storageLayout": {
				"storage": [
					{
						"astId": 3,
						"contract": "blockchain/real_estate_major.sol:realEstate",
						"label": "avgBlockTime",
						"offset": 0,
						"slot": "0",
						"type": "t_uint8"
					},
					{
						"astId": 5,
						"contract": "blockchain/real_estate_major.sol:realEstate",
						"label": "decimals",
						"offset": 1,
						"slot": "0",
						"type": "t_uint8"
					},
					{
						"astId": 7,
						"contract": "blockchain/real_estate_major.sol:realEstate",
						"label": "tax",
						"offset": 2,
						"slot": "0",
						"type": "t_uint8"
					},
					{
						"astId": 9,
						"contract": "blockchain/real_estate_major.sol:realEstate",
						"label": "rentalLimitMonths",
						"offset": 3,
						"slot": "0",
						"type": "t_uint8"
					},
					{
						"astId": 11,
						"contract": "blockchain/real_estate_major.sol:realEstate",
						"label": "rentalLimitBlocks",
						"offset": 0,
						"slot": "1",
						"type": "t_uint256"
					},
					{
						"astId": 20,
						"contract": "blockchain/real_estate_major.sol:realEstate",
						"label": "totalSupply",
						"offset": 0,
						"slot": "2",
						"type": "t_uint256"
					},
					{
						"astId": 22,
						"contract": "blockchain/real_estate_major.sol:realEstate",
						"label": "totalSupply2",
						"offset": 0,
						"slot": "3",
						"type": "t_uint256"
					},
					{
						"astId": 24,
						"contract": "blockchain/real_estate_major.sol:realEstate",
						"label": "rentPer30Day",
						"offset": 0,
						"slot": "4",
						"type": "t_uint256"
					},
					{
						"astId": 26,
						"contract": "blockchain/real_estate_major.sol:realEstate",
						"label": "accumulated",
						"offset": 0,
						"slot": "5",
						"type": "t_uint256"
					},
					{
						"astId": 28,
						"contract": "blockchain/real_estate_major.sol:realEstate",
						"label": "blocksPer30Day",
						"offset": 0,
						"slot": "6",
						"type": "t_uint256"
					},
					{
						"astId": 30,
						"contract": "blockchain/real_estate_major.sol:realEstate",
						"label": "rentalBegin",
						"offset": 0,
						"slot": "7",
						"type": "t_uint256"
					},
					{
						"astId": 32,
						"contract": "blockchain/real_estate_major.sol:realEstate",
						"label": "occupiedUntill",
						"offset": 0,
						"slot": "8",
						"type": "t_uint256"
					},
					{
						"astId": 34,
						"contract": "blockchain/real_estate_major.sol:realEstate",
						"label": "_taxdeduct",
						"offset": 0,
						"slot": "9",
						"type": "t_uint256"
					},
					{
						"astId": 36,
						"contract": "blockchain/real_estate_major.sol:realEstate",
						"label": "name",
						"offset": 0,
						"slot": "10",
						"type": "t_string_storage"
					},
					{
						"astId": 38,
						"contract": "blockchain/real_estate_major.sol:realEstate",
						"label": "symbol",
						"offset": 0,
						"slot": "11",
						"type": "t_string_storage"
					},
					{
						"astId": 42,
						"contract": "blockchain/real_estate_major.sol:realEstate",
						"label": "gov",
						"offset": 0,
						"slot": "12",
						"type": "t_address"
					},
					{
						"astId": 44,
						"contract": "blockchain/real_estate_major.sol:realEstate",
						"label": "mainPropertyOwner",
						"offset": 0,
						"slot": "13",
						"type": "t_address"
					},
					{
						"astId": 46,
						"contract": "blockchain/real_estate_major.sol:realEstate",
						"label": "tenant",
						"offset": 0,
						"slot": "14",
						"type": "t_address"
					},
					{
						"astId": 49,
						"contract": "blockchain/real_estate_major.sol:realEstate",
						"label": "stakeholders",
						"offset": 0,
						"slot": "15",
						"type": "t_array(t_address)dyn_storage"
					},
					{
						"astId": 53,
						"contract": "blockchain/real_estate_major.sol:realEstate",
						"label": "revenues",
						"offset": 0,
						"slot": "16",
						"type": "t_mapping(t_address,t_uint256)"
					},
					{
						"astId": 57,
						"contract": "blockchain/real_estate_major.sol:realEstate",
						"label": "shares",
						"offset": 0,
						"slot": "17",
						"type": "t_mapping(t_address,t_uint256)"
					},
					{
						"astId": 63,
						"contract": "blockchain/real_estate_major.sol:realEstate",
						"label": "allowed",
						"offset": 0,
						"slot": "18",
						"type": "t_mapping(t_address,t_mapping(t_address,t_uint256))"
					},
					{
						"astId": 67,
						"contract": "blockchain/real_estate_major.sol:realEstate",
						"label": "rentpaidUntill",
						"offset": 0,
						"slot": "19",
						"type": "t_mapping(t_address,t_uint256)"
					},
					{
						"astId": 71,
						"contract": "blockchain/real_estate_major.sol:realEstate",
						"label": "sharesOffered",
						"offset": 0,
						"slot": "20",
						"type": "t_mapping(t_address,t_uint256)"
					},
					{
						"astId": 75,
						"contract": "blockchain/real_estate_major.sol:realEstate",
						"label": "shareSellPrice",
						"offset": 0,
						"slot": "21",
						"type": "t_mapping(t_address,t_uint256)"
					}
				],
				"types": {
					"t_address": {
						"encoding": "inplace",
						"label": "address",
						"numberOfBytes": "20"
					},
					"t_array(t_address)dyn_storage": {
						"base": "t_address",
						"encoding": "dynamic_array",
						"label": "address[]",
						"numberOfBytes": "32"
					},
					"t_mapping(t_address,t_mapping(t_address,t_uint256))": {
						"encoding": "mapping",
						"key": "t_address",
						"label": "mapping(address => mapping(address => uint256))",
						"numberOfBytes": "32",
						"value": "t_mapping(t_address,t_uint256)"
					},
					"t_mapping(t_address,t_uint256)": {
						"encoding": "mapping",
						"key": "t_address",
						"label": "mapping(address => uint256)",
						"numberOfBytes": "32",
						"value": "t_uint256"
					},
					"t_string_storage": {
						"encoding": "bytes",
						"label": "string",
						"numberOfBytes": "32"
					},
					"t_uint256": {
						"encoding": "inplace",
						"label": "uint256",
						"numberOfBytes": "32"
					},
					"t_uint8": {
						"encoding": "inplace",
						"label": "uint8",
						"numberOfBytes": "1"
					}
				}
			},
			"userdoc": {
				"kind": "user",
				"methods": {},
				"version": 1
			}
		}
	}
}